Microchip Technology Inc, v1.70 (B)

Tool Name:
  c:\program files\microchip\xc16\v1.70\bin\bin\..\bin/elf-ld.exe

Command:
  -p33CK256MP508 \
  --mdfp=C:/Program Files/Microchip/MPLABX/v5.50/packs/Microchip/dsPIC33CK-MP_DFP/1.6.176/xc16 \
  -o \
  dist/default/production/boot_dsPIC33CK256MP508.X.production.elf \
  -Lc:/program files/microchip/xc16/v1.70/bin/bin/.. \
  -LC:/Program Files/Microchip/MPLABX/v5.50/packs/Microchip/dsPIC33CK-MP_DFP/1.6.176/xc16/bin/../support/dsPIC33C/gld \
  -Lc:/program files/microchip/xc16/v1.70/bin/bin/../../lib \
  -Lc:/program files/microchip/xc16/v1.70/bin/bin/../../support/PIC24E/gld \
  -Lc:/program files/microchip/xc16/v1.70/bin/bin/../../support/PIC24F/gld \
  -Lc:/program files/microchip/xc16/v1.70/bin/bin/../../support/PIC24H/gld \
  -Lc:/program files/microchip/xc16/v1.70/bin/bin/../../support/dsPIC30F/gld \
  -Lc:/program files/microchip/xc16/v1.70/bin/bin/../../support/dsPIC33C/gld \
  -Lc:/program files/microchip/xc16/v1.70/bin/bin/../../support/dsPIC33E/gld \
  -Lc:/program files/microchip/xc16/v1.70/bin/bin/../../support/dsPIC33F/gld \
  build/default/production/mcc_generated_files/boot/boot_demo.o \
  build/default/production/mcc_generated_files/boot/boot_process.o \
  build/default/production/mcc_generated_files/boot/com_adaptor_uart.o \
  build/default/production/mcc_generated_files/boot/crc32_asm.o \
  build/default/production/mcc_generated_files/boot/boot_code_protect.o \
  build/default/production/mcc_generated_files/boot/boot_verify_crc32.o \
  build/default/production/mcc_generated_files/memory/flash.o \
  build/default/production/mcc_generated_files/reset.o \
  build/default/production/mcc_generated_files/mcc.o \
  build/default/production/mcc_generated_files/uart1.o \
  build/default/production/mcc_generated_files/clock.o \
  build/default/production/mcc_generated_files/pin_manager.o \
  build/default/production/mcc_generated_files/system.o \
  build/default/production/mcc_generated_files/traps.o \
  build/default/production/mcc_generated_files/interrupt_manager.o \
  build/default/production/mcc_generated_files/tmr1.o \
  build/default/production/mcc_generated_files/delay.o \
  build/default/production/main.o \
  --local-stack \
  --defsym=__MPLAB_BUILD=1 \
  -Tp33CK256MP508.gld.00 \
  --stack=16 \
  --check-sections \
  --data-init \
  --pack-data \
  --handles \
  --isr \
  --gc-sections \
  --fill-upper=0 \
  --stackguard=16 \
  --no-force-link \
  --smart-io \
  -Map=dist/default/production/boot_dsPIC33CK256MP508.X.production.map \
  --report-mem \
  --memorysummary \
  dist/default/production/memoryfile.xml \
  --add-flags-code=boot \
  --add-flags-const=boot \
  -start-group \
  --library=lega-pic30-elf \
  --library=m-elf \
  --library=lega-c-elf \
  -end-group \


Optional library libp33CK256MP508.a not found
Archive member included because of file (symbol)

c:/program files/microchip/xc16/v1.70/bin/bin/../../lib\liblega-pic30-elf.a(crt0_extendedch.o)
                              (__resetPRI)
c:/program files/microchip/xc16/v1.70/bin/bin/../../lib\liblega-pic30-elf.a(data_init_extendedch.o)
                              c:/program files/microchip/xc16/v1.70/bin/bin/../../lib\liblega-pic30-elf.a(crt0_extendedch.o) (__data_init_extended)
c:/program files/microchip/xc16/v1.70/bin/bin/../../lib\liblega-pic30-elf.a(crt_start_mode_normalch.Leo)
                              (__crt_start_mode_normal)
c:/program files/microchip/xc16/v1.70/bin/bin/../../lib\liblega-pic30-elf.a(delay32ch.Leo)
                              build/default/production/mcc_generated_files/delay.o (___delay32)
c:/program files/microchip/xc16/v1.70/bin/bin/../../lib\liblega-c-elf.a(memcpy.CH_eo)
                              build/default/production/mcc_generated_files/boot/boot_process.o (_memcpy)
c:/program files/microchip/xc16/v1.70/bin/bin/../../lib\liblega-c-elf.a(memset.CH_eo)
                              build/default/production/mcc_generated_files/boot/com_adaptor_uart.o (_memset)


Selected CodeGuard Options:
  FSEC:BWRP:OFF
  FSEC:BSS:DISABLED
  FSEC:BSEN:ON
  FSEC:GWRP:OFF
  FSEC:GSS:DISABLED
  FSEC:CWRP:OFF
  FSEC:CSS:DISABLED
  FSEC:AIVTDIS:ON

CodeGuard FLASH Memory:
  boot    0x200 to 0x27fe
  secure  (none)
  general 0x2800 to 0x2befe

CodeGuard RAM Memory:
  general 0x1000 to 0x6fff
  secure  (none)
  boot    (none)


xc16-ld 1.70 (B)

Default Code Model: Small
Default Data Model: Large
Default Scalar Model: Small

"program" Memory  [Origin = 0x200, Length = 0x2bd00]

section                    address   length (PC units)   length (bytes) (dec)
-------                    -------   -----------------   --------------------
.const                       0x200                0x4a            0x6f  (111)
.text                        0x24a               0x4aa           0x6ff  (1791)
.text.EraseFlash             0x6f4               0x1a8           0x27c  (636)
.text.WriteFlash             0x89c               0x152           0x1fb  (507)
.NVM_flash                   0x9ee               0x150           0x1f8  (504)
.text.CalculateChecksum      0xb3e               0x14e           0x1f5  (501)
.text.ReadFlash              0xc8c               0x12e           0x1c5  (453)
.text.BOOT_Verify            0xdba               0x10a           0x18f  (399)
.isrerror_handler            0xec4                0xfc           0x17a  (378)
.init                        0xfc0                0xb2           0x10b  (267)
.text.BOOT_ProcessCommand    0x1072                0xa8            0xfc  (252)
.text.ApplicationHeaderRead    0x111a                0x98            0xe4  (228)
.text.PIN_MANAGER_Initialize    0x11b2                0x7e            0xbd  (189)
.text.CLOCK_Initialize      0x1230                0x6e            0xa5  (165)
.init                       0x129e                0x48            0x6c  (108)
.isr.text._T1Interrupt      0x12e6                0x44            0x66  (102)
.dinit                      0x132a                0x44            0x66  (102)
.text.BOOT_COM_Read         0x136e                0x42            0x63  (99)
.text.BOOT_COM_GetBytesReady    0x13b0                0x42            0x63  (99)
.text.SelfVerify            0x13f2                0x40            0x60  (96)
.text.BOOT_COM_Write        0x1432                0x3a            0x57  (87)
.text.ResetDevice           0x146c                0x30            0x48  (72)
.text.UART1_Initialize      0x149c                0x30            0x48  (72)
.text.BOOT_DEMO_Tasks       0x14cc                0x2a            0x3f  (63)
.text.IsLegalRange          0x14f6                0x2a            0x3f  (63)
.text.IsLegalAddress        0x1520                0x28            0x3c  (60)
.text.CommandError          0x1548                0x24            0x36  (54)
.text.TMR1_Initialize       0x156c                0x24            0x36  (54)
.text.UART1_IsTxReady       0x1590                0x20            0x30  (48)
.text.TMR1_CallBack         0x15b0                0x20            0x30  (48)
.text.ReadVersion           0x15d0                0x1e            0x2d  (45)
.text.UART1_Read            0x15ee                0x1e            0x2d  (45)
.text.GetMemoryAddressRange    0x160c                0x1c            0x2a  (42)
.text.UART1_IsTxDone        0x1628                0x18            0x24  (36)
.text.SYSTEM_Initialize     0x1640                0x18            0x24  (36)
.text.EnterBootloadMode     0x1658                0x16            0x21  (33)
.text.AIVTEnable            0x166e                0x16            0x21  (33)
.text.isOdd                 0x1684                0x16            0x21  (33)
.text.UART1_Write           0x169a                0x16            0x21  (33)
.text.UART1_IsRxReady       0x16b0                0x14            0x1e  (30)
.text.BOOT_StartApplication    0x16c4                0x12            0x1b  (27)
.text.SYSTEM_CORCONModeOperatingSet    0x16d6                0x12            0x1b  (27)
.text.INTERRUPT_Initialize    0x16e8                0x10            0x18  (24)
.text.TMR1_SetInterruptHandler    0x16f8                0x10            0x18  (24)
.text.main                  0x1708                0x10            0x18  (24)
.text.BOOT_COM_Peek         0x1718                 0xe            0x15  (21)
.text.use_failsafe_stack    0x1726                 0xe            0x15  (21)
.libc.memcpy                0x1734                 0xe            0x15  (21)
.libc.memset                0x1742                 0xe            0x15  (21)
.text.INTERRUPT_GlobalDisable    0x1750                 0xc            0x12  (18)
.text.INTERRUPT_GlobalEnable    0x175c                 0xc            0x12  (18)
.text.BOOT_Initialize       0x1768                 0xa             0xf  (15)
.text.TRAPS_halt_on_error    0x1772                 0xa             0xf  (15)
.text.TMR1_Stop             0x177c                 0xa             0xf  (15)
.text.Reset                 0x1786                 0x8             0xc  (12)
.text.BOOT_DEMO_Initialize    0x178e                 0x6             0x9  (9)
.isr                        0x1794                 0x4             0x6  (6)
.libpic30_crt_start_mode    0x1798                 0x2             0x3  (3)

                 Total "program" memory used (bytes):         0x2067  (8295) 3%


"data" Memory  [Origin = 0x1000, Length = 0x6000]

section                    address      alignment gaps    total length  (dec)
-------                    -------      --------------    -------------------
.nbss                       0x1000                   0             0x8  (8)
.ndata                      0x1008                   0             0x2  (2)
mcc_generated_files/boot/crc32_asm.S.scn1    0x100a                   0           0x400  (1024)
.bss                        0x140a                   0           0x328  (808)
.data                       0x1732                   0             0x4  (4)
.bss                        0x1736                   0             0x2  (2)

                 Total "data" memory used (bytes):          0x738  (1848) 7%


Dynamic Memory Usage

region                     address                      maximum length  (dec)
------                     -------                      ---------------------
heap                             0                                   0  (0)
stack                       0x1738                              0x58c8  (22728)

                 Maximum dynamic memory (bytes):         0x58c8  (22728)

Info: Project is using a large data memory model when small data memory model is sufficient.


External Symbols in Data Memory (by address):

                    0x1000                  _TMR1_InterruptHandler
                    0x140a                  _uartComData
                    0x1732                  _FlashKey

External Symbols in Data Memory (by name):

                    0x1732                  _FlashKey
                    0x1000                  _TMR1_InterruptHandler
                    0x140a                  _uartComData

External Symbols in Program Memory (by address):

                  0x000664                  _CRCFlash
                  0x0009f0                  _FLASH_Unlock
                  0x0009fa                  _FLASH_Lock
                  0x000a08                  _FLASH_SendNvmKey
                  0x000a34                  _FLASH_ReadWord24
                  0x000a42                  _FLASH_ReadWord16
                  0x000a4e                  _FLASH_ErasePage
                  0x000a6a                  _FLASH_WriteDoubleWord24
                  0x000a9e                  _FLASH_WriteDoubleWord16
                  0x000ad4                  _FLASH_WriteRow24
                  0x000af6                  _FLASH_WriteRow16
                  0x000b2e                  _FLASH_GetErasePageOffset
                  0x000b34                  _FLASH_GetErasePageAddress
                  0x000dba                  _BOOT_Verify
                  0x000ec4                  __OscillatorFail
                  0x000ee4                  __StackError
                  0x000f06                  __AddressError
                  0x000f26                  __MathError
                  0x000f46                  __HardTrapError
                  0x000f66                  __SoftTrapError
                  0x000fc0                  __data_init
                  0x000fc0                  __data_init_extended
                  0x001072                  _BOOT_ProcessCommand
                  0x0011b2                  _PIN_MANAGER_Initialize
                  0x001230                  _CLOCK_Initialize
                  0x00129e                  __resetPRI
                  0x0012da                  __psv_init
                  0x0012e6                  __T1Interrupt
                  0x00136e                  _BOOT_COM_Read
                  0x0013b0                  _BOOT_COM_GetBytesReady
                  0x001432                  _BOOT_COM_Write
                  0x00149c                  _UART1_Initialize
                  0x0014cc                  _BOOT_DEMO_Tasks
                  0x00156c                  _TMR1_Initialize
                  0x001590                  _UART1_IsTxReady
                  0x0015b0                  _TMR1_CallBack
                  0x0015ee                  _UART1_Read
                  0x001628                  _UART1_IsTxDone
                  0x001640                  _SYSTEM_Initialize
                  0x00169a                  _UART1_Write
                  0x0016b0                  _UART1_IsRxReady
                  0x0016c4                  _BOOT_StartApplication
                  0x0016e8                  _INTERRUPT_Initialize
                  0x0016f8                  _TMR1_SetInterruptHandler
                  0x001708                  _main
                  0x001718                  _BOOT_COM_Peek
                  0x001734                  _memcpy
                  0x001742                  _memset
                  0x001768                  _BOOT_Initialize
                  0x00177c                  _TMR1_Stop
                  0x00178e                  _BOOT_DEMO_Initialize
                  0x001794                  __DefaultInterrupt
                  0x02bf00                  __FSEC.sec

External Symbols in Program Memory (by name):

                  0x0013b0                  _BOOT_COM_GetBytesReady
                  0x001718                  _BOOT_COM_Peek
                  0x00136e                  _BOOT_COM_Read
                  0x001432                  _BOOT_COM_Write
                  0x00178e                  _BOOT_DEMO_Initialize
                  0x0014cc                  _BOOT_DEMO_Tasks
                  0x001768                  _BOOT_Initialize
                  0x001072                  _BOOT_ProcessCommand
                  0x0016c4                  _BOOT_StartApplication
                  0x000dba                  _BOOT_Verify
                  0x001230                  _CLOCK_Initialize
                  0x000664                  _CRCFlash
                  0x000a4e                  _FLASH_ErasePage
                  0x000b34                  _FLASH_GetErasePageAddress
                  0x000b2e                  _FLASH_GetErasePageOffset
                  0x0009fa                  _FLASH_Lock
                  0x000a42                  _FLASH_ReadWord16
                  0x000a34                  _FLASH_ReadWord24
                  0x000a08                  _FLASH_SendNvmKey
                  0x0009f0                  _FLASH_Unlock
                  0x000a9e                  _FLASH_WriteDoubleWord16
                  0x000a6a                  _FLASH_WriteDoubleWord24
                  0x000af6                  _FLASH_WriteRow16
                  0x000ad4                  _FLASH_WriteRow24
                  0x0016e8                  _INTERRUPT_Initialize
                  0x0011b2                  _PIN_MANAGER_Initialize
                  0x001640                  _SYSTEM_Initialize
                  0x0015b0                  _TMR1_CallBack
                  0x00156c                  _TMR1_Initialize
                  0x0016f8                  _TMR1_SetInterruptHandler
                  0x00177c                  _TMR1_Stop
                  0x00149c                  _UART1_Initialize
                  0x0016b0                  _UART1_IsRxReady
                  0x001628                  _UART1_IsTxDone
                  0x001590                  _UART1_IsTxReady
                  0x0015ee                  _UART1_Read
                  0x00169a                  _UART1_Write
                  0x000f06                  __AddressError
                  0x001794                  __DefaultInterrupt
                  0x02bf00                  __FSEC.sec
                  0x000f46                  __HardTrapError
                  0x000f26                  __MathError
                  0x000ec4                  __OscillatorFail
                  0x000f66                  __SoftTrapError
                  0x000ee4                  __StackError
                  0x0012e6                  __T1Interrupt
                  0x000fc0                  __data_init
                  0x000fc0                  __data_init_extended
                  0x0012da                  __psv_init
                  0x00129e                  __resetPRI
                  0x001708                  _main
                  0x001734                  _memcpy
                  0x001742                  _memset

Memory Configuration

Name             Origin             Length             Attributes
data             0x001000           0x006000           a !xr
FBOOT            0x801800           0x000002  
reset            0x000000           0x000004  
ivt              0x000004           0x0001fc  
program          0x000200           0x02bd00           xr
FSEC             0x02bf00           0x000002  
FBSLIM           0x02bf10           0x000002  
FSIGN            0x02bf14           0x000002  
FOSCSEL          0x02bf18           0x000002  
FOSC             0x02bf1c           0x000002  
FWDT             0x02bf20           0x000002  
FPOR             0x02bf24           0x000002  
FICD             0x02bf28           0x000002  
FDMTIVTL         0x02bf2c           0x000002  
FDMTIVTH         0x02bf30           0x000002  
FDMTCNTL         0x02bf34           0x000002  
FDMTCNTH         0x02bf38           0x000002  
FDMT             0x02bf3c           0x000002  
FDEVOPT          0x02bf40           0x000002  
FALTREG          0x02bf44           0x000002  
FBTSEQ           0x02bffc           0x000002  
*default*        0x000000           0xffffffff  

Linker script and memory map

LOAD build/default/production/mcc_generated_files/boot/boot_demo.o
LOAD build/default/production/mcc_generated_files/boot/boot_process.o
LOAD build/default/production/mcc_generated_files/boot/com_adaptor_uart.o
LOAD build/default/production/mcc_generated_files/boot/crc32_asm.o
LOAD build/default/production/mcc_generated_files/boot/boot_code_protect.o
LOAD build/default/production/mcc_generated_files/boot/boot_verify_crc32.o
LOAD build/default/production/mcc_generated_files/memory/flash.o
LOAD build/default/production/mcc_generated_files/reset.o
LOAD build/default/production/mcc_generated_files/mcc.o
LOAD build/default/production/mcc_generated_files/uart1.o
LOAD build/default/production/mcc_generated_files/clock.o
LOAD build/default/production/mcc_generated_files/pin_manager.o
LOAD build/default/production/mcc_generated_files/system.o
LOAD build/default/production/mcc_generated_files/traps.o
LOAD build/default/production/mcc_generated_files/interrupt_manager.o
LOAD build/default/production/mcc_generated_files/tmr1.o
LOAD build/default/production/mcc_generated_files/delay.o
LOAD build/default/production/main.o
                    0x0001                  __MPLAB_BUILD = 0x1
LOAD p33CK256MP508
LOAD c:/program files/microchip/xc16/v1.70/bin/bin/../../lib\libfx-elf.a
                    0x801034                  _iwri1 = 0x801034
                    0x801038                  _iwri2 = 0x801038
                    0x801800                  __FBOOT = 0x801800
                    0x2bf00                  __FSEC = 0x2bf00
                    0x2bf10                  __FBSLIM = 0x2bf10
                    0x2bf14                  __FSIGN = 0x2bf14
                    0x2bf18                  __FOSCSEL = 0x2bf18
                    0x2bf1c                  __FOSC = 0x2bf1c
                    0x2bf20                  __FWDT = 0x2bf20
                    0x2bf24                  __FPOR = 0x2bf24
                    0x2bf28                  __FICD = 0x2bf28
                    0x2bf2c                  __FDMTIVTL = 0x2bf2c
                    0x2bf30                  __FDMTIVTH = 0x2bf30
                    0x2bf34                  __FDMTCNTL = 0x2bf34
                    0x2bf38                  __FDMTCNTH = 0x2bf38
                    0x2bf3c                  __FDMT = 0x2bf3c
                    0x2bf40                  __FDEVOPT = 0x2bf40
                    0x2bf44                  __FALTREG = 0x2bf44
                    0x2bffc                  __FBTSEQ = 0x2bffc
                    0x0200                  __CODE_BASE = 0x200
                    0x2bd00                  __CODE_LENGTH = 0x2bd00
                    0x0004                  __IVT_BASE = 0x4
                    0x1000                  __DATA_BASE = 0x1000
                    0x6000                  __DATA_LENGTH = 0x6000
                    0x5000                  __YDATA_BASE = 0x5000
                    0x6fff                  __YDATA_END = 0x6fff

.reset            0x000000          0x4
                  0x000000          0x2 SHORT 0x129e ABSOLUTE (__reset)
                  0x000001          0x2 SHORT 0x4
                  0x000002          0x2 SHORT 0x0 ((ABSOLUTE (__reset) >> 0x10) & 0x7f)
                  0x000003          0x2 SHORT 0x0

usercode
 *(usercode)

__FBOOT
 *(__FBOOT.sec*)

__FSEC            0x02bf00          0x2
 *(__FSEC.sec*)
 __FSEC.sec       0x02bf00          0x2 /CW/_FSEC
                  0x02bf00                  __FSEC.sec

__FBSLIM
 *(__FBSLIM.sec*)

__FSIGN
 *(__FSIGN.sec*)

__FOSCSEL
 *(__FOSCSEL.sec*)

__FOSC
 *(__FOSC.sec*)

__FWDT
 *(__FWDT.sec*)

__FPOR
 *(__FPOR.sec*)

__FICD
 *(__FICD.sec*)

__FDMTIVTL
 *(__FDMTIVTL.sec*)

__FDMTIVTH
 *(__FDMTIVTH.sec*)

__FDMTCNTL
 *(__FDMTCNTL.sec*)

__FDMTCNTH
 *(__FDMTCNTH.sec*)

__FDMT
 *(__FDMT.sec*)

__FDEVOPT
 *(__FDEVOPT.sec*)

__FALTREG
 *(__FALTREG.sec*)

__FBTSEQ
 *(__FBTSEQ.sec*)

.comment
 *(.comment)

.debug_info       0x000000       0x5608
 *(.debug_info)
 .debug_info      0x000000        0x64d build/default/production/mcc_generated_files/boot/boot_demo.o
 .debug_info      0x00064d        0xd0d build/default/production/mcc_generated_files/boot/boot_process.o
 .debug_info      0x00135a        0x398 build/default/production/mcc_generated_files/boot/com_adaptor_uart.o
 .debug_info      0x0016f2         0xaf build/default/production/mcc_generated_files/boot/crc32_asm.o
 .debug_info      0x0017a1        0x147 build/default/production/mcc_generated_files/boot/boot_code_protect.o
 .debug_info      0x0018e8        0x2da build/default/production/mcc_generated_files/boot/boot_verify_crc32.o
 .debug_info      0x001bc2         0xad build/default/production/mcc_generated_files/memory/flash.o
 .debug_info      0x001c6f        0x49a build/default/production/mcc_generated_files/reset.o
 .debug_info      0x002109        0x9fa build/default/production/mcc_generated_files/uart1.o
 .debug_info      0x002b03        0x6ec build/default/production/mcc_generated_files/clock.o
 .debug_info      0x0031ef        0x636 build/default/production/mcc_generated_files/pin_manager.o
 .debug_info      0x003825        0x531 build/default/production/mcc_generated_files/system.o
 .debug_info      0x003d56        0x62d build/default/production/mcc_generated_files/traps.o
 .debug_info      0x004383        0x20e build/default/production/mcc_generated_files/interrupt_manager.o
 .debug_info      0x004591        0x8d3 build/default/production/mcc_generated_files/tmr1.o
 .debug_info      0x004e64        0x1d4 build/default/production/mcc_generated_files/delay.o
 .debug_info      0x005038        0x5d0 build/default/production/main.o
 *(.gnu.linkonce.wi.*)

.debug_abbrev     0x000000        0xe1c
 *(.debug_abbrev)
 .debug_abbrev    0x000000        0x10d build/default/production/mcc_generated_files/boot/boot_demo.o
 .debug_abbrev    0x00010d        0x207 build/default/production/mcc_generated_files/boot/boot_process.o
 .debug_abbrev    0x000314         0xec build/default/production/mcc_generated_files/boot/com_adaptor_uart.o
 .debug_abbrev    0x000400         0x14 build/default/production/mcc_generated_files/boot/crc32_asm.o
 .debug_abbrev    0x000414         0x1f build/default/production/mcc_generated_files/boot/boot_code_protect.o
 .debug_abbrev    0x000433         0xdb build/default/production/mcc_generated_files/boot/boot_verify_crc32.o
 .debug_abbrev    0x00050e         0x14 build/default/production/mcc_generated_files/memory/flash.o
 .debug_abbrev    0x000522         0xf6 build/default/production/mcc_generated_files/reset.o
 .debug_abbrev    0x000618          0x1 build/default/production/mcc_generated_files/mcc.o
 .debug_abbrev    0x000619        0x12a build/default/production/mcc_generated_files/uart1.o
 .debug_abbrev    0x000743         0xda build/default/production/mcc_generated_files/clock.o
 .debug_abbrev    0x00081d         0x9b build/default/production/mcc_generated_files/pin_manager.o
 .debug_abbrev    0x0008b8        0x114 build/default/production/mcc_generated_files/system.o
 .debug_abbrev    0x0009cc        0x10d build/default/production/mcc_generated_files/traps.o
 .debug_abbrev    0x000ad9         0x8a build/default/production/mcc_generated_files/interrupt_manager.o
 .debug_abbrev    0x000b63        0x165 build/default/production/mcc_generated_files/tmr1.o
 .debug_abbrev    0x000cc8         0x67 build/default/production/mcc_generated_files/delay.o
 .debug_abbrev    0x000d2f         0xed build/default/production/main.o

.debug_line       0x000000       0x16bf
 *(.debug_line)
 .debug_line      0x000000        0x1b1 build/default/production/mcc_generated_files/boot/boot_demo.o
 .debug_line      0x0001b1        0x30e build/default/production/mcc_generated_files/boot/boot_process.o
 .debug_line      0x0004bf         0xf5 build/default/production/mcc_generated_files/boot/com_adaptor_uart.o
 .debug_line      0x0005b4         0xa7 build/default/production/mcc_generated_files/boot/crc32_asm.o
 .debug_line      0x00065b         0x1a build/default/production/mcc_generated_files/boot/boot_code_protect.o
 .debug_line      0x000675         0xf4 build/default/production/mcc_generated_files/boot/boot_verify_crc32.o
 .debug_line      0x000769        0x106 build/default/production/mcc_generated_files/memory/flash.o
 .debug_line      0x00086f        0x1ee build/default/production/mcc_generated_files/reset.o
 .debug_line      0x000a5d         0x1a build/default/production/mcc_generated_files/mcc.o
 .debug_line      0x000a77        0x1c8 build/default/production/mcc_generated_files/uart1.o
 .debug_line      0x000c3f        0x146 build/default/production/mcc_generated_files/clock.o
 .debug_line      0x000d85        0x143 build/default/production/mcc_generated_files/pin_manager.o
 .debug_line      0x000ec8        0x182 build/default/production/mcc_generated_files/system.o
 .debug_line      0x00104a        0x170 build/default/production/mcc_generated_files/traps.o
 .debug_line      0x0011ba        0x128 build/default/production/mcc_generated_files/interrupt_manager.o
 .debug_line      0x0012e2        0x20a build/default/production/mcc_generated_files/tmr1.o
 .debug_line      0x0014ec         0xb4 build/default/production/mcc_generated_files/delay.o
 .debug_line      0x0015a0        0x11f build/default/production/main.o

.debug_frame      0x000000        0xa20
 *(.debug_frame)
 .debug_frame     0x000000         0x7c build/default/production/mcc_generated_files/boot/boot_demo.o
 .debug_frame     0x00007c        0x1c4 build/default/production/mcc_generated_files/boot/boot_process.o
 .debug_frame     0x000240         0x84 build/default/production/mcc_generated_files/boot/com_adaptor_uart.o
 .debug_frame     0x0002c4         0x6a build/default/production/mcc_generated_files/boot/boot_verify_crc32.o
 .debug_frame     0x00032e        0x118 build/default/production/mcc_generated_files/reset.o
 .debug_frame     0x000446         0xfe build/default/production/mcc_generated_files/uart1.o
 .debug_frame     0x000544         0x48 build/default/production/mcc_generated_files/clock.o
 .debug_frame     0x00058c         0x2e build/default/production/mcc_generated_files/pin_manager.o
 .debug_frame     0x0005ba         0x62 build/default/production/mcc_generated_files/system.o
 .debug_frame     0x00061c        0x1bc build/default/production/mcc_generated_files/traps.o
 .debug_frame     0x0007d8         0x2e build/default/production/mcc_generated_files/interrupt_manager.o
 .debug_frame     0x000806        0x18a build/default/production/mcc_generated_files/tmr1.o
 .debug_frame     0x000990         0x48 build/default/production/mcc_generated_files/delay.o
 .debug_frame     0x0009d8         0x48 build/default/production/main.o

.debug_str        0x000000        0x1c5
 *(.debug_str)
 .debug_str       0x000000         0x22 build/default/production/mcc_generated_files/boot/boot_demo.o
 .debug_str       0x000022         0x52 build/default/production/mcc_generated_files/boot/boot_process.o
 .debug_str       0x000074          0xc build/default/production/mcc_generated_files/boot/com_adaptor_uart.o
 .debug_str       0x000080         0x12 build/default/production/mcc_generated_files/boot/boot_verify_crc32.o
 .debug_str       0x000092         0x17 build/default/production/mcc_generated_files/reset.o
 .debug_str       0x0000a9         0x20 build/default/production/mcc_generated_files/uart1.o
 .debug_str       0x0000c9         0x59 build/default/production/mcc_generated_files/clock.o
 .debug_str       0x000122         0x17 build/default/production/mcc_generated_files/pin_manager.o
 .debug_str       0x000139          0xc build/default/production/mcc_generated_files/system.o
 .debug_str       0x000145         0x24 build/default/production/mcc_generated_files/traps.o
 .debug_str       0x000169          0x9 build/default/production/mcc_generated_files/interrupt_manager.o
 .debug_str       0x000172         0x32 build/default/production/mcc_generated_files/tmr1.o
 .debug_str       0x0001a4         0x21 build/default/production/main.o

.debug_loc
 *(.debug_loc)

.debug_macinfo
 *(.debug_macinfo)

.debug_pubnames
                  0x000000        0x556
 *(.debug_pubnames)
 .debug_pubnames
                  0x000000         0x3f build/default/production/mcc_generated_files/boot/boot_demo.o
 .debug_pubnames
                  0x00003f         0x58 build/default/production/mcc_generated_files/boot/boot_process.o
 .debug_pubnames
                  0x000097         0x74 build/default/production/mcc_generated_files/boot/com_adaptor_uart.o
 .debug_pubnames
                  0x00010b         0x22 build/default/production/mcc_generated_files/boot/boot_verify_crc32.o
 .debug_pubnames
                  0x00012d         0x54 build/default/production/mcc_generated_files/reset.o
 .debug_pubnames
                  0x000181         0xb8 build/default/production/mcc_generated_files/uart1.o
 .debug_pubnames
                  0x000239         0x45 build/default/production/mcc_generated_files/clock.o
 .debug_pubnames
                  0x00027e         0x2d build/default/production/mcc_generated_files/pin_manager.o
 .debug_pubnames
                  0x0002ab         0x28 build/default/production/mcc_generated_files/system.o
 .debug_pubnames
                  0x0002d3         0x95 build/default/production/mcc_generated_files/traps.o
 .debug_pubnames
                  0x000368         0x2b build/default/production/mcc_generated_files/interrupt_manager.o
 .debug_pubnames
                  0x000393        0x156 build/default/production/mcc_generated_files/tmr1.o
 .debug_pubnames
                  0x0004e9         0x40 build/default/production/mcc_generated_files/delay.o
 .debug_pubnames
                  0x000529         0x2d build/default/production/main.o

.debug_ranges
 *(.debug_ranges)

.debug_aranges    0x000000        0x3f0
 *(.debug_aranges)
 .debug_aranges
                  0x000000         0x38 build/default/production/mcc_generated_files/boot/boot_demo.o
 .debug_aranges
                  0x000038         0x98 build/default/production/mcc_generated_files/boot/boot_process.o
 .debug_aranges
                  0x0000d0         0x38 build/default/production/mcc_generated_files/boot/com_adaptor_uart.o
 .debug_aranges
                  0x000108         0x18 build/default/production/mcc_generated_files/boot/crc32_asm.o
 .debug_aranges
                  0x000120         0x30 build/default/production/mcc_generated_files/boot/boot_verify_crc32.o
 .debug_aranges
                  0x000150         0x18 build/default/production/mcc_generated_files/memory/flash.o
 .debug_aranges
                  0x000168         0x68 build/default/production/mcc_generated_files/reset.o
 .debug_aranges
                  0x0001d0         0x60 build/default/production/mcc_generated_files/uart1.o
 .debug_aranges
                  0x000230         0x28 build/default/production/mcc_generated_files/clock.o
 .debug_aranges
                  0x000258         0x20 build/default/production/mcc_generated_files/pin_manager.o
 .debug_aranges
                  0x000278         0x30 build/default/production/mcc_generated_files/system.o
 .debug_aranges
                  0x0002a8         0x58 build/default/production/mcc_generated_files/traps.o
 .debug_aranges
                  0x000300         0x20 build/default/production/mcc_generated_files/interrupt_manager.o
 .debug_aranges
                  0x000320         0x80 build/default/production/mcc_generated_files/tmr1.o
 .debug_aranges
                  0x0003a0         0x28 build/default/production/mcc_generated_files/delay.o
 .debug_aranges
                  0x0003c8         0x28 build/default/production/main.o
                    0x0000                  WREG0 = 0x0
                    0x0000                  _WREG0 = 0x0
                    0x0002                  WREG1 = 0x2
                    0x0002                  _WREG1 = 0x2
                    0x0004                  WREG2 = 0x4
                    0x0004                  _WREG2 = 0x4
                    0x0006                  WREG3 = 0x6
                    0x0006                  _WREG3 = 0x6
                    0x0008                  WREG4 = 0x8
                    0x0008                  _WREG4 = 0x8
                    0x000a                  WREG5 = 0xa
                    0x000a                  _WREG5 = 0xa
                    0x000c                  WREG6 = 0xc
                    0x000c                  _WREG6 = 0xc
                    0x000e                  WREG7 = 0xe
                    0x000e                  _WREG7 = 0xe
                    0x0010                  WREG8 = 0x10
                    0x0010                  _WREG8 = 0x10
                    0x0012                  WREG9 = 0x12
                    0x0012                  _WREG9 = 0x12
                    0x0014                  WREG10 = 0x14
                    0x0014                  _WREG10 = 0x14
                    0x0016                  WREG11 = 0x16
                    0x0016                  _WREG11 = 0x16
                    0x0018                  WREG12 = 0x18
                    0x0018                  _WREG12 = 0x18
                    0x001a                  WREG13 = 0x1a
                    0x001a                  _WREG13 = 0x1a
                    0x001c                  WREG14 = 0x1c
                    0x001c                  _WREG14 = 0x1c
                    0x001e                  WREG15 = 0x1e
                    0x001e                  _WREG15 = 0x1e
                    0x0020                  SPLIM = 0x20
                    0x0020                  _SPLIM = 0x20
                    0x0022                  ACCAL = 0x22
                    0x0022                  _ACCAL = 0x22
                    0x0024                  ACCAH = 0x24
                    0x0024                  _ACCAH = 0x24
                    0x0026                  ACCAU = 0x26
                    0x0026                  _ACCAU = 0x26
                    0x0028                  ACCBL = 0x28
                    0x0028                  _ACCBL = 0x28
                    0x002a                  ACCBH = 0x2a
                    0x002a                  _ACCBH = 0x2a
                    0x002c                  ACCBU = 0x2c
                    0x002c                  _ACCBU = 0x2c
                    0x002e                  PCL = 0x2e
                    0x002e                  _PCL = 0x2e
                    0x0030                  PCH = 0x30
                    0x0030                  _PCH = 0x30
                    0x0032                  DSRPAG = 0x32
                    0x0032                  _DSRPAG = 0x32
                    0x0032                  _DSRPAGbits = 0x32
                    0x0034                  DSWPAG = 0x34
                    0x0034                  _DSWPAG = 0x34
                    0x0034                  _DSWPAGbits = 0x34
                    0x0036                  RCOUNT = 0x36
                    0x0036                  _RCOUNT = 0x36
                    0x0038                  DCOUNT = 0x38
                    0x0038                  _DCOUNT = 0x38
                    0x003a                  DOSTARTL = 0x3a
                    0x003a                  _DOSTARTL = 0x3a
                    0x003c                  DOSTARTH = 0x3c
                    0x003c                  _DOSTARTH = 0x3c
                    0x003e                  DOENDL = 0x3e
                    0x003e                  _DOENDL = 0x3e
                    0x0040                  DOENDH = 0x40
                    0x0040                  _DOENDH = 0x40
                    0x0042                  SR = 0x42
                    0x0042                  _SR = 0x42
                    0x0042                  _SRbits = 0x42
                    0x0044                  CORCON = 0x44
                    0x0044                  _CORCON = 0x44
                    0x0044                  _CORCONbits = 0x44
                    0x0046                  MODCON = 0x46
                    0x0046                  _MODCON = 0x46
                    0x0046                  _MODCONbits = 0x46
                    0x0048                  XMODSRT = 0x48
                    0x0048                  _XMODSRT = 0x48
                    0x004a                  XMODEND = 0x4a
                    0x004a                  _XMODEND = 0x4a
                    0x004c                  YMODSRT = 0x4c
                    0x004c                  _YMODSRT = 0x4c
                    0x004e                  YMODEND = 0x4e
                    0x004e                  _YMODEND = 0x4e
                    0x0050                  XBREV = 0x50
                    0x0050                  _XBREV = 0x50
                    0x0050                  _XBREVbits = 0x50
                    0x0052                  DISICNT = 0x52
                    0x0052                  _DISICNT = 0x52
                    0x0054                  TBLPAG = 0x54
                    0x0054                  _TBLPAG = 0x54
                    0x0054                  _TBLPAGbits = 0x54
                    0x0056                  YPAG = 0x56
                    0x0056                  _YPAG = 0x56
                    0x0056                  _YPAGbits = 0x56
                    0x0058                  MSTRPR = 0x58
                    0x0058                  _MSTRPR = 0x58
                    0x0058                  _MSTRPRbits = 0x58
                    0x005a                  CTXTSTAT = 0x5a
                    0x005a                  _CTXTSTAT = 0x5a
                    0x005a                  _CTXTSTATbits = 0x5a
                    0x005c                  DMTCON = 0x5c
                    0x005c                  _DMTCON = 0x5c
                    0x005c                  _DMTCONbits = 0x5c
                    0x0060                  DMTPRECLR = 0x60
                    0x0060                  _DMTPRECLR = 0x60
                    0x0060                  _DMTPRECLRbits = 0x60
                    0x0064                  DMTCLR = 0x64
                    0x0064                  _DMTCLR = 0x64
                    0x0064                  _DMTCLRbits = 0x64
                    0x0068                  DMTSTAT = 0x68
                    0x0068                  _DMTSTAT = 0x68
                    0x0068                  _DMTSTATbits = 0x68
                    0x006c                  DMTCNTL = 0x6c
                    0x006c                  _DMTCNTL = 0x6c
                    0x006e                  DMTCNTH = 0x6e
                    0x006e                  _DMTCNTH = 0x6e
                    0x0070                  DMTHOLDREG = 0x70
                    0x0070                  _DMTHOLDREG = 0x70
                    0x0074                  DMTPSCNTL = 0x74
                    0x0074                  _DMTPSCNTL = 0x74
                    0x0076                  DMTPSCNTH = 0x76
                    0x0076                  _DMTPSCNTH = 0x76
                    0x0078                  DMTPSINTVL = 0x78
                    0x0078                  _DMTPSINTVL = 0x78
                    0x007a                  DMTPSINTVH = 0x7a
                    0x007a                  _DMTPSINTVH = 0x7a
                    0x0080                  SENT1CON1 = 0x80
                    0x0080                  _SENT1CON1 = 0x80
                    0x0080                  _SENT1CON1bits = 0x80
                    0x0084                  SENT1CON2 = 0x84
                    0x0084                  _SENT1CON2 = 0x84
                    0x0088                  SENT1CON3 = 0x88
                    0x0088                  _SENT1CON3 = 0x88
                    0x008c                  SENT1STAT = 0x8c
                    0x008c                  _SENT1STAT = 0x8c
                    0x008c                  _SENT1STATbits = 0x8c
                    0x0090                  SENT1SYNC = 0x90
                    0x0090                  _SENT1SYNC = 0x90
                    0x0094                  SENT1DATL = 0x94
                    0x0094                  _SENT1DATL = 0x94
                    0x0094                  _SENT1DATLbits = 0x94
                    0x0096                  SENT1DATH = 0x96
                    0x0096                  _SENT1DATH = 0x96
                    0x0096                  _SENT1DATHbits = 0x96
                    0x0098                  SENT2CON1 = 0x98
                    0x0098                  _SENT2CON1 = 0x98
                    0x0098                  _SENT2CON1bits = 0x98
                    0x009c                  SENT2CON2 = 0x9c
                    0x009c                  _SENT2CON2 = 0x9c
                    0x00a0                  SENT2CON3 = 0xa0
                    0x00a0                  _SENT2CON3 = 0xa0
                    0x00a4                  SENT2STAT = 0xa4
                    0x00a4                  _SENT2STAT = 0xa4
                    0x00a4                  _SENT2STATbits = 0xa4
                    0x00a8                  SENT2SYNC = 0xa8
                    0x00a8                  _SENT2SYNC = 0xa8
                    0x00ac                  SENT2DATL = 0xac
                    0x00ac                  _SENT2DATL = 0xac
                    0x00ac                  _SENT2DATLbits = 0xac
                    0x00ae                  SENT2DATH = 0xae
                    0x00ae                  _SENT2DATH = 0xae
                    0x00ae                  _SENT2DATHbits = 0xae
                    0x00b0                  CRCCON1 = 0xb0
                    0x00b0                  _CRCCON1 = 0xb0
                    0x00b0                  _CRCCON1bits = 0xb0
                    0x00b0                  CRCCONL = 0xb0
                    0x00b0                  _CRCCONL = 0xb0
                    0x00b0                  _CRCCONLbits = 0xb0
                    0x00b2                  CRCCON2 = 0xb2
                    0x00b2                  _CRCCON2 = 0xb2
                    0x00b2                  _CRCCON2bits = 0xb2
                    0x00b2                  CRCCONH = 0xb2
                    0x00b2                  _CRCCONH = 0xb2
                    0x00b2                  _CRCCONHbits = 0xb2
                    0x00b4                  CRCXORL = 0xb4
                    0x00b4                  _CRCXORL = 0xb4
                    0x00b4                  _CRCXORLbits = 0xb4
                    0x00b6                  CRCXORH = 0xb6
                    0x00b6                  _CRCXORH = 0xb6
                    0x00b6                  _CRCXORHbits = 0xb6
                    0x00b8                  CRCDATL = 0xb8
                    0x00b8                  _CRCDATL = 0xb8
                    0x00ba                  CRCDATH = 0xba
                    0x00ba                  _CRCDATH = 0xba
                    0x00bc                  CRCWDATL = 0xbc
                    0x00bc                  _CRCWDATL = 0xbc
                    0x00be                  CRCWDATH = 0xbe
                    0x00be                  _CRCWDATH = 0xbe
                    0x00c0                  CLC1CONL = 0xc0
                    0x00c0                  _CLC1CONL = 0xc0
                    0x00c0                  _CLC1CONLbits = 0xc0
                    0x00c2                  CLC1CONH = 0xc2
                    0x00c2                  _CLC1CONH = 0xc2
                    0x00c2                  _CLC1CONHbits = 0xc2
                    0x00c4                  CLC1SEL = 0xc4
                    0x00c4                  _CLC1SEL = 0xc4
                    0x00c4                  _CLC1SELbits = 0xc4
                    0x00c4                  CLC1SELL = 0xc4
                    0x00c4                  _CLC1SELL = 0xc4
                    0x00c4                  _CLC1SELLbits = 0xc4
                    0x00c8                  CLC1GLSL = 0xc8
                    0x00c8                  _CLC1GLSL = 0xc8
                    0x00c8                  _CLC1GLSLbits = 0xc8
                    0x00ca                  CLC1GLSH = 0xca
                    0x00ca                  _CLC1GLSH = 0xca
                    0x00ca                  _CLC1GLSHbits = 0xca
                    0x00cc                  CLC2CONL = 0xcc
                    0x00cc                  _CLC2CONL = 0xcc
                    0x00cc                  _CLC2CONLbits = 0xcc
                    0x00ce                  CLC2CONH = 0xce
                    0x00ce                  _CLC2CONH = 0xce
                    0x00ce                  _CLC2CONHbits = 0xce
                    0x00d0                  CLC2SEL = 0xd0
                    0x00d0                  _CLC2SEL = 0xd0
                    0x00d0                  _CLC2SELbits = 0xd0
                    0x00d0                  CLC2SELL = 0xd0
                    0x00d0                  _CLC2SELL = 0xd0
                    0x00d0                  _CLC2SELLbits = 0xd0
                    0x00d4                  CLC2GLSL = 0xd4
                    0x00d4                  _CLC2GLSL = 0xd4
                    0x00d4                  _CLC2GLSLbits = 0xd4
                    0x00d6                  CLC2GLSH = 0xd6
                    0x00d6                  _CLC2GLSH = 0xd6
                    0x00d6                  _CLC2GLSHbits = 0xd6
                    0x00d8                  CLC3CONL = 0xd8
                    0x00d8                  _CLC3CONL = 0xd8
                    0x00d8                  _CLC3CONLbits = 0xd8
                    0x00da                  CLC3CONH = 0xda
                    0x00da                  _CLC3CONH = 0xda
                    0x00da                  _CLC3CONHbits = 0xda
                    0x00dc                  CLC3SEL = 0xdc
                    0x00dc                  _CLC3SEL = 0xdc
                    0x00dc                  _CLC3SELbits = 0xdc
                    0x00dc                  CLC3SELL = 0xdc
                    0x00dc                  _CLC3SELL = 0xdc
                    0x00dc                  _CLC3SELLbits = 0xdc
                    0x00e0                  CLC3GLSL = 0xe0
                    0x00e0                  _CLC3GLSL = 0xe0
                    0x00e0                  _CLC3GLSLbits = 0xe0
                    0x00e2                  CLC3GLSH = 0xe2
                    0x00e2                  _CLC3GLSH = 0xe2
                    0x00e2                  _CLC3GLSHbits = 0xe2
                    0x00e4                  CLC4CONL = 0xe4
                    0x00e4                  _CLC4CONL = 0xe4
                    0x00e4                  _CLC4CONLbits = 0xe4
                    0x00e6                  CLC4CONH = 0xe6
                    0x00e6                  _CLC4CONH = 0xe6
                    0x00e6                  _CLC4CONHbits = 0xe6
                    0x00e8                  CLC4SEL = 0xe8
                    0x00e8                  _CLC4SEL = 0xe8
                    0x00e8                  _CLC4SELbits = 0xe8
                    0x00e8                  CLC4SELL = 0xe8
                    0x00e8                  _CLC4SELL = 0xe8
                    0x00e8                  _CLC4SELLbits = 0xe8
                    0x00ec                  CLC4GLSL = 0xec
                    0x00ec                  _CLC4GLSL = 0xec
                    0x00ec                  _CLC4GLSLbits = 0xec
                    0x00ee                  CLC4GLSH = 0xee
                    0x00ee                  _CLC4GLSH = 0xee
                    0x00ee                  _CLC4GLSHbits = 0xee
                    0x00f0                  ECCCONL = 0xf0
                    0x00f0                  _ECCCONL = 0xf0
                    0x00f0                  _ECCCONLbits = 0xf0
                    0x00f2                  ECCCONH = 0xf2
                    0x00f2                  _ECCCONH = 0xf2
                    0x00f2                  _ECCCONHbits = 0xf2
                    0x00f4                  ECCADDRL = 0xf4
                    0x00f4                  _ECCADDRL = 0xf4
                    0x00f6                  ECCADDRH = 0xf6
                    0x00f6                  _ECCADDRH = 0xf6
                    0x00f8                  ECCSTATL = 0xf8
                    0x00f8                  _ECCSTATL = 0xf8
                    0x00f8                  _ECCSTATLbits = 0xf8
                    0x00fa                  ECCSTATH = 0xfa
                    0x00fa                  _ECCSTATH = 0xfa
                    0x00fa                  _ECCSTATHbits = 0xfa
                    0x0100                  T1CON = 0x100
                    0x0100                  _T1CON = 0x100
                    0x0100                  _T1CONbits = 0x100
                    0x0104                  TMR1 = 0x104
                    0x0104                  _TMR1 = 0x104
                    0x0108                  PR1 = 0x108
                    0x0108                  _PR1 = 0x108
                    0x0140                  QEI1CON = 0x140
                    0x0140                  _QEI1CON = 0x140
                    0x0140                  _QEI1CONbits = 0x140
                    0x0144                  QEI1IOC = 0x144
                    0x0144                  _QEI1IOC = 0x144
                    0x0144                  _QEI1IOCbits = 0x144
                    0x0146                  QEI1IOCH = 0x146
                    0x0146                  _QEI1IOCH = 0x146
                    0x0146                  _QEI1IOCHbits = 0x146
                    0x0148                  QEI1STAT = 0x148
                    0x0148                  _QEI1STAT = 0x148
                    0x0148                  _QEI1STATbits = 0x148
                    0x014c                  POS1CNTL = 0x14c
                    0x014c                  _POS1CNTL = 0x14c
                    0x014e                  POS1CNTH = 0x14e
                    0x014e                  _POS1CNTH = 0x14e
                    0x0152                  POS1HLD = 0x152
                    0x0152                  _POS1HLD = 0x152
                    0x0154                  VEL1CNT = 0x154
                    0x0154                  _VEL1CNT = 0x154
                    0x0156                  VEL1CNTH = 0x156
                    0x0156                  _VEL1CNTH = 0x156
                    0x015a                  VEL1HLD = 0x15a
                    0x015a                  _VEL1HLD = 0x15a
                    0x015c                  INT1TMRL = 0x15c
                    0x015c                  _INT1TMRL = 0x15c
                    0x015e                  INT1TMRH = 0x15e
                    0x015e                  _INT1TMRH = 0x15e
                    0x0160                  INT1HLDL = 0x160
                    0x0160                  _INT1HLDL = 0x160
                    0x0162                  INT1HLDH = 0x162
                    0x0162                  _INT1HLDH = 0x162
                    0x0164                  INDX1CNTL = 0x164
                    0x0164                  _INDX1CNTL = 0x164
                    0x0166                  INDX1CNTH = 0x166
                    0x0166                  _INDX1CNTH = 0x166
                    0x016a                  INDX1HLD = 0x16a
                    0x016a                  _INDX1HLD = 0x16a
                    0x016c                  QEI1GECL = 0x16c
                    0x016c                  _QEI1GECL = 0x16c
                    0x016c                  QEI1ICL = 0x16c
                    0x016c                  _QEI1ICL = 0x16c
                    0x016e                  QEI1GECH = 0x16e
                    0x016e                  _QEI1GECH = 0x16e
                    0x016e                  QEI1ICH = 0x16e
                    0x016e                  _QEI1ICH = 0x16e
                    0x0170                  QEI1LECL = 0x170
                    0x0170                  _QEI1LECL = 0x170
                    0x0172                  QEI1LECH = 0x172
                    0x0172                  _QEI1LECH = 0x172
                    0x0174                  QEI2CON = 0x174
                    0x0174                  _QEI2CON = 0x174
                    0x0174                  _QEI2CONbits = 0x174
                    0x0178                  QEI2IOC = 0x178
                    0x0178                  _QEI2IOC = 0x178
                    0x0178                  _QEI2IOCbits = 0x178
                    0x017a                  QEI2IOCH = 0x17a
                    0x017a                  _QEI2IOCH = 0x17a
                    0x017a                  _QEI2IOCHbits = 0x17a
                    0x017c                  QEI2STAT = 0x17c
                    0x017c                  _QEI2STAT = 0x17c
                    0x017c                  _QEI2STATbits = 0x17c
                    0x0180                  POS2CNTL = 0x180
                    0x0180                  _POS2CNTL = 0x180
                    0x0182                  POS2CNTH = 0x182
                    0x0182                  _POS2CNTH = 0x182
                    0x0186                  POS2HLD = 0x186
                    0x0186                  _POS2HLD = 0x186
                    0x0188                  VEL2CNT = 0x188
                    0x0188                  _VEL2CNT = 0x188
                    0x018a                  VEL2CNTH = 0x18a
                    0x018a                  _VEL2CNTH = 0x18a
                    0x018e                  VEL2HLD = 0x18e
                    0x018e                  _VEL2HLD = 0x18e
                    0x0190                  INT2TMRL = 0x190
                    0x0190                  _INT2TMRL = 0x190
                    0x0192                  INT2TMRH = 0x192
                    0x0192                  _INT2TMRH = 0x192
                    0x0194                  INT2HLDL = 0x194
                    0x0194                  _INT2HLDL = 0x194
                    0x0196                  INT2HLDH = 0x196
                    0x0196                  _INT2HLDH = 0x196
                    0x0198                  INDX2CNTL = 0x198
                    0x0198                  _INDX2CNTL = 0x198
                    0x019a                  INDX2CNTH = 0x19a
                    0x019a                  _INDX2CNTH = 0x19a
                    0x019e                  INDX2HLD = 0x19e
                    0x019e                  _INDX2HLD = 0x19e
                    0x01a0                  QEI2GECL = 0x1a0
                    0x01a0                  _QEI2GECL = 0x1a0
                    0x01a0                  QEI2ICL = 0x1a0
                    0x01a0                  _QEI2ICL = 0x1a0
                    0x01a2                  QEI2GECH = 0x1a2
                    0x01a2                  _QEI2GECH = 0x1a2
                    0x01a2                  QEI2ICH = 0x1a2
                    0x01a2                  _QEI2ICH = 0x1a2
                    0x01a4                  QEI2LECL = 0x1a4
                    0x01a4                  _QEI2LECL = 0x1a4
                    0x01a6                  QEI2LECH = 0x1a6
                    0x01a6                  _QEI2LECH = 0x1a6
                    0x01a8                  PMCON = 0x1a8
                    0x01a8                  _PMCON = 0x1a8
                    0x01a8                  _PMCONbits = 0x1a8
                    0x01aa                  PMCONH = 0x1aa
                    0x01aa                  _PMCONH = 0x1aa
                    0x01aa                  _PMCONHbits = 0x1aa
                    0x01ac                  PMMODE = 0x1ac
                    0x01ac                  _PMMODE = 0x1ac
                    0x01ac                  _PMMODEbits = 0x1ac
                    0x01b0                  PMADDR = 0x1b0
                    0x01b0                  _PMADDR = 0x1b0
                    0x01b0                  _PMADDRbits = 0x1b0
                    0x01b4                  PMDOUT1 = 0x1b4
                    0x01b4                  _PMDOUT1 = 0x1b4
                    0x01b6                  PMDOUT2 = 0x1b6
                    0x01b6                  _PMDOUT2 = 0x1b6
                    0x01b8                  PMDIN1 = 0x1b8
                    0x01b8                  _PMDIN1 = 0x1b8
                    0x01ba                  PMDIN2 = 0x1ba
                    0x01ba                  _PMDIN2 = 0x1ba
                    0x01bc                  PMAEN = 0x1bc
                    0x01bc                  _PMAEN = 0x1bc
                    0x01bc                  _PMAENbits = 0x1bc
                    0x01c0                  PMSTAT = 0x1c0
                    0x01c0                  _PMSTAT = 0x1c0
                    0x01c0                  _PMSTATbits = 0x1c0
                    0x01c4                  PMWADDR = 0x1c4
                    0x01c4                  _PMWADDR = 0x1c4
                    0x01c4                  _PMWADDRbits = 0x1c4
                    0x01c8                  PMRADDR = 0x1c8
                    0x01c8                  _PMRADDR = 0x1c8
                    0x01c8                  _PMRADDRbits = 0x1c8
                    0x01cc                  PMRDIN = 0x1cc
                    0x01cc                  _PMRDIN = 0x1cc
                    0x0200                  I2C1CON1 = 0x200
                    0x0200                  _I2C1CON1 = 0x200
                    0x0200                  _I2C1CON1bits = 0x200
                    0x0200                  I2C1CONL = 0x200
                    0x0200                  _I2C1CONL = 0x200
                    0x0200                  _I2C1CONLbits = 0x200
                    0x0202                  I2C1CON2 = 0x202
                    0x0202                  _I2C1CON2 = 0x202
                    0x0202                  _I2C1CON2bits = 0x202
                    0x0202                  I2C1CONH = 0x202
                    0x0202                  _I2C1CONH = 0x202
                    0x0202                  _I2C1CONHbits = 0x202
                    0x0204                  I2C1STAT = 0x204
                    0x0204                  _I2C1STAT = 0x204
                    0x0204                  _I2C1STATbits = 0x204
                    0x0208                  I2C1ADD = 0x208
                    0x0208                  _I2C1ADD = 0x208
                    0x0208                  _I2C1ADDbits = 0x208
                    0x020c                  I2C1MSK = 0x20c
                    0x020c                  _I2C1MSK = 0x20c
                    0x020c                  _I2C1MSKbits = 0x20c
                    0x0210                  I2C1BRG = 0x210
                    0x0210                  _I2C1BRG = 0x210
                    0x0214                  I2C1TRN = 0x214
                    0x0214                  _I2C1TRN = 0x214
                    0x0214                  _I2C1TRNbits = 0x214
                    0x0218                  I2C1RCV = 0x218
                    0x0218                  _I2C1RCV = 0x218
                    0x0218                  _I2C1RCVbits = 0x218
                    0x021c                  I2C2CON1 = 0x21c
                    0x021c                  _I2C2CON1 = 0x21c
                    0x021c                  _I2C2CON1bits = 0x21c
                    0x021c                  I2C2CONL = 0x21c
                    0x021c                  _I2C2CONL = 0x21c
                    0x021c                  _I2C2CONLbits = 0x21c
                    0x021e                  I2C2CON2 = 0x21e
                    0x021e                  _I2C2CON2 = 0x21e
                    0x021e                  _I2C2CON2bits = 0x21e
                    0x021e                  I2C2CONH = 0x21e
                    0x021e                  _I2C2CONH = 0x21e
                    0x021e                  _I2C2CONHbits = 0x21e
                    0x0220                  I2C2STAT = 0x220
                    0x0220                  _I2C2STAT = 0x220
                    0x0220                  _I2C2STATbits = 0x220
                    0x0224                  I2C2ADD = 0x224
                    0x0224                  _I2C2ADD = 0x224
                    0x0224                  _I2C2ADDbits = 0x224
                    0x0228                  I2C2MSK = 0x228
                    0x0228                  _I2C2MSK = 0x228
                    0x0228                  _I2C2MSKbits = 0x228
                    0x022c                  I2C2BRG = 0x22c
                    0x022c                  _I2C2BRG = 0x22c
                    0x0230                  I2C2TRN = 0x230
                    0x0230                  _I2C2TRN = 0x230
                    0x0230                  _I2C2TRNbits = 0x230
                    0x0234                  I2C2RCV = 0x234
                    0x0234                  _I2C2RCV = 0x234
                    0x0234                  _I2C2RCVbits = 0x234
                    0x0238                  U1MODE = 0x238
                    0x0238                  _U1MODE = 0x238
                    0x0238                  _U1MODEbits = 0x238
                    0x023a                  U1MODEH = 0x23a
                    0x023a                  _U1MODEH = 0x23a
                    0x023a                  _U1MODEHbits = 0x23a
                    0x023c                  U1STA = 0x23c
                    0x023c                  _U1STA = 0x23c
                    0x023c                  _U1STAbits = 0x23c
                    0x023e                  U1STAH = 0x23e
                    0x023e                  _U1STAH = 0x23e
                    0x023e                  _U1STAHbits = 0x23e
                    0x0240                  U1BRG = 0x240
                    0x0240                  _U1BRG = 0x240
                    0x0240                  _U1BRGbits = 0x240
                    0x0242                  U1BRGH = 0x242
                    0x0242                  _U1BRGH = 0x242
                    0x0242                  _U1BRGHbits = 0x242
                    0x0244                  U1RXREG = 0x244
                    0x0244                  _U1RXREG = 0x244
                    0x0244                  _U1RXREGbits = 0x244
                    0x0248                  U1TXREG = 0x248
                    0x0248                  _U1TXREG = 0x248
                    0x0248                  _U1TXREGbits = 0x248
                    0x024c                  U1P1 = 0x24c
                    0x024c                  _U1P1 = 0x24c
                    0x024c                  _U1P1bits = 0x24c
                    0x024e                  U1P2 = 0x24e
                    0x024e                  _U1P2 = 0x24e
                    0x024e                  _U1P2bits = 0x24e
                    0x0250                  U1P3 = 0x250
                    0x0250                  _U1P3 = 0x250
                    0x0250                  _U1P3bits = 0x250
                    0x0252                  U1P3H = 0x252
                    0x0252                  _U1P3H = 0x252
                    0x0252                  _U1P3Hbits = 0x252
                    0x0254                  U1TXCHK = 0x254
                    0x0254                  _U1TXCHK = 0x254
                    0x0254                  _U1TXCHKbits = 0x254
                    0x0256                  U1RXCHK = 0x256
                    0x0256                  _U1RXCHK = 0x256
                    0x0256                  _U1RXCHKbits = 0x256
                    0x0258                  U1SCCON = 0x258
                    0x0258                  _U1SCCON = 0x258
                    0x0258                  _U1SCCONbits = 0x258
                    0x025a                  U1SCINT = 0x25a
                    0x025a                  _U1SCINT = 0x25a
                    0x025a                  _U1SCINTbits = 0x25a
                    0x025c                  U1INT = 0x25c
                    0x025c                  _U1INT = 0x25c
                    0x025c                  _U1INTbits = 0x25c
                    0x0260                  U2MODE = 0x260
                    0x0260                  _U2MODE = 0x260
                    0x0260                  _U2MODEbits = 0x260
                    0x0262                  U2MODEH = 0x262
                    0x0262                  _U2MODEH = 0x262
                    0x0262                  _U2MODEHbits = 0x262
                    0x0264                  U2STA = 0x264
                    0x0264                  _U2STA = 0x264
                    0x0264                  _U2STAbits = 0x264
                    0x0266                  U2STAH = 0x266
                    0x0266                  _U2STAH = 0x266
                    0x0266                  _U2STAHbits = 0x266
                    0x0268                  U2BRG = 0x268
                    0x0268                  _U2BRG = 0x268
                    0x0268                  _U2BRGbits = 0x268
                    0x026a                  U2BRGH = 0x26a
                    0x026a                  _U2BRGH = 0x26a
                    0x026a                  _U2BRGHbits = 0x26a
                    0x026c                  U2RXREG = 0x26c
                    0x026c                  _U2RXREG = 0x26c
                    0x026c                  _U2RXREGbits = 0x26c
                    0x0270                  U2TXREG = 0x270
                    0x0270                  _U2TXREG = 0x270
                    0x0270                  _U2TXREGbits = 0x270
                    0x0274                  U2P1 = 0x274
                    0x0274                  _U2P1 = 0x274
                    0x0274                  _U2P1bits = 0x274
                    0x0276                  U2P2 = 0x276
                    0x0276                  _U2P2 = 0x276
                    0x0276                  _U2P2bits = 0x276
                    0x0278                  U2P3 = 0x278
                    0x0278                  _U2P3 = 0x278
                    0x0278                  _U2P3bits = 0x278
                    0x027a                  U2P3H = 0x27a
                    0x027a                  _U2P3H = 0x27a
                    0x027a                  _U2P3Hbits = 0x27a
                    0x027c                  U2TXCHK = 0x27c
                    0x027c                  _U2TXCHK = 0x27c
                    0x027c                  _U2TXCHKbits = 0x27c
                    0x027e                  U2RXCHK = 0x27e
                    0x027e                  _U2RXCHK = 0x27e
                    0x027e                  _U2RXCHKbits = 0x27e
                    0x0280                  U2SCCON = 0x280
                    0x0280                  _U2SCCON = 0x280
                    0x0280                  _U2SCCONbits = 0x280
                    0x0282                  U2SCINT = 0x282
                    0x0282                  _U2SCINT = 0x282
                    0x0282                  _U2SCINTbits = 0x282
                    0x0284                  U2INT = 0x284
                    0x0284                  _U2INT = 0x284
                    0x0284                  _U2INTbits = 0x284
                    0x02ac                  SPI1CON1 = 0x2ac
                    0x02ac                  _SPI1CON1 = 0x2ac
                    0x02ac                  _SPI1CON1bits = 0x2ac
                    0x02ac                  SPI1CON1L = 0x2ac
                    0x02ac                  _SPI1CON1L = 0x2ac
                    0x02ac                  _SPI1CON1Lbits = 0x2ac
                    0x02ae                  SPI1CON1H = 0x2ae
                    0x02ae                  _SPI1CON1H = 0x2ae
                    0x02ae                  _SPI1CON1Hbits = 0x2ae
                    0x02ae                  SPI1CON2 = 0x2ae
                    0x02ae                  _SPI1CON2 = 0x2ae
                    0x02ae                  _SPI1CON2bits = 0x2ae
                    0x02b0                  SPI1CON2L = 0x2b0
                    0x02b0                  _SPI1CON2L = 0x2b0
                    0x02b0                  _SPI1CON2Lbits = 0x2b0
                    0x02b0                  SPI1CON3 = 0x2b0
                    0x02b0                  _SPI1CON3 = 0x2b0
                    0x02b0                  _SPI1CON3bits = 0x2b0
                    0x02b2                  SPI1CON2H = 0x2b2
                    0x02b2                  _SPI1CON2H = 0x2b2
                    0x02b2                  SPI1CON4 = 0x2b2
                    0x02b2                  _SPI1CON4 = 0x2b2
                    0x02b4                  SPI1STATL = 0x2b4
                    0x02b4                  _SPI1STATL = 0x2b4
                    0x02b4                  _SPI1STATLbits = 0x2b4
                    0x02b6                  SPI1STATH = 0x2b6
                    0x02b6                  _SPI1STATH = 0x2b6
                    0x02b6                  _SPI1STATHbits = 0x2b6
                    0x02b8                  SPI1BUFL = 0x2b8
                    0x02b8                  _SPI1BUFL = 0x2b8
                    0x02b8                  _SPI1BUFLbits = 0x2b8
                    0x02ba                  SPI1BUFH = 0x2ba
                    0x02ba                  _SPI1BUFH = 0x2ba
                    0x02ba                  _SPI1BUFHbits = 0x2ba
                    0x02bc                  SPI1BRGL = 0x2bc
                    0x02bc                  _SPI1BRGL = 0x2bc
                    0x02bc                  _SPI1BRGLbits = 0x2bc
                    0x02be                  SPI1BRGH = 0x2be
                    0x02be                  _SPI1BRGH = 0x2be
                    0x02c0                  SPI1IMSK1 = 0x2c0
                    0x02c0                  _SPI1IMSK1 = 0x2c0
                    0x02c0                  _SPI1IMSK1bits = 0x2c0
                    0x02c0                  SPI1IMSKL = 0x2c0
                    0x02c0                  _SPI1IMSKL = 0x2c0
                    0x02c0                  _SPI1IMSKLbits = 0x2c0
                    0x02c2                  SPI1IMSK2 = 0x2c2
                    0x02c2                  _SPI1IMSK2 = 0x2c2
                    0x02c2                  _SPI1IMSK2bits = 0x2c2
                    0x02c2                  SPI1IMSKH = 0x2c2
                    0x02c2                  _SPI1IMSKH = 0x2c2
                    0x02c2                  _SPI1IMSKHbits = 0x2c2
                    0x02c4                  SPI1URDTL = 0x2c4
                    0x02c4                  _SPI1URDTL = 0x2c4
                    0x02c4                  _SPI1URDTLbits = 0x2c4
                    0x02c6                  SPI1URDTH = 0x2c6
                    0x02c6                  _SPI1URDTH = 0x2c6
                    0x02c6                  _SPI1URDTHbits = 0x2c6
                    0x02c8                  SPI2CON1 = 0x2c8
                    0x02c8                  _SPI2CON1 = 0x2c8
                    0x02c8                  _SPI2CON1bits = 0x2c8
                    0x02c8                  SPI2CON1L = 0x2c8
                    0x02c8                  _SPI2CON1L = 0x2c8
                    0x02c8                  _SPI2CON1Lbits = 0x2c8
                    0x02ca                  SPI2CON1H = 0x2ca
                    0x02ca                  _SPI2CON1H = 0x2ca
                    0x02ca                  _SPI2CON1Hbits = 0x2ca
                    0x02ca                  SPI2CON2 = 0x2ca
                    0x02ca                  _SPI2CON2 = 0x2ca
                    0x02ca                  _SPI2CON2bits = 0x2ca
                    0x02cc                  SPI2CON2L = 0x2cc
                    0x02cc                  _SPI2CON2L = 0x2cc
                    0x02cc                  _SPI2CON2Lbits = 0x2cc
                    0x02cc                  SPI2CON3 = 0x2cc
                    0x02cc                  _SPI2CON3 = 0x2cc
                    0x02cc                  _SPI2CON3bits = 0x2cc
                    0x02ce                  SPI2CON2H = 0x2ce
                    0x02ce                  _SPI2CON2H = 0x2ce
                    0x02ce                  SPI2CON4 = 0x2ce
                    0x02ce                  _SPI2CON4 = 0x2ce
                    0x02d0                  SPI2STATL = 0x2d0
                    0x02d0                  _SPI2STATL = 0x2d0
                    0x02d0                  _SPI2STATLbits = 0x2d0
                    0x02d2                  SPI2STATH = 0x2d2
                    0x02d2                  _SPI2STATH = 0x2d2
                    0x02d2                  _SPI2STATHbits = 0x2d2
                    0x02d4                  SPI2BUFL = 0x2d4
                    0x02d4                  _SPI2BUFL = 0x2d4
                    0x02d4                  _SPI2BUFLbits = 0x2d4
                    0x02d6                  SPI2BUFH = 0x2d6
                    0x02d6                  _SPI2BUFH = 0x2d6
                    0x02d6                  _SPI2BUFHbits = 0x2d6
                    0x02d8                  SPI2BRGL = 0x2d8
                    0x02d8                  _SPI2BRGL = 0x2d8
                    0x02d8                  _SPI2BRGLbits = 0x2d8
                    0x02da                  SPI2BRGH = 0x2da
                    0x02da                  _SPI2BRGH = 0x2da
                    0x02dc                  SPI2IMSK1 = 0x2dc
                    0x02dc                  _SPI2IMSK1 = 0x2dc
                    0x02dc                  _SPI2IMSK1bits = 0x2dc
                    0x02dc                  SPI2IMSKL = 0x2dc
                    0x02dc                  _SPI2IMSKL = 0x2dc
                    0x02dc                  _SPI2IMSKLbits = 0x2dc
                    0x02de                  SPI2IMSK2 = 0x2de
                    0x02de                  _SPI2IMSK2 = 0x2de
                    0x02de                  _SPI2IMSK2bits = 0x2de
                    0x02de                  SPI2IMSKH = 0x2de
                    0x02de                  _SPI2IMSKH = 0x2de
                    0x02de                  _SPI2IMSKHbits = 0x2de
                    0x02e0                  SPI2URDTL = 0x2e0
                    0x02e0                  _SPI2URDTL = 0x2e0
                    0x02e0                  _SPI2URDTLbits = 0x2e0
                    0x02e2                  SPI2URDTH = 0x2e2
                    0x02e2                  _SPI2URDTH = 0x2e2
                    0x02e2                  _SPI2URDTHbits = 0x2e2
                    0x02e4                  SPI3CON1 = 0x2e4
                    0x02e4                  _SPI3CON1 = 0x2e4
                    0x02e4                  _SPI3CON1bits = 0x2e4
                    0x02e4                  SPI3CON1L = 0x2e4
                    0x02e4                  _SPI3CON1L = 0x2e4
                    0x02e4                  _SPI3CON1Lbits = 0x2e4
                    0x02e6                  SPI3CON1H = 0x2e6
                    0x02e6                  _SPI3CON1H = 0x2e6
                    0x02e6                  _SPI3CON1Hbits = 0x2e6
                    0x02e6                  SPI3CON2 = 0x2e6
                    0x02e6                  _SPI3CON2 = 0x2e6
                    0x02e6                  _SPI3CON2bits = 0x2e6
                    0x02e8                  SPI3CON2L = 0x2e8
                    0x02e8                  _SPI3CON2L = 0x2e8
                    0x02e8                  _SPI3CON2Lbits = 0x2e8
                    0x02e8                  SPI3CON3 = 0x2e8
                    0x02e8                  _SPI3CON3 = 0x2e8
                    0x02e8                  _SPI3CON3bits = 0x2e8
                    0x02ea                  SPI3CON2H = 0x2ea
                    0x02ea                  _SPI3CON2H = 0x2ea
                    0x02ea                  SPI3CON4 = 0x2ea
                    0x02ea                  _SPI3CON4 = 0x2ea
                    0x02ec                  SPI3STATL = 0x2ec
                    0x02ec                  _SPI3STATL = 0x2ec
                    0x02ec                  _SPI3STATLbits = 0x2ec
                    0x02ee                  SPI3STATH = 0x2ee
                    0x02ee                  _SPI3STATH = 0x2ee
                    0x02ee                  _SPI3STATHbits = 0x2ee
                    0x02f0                  SPI3BUFL = 0x2f0
                    0x02f0                  _SPI3BUFL = 0x2f0
                    0x02f0                  _SPI3BUFLbits = 0x2f0
                    0x02f2                  SPI3BUFH = 0x2f2
                    0x02f2                  _SPI3BUFH = 0x2f2
                    0x02f2                  _SPI3BUFHbits = 0x2f2
                    0x02f4                  SPI3BRGL = 0x2f4
                    0x02f4                  _SPI3BRGL = 0x2f4
                    0x02f4                  _SPI3BRGLbits = 0x2f4
                    0x02f6                  SPI3BRGH = 0x2f6
                    0x02f6                  _SPI3BRGH = 0x2f6
                    0x02f8                  SPI3IMSK1 = 0x2f8
                    0x02f8                  _SPI3IMSK1 = 0x2f8
                    0x02f8                  _SPI3IMSK1bits = 0x2f8
                    0x02f8                  SPI3IMSKL = 0x2f8
                    0x02f8                  _SPI3IMSKL = 0x2f8
                    0x02f8                  _SPI3IMSKLbits = 0x2f8
                    0x02fa                  SPI3IMSK2 = 0x2fa
                    0x02fa                  _SPI3IMSK2 = 0x2fa
                    0x02fa                  _SPI3IMSK2bits = 0x2fa
                    0x02fa                  SPI3IMSKH = 0x2fa
                    0x02fa                  _SPI3IMSKH = 0x2fa
                    0x02fa                  _SPI3IMSKHbits = 0x2fa
                    0x02fc                  SPI3URDTL = 0x2fc
                    0x02fc                  _SPI3URDTL = 0x2fc
                    0x02fc                  _SPI3URDTLbits = 0x2fc
                    0x02fe                  SPI3URDTH = 0x2fe
                    0x02fe                  _SPI3URDTH = 0x2fe
                    0x02fe                  _SPI3URDTHbits = 0x2fe
                    0x0300                  PCLKCON = 0x300
                    0x0300                  _PCLKCON = 0x300
                    0x0300                  _PCLKCONbits = 0x300
                    0x0302                  FSCL = 0x302
                    0x0302                  _FSCL = 0x302
                    0x0304                  FSMINPER = 0x304
                    0x0304                  _FSMINPER = 0x304
                    0x0306                  MPHASE = 0x306
                    0x0306                  _MPHASE = 0x306
                    0x0308                  MDC = 0x308
                    0x0308                  _MDC = 0x308
                    0x030a                  MPER = 0x30a
                    0x030a                  _MPER = 0x30a
                    0x030c                  LFSR = 0x30c
                    0x030c                  _LFSR = 0x30c
                    0x030c                  _LFSRbits = 0x30c
                    0x030e                  CMBTRIGL = 0x30e
                    0x030e                  _CMBTRIGL = 0x30e
                    0x030e                  _CMBTRIGLbits = 0x30e
                    0x0310                  CMBTRIGH = 0x310
                    0x0310                  _CMBTRIGH = 0x310
                    0x0310                  _CMBTRIGHbits = 0x310
                    0x0312                  LOGCONA = 0x312
                    0x0312                  _LOGCONA = 0x312
                    0x0312                  _LOGCONAbits = 0x312
                    0x0314                  LOGCONB = 0x314
                    0x0314                  _LOGCONB = 0x314
                    0x0314                  _LOGCONBbits = 0x314
                    0x0316                  LOGCONC = 0x316
                    0x0316                  _LOGCONC = 0x316
                    0x0316                  _LOGCONCbits = 0x316
                    0x0318                  LOGCOND = 0x318
                    0x0318                  _LOGCOND = 0x318
                    0x0318                  _LOGCONDbits = 0x318
                    0x031a                  LOGCONE = 0x31a
                    0x031a                  _LOGCONE = 0x31a
                    0x031a                  _LOGCONEbits = 0x31a
                    0x031c                  LOGCONF = 0x31c
                    0x031c                  _LOGCONF = 0x31c
                    0x031c                  _LOGCONFbits = 0x31c
                    0x031e                  PWMEVTA = 0x31e
                    0x031e                  _PWMEVTA = 0x31e
                    0x031e                  _PWMEVTAbits = 0x31e
                    0x0320                  PWMEVTB = 0x320
                    0x0320                  _PWMEVTB = 0x320
                    0x0320                  _PWMEVTBbits = 0x320
                    0x0322                  PWMEVTC = 0x322
                    0x0322                  _PWMEVTC = 0x322
                    0x0322                  _PWMEVTCbits = 0x322
                    0x0324                  PWMEVTD = 0x324
                    0x0324                  _PWMEVTD = 0x324
                    0x0324                  _PWMEVTDbits = 0x324
                    0x0326                  PWMEVTE = 0x326
                    0x0326                  _PWMEVTE = 0x326
                    0x0326                  _PWMEVTEbits = 0x326
                    0x0328                  PWMEVTF = 0x328
                    0x0328                  _PWMEVTF = 0x328
                    0x0328                  _PWMEVTFbits = 0x328
                    0x032a                  PG1CONL = 0x32a
                    0x032a                  _PG1CONL = 0x32a
                    0x032a                  _PG1CONLbits = 0x32a
                    0x032c                  PG1CONH = 0x32c
                    0x032c                  _PG1CONH = 0x32c
                    0x032c                  _PG1CONHbits = 0x32c
                    0x032e                  PG1STAT = 0x32e
                    0x032e                  _PG1STAT = 0x32e
                    0x032e                  _PG1STATbits = 0x32e
                    0x0330                  PG1IOCONL = 0x330
                    0x0330                  _PG1IOCONL = 0x330
                    0x0330                  _PG1IOCONLbits = 0x330
                    0x0332                  PG1IOCONH = 0x332
                    0x0332                  _PG1IOCONH = 0x332
                    0x0332                  _PG1IOCONHbits = 0x332
                    0x0334                  PG1EVTL = 0x334
                    0x0334                  _PG1EVTL = 0x334
                    0x0334                  _PG1EVTLbits = 0x334
                    0x0336                  PG1EVTH = 0x336
                    0x0336                  _PG1EVTH = 0x336
                    0x0336                  _PG1EVTHbits = 0x336
                    0x0338                  PG1FPCIL = 0x338
                    0x0338                  _PG1FPCIL = 0x338
                    0x0338                  _PG1FPCILbits = 0x338
                    0x033a                  PG1FPCIH = 0x33a
                    0x033a                  _PG1FPCIH = 0x33a
                    0x033a                  _PG1FPCIHbits = 0x33a
                    0x033c                  PG1CLPCIL = 0x33c
                    0x033c                  _PG1CLPCIL = 0x33c
                    0x033c                  _PG1CLPCILbits = 0x33c
                    0x033e                  PG1CLPCIH = 0x33e
                    0x033e                  _PG1CLPCIH = 0x33e
                    0x033e                  _PG1CLPCIHbits = 0x33e
                    0x0340                  PG1FFPCIL = 0x340
                    0x0340                  _PG1FFPCIL = 0x340
                    0x0340                  _PG1FFPCILbits = 0x340
                    0x0342                  PG1FFPCIH = 0x342
                    0x0342                  _PG1FFPCIH = 0x342
                    0x0342                  _PG1FFPCIHbits = 0x342
                    0x0344                  PG1SPCIL = 0x344
                    0x0344                  _PG1SPCIL = 0x344
                    0x0344                  _PG1SPCILbits = 0x344
                    0x0346                  PG1SPCIH = 0x346
                    0x0346                  _PG1SPCIH = 0x346
                    0x0346                  _PG1SPCIHbits = 0x346
                    0x0348                  PG1LEBL = 0x348
                    0x0348                  _PG1LEBL = 0x348
                    0x034a                  PG1LEBH = 0x34a
                    0x034a                  _PG1LEBH = 0x34a
                    0x034a                  _PG1LEBHbits = 0x34a
                    0x034c                  PG1PHASE = 0x34c
                    0x034c                  _PG1PHASE = 0x34c
                    0x034e                  PG1DC = 0x34e
                    0x034e                  _PG1DC = 0x34e
                    0x0350                  PG1DCA = 0x350
                    0x0350                  _PG1DCA = 0x350
                    0x0350                  _PG1DCAbits = 0x350
                    0x0352                  PG1PER = 0x352
                    0x0352                  _PG1PER = 0x352
                    0x0354                  PG1TRIGA = 0x354
                    0x0354                  _PG1TRIGA = 0x354
                    0x0356                  PG1TRIGB = 0x356
                    0x0356                  _PG1TRIGB = 0x356
                    0x0358                  PG1TRIGC = 0x358
                    0x0358                  _PG1TRIGC = 0x358
                    0x035a                  PG1DTL = 0x35a
                    0x035a                  _PG1DTL = 0x35a
                    0x035a                  _PG1DTLbits = 0x35a
                    0x035c                  PG1DTH = 0x35c
                    0x035c                  _PG1DTH = 0x35c
                    0x035c                  _PG1DTHbits = 0x35c
                    0x035e                  PG1CAP = 0x35e
                    0x035e                  _PG1CAP = 0x35e
                    0x0360                  PG2CONL = 0x360
                    0x0360                  _PG2CONL = 0x360
                    0x0360                  _PG2CONLbits = 0x360
                    0x0362                  PG2CONH = 0x362
                    0x0362                  _PG2CONH = 0x362
                    0x0362                  _PG2CONHbits = 0x362
                    0x0364                  PG2STAT = 0x364
                    0x0364                  _PG2STAT = 0x364
                    0x0364                  _PG2STATbits = 0x364
                    0x0366                  PG2IOCONL = 0x366
                    0x0366                  _PG2IOCONL = 0x366
                    0x0366                  _PG2IOCONLbits = 0x366
                    0x0368                  PG2IOCONH = 0x368
                    0x0368                  _PG2IOCONH = 0x368
                    0x0368                  _PG2IOCONHbits = 0x368
                    0x036a                  PG2EVTL = 0x36a
                    0x036a                  _PG2EVTL = 0x36a
                    0x036a                  _PG2EVTLbits = 0x36a
                    0x036c                  PG2EVTH = 0x36c
                    0x036c                  _PG2EVTH = 0x36c
                    0x036c                  _PG2EVTHbits = 0x36c
                    0x036e                  PG2FPCIL = 0x36e
                    0x036e                  _PG2FPCIL = 0x36e
                    0x036e                  _PG2FPCILbits = 0x36e
                    0x0370                  PG2FPCIH = 0x370
                    0x0370                  _PG2FPCIH = 0x370
                    0x0370                  _PG2FPCIHbits = 0x370
                    0x0372                  PG2CLPCIL = 0x372
                    0x0372                  _PG2CLPCIL = 0x372
                    0x0372                  _PG2CLPCILbits = 0x372
                    0x0374                  PG2CLPCIH = 0x374
                    0x0374                  _PG2CLPCIH = 0x374
                    0x0374                  _PG2CLPCIHbits = 0x374
                    0x0376                  PG2FFPCIL = 0x376
                    0x0376                  _PG2FFPCIL = 0x376
                    0x0376                  _PG2FFPCILbits = 0x376
                    0x0378                  PG2FFPCIH = 0x378
                    0x0378                  _PG2FFPCIH = 0x378
                    0x0378                  _PG2FFPCIHbits = 0x378
                    0x037a                  PG2SPCIL = 0x37a
                    0x037a                  _PG2SPCIL = 0x37a
                    0x037a                  _PG2SPCILbits = 0x37a
                    0x037c                  PG2SPCIH = 0x37c
                    0x037c                  _PG2SPCIH = 0x37c
                    0x037c                  _PG2SPCIHbits = 0x37c
                    0x037e                  PG2LEBL = 0x37e
                    0x037e                  _PG2LEBL = 0x37e
                    0x0380                  PG2LEBH = 0x380
                    0x0380                  _PG2LEBH = 0x380
                    0x0380                  _PG2LEBHbits = 0x380
                    0x0382                  PG2PHASE = 0x382
                    0x0382                  _PG2PHASE = 0x382
                    0x0384                  PG2DC = 0x384
                    0x0384                  _PG2DC = 0x384
                    0x0386                  PG2DCA = 0x386
                    0x0386                  _PG2DCA = 0x386
                    0x0386                  _PG2DCAbits = 0x386
                    0x0388                  PG2PER = 0x388
                    0x0388                  _PG2PER = 0x388
                    0x038a                  PG2TRIGA = 0x38a
                    0x038a                  _PG2TRIGA = 0x38a
                    0x038c                  PG2TRIGB = 0x38c
                    0x038c                  _PG2TRIGB = 0x38c
                    0x038e                  PG2TRIGC = 0x38e
                    0x038e                  _PG2TRIGC = 0x38e
                    0x0390                  PG2DTL = 0x390
                    0x0390                  _PG2DTL = 0x390
                    0x0390                  _PG2DTLbits = 0x390
                    0x0392                  PG2DTH = 0x392
                    0x0392                  _PG2DTH = 0x392
                    0x0392                  _PG2DTHbits = 0x392
                    0x0394                  PG2CAP = 0x394
                    0x0394                  _PG2CAP = 0x394
                    0x0396                  PG3CONL = 0x396
                    0x0396                  _PG3CONL = 0x396
                    0x0396                  _PG3CONLbits = 0x396
                    0x0398                  PG3CONH = 0x398
                    0x0398                  _PG3CONH = 0x398
                    0x0398                  _PG3CONHbits = 0x398
                    0x039a                  PG3STAT = 0x39a
                    0x039a                  _PG3STAT = 0x39a
                    0x039a                  _PG3STATbits = 0x39a
                    0x039c                  PG3IOCONL = 0x39c
                    0x039c                  _PG3IOCONL = 0x39c
                    0x039c                  _PG3IOCONLbits = 0x39c
                    0x039e                  PG3IOCONH = 0x39e
                    0x039e                  _PG3IOCONH = 0x39e
                    0x039e                  _PG3IOCONHbits = 0x39e
                    0x03a0                  PG3EVTL = 0x3a0
                    0x03a0                  _PG3EVTL = 0x3a0
                    0x03a0                  _PG3EVTLbits = 0x3a0
                    0x03a2                  PG3EVTH = 0x3a2
                    0x03a2                  _PG3EVTH = 0x3a2
                    0x03a2                  _PG3EVTHbits = 0x3a2
                    0x03a4                  PG3FPCIL = 0x3a4
                    0x03a4                  _PG3FPCIL = 0x3a4
                    0x03a4                  _PG3FPCILbits = 0x3a4
                    0x03a6                  PG3FPCIH = 0x3a6
                    0x03a6                  _PG3FPCIH = 0x3a6
                    0x03a6                  _PG3FPCIHbits = 0x3a6
                    0x03a8                  PG3CLPCIL = 0x3a8
                    0x03a8                  _PG3CLPCIL = 0x3a8
                    0x03a8                  _PG3CLPCILbits = 0x3a8
                    0x03aa                  PG3CLPCIH = 0x3aa
                    0x03aa                  _PG3CLPCIH = 0x3aa
                    0x03aa                  _PG3CLPCIHbits = 0x3aa
                    0x03ac                  PG3FFPCIL = 0x3ac
                    0x03ac                  _PG3FFPCIL = 0x3ac
                    0x03ac                  _PG3FFPCILbits = 0x3ac
                    0x03ae                  PG3FFPCIH = 0x3ae
                    0x03ae                  _PG3FFPCIH = 0x3ae
                    0x03ae                  _PG3FFPCIHbits = 0x3ae
                    0x03b0                  PG3SPCIL = 0x3b0
                    0x03b0                  _PG3SPCIL = 0x3b0
                    0x03b0                  _PG3SPCILbits = 0x3b0
                    0x03b2                  PG3SPCIH = 0x3b2
                    0x03b2                  _PG3SPCIH = 0x3b2
                    0x03b2                  _PG3SPCIHbits = 0x3b2
                    0x03b4                  PG3LEBL = 0x3b4
                    0x03b4                  _PG3LEBL = 0x3b4
                    0x03b6                  PG3LEBH = 0x3b6
                    0x03b6                  _PG3LEBH = 0x3b6
                    0x03b6                  _PG3LEBHbits = 0x3b6
                    0x03b8                  PG3PHASE = 0x3b8
                    0x03b8                  _PG3PHASE = 0x3b8
                    0x03ba                  PG3DC = 0x3ba
                    0x03ba                  _PG3DC = 0x3ba
                    0x03bc                  PG3DCA = 0x3bc
                    0x03bc                  _PG3DCA = 0x3bc
                    0x03bc                  _PG3DCAbits = 0x3bc
                    0x03be                  PG3PER = 0x3be
                    0x03be                  _PG3PER = 0x3be
                    0x03c0                  PG3TRIGA = 0x3c0
                    0x03c0                  _PG3TRIGA = 0x3c0
                    0x03c2                  PG3TRIGB = 0x3c2
                    0x03c2                  _PG3TRIGB = 0x3c2
                    0x03c4                  PG3TRIGC = 0x3c4
                    0x03c4                  _PG3TRIGC = 0x3c4
                    0x03c6                  PG3DTL = 0x3c6
                    0x03c6                  _PG3DTL = 0x3c6
                    0x03c6                  _PG3DTLbits = 0x3c6
                    0x03c8                  PG3DTH = 0x3c8
                    0x03c8                  _PG3DTH = 0x3c8
                    0x03c8                  _PG3DTHbits = 0x3c8
                    0x03ca                  PG3CAP = 0x3ca
                    0x03ca                  _PG3CAP = 0x3ca
                    0x03cc                  PG4CONL = 0x3cc
                    0x03cc                  _PG4CONL = 0x3cc
                    0x03cc                  _PG4CONLbits = 0x3cc
                    0x03ce                  PG4CONH = 0x3ce
                    0x03ce                  _PG4CONH = 0x3ce
                    0x03ce                  _PG4CONHbits = 0x3ce
                    0x03d0                  PG4STAT = 0x3d0
                    0x03d0                  _PG4STAT = 0x3d0
                    0x03d0                  _PG4STATbits = 0x3d0
                    0x03d2                  PG4IOCONL = 0x3d2
                    0x03d2                  _PG4IOCONL = 0x3d2
                    0x03d2                  _PG4IOCONLbits = 0x3d2
                    0x03d4                  PG4IOCONH = 0x3d4
                    0x03d4                  _PG4IOCONH = 0x3d4
                    0x03d4                  _PG4IOCONHbits = 0x3d4
                    0x03d6                  PG4EVTL = 0x3d6
                    0x03d6                  _PG4EVTL = 0x3d6
                    0x03d6                  _PG4EVTLbits = 0x3d6
                    0x03d8                  PG4EVTH = 0x3d8
                    0x03d8                  _PG4EVTH = 0x3d8
                    0x03d8                  _PG4EVTHbits = 0x3d8
                    0x03da                  PG4FPCIL = 0x3da
                    0x03da                  _PG4FPCIL = 0x3da
                    0x03da                  _PG4FPCILbits = 0x3da
                    0x03dc                  PG4FPCIH = 0x3dc
                    0x03dc                  _PG4FPCIH = 0x3dc
                    0x03dc                  _PG4FPCIHbits = 0x3dc
                    0x03de                  PG4CLPCIL = 0x3de
                    0x03de                  _PG4CLPCIL = 0x3de
                    0x03de                  _PG4CLPCILbits = 0x3de
                    0x03e0                  PG4CLPCIH = 0x3e0
                    0x03e0                  _PG4CLPCIH = 0x3e0
                    0x03e0                  _PG4CLPCIHbits = 0x3e0
                    0x03e2                  PG4FFPCIL = 0x3e2
                    0x03e2                  _PG4FFPCIL = 0x3e2
                    0x03e2                  _PG4FFPCILbits = 0x3e2
                    0x03e4                  PG4FFPCIH = 0x3e4
                    0x03e4                  _PG4FFPCIH = 0x3e4
                    0x03e4                  _PG4FFPCIHbits = 0x3e4
                    0x03e6                  PG4SPCIL = 0x3e6
                    0x03e6                  _PG4SPCIL = 0x3e6
                    0x03e6                  _PG4SPCILbits = 0x3e6
                    0x03e8                  PG4SPCIH = 0x3e8
                    0x03e8                  _PG4SPCIH = 0x3e8
                    0x03e8                  _PG4SPCIHbits = 0x3e8
                    0x03ea                  PG4LEBL = 0x3ea
                    0x03ea                  _PG4LEBL = 0x3ea
                    0x03ec                  PG4LEBH = 0x3ec
                    0x03ec                  _PG4LEBH = 0x3ec
                    0x03ec                  _PG4LEBHbits = 0x3ec
                    0x03ee                  PG4PHASE = 0x3ee
                    0x03ee                  _PG4PHASE = 0x3ee
                    0x03f0                  PG4DC = 0x3f0
                    0x03f0                  _PG4DC = 0x3f0
                    0x03f2                  PG4DCA = 0x3f2
                    0x03f2                  _PG4DCA = 0x3f2
                    0x03f2                  _PG4DCAbits = 0x3f2
                    0x03f4                  PG4PER = 0x3f4
                    0x03f4                  _PG4PER = 0x3f4
                    0x03f6                  PG4TRIGA = 0x3f6
                    0x03f6                  _PG4TRIGA = 0x3f6
                    0x03f8                  PG4TRIGB = 0x3f8
                    0x03f8                  _PG4TRIGB = 0x3f8
                    0x03fa                  PG4TRIGC = 0x3fa
                    0x03fa                  _PG4TRIGC = 0x3fa
                    0x03fc                  PG4DTL = 0x3fc
                    0x03fc                  _PG4DTL = 0x3fc
                    0x03fc                  _PG4DTLbits = 0x3fc
                    0x03fe                  PG4DTH = 0x3fe
                    0x03fe                  _PG4DTH = 0x3fe
                    0x03fe                  _PG4DTHbits = 0x3fe
                    0x0400                  PG4CAP = 0x400
                    0x0400                  _PG4CAP = 0x400
                    0x0402                  PG5CONL = 0x402
                    0x0402                  _PG5CONL = 0x402
                    0x0402                  _PG5CONLbits = 0x402
                    0x0404                  PG5CONH = 0x404
                    0x0404                  _PG5CONH = 0x404
                    0x0404                  _PG5CONHbits = 0x404
                    0x0406                  PG5STAT = 0x406
                    0x0406                  _PG5STAT = 0x406
                    0x0406                  _PG5STATbits = 0x406
                    0x0408                  PG5IOCONL = 0x408
                    0x0408                  _PG5IOCONL = 0x408
                    0x0408                  _PG5IOCONLbits = 0x408
                    0x040a                  PG5IOCONH = 0x40a
                    0x040a                  _PG5IOCONH = 0x40a
                    0x040a                  _PG5IOCONHbits = 0x40a
                    0x040c                  PG5EVTL = 0x40c
                    0x040c                  _PG5EVTL = 0x40c
                    0x040c                  _PG5EVTLbits = 0x40c
                    0x040e                  PG5EVTH = 0x40e
                    0x040e                  _PG5EVTH = 0x40e
                    0x040e                  _PG5EVTHbits = 0x40e
                    0x0410                  PG5FPCIL = 0x410
                    0x0410                  _PG5FPCIL = 0x410
                    0x0410                  _PG5FPCILbits = 0x410
                    0x0412                  PG5FPCIH = 0x412
                    0x0412                  _PG5FPCIH = 0x412
                    0x0412                  _PG5FPCIHbits = 0x412
                    0x0414                  PG5CLPCIL = 0x414
                    0x0414                  _PG5CLPCIL = 0x414
                    0x0414                  _PG5CLPCILbits = 0x414
                    0x0416                  PG5CLPCIH = 0x416
                    0x0416                  _PG5CLPCIH = 0x416
                    0x0416                  _PG5CLPCIHbits = 0x416
                    0x0418                  PG5FFPCIL = 0x418
                    0x0418                  _PG5FFPCIL = 0x418
                    0x0418                  _PG5FFPCILbits = 0x418
                    0x041a                  PG5FFPCIH = 0x41a
                    0x041a                  _PG5FFPCIH = 0x41a
                    0x041a                  _PG5FFPCIHbits = 0x41a
                    0x041c                  PG5SPCIL = 0x41c
                    0x041c                  _PG5SPCIL = 0x41c
                    0x041c                  _PG5SPCILbits = 0x41c
                    0x041e                  PG5SPCIH = 0x41e
                    0x041e                  _PG5SPCIH = 0x41e
                    0x041e                  _PG5SPCIHbits = 0x41e
                    0x0420                  PG5LEBL = 0x420
                    0x0420                  _PG5LEBL = 0x420
                    0x0422                  PG5LEBH = 0x422
                    0x0422                  _PG5LEBH = 0x422
                    0x0422                  _PG5LEBHbits = 0x422
                    0x0424                  PG5PHASE = 0x424
                    0x0424                  _PG5PHASE = 0x424
                    0x0426                  PG5DC = 0x426
                    0x0426                  _PG5DC = 0x426
                    0x0428                  PG5DCA = 0x428
                    0x0428                  _PG5DCA = 0x428
                    0x0428                  _PG5DCAbits = 0x428
                    0x042a                  PG5PER = 0x42a
                    0x042a                  _PG5PER = 0x42a
                    0x042c                  PG5TRIGA = 0x42c
                    0x042c                  _PG5TRIGA = 0x42c
                    0x042e                  PG5TRIGB = 0x42e
                    0x042e                  _PG5TRIGB = 0x42e
                    0x0430                  PG5TRIGC = 0x430
                    0x0430                  _PG5TRIGC = 0x430
                    0x0432                  PG5DTL = 0x432
                    0x0432                  _PG5DTL = 0x432
                    0x0432                  _PG5DTLbits = 0x432
                    0x0434                  PG5DTH = 0x434
                    0x0434                  _PG5DTH = 0x434
                    0x0434                  _PG5DTHbits = 0x434
                    0x0436                  PG5CAP = 0x436
                    0x0436                  _PG5CAP = 0x436
                    0x0438                  PG6CONL = 0x438
                    0x0438                  _PG6CONL = 0x438
                    0x0438                  _PG6CONLbits = 0x438
                    0x043a                  PG6CONH = 0x43a
                    0x043a                  _PG6CONH = 0x43a
                    0x043a                  _PG6CONHbits = 0x43a
                    0x043c                  PG6STAT = 0x43c
                    0x043c                  _PG6STAT = 0x43c
                    0x043c                  _PG6STATbits = 0x43c
                    0x043e                  PG6IOCONL = 0x43e
                    0x043e                  _PG6IOCONL = 0x43e
                    0x043e                  _PG6IOCONLbits = 0x43e
                    0x0440                  PG6IOCONH = 0x440
                    0x0440                  _PG6IOCONH = 0x440
                    0x0440                  _PG6IOCONHbits = 0x440
                    0x0442                  PG6EVTL = 0x442
                    0x0442                  _PG6EVTL = 0x442
                    0x0442                  _PG6EVTLbits = 0x442
                    0x0444                  PG6EVTH = 0x444
                    0x0444                  _PG6EVTH = 0x444
                    0x0444                  _PG6EVTHbits = 0x444
                    0x0446                  PG6FPCIL = 0x446
                    0x0446                  _PG6FPCIL = 0x446
                    0x0446                  _PG6FPCILbits = 0x446
                    0x0448                  PG6FPCIH = 0x448
                    0x0448                  _PG6FPCIH = 0x448
                    0x0448                  _PG6FPCIHbits = 0x448
                    0x044a                  PG6CLPCIL = 0x44a
                    0x044a                  _PG6CLPCIL = 0x44a
                    0x044a                  _PG6CLPCILbits = 0x44a
                    0x044c                  PG6CLPCIH = 0x44c
                    0x044c                  _PG6CLPCIH = 0x44c
                    0x044c                  _PG6CLPCIHbits = 0x44c
                    0x044e                  PG6FFPCIL = 0x44e
                    0x044e                  _PG6FFPCIL = 0x44e
                    0x044e                  _PG6FFPCILbits = 0x44e
                    0x0450                  PG6FFPCIH = 0x450
                    0x0450                  _PG6FFPCIH = 0x450
                    0x0450                  _PG6FFPCIHbits = 0x450
                    0x0452                  PG6SPCIL = 0x452
                    0x0452                  _PG6SPCIL = 0x452
                    0x0452                  _PG6SPCILbits = 0x452
                    0x0454                  PG6SPCIH = 0x454
                    0x0454                  _PG6SPCIH = 0x454
                    0x0454                  _PG6SPCIHbits = 0x454
                    0x0456                  PG6LEBL = 0x456
                    0x0456                  _PG6LEBL = 0x456
                    0x0458                  PG6LEBH = 0x458
                    0x0458                  _PG6LEBH = 0x458
                    0x0458                  _PG6LEBHbits = 0x458
                    0x045a                  PG6PHASE = 0x45a
                    0x045a                  _PG6PHASE = 0x45a
                    0x045c                  PG6DC = 0x45c
                    0x045c                  _PG6DC = 0x45c
                    0x045e                  PG6DCA = 0x45e
                    0x045e                  _PG6DCA = 0x45e
                    0x045e                  _PG6DCAbits = 0x45e
                    0x0460                  PG6PER = 0x460
                    0x0460                  _PG6PER = 0x460
                    0x0462                  PG6TRIGA = 0x462
                    0x0462                  _PG6TRIGA = 0x462
                    0x0464                  PG6TRIGB = 0x464
                    0x0464                  _PG6TRIGB = 0x464
                    0x0466                  PG6TRIGC = 0x466
                    0x0466                  _PG6TRIGC = 0x466
                    0x0468                  PG6DTL = 0x468
                    0x0468                  _PG6DTL = 0x468
                    0x0468                  _PG6DTLbits = 0x468
                    0x046a                  PG6DTH = 0x46a
                    0x046a                  _PG6DTH = 0x46a
                    0x046a                  _PG6DTHbits = 0x46a
                    0x046c                  PG6CAP = 0x46c
                    0x046c                  _PG6CAP = 0x46c
                    0x046e                  PG7CONL = 0x46e
                    0x046e                  _PG7CONL = 0x46e
                    0x046e                  _PG7CONLbits = 0x46e
                    0x0470                  PG7CONH = 0x470
                    0x0470                  _PG7CONH = 0x470
                    0x0470                  _PG7CONHbits = 0x470
                    0x0472                  PG7STAT = 0x472
                    0x0472                  _PG7STAT = 0x472
                    0x0472                  _PG7STATbits = 0x472
                    0x0474                  PG7IOCONL = 0x474
                    0x0474                  _PG7IOCONL = 0x474
                    0x0474                  _PG7IOCONLbits = 0x474
                    0x0476                  PG7IOCONH = 0x476
                    0x0476                  _PG7IOCONH = 0x476
                    0x0476                  _PG7IOCONHbits = 0x476
                    0x0478                  PG7EVTL = 0x478
                    0x0478                  _PG7EVTL = 0x478
                    0x0478                  _PG7EVTLbits = 0x478
                    0x047a                  PG7EVTH = 0x47a
                    0x047a                  _PG7EVTH = 0x47a
                    0x047a                  _PG7EVTHbits = 0x47a
                    0x047c                  PG7FPCIL = 0x47c
                    0x047c                  _PG7FPCIL = 0x47c
                    0x047c                  _PG7FPCILbits = 0x47c
                    0x047e                  PG7FPCIH = 0x47e
                    0x047e                  _PG7FPCIH = 0x47e
                    0x047e                  _PG7FPCIHbits = 0x47e
                    0x0480                  PG7CLPCIL = 0x480
                    0x0480                  _PG7CLPCIL = 0x480
                    0x0480                  _PG7CLPCILbits = 0x480
                    0x0482                  PG7CLPCIH = 0x482
                    0x0482                  _PG7CLPCIH = 0x482
                    0x0482                  _PG7CLPCIHbits = 0x482
                    0x0484                  PG7FFPCIL = 0x484
                    0x0484                  _PG7FFPCIL = 0x484
                    0x0484                  _PG7FFPCILbits = 0x484
                    0x0486                  PG7FFPCIH = 0x486
                    0x0486                  _PG7FFPCIH = 0x486
                    0x0486                  _PG7FFPCIHbits = 0x486
                    0x0488                  PG7SPCIL = 0x488
                    0x0488                  _PG7SPCIL = 0x488
                    0x0488                  _PG7SPCILbits = 0x488
                    0x048a                  PG7SPCIH = 0x48a
                    0x048a                  _PG7SPCIH = 0x48a
                    0x048a                  _PG7SPCIHbits = 0x48a
                    0x048c                  PG7LEBL = 0x48c
                    0x048c                  _PG7LEBL = 0x48c
                    0x048e                  PG7LEBH = 0x48e
                    0x048e                  _PG7LEBH = 0x48e
                    0x048e                  _PG7LEBHbits = 0x48e
                    0x0490                  PG7PHASE = 0x490
                    0x0490                  _PG7PHASE = 0x490
                    0x0492                  PG7DC = 0x492
                    0x0492                  _PG7DC = 0x492
                    0x0494                  PG7DCA = 0x494
                    0x0494                  _PG7DCA = 0x494
                    0x0494                  _PG7DCAbits = 0x494
                    0x0496                  PG7PER = 0x496
                    0x0496                  _PG7PER = 0x496
                    0x0498                  PG7TRIGA = 0x498
                    0x0498                  _PG7TRIGA = 0x498
                    0x049a                  PG7TRIGB = 0x49a
                    0x049a                  _PG7TRIGB = 0x49a
                    0x049c                  PG7TRIGC = 0x49c
                    0x049c                  _PG7TRIGC = 0x49c
                    0x049e                  PG7DTL = 0x49e
                    0x049e                  _PG7DTL = 0x49e
                    0x049e                  _PG7DTLbits = 0x49e
                    0x04a0                  PG7DTH = 0x4a0
                    0x04a0                  _PG7DTH = 0x4a0
                    0x04a0                  _PG7DTHbits = 0x4a0
                    0x04a2                  PG7CAP = 0x4a2
                    0x04a2                  _PG7CAP = 0x4a2
                    0x04a4                  PG8CONL = 0x4a4
                    0x04a4                  _PG8CONL = 0x4a4
                    0x04a4                  _PG8CONLbits = 0x4a4
                    0x04a6                  PG8CONH = 0x4a6
                    0x04a6                  _PG8CONH = 0x4a6
                    0x04a6                  _PG8CONHbits = 0x4a6
                    0x04a8                  PG8STAT = 0x4a8
                    0x04a8                  _PG8STAT = 0x4a8
                    0x04a8                  _PG8STATbits = 0x4a8
                    0x04aa                  PG8IOCONL = 0x4aa
                    0x04aa                  _PG8IOCONL = 0x4aa
                    0x04aa                  _PG8IOCONLbits = 0x4aa
                    0x04ac                  PG8IOCONH = 0x4ac
                    0x04ac                  _PG8IOCONH = 0x4ac
                    0x04ac                  _PG8IOCONHbits = 0x4ac
                    0x04ae                  PG8EVTL = 0x4ae
                    0x04ae                  _PG8EVTL = 0x4ae
                    0x04ae                  _PG8EVTLbits = 0x4ae
                    0x04b0                  PG8EVTH = 0x4b0
                    0x04b0                  _PG8EVTH = 0x4b0
                    0x04b0                  _PG8EVTHbits = 0x4b0
                    0x04b2                  PG8FPCIL = 0x4b2
                    0x04b2                  _PG8FPCIL = 0x4b2
                    0x04b2                  _PG8FPCILbits = 0x4b2
                    0x04b4                  PG8FPCIH = 0x4b4
                    0x04b4                  _PG8FPCIH = 0x4b4
                    0x04b4                  _PG8FPCIHbits = 0x4b4
                    0x04b6                  PG8CLPCIL = 0x4b6
                    0x04b6                  _PG8CLPCIL = 0x4b6
                    0x04b6                  _PG8CLPCILbits = 0x4b6
                    0x04b8                  PG8CLPCIH = 0x4b8
                    0x04b8                  _PG8CLPCIH = 0x4b8
                    0x04b8                  _PG8CLPCIHbits = 0x4b8
                    0x04ba                  PG8FFPCIL = 0x4ba
                    0x04ba                  _PG8FFPCIL = 0x4ba
                    0x04ba                  _PG8FFPCILbits = 0x4ba
                    0x04bc                  PG8FFPCIH = 0x4bc
                    0x04bc                  _PG8FFPCIH = 0x4bc
                    0x04bc                  _PG8FFPCIHbits = 0x4bc
                    0x04be                  PG8SPCIL = 0x4be
                    0x04be                  _PG8SPCIL = 0x4be
                    0x04be                  _PG8SPCILbits = 0x4be
                    0x04c0                  PG8SPCIH = 0x4c0
                    0x04c0                  _PG8SPCIH = 0x4c0
                    0x04c0                  _PG8SPCIHbits = 0x4c0
                    0x04c2                  PG8LEBL = 0x4c2
                    0x04c2                  _PG8LEBL = 0x4c2
                    0x04c4                  PG8LEBH = 0x4c4
                    0x04c4                  _PG8LEBH = 0x4c4
                    0x04c4                  _PG8LEBHbits = 0x4c4
                    0x04c6                  PG8PHASE = 0x4c6
                    0x04c6                  _PG8PHASE = 0x4c6
                    0x04c8                  PG8DC = 0x4c8
                    0x04c8                  _PG8DC = 0x4c8
                    0x04ca                  PG8DCA = 0x4ca
                    0x04ca                  _PG8DCA = 0x4ca
                    0x04ca                  _PG8DCAbits = 0x4ca
                    0x04cc                  PG8PER = 0x4cc
                    0x04cc                  _PG8PER = 0x4cc
                    0x04ce                  PG8TRIGA = 0x4ce
                    0x04ce                  _PG8TRIGA = 0x4ce
                    0x04d0                  PG8TRIGB = 0x4d0
                    0x04d0                  _PG8TRIGB = 0x4d0
                    0x04d2                  PG8TRIGC = 0x4d2
                    0x04d2                  _PG8TRIGC = 0x4d2
                    0x04d4                  PG8DTL = 0x4d4
                    0x04d4                  _PG8DTL = 0x4d4
                    0x04d4                  _PG8DTLbits = 0x4d4
                    0x04d6                  PG8DTH = 0x4d6
                    0x04d6                  _PG8DTH = 0x4d6
                    0x04d6                  _PG8DTHbits = 0x4d6
                    0x04d8                  PG8CAP = 0x4d8
                    0x04d8                  _PG8CAP = 0x4d8
                    0x05c0                  C1CONL = 0x5c0
                    0x05c0                  _C1CONL = 0x5c0
                    0x05c0                  _C1CONLbits = 0x5c0
                    0x05c2                  C1CONH = 0x5c2
                    0x05c2                  _C1CONH = 0x5c2
                    0x05c2                  _C1CONHbits = 0x5c2
                    0x05c4                  C1NBTCFGL = 0x5c4
                    0x05c4                  _C1NBTCFGL = 0x5c4
                    0x05c4                  _C1NBTCFGLbits = 0x5c4
                    0x05c6                  C1NBTCFGH = 0x5c6
                    0x05c6                  _C1NBTCFGH = 0x5c6
                    0x05c6                  _C1NBTCFGHbits = 0x5c6
                    0x05c8                  C1DBTCFGL = 0x5c8
                    0x05c8                  _C1DBTCFGL = 0x5c8
                    0x05c8                  _C1DBTCFGLbits = 0x5c8
                    0x05ca                  C1DBTCFGH = 0x5ca
                    0x05ca                  _C1DBTCFGH = 0x5ca
                    0x05ca                  _C1DBTCFGHbits = 0x5ca
                    0x05cc                  C1TDCL = 0x5cc
                    0x05cc                  _C1TDCL = 0x5cc
                    0x05cc                  _C1TDCLbits = 0x5cc
                    0x05ce                  C1TDCH = 0x5ce
                    0x05ce                  _C1TDCH = 0x5ce
                    0x05ce                  _C1TDCHbits = 0x5ce
                    0x05d0                  C1TBCL = 0x5d0
                    0x05d0                  _C1TBCL = 0x5d0
                    0x05d0                  _C1TBCLbits = 0x5d0
                    0x05d2                  C1TBCH = 0x5d2
                    0x05d2                  _C1TBCH = 0x5d2
                    0x05d2                  _C1TBCHbits = 0x5d2
                    0x05d4                  C1TSCONL = 0x5d4
                    0x05d4                  _C1TSCONL = 0x5d4
                    0x05d4                  _C1TSCONLbits = 0x5d4
                    0x05d6                  C1TSCONH = 0x5d6
                    0x05d6                  _C1TSCONH = 0x5d6
                    0x05d6                  _C1TSCONHbits = 0x5d6
                    0x05d8                  C1VECL = 0x5d8
                    0x05d8                  _C1VECL = 0x5d8
                    0x05d8                  _C1VECLbits = 0x5d8
                    0x05da                  C1VECH = 0x5da
                    0x05da                  _C1VECH = 0x5da
                    0x05da                  _C1VECHbits = 0x5da
                    0x05dc                  C1INTL = 0x5dc
                    0x05dc                  _C1INTL = 0x5dc
                    0x05dc                  _C1INTLbits = 0x5dc
                    0x05de                  C1INTH = 0x5de
                    0x05de                  _C1INTH = 0x5de
                    0x05de                  _C1INTHbits = 0x5de
                    0x05e0                  C1RXIFL = 0x5e0
                    0x05e0                  _C1RXIFL = 0x5e0
                    0x05e0                  _C1RXIFLbits = 0x5e0
                    0x05e2                  C1RXIFH = 0x5e2
                    0x05e2                  _C1RXIFH = 0x5e2
                    0x05e2                  _C1RXIFHbits = 0x5e2
                    0x05e4                  C1TXIFL = 0x5e4
                    0x05e4                  _C1TXIFL = 0x5e4
                    0x05e4                  _C1TXIFLbits = 0x5e4
                    0x05e6                  C1TXIFH = 0x5e6
                    0x05e6                  _C1TXIFH = 0x5e6
                    0x05e6                  _C1TXIFHbits = 0x5e6
                    0x05e8                  C1RXOVIFL = 0x5e8
                    0x05e8                  _C1RXOVIFL = 0x5e8
                    0x05e8                  _C1RXOVIFLbits = 0x5e8
                    0x05ea                  C1RXOVIFH = 0x5ea
                    0x05ea                  _C1RXOVIFH = 0x5ea
                    0x05ea                  _C1RXOVIFHbits = 0x5ea
                    0x05ec                  C1TXATIFL = 0x5ec
                    0x05ec                  _C1TXATIFL = 0x5ec
                    0x05ec                  _C1TXATIFLbits = 0x5ec
                    0x05ee                  C1TXATIFH = 0x5ee
                    0x05ee                  _C1TXATIFH = 0x5ee
                    0x05ee                  _C1TXATIFHbits = 0x5ee
                    0x05f0                  C1TXREQL = 0x5f0
                    0x05f0                  _C1TXREQL = 0x5f0
                    0x05f0                  _C1TXREQLbits = 0x5f0
                    0x05f2                  C1TXREQH = 0x5f2
                    0x05f2                  _C1TXREQH = 0x5f2
                    0x05f2                  _C1TXREQHbits = 0x5f2
                    0x05f4                  C1TRECL = 0x5f4
                    0x05f4                  _C1TRECL = 0x5f4
                    0x05f4                  _C1TRECLbits = 0x5f4
                    0x05f6                  C1TRECH = 0x5f6
                    0x05f6                  _C1TRECH = 0x5f6
                    0x05f6                  _C1TRECHbits = 0x5f6
                    0x05f8                  C1BDIAG0L = 0x5f8
                    0x05f8                  _C1BDIAG0L = 0x5f8
                    0x05f8                  _C1BDIAG0Lbits = 0x5f8
                    0x05fa                  C1BDIAG0H = 0x5fa
                    0x05fa                  _C1BDIAG0H = 0x5fa
                    0x05fa                  _C1BDIAG0Hbits = 0x5fa
                    0x05fc                  C1BDIAG1L = 0x5fc
                    0x05fc                  _C1BDIAG1L = 0x5fc
                    0x05fc                  _C1BDIAG1Lbits = 0x5fc
                    0x05fe                  C1BDIAG1H = 0x5fe
                    0x05fe                  _C1BDIAG1H = 0x5fe
                    0x05fe                  _C1BDIAG1Hbits = 0x5fe
                    0x0600                  C1TEFCONL = 0x600
                    0x0600                  _C1TEFCONL = 0x600
                    0x0600                  _C1TEFCONLbits = 0x600
                    0x0602                  C1TEFCONH = 0x602
                    0x0602                  _C1TEFCONH = 0x602
                    0x0602                  _C1TEFCONHbits = 0x602
                    0x0604                  C1TEFSTA = 0x604
                    0x0604                  _C1TEFSTA = 0x604
                    0x0604                  _C1TEFSTAbits = 0x604
                    0x0608                  C1TEFUAL = 0x608
                    0x0608                  _C1TEFUAL = 0x608
                    0x0608                  _C1TEFUALbits = 0x608
                    0x060a                  C1TEFUAH = 0x60a
                    0x060a                  _C1TEFUAH = 0x60a
                    0x060a                  _C1TEFUAHbits = 0x60a
                    0x060c                  C1FIFOBAL = 0x60c
                    0x060c                  _C1FIFOBAL = 0x60c
                    0x060c                  _C1FIFOBALbits = 0x60c
                    0x060e                  C1FIFOBAH = 0x60e
                    0x060e                  _C1FIFOBAH = 0x60e
                    0x060e                  _C1FIFOBAHbits = 0x60e
                    0x0610                  C1TXQCONL = 0x610
                    0x0610                  _C1TXQCONL = 0x610
                    0x0610                  _C1TXQCONLbits = 0x610
                    0x0612                  C1TXQCONH = 0x612
                    0x0612                  _C1TXQCONH = 0x612
                    0x0612                  _C1TXQCONHbits = 0x612
                    0x0614                  C1TXQSTA = 0x614
                    0x0614                  _C1TXQSTA = 0x614
                    0x0614                  _C1TXQSTAbits = 0x614
                    0x0618                  C1TXQUAL = 0x618
                    0x0618                  _C1TXQUAL = 0x618
                    0x0618                  _C1TXQUALbits = 0x618
                    0x061a                  C1TXQUAH = 0x61a
                    0x061a                  _C1TXQUAH = 0x61a
                    0x061a                  _C1TXQUAHbits = 0x61a
                    0x061c                  C1FIFOCON1L = 0x61c
                    0x061c                  _C1FIFOCON1L = 0x61c
                    0x061c                  _C1FIFOCON1Lbits = 0x61c
                    0x061e                  C1FIFOCON1H = 0x61e
                    0x061e                  _C1FIFOCON1H = 0x61e
                    0x061e                  _C1FIFOCON1Hbits = 0x61e
                    0x0620                  C1FIFOSTA1 = 0x620
                    0x0620                  _C1FIFOSTA1 = 0x620
                    0x0620                  _C1FIFOSTA1bits = 0x620
                    0x0624                  C1FIFOUA1L = 0x624
                    0x0624                  _C1FIFOUA1L = 0x624
                    0x0624                  _C1FIFOUA1Lbits = 0x624
                    0x0626                  C1FIFOUA1H = 0x626
                    0x0626                  _C1FIFOUA1H = 0x626
                    0x0626                  _C1FIFOUA1Hbits = 0x626
                    0x0628                  C1FIFOCON2L = 0x628
                    0x0628                  _C1FIFOCON2L = 0x628
                    0x0628                  _C1FIFOCON2Lbits = 0x628
                    0x062a                  C1FIFOCON2H = 0x62a
                    0x062a                  _C1FIFOCON2H = 0x62a
                    0x062a                  _C1FIFOCON2Hbits = 0x62a
                    0x062c                  C1FIFOSTA2 = 0x62c
                    0x062c                  _C1FIFOSTA2 = 0x62c
                    0x062c                  _C1FIFOSTA2bits = 0x62c
                    0x0630                  C1FIFOUA2L = 0x630
                    0x0630                  _C1FIFOUA2L = 0x630
                    0x0630                  _C1FIFOUA2Lbits = 0x630
                    0x0632                  C1FIFOUA2H = 0x632
                    0x0632                  _C1FIFOUA2H = 0x632
                    0x0632                  _C1FIFOUA2Hbits = 0x632
                    0x0634                  C1FIFOCON3L = 0x634
                    0x0634                  _C1FIFOCON3L = 0x634
                    0x0634                  _C1FIFOCON3Lbits = 0x634
                    0x0636                  C1FIFOCON3H = 0x636
                    0x0636                  _C1FIFOCON3H = 0x636
                    0x0636                  _C1FIFOCON3Hbits = 0x636
                    0x0638                  C1FIFOSTA3 = 0x638
                    0x0638                  _C1FIFOSTA3 = 0x638
                    0x0638                  _C1FIFOSTA3bits = 0x638
                    0x063c                  C1FIFOUA3L = 0x63c
                    0x063c                  _C1FIFOUA3L = 0x63c
                    0x063c                  _C1FIFOUA3Lbits = 0x63c
                    0x063e                  C1FIFOUA3H = 0x63e
                    0x063e                  _C1FIFOUA3H = 0x63e
                    0x063e                  _C1FIFOUA3Hbits = 0x63e
                    0x0640                  C1FIFOCON4L = 0x640
                    0x0640                  _C1FIFOCON4L = 0x640
                    0x0640                  _C1FIFOCON4Lbits = 0x640
                    0x0642                  C1FIFOCON4H = 0x642
                    0x0642                  _C1FIFOCON4H = 0x642
                    0x0642                  _C1FIFOCON4Hbits = 0x642
                    0x0644                  C1FIFOSTA4 = 0x644
                    0x0644                  _C1FIFOSTA4 = 0x644
                    0x0644                  _C1FIFOSTA4bits = 0x644
                    0x0648                  C1FIFOUA4L = 0x648
                    0x0648                  _C1FIFOUA4L = 0x648
                    0x0648                  _C1FIFOUA4Lbits = 0x648
                    0x064a                  C1FIFOUA4H = 0x64a
                    0x064a                  _C1FIFOUA4H = 0x64a
                    0x064a                  _C1FIFOUA4Hbits = 0x64a
                    0x064c                  C1FIFOCON5L = 0x64c
                    0x064c                  _C1FIFOCON5L = 0x64c
                    0x064c                  _C1FIFOCON5Lbits = 0x64c
                    0x064e                  C1FIFOCON5H = 0x64e
                    0x064e                  _C1FIFOCON5H = 0x64e
                    0x064e                  _C1FIFOCON5Hbits = 0x64e
                    0x0650                  C1FIFOSTA5 = 0x650
                    0x0650                  _C1FIFOSTA5 = 0x650
                    0x0650                  _C1FIFOSTA5bits = 0x650
                    0x0654                  C1FIFOUA5L = 0x654
                    0x0654                  _C1FIFOUA5L = 0x654
                    0x0654                  _C1FIFOUA5Lbits = 0x654
                    0x0656                  C1FIFOUA5H = 0x656
                    0x0656                  _C1FIFOUA5H = 0x656
                    0x0656                  _C1FIFOUA5Hbits = 0x656
                    0x0658                  C1FIFOCON6L = 0x658
                    0x0658                  _C1FIFOCON6L = 0x658
                    0x0658                  _C1FIFOCON6Lbits = 0x658
                    0x065a                  C1FIFOCON6H = 0x65a
                    0x065a                  _C1FIFOCON6H = 0x65a
                    0x065a                  _C1FIFOCON6Hbits = 0x65a
                    0x065c                  C1FIFOSTA6 = 0x65c
                    0x065c                  _C1FIFOSTA6 = 0x65c
                    0x065c                  _C1FIFOSTA6bits = 0x65c
                    0x0660                  C1FIFOUA6L = 0x660
                    0x0660                  _C1FIFOUA6L = 0x660
                    0x0660                  _C1FIFOUA6Lbits = 0x660
                    0x0662                  C1FIFOUA6H = 0x662
                    0x0662                  _C1FIFOUA6H = 0x662
                    0x0662                  _C1FIFOUA6Hbits = 0x662
                    0x0664                  C1FIFOCON7L = 0x664
                    0x0664                  _C1FIFOCON7L = 0x664
                    0x0664                  _C1FIFOCON7Lbits = 0x664
                    0x0666                  C1FIFOCON7H = 0x666
                    0x0666                  _C1FIFOCON7H = 0x666
                    0x0666                  _C1FIFOCON7Hbits = 0x666
                    0x0668                  C1FIFOSTA7 = 0x668
                    0x0668                  _C1FIFOSTA7 = 0x668
                    0x0668                  _C1FIFOSTA7bits = 0x668
                    0x066c                  C1FIFOUA7L = 0x66c
                    0x066c                  _C1FIFOUA7L = 0x66c
                    0x066c                  _C1FIFOUA7Lbits = 0x66c
                    0x066e                  C1FIFOUA7H = 0x66e
                    0x066e                  _C1FIFOUA7H = 0x66e
                    0x066e                  _C1FIFOUA7Hbits = 0x66e
                    0x0670                  C1FLTCON0L = 0x670
                    0x0670                  _C1FLTCON0L = 0x670
                    0x0670                  _C1FLTCON0Lbits = 0x670
                    0x0672                  C1FLTCON0H = 0x672
                    0x0672                  _C1FLTCON0H = 0x672
                    0x0672                  _C1FLTCON0Hbits = 0x672
                    0x0674                  C1FLTCON1L = 0x674
                    0x0674                  _C1FLTCON1L = 0x674
                    0x0674                  _C1FLTCON1Lbits = 0x674
                    0x0676                  C1FLTCON1H = 0x676
                    0x0676                  _C1FLTCON1H = 0x676
                    0x0676                  _C1FLTCON1Hbits = 0x676
                    0x0678                  C1FLTCON2L = 0x678
                    0x0678                  _C1FLTCON2L = 0x678
                    0x0678                  _C1FLTCON2Lbits = 0x678
                    0x067a                  C1FLTCON2H = 0x67a
                    0x067a                  _C1FLTCON2H = 0x67a
                    0x067a                  _C1FLTCON2Hbits = 0x67a
                    0x067c                  C1FLTCON3L = 0x67c
                    0x067c                  _C1FLTCON3L = 0x67c
                    0x067c                  _C1FLTCON3Lbits = 0x67c
                    0x067e                  C1FLTCON3H = 0x67e
                    0x067e                  _C1FLTCON3H = 0x67e
                    0x067e                  _C1FLTCON3Hbits = 0x67e
                    0x0680                  C1FLTOBJ0L = 0x680
                    0x0680                  _C1FLTOBJ0L = 0x680
                    0x0680                  _C1FLTOBJ0Lbits = 0x680
                    0x0682                  C1FLTOBJ0H = 0x682
                    0x0682                  _C1FLTOBJ0H = 0x682
                    0x0682                  _C1FLTOBJ0Hbits = 0x682
                    0x0684                  C1MASK0L = 0x684
                    0x0684                  _C1MASK0L = 0x684
                    0x0684                  _C1MASK0Lbits = 0x684
                    0x0686                  C1MASK0H = 0x686
                    0x0686                  _C1MASK0H = 0x686
                    0x0686                  _C1MASK0Hbits = 0x686
                    0x0688                  C1FLTOBJ1L = 0x688
                    0x0688                  _C1FLTOBJ1L = 0x688
                    0x0688                  _C1FLTOBJ1Lbits = 0x688
                    0x068a                  C1FLTOBJ1H = 0x68a
                    0x068a                  _C1FLTOBJ1H = 0x68a
                    0x068a                  _C1FLTOBJ1Hbits = 0x68a
                    0x068c                  C1MASK1L = 0x68c
                    0x068c                  _C1MASK1L = 0x68c
                    0x068c                  _C1MASK1Lbits = 0x68c
                    0x068e                  C1MASK1H = 0x68e
                    0x068e                  _C1MASK1H = 0x68e
                    0x068e                  _C1MASK1Hbits = 0x68e
                    0x0690                  C1FLTOBJ2L = 0x690
                    0x0690                  _C1FLTOBJ2L = 0x690
                    0x0690                  _C1FLTOBJ2Lbits = 0x690
                    0x0692                  C1FLTOBJ2H = 0x692
                    0x0692                  _C1FLTOBJ2H = 0x692
                    0x0692                  _C1FLTOBJ2Hbits = 0x692
                    0x0694                  C1MASK2L = 0x694
                    0x0694                  _C1MASK2L = 0x694
                    0x0694                  _C1MASK2Lbits = 0x694
                    0x0696                  C1MASK2H = 0x696
                    0x0696                  _C1MASK2H = 0x696
                    0x0696                  _C1MASK2Hbits = 0x696
                    0x0698                  C1FLTOBJ3L = 0x698
                    0x0698                  _C1FLTOBJ3L = 0x698
                    0x0698                  _C1FLTOBJ3Lbits = 0x698
                    0x069a                  C1FLTOBJ3H = 0x69a
                    0x069a                  _C1FLTOBJ3H = 0x69a
                    0x069a                  _C1FLTOBJ3Hbits = 0x69a
                    0x069c                  C1MASK3L = 0x69c
                    0x069c                  _C1MASK3L = 0x69c
                    0x069c                  _C1MASK3Lbits = 0x69c
                    0x069e                  C1MASK3H = 0x69e
                    0x069e                  _C1MASK3H = 0x69e
                    0x069e                  _C1MASK3Hbits = 0x69e
                    0x06a0                  C1FLTOBJ4L = 0x6a0
                    0x06a0                  _C1FLTOBJ4L = 0x6a0
                    0x06a0                  _C1FLTOBJ4Lbits = 0x6a0
                    0x06a2                  C1FLTOBJ4H = 0x6a2
                    0x06a2                  _C1FLTOBJ4H = 0x6a2
                    0x06a2                  _C1FLTOBJ4Hbits = 0x6a2
                    0x06a4                  C1MASK4L = 0x6a4
                    0x06a4                  _C1MASK4L = 0x6a4
                    0x06a4                  _C1MASK4Lbits = 0x6a4
                    0x06a6                  C1MASK4H = 0x6a6
                    0x06a6                  _C1MASK4H = 0x6a6
                    0x06a6                  _C1MASK4Hbits = 0x6a6
                    0x06a8                  C1FLTOBJ5L = 0x6a8
                    0x06a8                  _C1FLTOBJ5L = 0x6a8
                    0x06a8                  _C1FLTOBJ5Lbits = 0x6a8
                    0x06aa                  C1FLTOBJ5H = 0x6aa
                    0x06aa                  _C1FLTOBJ5H = 0x6aa
                    0x06aa                  _C1FLTOBJ5Hbits = 0x6aa
                    0x06ac                  C1MASK5L = 0x6ac
                    0x06ac                  _C1MASK5L = 0x6ac
                    0x06ac                  _C1MASK5Lbits = 0x6ac
                    0x06ae                  C1MASK5H = 0x6ae
                    0x06ae                  _C1MASK5H = 0x6ae
                    0x06ae                  _C1MASK5Hbits = 0x6ae
                    0x06b0                  C1FLTOBJ6L = 0x6b0
                    0x06b0                  _C1FLTOBJ6L = 0x6b0
                    0x06b0                  _C1FLTOBJ6Lbits = 0x6b0
                    0x06b2                  C1FLTOBJ6H = 0x6b2
                    0x06b2                  _C1FLTOBJ6H = 0x6b2
                    0x06b2                  _C1FLTOBJ6Hbits = 0x6b2
                    0x06b4                  C1MASK6L = 0x6b4
                    0x06b4                  _C1MASK6L = 0x6b4
                    0x06b4                  _C1MASK6Lbits = 0x6b4
                    0x06b6                  C1MASK6H = 0x6b6
                    0x06b6                  _C1MASK6H = 0x6b6
                    0x06b6                  _C1MASK6Hbits = 0x6b6
                    0x06b8                  C1FLTOBJ7L = 0x6b8
                    0x06b8                  _C1FLTOBJ7L = 0x6b8
                    0x06b8                  _C1FLTOBJ7Lbits = 0x6b8
                    0x06ba                  C1FLTOBJ7H = 0x6ba
                    0x06ba                  _C1FLTOBJ7H = 0x6ba
                    0x06ba                  _C1FLTOBJ7Hbits = 0x6ba
                    0x06bc                  C1MASK7L = 0x6bc
                    0x06bc                  _C1MASK7L = 0x6bc
                    0x06bc                  _C1MASK7Lbits = 0x6bc
                    0x06be                  C1MASK7H = 0x6be
                    0x06be                  _C1MASK7H = 0x6be
                    0x06be                  _C1MASK7Hbits = 0x6be
                    0x06c0                  C1FLTOBJ8L = 0x6c0
                    0x06c0                  _C1FLTOBJ8L = 0x6c0
                    0x06c0                  _C1FLTOBJ8Lbits = 0x6c0
                    0x06c2                  C1FLTOBJ8H = 0x6c2
                    0x06c2                  _C1FLTOBJ8H = 0x6c2
                    0x06c2                  _C1FLTOBJ8Hbits = 0x6c2
                    0x06c4                  C1MASK8L = 0x6c4
                    0x06c4                  _C1MASK8L = 0x6c4
                    0x06c4                  _C1MASK8Lbits = 0x6c4
                    0x06c6                  C1MASK8H = 0x6c6
                    0x06c6                  _C1MASK8H = 0x6c6
                    0x06c6                  _C1MASK8Hbits = 0x6c6
                    0x06c8                  C1FLTOBJ9L = 0x6c8
                    0x06c8                  _C1FLTOBJ9L = 0x6c8
                    0x06c8                  _C1FLTOBJ9Lbits = 0x6c8
                    0x06ca                  C1FLTOBJ9H = 0x6ca
                    0x06ca                  _C1FLTOBJ9H = 0x6ca
                    0x06ca                  _C1FLTOBJ9Hbits = 0x6ca
                    0x06cc                  C1MASK9L = 0x6cc
                    0x06cc                  _C1MASK9L = 0x6cc
                    0x06cc                  _C1MASK9Lbits = 0x6cc
                    0x06ce                  C1MASK9H = 0x6ce
                    0x06ce                  _C1MASK9H = 0x6ce
                    0x06ce                  _C1MASK9Hbits = 0x6ce
                    0x06d0                  C1FLTOBJ10L = 0x6d0
                    0x06d0                  _C1FLTOBJ10L = 0x6d0
                    0x06d0                  _C1FLTOBJ10Lbits = 0x6d0
                    0x06d2                  C1FLTOBJ10H = 0x6d2
                    0x06d2                  _C1FLTOBJ10H = 0x6d2
                    0x06d2                  _C1FLTOBJ10Hbits = 0x6d2
                    0x06d4                  C1MASK10L = 0x6d4
                    0x06d4                  _C1MASK10L = 0x6d4
                    0x06d4                  _C1MASK10Lbits = 0x6d4
                    0x06d6                  C1MASK10H = 0x6d6
                    0x06d6                  _C1MASK10H = 0x6d6
                    0x06d6                  _C1MASK10Hbits = 0x6d6
                    0x06d8                  C1FLTOBJ11L = 0x6d8
                    0x06d8                  _C1FLTOBJ11L = 0x6d8
                    0x06d8                  _C1FLTOBJ11Lbits = 0x6d8
                    0x06da                  C1FLTOBJ11H = 0x6da
                    0x06da                  _C1FLTOBJ11H = 0x6da
                    0x06da                  _C1FLTOBJ11Hbits = 0x6da
                    0x06dc                  C1MASK11L = 0x6dc
                    0x06dc                  _C1MASK11L = 0x6dc
                    0x06dc                  _C1MASK11Lbits = 0x6dc
                    0x06de                  C1MASK11H = 0x6de
                    0x06de                  _C1MASK11H = 0x6de
                    0x06de                  _C1MASK11Hbits = 0x6de
                    0x06e0                  C1FLTOBJ12L = 0x6e0
                    0x06e0                  _C1FLTOBJ12L = 0x6e0
                    0x06e0                  _C1FLTOBJ12Lbits = 0x6e0
                    0x06e2                  C1FLTOBJ12H = 0x6e2
                    0x06e2                  _C1FLTOBJ12H = 0x6e2
                    0x06e2                  _C1FLTOBJ12Hbits = 0x6e2
                    0x06e4                  C1MASK12L = 0x6e4
                    0x06e4                  _C1MASK12L = 0x6e4
                    0x06e4                  _C1MASK12Lbits = 0x6e4
                    0x06e6                  C1MASK12H = 0x6e6
                    0x06e6                  _C1MASK12H = 0x6e6
                    0x06e6                  _C1MASK12Hbits = 0x6e6
                    0x06e8                  C1FLTOBJ13L = 0x6e8
                    0x06e8                  _C1FLTOBJ13L = 0x6e8
                    0x06e8                  _C1FLTOBJ13Lbits = 0x6e8
                    0x06ea                  C1FLTOBJ13H = 0x6ea
                    0x06ea                  _C1FLTOBJ13H = 0x6ea
                    0x06ea                  _C1FLTOBJ13Hbits = 0x6ea
                    0x06ec                  C1MASK13L = 0x6ec
                    0x06ec                  _C1MASK13L = 0x6ec
                    0x06ec                  _C1MASK13Lbits = 0x6ec
                    0x06ee                  C1MASK13H = 0x6ee
                    0x06ee                  _C1MASK13H = 0x6ee
                    0x06ee                  _C1MASK13Hbits = 0x6ee
                    0x06f0                  C1FLTOBJ14L = 0x6f0
                    0x06f0                  _C1FLTOBJ14L = 0x6f0
                    0x06f0                  _C1FLTOBJ14Lbits = 0x6f0
                    0x06f2                  C1FLTOBJ14H = 0x6f2
                    0x06f2                  _C1FLTOBJ14H = 0x6f2
                    0x06f2                  _C1FLTOBJ14Hbits = 0x6f2
                    0x06f4                  C1MASK14L = 0x6f4
                    0x06f4                  _C1MASK14L = 0x6f4
                    0x06f4                  _C1MASK14Lbits = 0x6f4
                    0x06f6                  C1MASK14H = 0x6f6
                    0x06f6                  _C1MASK14H = 0x6f6
                    0x06f6                  _C1MASK14Hbits = 0x6f6
                    0x06f8                  C1FLTOBJ15L = 0x6f8
                    0x06f8                  _C1FLTOBJ15L = 0x6f8
                    0x06f8                  _C1FLTOBJ15Lbits = 0x6f8
                    0x06fa                  C1FLTOBJ15H = 0x6fa
                    0x06fa                  _C1FLTOBJ15H = 0x6fa
                    0x06fa                  _C1FLTOBJ15Hbits = 0x6fa
                    0x06fc                  C1MASK15L = 0x6fc
                    0x06fc                  _C1MASK15L = 0x6fc
                    0x06fc                  _C1MASK15Lbits = 0x6fc
                    0x06fe                  C1MASK15H = 0x6fe
                    0x06fe                  _C1MASK15H = 0x6fe
                    0x06fe                  _C1MASK15Hbits = 0x6fe
                    0x0800                  IFS0 = 0x800
                    0x0800                  _IFS0 = 0x800
                    0x0800                  _IFS0bits = 0x800
                    0x0802                  IFS1 = 0x802
                    0x0802                  _IFS1 = 0x802
                    0x0802                  _IFS1bits = 0x802
                    0x0804                  IFS2 = 0x804
                    0x0804                  _IFS2 = 0x804
                    0x0804                  _IFS2bits = 0x804
                    0x0806                  IFS3 = 0x806
                    0x0806                  _IFS3 = 0x806
                    0x0806                  _IFS3bits = 0x806
                    0x0808                  IFS4 = 0x808
                    0x0808                  _IFS4 = 0x808
                    0x0808                  _IFS4bits = 0x808
                    0x080a                  IFS5 = 0x80a
                    0x080a                  _IFS5 = 0x80a
                    0x080a                  _IFS5bits = 0x80a
                    0x080c                  IFS6 = 0x80c
                    0x080c                  _IFS6 = 0x80c
                    0x080c                  _IFS6bits = 0x80c
                    0x080e                  IFS7 = 0x80e
                    0x080e                  _IFS7 = 0x80e
                    0x080e                  _IFS7bits = 0x80e
                    0x0810                  IFS8 = 0x810
                    0x0810                  _IFS8 = 0x810
                    0x0810                  _IFS8bits = 0x810
                    0x0812                  IFS9 = 0x812
                    0x0812                  _IFS9 = 0x812
                    0x0812                  _IFS9bits = 0x812
                    0x0814                  IFS10 = 0x814
                    0x0814                  _IFS10 = 0x814
                    0x0814                  _IFS10bits = 0x814
                    0x0816                  IFS11 = 0x816
                    0x0816                  _IFS11 = 0x816
                    0x0816                  _IFS11bits = 0x816
                    0x0818                  IFS12 = 0x818
                    0x0818                  _IFS12 = 0x818
                    0x0818                  _IFS12bits = 0x818
                    0x0820                  IEC0 = 0x820
                    0x0820                  _IEC0 = 0x820
                    0x0820                  _IEC0bits = 0x820
                    0x0822                  IEC1 = 0x822
                    0x0822                  _IEC1 = 0x822
                    0x0822                  _IEC1bits = 0x822
                    0x0824                  IEC2 = 0x824
                    0x0824                  _IEC2 = 0x824
                    0x0824                  _IEC2bits = 0x824
                    0x0826                  IEC3 = 0x826
                    0x0826                  _IEC3 = 0x826
                    0x0826                  _IEC3bits = 0x826
                    0x0828                  IEC4 = 0x828
                    0x0828                  _IEC4 = 0x828
                    0x0828                  _IEC4bits = 0x828
                    0x082a                  IEC5 = 0x82a
                    0x082a                  _IEC5 = 0x82a
                    0x082a                  _IEC5bits = 0x82a
                    0x082c                  IEC6 = 0x82c
                    0x082c                  _IEC6 = 0x82c
                    0x082c                  _IEC6bits = 0x82c
                    0x082e                  IEC7 = 0x82e
                    0x082e                  _IEC7 = 0x82e
                    0x082e                  _IEC7bits = 0x82e
                    0x0830                  IEC8 = 0x830
                    0x0830                  _IEC8 = 0x830
                    0x0830                  _IEC8bits = 0x830
                    0x0832                  IEC9 = 0x832
                    0x0832                  _IEC9 = 0x832
                    0x0832                  _IEC9bits = 0x832
                    0x0834                  IEC10 = 0x834
                    0x0834                  _IEC10 = 0x834
                    0x0834                  _IEC10bits = 0x834
                    0x0836                  IEC11 = 0x836
                    0x0836                  _IEC11 = 0x836
                    0x0836                  _IEC11bits = 0x836
                    0x0838                  IEC12 = 0x838
                    0x0838                  _IEC12 = 0x838
                    0x0838                  _IEC12bits = 0x838
                    0x0840                  IPC0 = 0x840
                    0x0840                  _IPC0 = 0x840
                    0x0840                  _IPC0bits = 0x840
                    0x0842                  IPC1 = 0x842
                    0x0842                  _IPC1 = 0x842
                    0x0842                  _IPC1bits = 0x842
                    0x0844                  IPC2 = 0x844
                    0x0844                  _IPC2 = 0x844
                    0x0844                  _IPC2bits = 0x844
                    0x0846                  IPC3 = 0x846
                    0x0846                  _IPC3 = 0x846
                    0x0846                  _IPC3bits = 0x846
                    0x0848                  IPC4 = 0x848
                    0x0848                  _IPC4 = 0x848
                    0x0848                  _IPC4bits = 0x848
                    0x084a                  IPC5 = 0x84a
                    0x084a                  _IPC5 = 0x84a
                    0x084a                  _IPC5bits = 0x84a
                    0x084c                  IPC6 = 0x84c
                    0x084c                  _IPC6 = 0x84c
                    0x084c                  _IPC6bits = 0x84c
                    0x084e                  IPC7 = 0x84e
                    0x084e                  _IPC7 = 0x84e
                    0x084e                  _IPC7bits = 0x84e
                    0x0850                  IPC8 = 0x850
                    0x0850                  _IPC8 = 0x850
                    0x0850                  _IPC8bits = 0x850
                    0x0852                  IPC9 = 0x852
                    0x0852                  _IPC9 = 0x852
                    0x0852                  _IPC9bits = 0x852
                    0x0854                  IPC10 = 0x854
                    0x0854                  _IPC10 = 0x854
                    0x0854                  _IPC10bits = 0x854
                    0x0856                  IPC11 = 0x856
                    0x0856                  _IPC11 = 0x856
                    0x0856                  _IPC11bits = 0x856
                    0x0858                  IPC12 = 0x858
                    0x0858                  _IPC12 = 0x858
                    0x0858                  _IPC12bits = 0x858
                    0x085a                  IPC13 = 0x85a
                    0x085a                  _IPC13 = 0x85a
                    0x085a                  _IPC13bits = 0x85a
                    0x085c                  IPC14 = 0x85c
                    0x085c                  _IPC14 = 0x85c
                    0x085c                  _IPC14bits = 0x85c
                    0x085e                  IPC15 = 0x85e
                    0x085e                  _IPC15 = 0x85e
                    0x085e                  _IPC15bits = 0x85e
                    0x0860                  IPC16 = 0x860
                    0x0860                  _IPC16 = 0x860
                    0x0860                  _IPC16bits = 0x860
                    0x0862                  IPC17 = 0x862
                    0x0862                  _IPC17 = 0x862
                    0x0862                  _IPC17bits = 0x862
                    0x0864                  IPC18 = 0x864
                    0x0864                  _IPC18 = 0x864
                    0x0864                  _IPC18bits = 0x864
                    0x0866                  IPC19 = 0x866
                    0x0866                  _IPC19 = 0x866
                    0x0866                  _IPC19bits = 0x866
                    0x0868                  IPC20 = 0x868
                    0x0868                  _IPC20 = 0x868
                    0x0868                  _IPC20bits = 0x868
                    0x086a                  IPC21 = 0x86a
                    0x086a                  _IPC21 = 0x86a
                    0x086a                  _IPC21bits = 0x86a
                    0x086c                  IPC22 = 0x86c
                    0x086c                  _IPC22 = 0x86c
                    0x086c                  _IPC22bits = 0x86c
                    0x086e                  IPC23 = 0x86e
                    0x086e                  _IPC23 = 0x86e
                    0x086e                  _IPC23bits = 0x86e
                    0x0870                  IPC24 = 0x870
                    0x0870                  _IPC24 = 0x870
                    0x0870                  _IPC24bits = 0x870
                    0x0872                  IPC25 = 0x872
                    0x0872                  _IPC25 = 0x872
                    0x0872                  _IPC25bits = 0x872
                    0x0874                  IPC26 = 0x874
                    0x0874                  _IPC26 = 0x874
                    0x0874                  _IPC26bits = 0x874
                    0x0876                  IPC27 = 0x876
                    0x0876                  _IPC27 = 0x876
                    0x0876                  _IPC27bits = 0x876
                    0x0878                  IPC28 = 0x878
                    0x0878                  _IPC28 = 0x878
                    0x0878                  _IPC28bits = 0x878
                    0x087a                  IPC29 = 0x87a
                    0x087a                  _IPC29 = 0x87a
                    0x087a                  _IPC29bits = 0x87a
                    0x087c                  IPC30 = 0x87c
                    0x087c                  _IPC30 = 0x87c
                    0x087c                  _IPC30bits = 0x87c
                    0x087e                  IPC31 = 0x87e
                    0x087e                  _IPC31 = 0x87e
                    0x087e                  _IPC31bits = 0x87e
                    0x0880                  IPC32 = 0x880
                    0x0880                  _IPC32 = 0x880
                    0x0880                  _IPC32bits = 0x880
                    0x0886                  IPC35 = 0x886
                    0x0886                  _IPC35 = 0x886
                    0x0886                  _IPC35bits = 0x886
                    0x0888                  IPC36 = 0x888
                    0x0888                  _IPC36 = 0x888
                    0x0888                  _IPC36bits = 0x888
                    0x088a                  IPC37 = 0x88a
                    0x088a                  _IPC37 = 0x88a
                    0x088a                  _IPC37bits = 0x88a
                    0x088c                  IPC38 = 0x88c
                    0x088c                  _IPC38 = 0x88c
                    0x088c                  _IPC38bits = 0x88c
                    0x0890                  IPC40 = 0x890
                    0x0890                  _IPC40 = 0x890
                    0x0890                  _IPC40bits = 0x890
                    0x0894                  IPC42 = 0x894
                    0x0894                  _IPC42 = 0x894
                    0x0894                  _IPC42bits = 0x894
                    0x0896                  IPC43 = 0x896
                    0x0896                  _IPC43 = 0x896
                    0x0896                  _IPC43bits = 0x896
                    0x0898                  IPC44 = 0x898
                    0x0898                  _IPC44 = 0x898
                    0x0898                  _IPC44bits = 0x898
                    0x089a                  IPC45 = 0x89a
                    0x089a                  _IPC45 = 0x89a
                    0x089a                  _IPC45bits = 0x89a
                    0x089e                  IPC47 = 0x89e
                    0x089e                  _IPC47 = 0x89e
                    0x089e                  _IPC47bits = 0x89e
                    0x08a0                  IPC48 = 0x8a0
                    0x08a0                  _IPC48 = 0x8a0
                    0x08a0                  _IPC48bits = 0x8a0
                    0x08c0                  INTCON1 = 0x8c0
                    0x08c0                  _INTCON1 = 0x8c0
                    0x08c0                  _INTCON1bits = 0x8c0
                    0x08c2                  INTCON2 = 0x8c2
                    0x08c2                  _INTCON2 = 0x8c2
                    0x08c2                  _INTCON2bits = 0x8c2
                    0x08c4                  INTCON3 = 0x8c4
                    0x08c4                  _INTCON3 = 0x8c4
                    0x08c4                  _INTCON3bits = 0x8c4
                    0x08c6                  INTCON4 = 0x8c6
                    0x08c6                  _INTCON4 = 0x8c6
                    0x08c6                  _INTCON4bits = 0x8c6
                    0x08c8                  INTTREG = 0x8c8
                    0x08c8                  _INTTREG = 0x8c8
                    0x08c8                  _INTTREGbits = 0x8c8
                    0x08d0                  NVMCON = 0x8d0
                    0x08d0                  _NVMCON = 0x8d0
                    0x08d0                  _NVMCONbits = 0x8d0
                    0x08d2                  NVMADR = 0x8d2
                    0x08d2                  _NVMADR = 0x8d2
                    0x08d2                  _NVMADRbits = 0x8d2
                    0x08d2                  NVMADRL = 0x8d2
                    0x08d2                  _NVMADRL = 0x8d2
                    0x08d2                  _NVMADRLbits = 0x8d2
                    0x08d4                  NVMADRH = 0x8d4
                    0x08d4                  _NVMADRH = 0x8d4
                    0x08d4                  _NVMADRHbits = 0x8d4
                    0x08d4                  NVMADRU = 0x8d4
                    0x08d4                  _NVMADRU = 0x8d4
                    0x08d4                  _NVMADRUbits = 0x8d4
                    0x08d6                  NVMKEY = 0x8d6
                    0x08d6                  _NVMKEY = 0x8d6
                    0x08d8                  NVMSRCADDR = 0x8d8
                    0x08d8                  _NVMSRCADDR = 0x8d8
                    0x08d8                  _NVMSRCADDRbits = 0x8d8
                    0x08d8                  NVMSRCADR = 0x8d8
                    0x08d8                  _NVMSRCADR = 0x8d8
                    0x08d8                  _NVMSRCADRbits = 0x8d8
                    0x08d8                  NVMSRCADRL = 0x8d8
                    0x08d8                  _NVMSRCADRL = 0x8d8
                    0x08d8                  _NVMSRCADRLbits = 0x8d8
                    0x08da                  NVMSRCADRH = 0x8da
                    0x08da                  _NVMSRCADRH = 0x8da
                    0x08da                  _NVMSRCADRHbits = 0x8da
                    0x08dc                  AMPCON1L = 0x8dc
                    0x08dc                  _AMPCON1L = 0x8dc
                    0x08dc                  _AMPCON1Lbits = 0x8dc
                    0x08de                  AMPCON1H = 0x8de
                    0x08de                  _AMPCON1H = 0x8de
                    0x08de                  _AMPCON1Hbits = 0x8de
                    0x08f0                  BIASCON = 0x8f0
                    0x08f0                  _BIASCON = 0x8f0
                    0x08f0                  _BIASCONbits = 0x8f0
                    0x08f4                  IBIASCONL = 0x8f4
                    0x08f4                  _IBIASCONL = 0x8f4
                    0x08f4                  _IBIASCONLbits = 0x8f4
                    0x08f6                  IBIASCONH = 0x8f6
                    0x08f6                  _IBIASCONH = 0x8f6
                    0x08f6                  _IBIASCONHbits = 0x8f6
                    0x0900                  PTGCST = 0x900
                    0x0900                  _PTGCST = 0x900
                    0x0900                  _PTGCSTbits = 0x900
                    0x0902                  PTGCON = 0x902
                    0x0902                  _PTGCON = 0x902
                    0x0902                  _PTGCONbits = 0x902
                    0x0904                  PTGBTE = 0x904
                    0x0904                  _PTGBTE = 0x904
                    0x0904                  _PTGBTEbits = 0x904
                    0x0906                  PTGBTEH = 0x906
                    0x0906                  _PTGBTEH = 0x906
                    0x0906                  _PTGBTEHbits = 0x906
                    0x0908                  PTGHOLD = 0x908
                    0x0908                  _PTGHOLD = 0x908
                    0x090c                  PTGT0LIM = 0x90c
                    0x090c                  _PTGT0LIM = 0x90c
                    0x0910                  PTGT1LIM = 0x910
                    0x0910                  _PTGT1LIM = 0x910
                    0x0914                  PTGSDLIM = 0x914
                    0x0914                  _PTGSDLIM = 0x914
                    0x0918                  PTGC0LIM = 0x918
                    0x0918                  _PTGC0LIM = 0x918
                    0x091c                  PTGC1LIM = 0x91c
                    0x091c                  _PTGC1LIM = 0x91c
                    0x0920                  PTGADJ = 0x920
                    0x0920                  _PTGADJ = 0x920
                    0x0924                  PTGL0 = 0x924
                    0x0924                  _PTGL0 = 0x924
                    0x0928                  PTGQPTR = 0x928
                    0x0928                  _PTGQPTR = 0x928
                    0x0928                  _PTGQPTRbits = 0x928
                    0x0930                  PTGQUE0 = 0x930
                    0x0930                  _PTGQUE0 = 0x930
                    0x0930                  _PTGQUE0bits = 0x930
                    0x0932                  PTGQUE1 = 0x932
                    0x0932                  _PTGQUE1 = 0x932
                    0x0932                  _PTGQUE1bits = 0x932
                    0x0934                  PTGQUE2 = 0x934
                    0x0934                  _PTGQUE2 = 0x934
                    0x0934                  _PTGQUE2bits = 0x934
                    0x0936                  PTGQUE3 = 0x936
                    0x0936                  _PTGQUE3 = 0x936
                    0x0936                  _PTGQUE3bits = 0x936
                    0x0938                  PTGQUE4 = 0x938
                    0x0938                  _PTGQUE4 = 0x938
                    0x0938                  _PTGQUE4bits = 0x938
                    0x093a                  PTGQUE5 = 0x93a
                    0x093a                  _PTGQUE5 = 0x93a
                    0x093a                  _PTGQUE5bits = 0x93a
                    0x093c                  PTGQUE6 = 0x93c
                    0x093c                  _PTGQUE6 = 0x93c
                    0x093c                  _PTGQUE6bits = 0x93c
                    0x093e                  PTGQUE7 = 0x93e
                    0x093e                  _PTGQUE7 = 0x93e
                    0x093e                  _PTGQUE7bits = 0x93e
                    0x0940                  PTGQUE8 = 0x940
                    0x0940                  _PTGQUE8 = 0x940
                    0x0940                  _PTGQUE8bits = 0x940
                    0x0942                  PTGQUE9 = 0x942
                    0x0942                  _PTGQUE9 = 0x942
                    0x0942                  _PTGQUE9bits = 0x942
                    0x0944                  PTGQUE10 = 0x944
                    0x0944                  _PTGQUE10 = 0x944
                    0x0944                  _PTGQUE10bits = 0x944
                    0x0946                  PTGQUE11 = 0x946
                    0x0946                  _PTGQUE11 = 0x946
                    0x0946                  _PTGQUE11bits = 0x946
                    0x0948                  PTGQUE12 = 0x948
                    0x0948                  _PTGQUE12 = 0x948
                    0x0948                  _PTGQUE12bits = 0x948
                    0x094a                  PTGQUE13 = 0x94a
                    0x094a                  _PTGQUE13 = 0x94a
                    0x094a                  _PTGQUE13bits = 0x94a
                    0x094c                  PTGQUE14 = 0x94c
                    0x094c                  _PTGQUE14 = 0x94c
                    0x094c                  _PTGQUE14bits = 0x94c
                    0x094e                  PTGQUE15 = 0x94e
                    0x094e                  _PTGQUE15 = 0x94e
                    0x094e                  _PTGQUE15bits = 0x94e
                    0x0950                  CCP1CON1L = 0x950
                    0x0950                  _CCP1CON1L = 0x950
                    0x0950                  _CCP1CON1Lbits = 0x950
                    0x0952                  CCP1CON1H = 0x952
                    0x0952                  _CCP1CON1H = 0x952
                    0x0952                  _CCP1CON1Hbits = 0x952
                    0x0954                  CCP1CON2L = 0x954
                    0x0954                  _CCP1CON2L = 0x954
                    0x0954                  _CCP1CON2Lbits = 0x954
                    0x0956                  CCP1CON2H = 0x956
                    0x0956                  _CCP1CON2H = 0x956
                    0x0956                  _CCP1CON2Hbits = 0x956
                    0x095a                  CCP1CON3H = 0x95a
                    0x095a                  _CCP1CON3H = 0x95a
                    0x095a                  _CCP1CON3Hbits = 0x95a
                    0x095c                  CCP1STAT = 0x95c
                    0x095c                  _CCP1STAT = 0x95c
                    0x095c                  _CCP1STATbits = 0x95c
                    0x095c                  CCP1STATL = 0x95c
                    0x095c                  _CCP1STATL = 0x95c
                    0x095c                  _CCP1STATLbits = 0x95c
                    0x0960                  CCP1TMRL = 0x960
                    0x0960                  _CCP1TMRL = 0x960
                    0x0962                  CCP1TMRH = 0x962
                    0x0962                  _CCP1TMRH = 0x962
                    0x0964                  CCP1PRL = 0x964
                    0x0964                  _CCP1PRL = 0x964
                    0x0966                  CCP1PRH = 0x966
                    0x0966                  _CCP1PRH = 0x966
                    0x0968                  CCP1RA = 0x968
                    0x0968                  _CCP1RA = 0x968
                    0x0968                  CCP1RAL = 0x968
                    0x0968                  _CCP1RAL = 0x968
                    0x096c                  CCP1RB = 0x96c
                    0x096c                  _CCP1RB = 0x96c
                    0x096c                  CCP1RBL = 0x96c
                    0x096c                  _CCP1RBL = 0x96c
                    0x0970                  CCP1BUFL = 0x970
                    0x0970                  _CCP1BUFL = 0x970
                    0x0972                  CCP1BUFH = 0x972
                    0x0972                  _CCP1BUFH = 0x972
                    0x0974                  CCP2CON1L = 0x974
                    0x0974                  _CCP2CON1L = 0x974
                    0x0974                  _CCP2CON1Lbits = 0x974
                    0x0976                  CCP2CON1H = 0x976
                    0x0976                  _CCP2CON1H = 0x976
                    0x0976                  _CCP2CON1Hbits = 0x976
                    0x0978                  CCP2CON2L = 0x978
                    0x0978                  _CCP2CON2L = 0x978
                    0x0978                  _CCP2CON2Lbits = 0x978
                    0x097a                  CCP2CON2H = 0x97a
                    0x097a                  _CCP2CON2H = 0x97a
                    0x097a                  _CCP2CON2Hbits = 0x97a
                    0x097e                  CCP2CON3H = 0x97e
                    0x097e                  _CCP2CON3H = 0x97e
                    0x097e                  _CCP2CON3Hbits = 0x97e
                    0x0980                  CCP2STAT = 0x980
                    0x0980                  _CCP2STAT = 0x980
                    0x0980                  _CCP2STATbits = 0x980
                    0x0980                  CCP2STATL = 0x980
                    0x0980                  _CCP2STATL = 0x980
                    0x0980                  _CCP2STATLbits = 0x980
                    0x0984                  CCP2TMRL = 0x984
                    0x0984                  _CCP2TMRL = 0x984
                    0x0986                  CCP2TMRH = 0x986
                    0x0986                  _CCP2TMRH = 0x986
                    0x0988                  CCP2PRL = 0x988
                    0x0988                  _CCP2PRL = 0x988
                    0x098a                  CCP2PRH = 0x98a
                    0x098a                  _CCP2PRH = 0x98a
                    0x098c                  CCP2RA = 0x98c
                    0x098c                  _CCP2RA = 0x98c
                    0x098c                  CCP2RAL = 0x98c
                    0x098c                  _CCP2RAL = 0x98c
                    0x0990                  CCP2RB = 0x990
                    0x0990                  _CCP2RB = 0x990
                    0x0990                  CCP2RBL = 0x990
                    0x0990                  _CCP2RBL = 0x990
                    0x0994                  CCP2BUFL = 0x994
                    0x0994                  _CCP2BUFL = 0x994
                    0x0996                  CCP2BUFH = 0x996
                    0x0996                  _CCP2BUFH = 0x996
                    0x0998                  CCP3CON1L = 0x998
                    0x0998                  _CCP3CON1L = 0x998
                    0x0998                  _CCP3CON1Lbits = 0x998
                    0x099a                  CCP3CON1H = 0x99a
                    0x099a                  _CCP3CON1H = 0x99a
                    0x099a                  _CCP3CON1Hbits = 0x99a
                    0x099c                  CCP3CON2L = 0x99c
                    0x099c                  _CCP3CON2L = 0x99c
                    0x099c                  _CCP3CON2Lbits = 0x99c
                    0x099e                  CCP3CON2H = 0x99e
                    0x099e                  _CCP3CON2H = 0x99e
                    0x099e                  _CCP3CON2Hbits = 0x99e
                    0x09a2                  CCP3CON3H = 0x9a2
                    0x09a2                  _CCP3CON3H = 0x9a2
                    0x09a2                  _CCP3CON3Hbits = 0x9a2
                    0x09a4                  CCP3STAT = 0x9a4
                    0x09a4                  _CCP3STAT = 0x9a4
                    0x09a4                  _CCP3STATbits = 0x9a4
                    0x09a4                  CCP3STATL = 0x9a4
                    0x09a4                  _CCP3STATL = 0x9a4
                    0x09a4                  _CCP3STATLbits = 0x9a4
                    0x09a8                  CCP3TMRL = 0x9a8
                    0x09a8                  _CCP3TMRL = 0x9a8
                    0x09aa                  CCP3TMRH = 0x9aa
                    0x09aa                  _CCP3TMRH = 0x9aa
                    0x09ac                  CCP3PRL = 0x9ac
                    0x09ac                  _CCP3PRL = 0x9ac
                    0x09ae                  CCP3PRH = 0x9ae
                    0x09ae                  _CCP3PRH = 0x9ae
                    0x09b0                  CCP3RA = 0x9b0
                    0x09b0                  _CCP3RA = 0x9b0
                    0x09b0                  CCP3RAL = 0x9b0
                    0x09b0                  _CCP3RAL = 0x9b0
                    0x09b4                  CCP3RB = 0x9b4
                    0x09b4                  _CCP3RB = 0x9b4
                    0x09b4                  CCP3RBL = 0x9b4
                    0x09b4                  _CCP3RBL = 0x9b4
                    0x09b8                  CCP3BUFL = 0x9b8
                    0x09b8                  _CCP3BUFL = 0x9b8
                    0x09ba                  CCP3BUFH = 0x9ba
                    0x09ba                  _CCP3BUFH = 0x9ba
                    0x09bc                  CCP4CON1L = 0x9bc
                    0x09bc                  _CCP4CON1L = 0x9bc
                    0x09bc                  _CCP4CON1Lbits = 0x9bc
                    0x09be                  CCP4CON1H = 0x9be
                    0x09be                  _CCP4CON1H = 0x9be
                    0x09be                  _CCP4CON1Hbits = 0x9be
                    0x09c0                  CCP4CON2L = 0x9c0
                    0x09c0                  _CCP4CON2L = 0x9c0
                    0x09c0                  _CCP4CON2Lbits = 0x9c0
                    0x09c2                  CCP4CON2H = 0x9c2
                    0x09c2                  _CCP4CON2H = 0x9c2
                    0x09c2                  _CCP4CON2Hbits = 0x9c2
                    0x09c6                  CCP4CON3H = 0x9c6
                    0x09c6                  _CCP4CON3H = 0x9c6
                    0x09c6                  _CCP4CON3Hbits = 0x9c6
                    0x09c8                  CCP4STAT = 0x9c8
                    0x09c8                  _CCP4STAT = 0x9c8
                    0x09c8                  _CCP4STATbits = 0x9c8
                    0x09c8                  CCP4STATL = 0x9c8
                    0x09c8                  _CCP4STATL = 0x9c8
                    0x09c8                  _CCP4STATLbits = 0x9c8
                    0x09cc                  CCP4TMRL = 0x9cc
                    0x09cc                  _CCP4TMRL = 0x9cc
                    0x09ce                  CCP4TMRH = 0x9ce
                    0x09ce                  _CCP4TMRH = 0x9ce
                    0x09d0                  CCP4PRL = 0x9d0
                    0x09d0                  _CCP4PRL = 0x9d0
                    0x09d2                  CCP4PRH = 0x9d2
                    0x09d2                  _CCP4PRH = 0x9d2
                    0x09d4                  CCP4RA = 0x9d4
                    0x09d4                  _CCP4RA = 0x9d4
                    0x09d4                  CCP4RAL = 0x9d4
                    0x09d4                  _CCP4RAL = 0x9d4
                    0x09d8                  CCP4RB = 0x9d8
                    0x09d8                  _CCP4RB = 0x9d8
                    0x09d8                  CCP4RBL = 0x9d8
                    0x09d8                  _CCP4RBL = 0x9d8
                    0x09dc                  CCP4BUFL = 0x9dc
                    0x09dc                  _CCP4BUFL = 0x9dc
                    0x09de                  CCP4BUFH = 0x9de
                    0x09de                  _CCP4BUFH = 0x9de
                    0x09e0                  CCP5CON1L = 0x9e0
                    0x09e0                  _CCP5CON1L = 0x9e0
                    0x09e0                  _CCP5CON1Lbits = 0x9e0
                    0x09e2                  CCP5CON1H = 0x9e2
                    0x09e2                  _CCP5CON1H = 0x9e2
                    0x09e2                  _CCP5CON1Hbits = 0x9e2
                    0x09e4                  CCP5CON2L = 0x9e4
                    0x09e4                  _CCP5CON2L = 0x9e4
                    0x09e4                  _CCP5CON2Lbits = 0x9e4
                    0x09e6                  CCP5CON2H = 0x9e6
                    0x09e6                  _CCP5CON2H = 0x9e6
                    0x09e6                  _CCP5CON2Hbits = 0x9e6
                    0x09ea                  CCP5CON3H = 0x9ea
                    0x09ea                  _CCP5CON3H = 0x9ea
                    0x09ea                  _CCP5CON3Hbits = 0x9ea
                    0x09ec                  CCP5STAT = 0x9ec
                    0x09ec                  _CCP5STAT = 0x9ec
                    0x09ec                  _CCP5STATbits = 0x9ec
                    0x09ec                  CCP5STATL = 0x9ec
                    0x09ec                  _CCP5STATL = 0x9ec
                    0x09ec                  _CCP5STATLbits = 0x9ec
                    0x09f0                  CCP5TMRL = 0x9f0
                    0x09f0                  _CCP5TMRL = 0x9f0
                    0x09f2                  CCP5TMRH = 0x9f2
                    0x09f2                  _CCP5TMRH = 0x9f2
                    0x09f4                  CCP5PRL = 0x9f4
                    0x09f4                  _CCP5PRL = 0x9f4
                    0x09f6                  CCP5PRH = 0x9f6
                    0x09f6                  _CCP5PRH = 0x9f6
                    0x09f8                  CCP5RA = 0x9f8
                    0x09f8                  _CCP5RA = 0x9f8
                    0x09f8                  CCP5RAL = 0x9f8
                    0x09f8                  _CCP5RAL = 0x9f8
                    0x09fc                  CCP5RB = 0x9fc
                    0x09fc                  _CCP5RB = 0x9fc
                    0x09fc                  CCP5RBL = 0x9fc
                    0x09fc                  _CCP5RBL = 0x9fc
                    0x0a00                  CCP5BUFL = 0xa00
                    0x0a00                  _CCP5BUFL = 0xa00
                    0x0a02                  CCP5BUFH = 0xa02
                    0x0a02                  _CCP5BUFH = 0xa02
                    0x0a04                  CCP6CON1L = 0xa04
                    0x0a04                  _CCP6CON1L = 0xa04
                    0x0a04                  _CCP6CON1Lbits = 0xa04
                    0x0a06                  CCP6CON1H = 0xa06
                    0x0a06                  _CCP6CON1H = 0xa06
                    0x0a06                  _CCP6CON1Hbits = 0xa06
                    0x0a08                  CCP6CON2L = 0xa08
                    0x0a08                  _CCP6CON2L = 0xa08
                    0x0a08                  _CCP6CON2Lbits = 0xa08
                    0x0a0a                  CCP6CON2H = 0xa0a
                    0x0a0a                  _CCP6CON2H = 0xa0a
                    0x0a0a                  _CCP6CON2Hbits = 0xa0a
                    0x0a0e                  CCP6CON3H = 0xa0e
                    0x0a0e                  _CCP6CON3H = 0xa0e
                    0x0a0e                  _CCP6CON3Hbits = 0xa0e
                    0x0a10                  CCP6STAT = 0xa10
                    0x0a10                  _CCP6STAT = 0xa10
                    0x0a10                  _CCP6STATbits = 0xa10
                    0x0a10                  CCP6STATL = 0xa10
                    0x0a10                  _CCP6STATL = 0xa10
                    0x0a10                  _CCP6STATLbits = 0xa10
                    0x0a14                  CCP6TMRL = 0xa14
                    0x0a14                  _CCP6TMRL = 0xa14
                    0x0a16                  CCP6TMRH = 0xa16
                    0x0a16                  _CCP6TMRH = 0xa16
                    0x0a18                  CCP6PRL = 0xa18
                    0x0a18                  _CCP6PRL = 0xa18
                    0x0a1a                  CCP6PRH = 0xa1a
                    0x0a1a                  _CCP6PRH = 0xa1a
                    0x0a1c                  CCP6RA = 0xa1c
                    0x0a1c                  _CCP6RA = 0xa1c
                    0x0a1c                  CCP6RAL = 0xa1c
                    0x0a1c                  _CCP6RAL = 0xa1c
                    0x0a20                  CCP6RB = 0xa20
                    0x0a20                  _CCP6RB = 0xa20
                    0x0a20                  CCP6RBL = 0xa20
                    0x0a20                  _CCP6RBL = 0xa20
                    0x0a24                  CCP6BUFL = 0xa24
                    0x0a24                  _CCP6BUFL = 0xa24
                    0x0a26                  CCP6BUFH = 0xa26
                    0x0a26                  _CCP6BUFH = 0xa26
                    0x0a28                  CCP7CON1L = 0xa28
                    0x0a28                  _CCP7CON1L = 0xa28
                    0x0a28                  _CCP7CON1Lbits = 0xa28
                    0x0a2a                  CCP7CON1H = 0xa2a
                    0x0a2a                  _CCP7CON1H = 0xa2a
                    0x0a2a                  _CCP7CON1Hbits = 0xa2a
                    0x0a2c                  CCP7CON2L = 0xa2c
                    0x0a2c                  _CCP7CON2L = 0xa2c
                    0x0a2c                  _CCP7CON2Lbits = 0xa2c
                    0x0a2e                  CCP7CON2H = 0xa2e
                    0x0a2e                  _CCP7CON2H = 0xa2e
                    0x0a2e                  _CCP7CON2Hbits = 0xa2e
                    0x0a32                  CCP7CON3H = 0xa32
                    0x0a32                  _CCP7CON3H = 0xa32
                    0x0a32                  _CCP7CON3Hbits = 0xa32
                    0x0a34                  CCP7STAT = 0xa34
                    0x0a34                  _CCP7STAT = 0xa34
                    0x0a34                  _CCP7STATbits = 0xa34
                    0x0a34                  CCP7STATL = 0xa34
                    0x0a34                  _CCP7STATL = 0xa34
                    0x0a34                  _CCP7STATLbits = 0xa34
                    0x0a38                  CCP7TMRL = 0xa38
                    0x0a38                  _CCP7TMRL = 0xa38
                    0x0a3a                  CCP7TMRH = 0xa3a
                    0x0a3a                  _CCP7TMRH = 0xa3a
                    0x0a3c                  CCP7PRL = 0xa3c
                    0x0a3c                  _CCP7PRL = 0xa3c
                    0x0a3e                  CCP7PRH = 0xa3e
                    0x0a3e                  _CCP7PRH = 0xa3e
                    0x0a40                  CCP7RA = 0xa40
                    0x0a40                  _CCP7RA = 0xa40
                    0x0a40                  CCP7RAL = 0xa40
                    0x0a40                  _CCP7RAL = 0xa40
                    0x0a44                  CCP7RB = 0xa44
                    0x0a44                  _CCP7RB = 0xa44
                    0x0a44                  CCP7RBL = 0xa44
                    0x0a44                  _CCP7RBL = 0xa44
                    0x0a48                  CCP7BUFL = 0xa48
                    0x0a48                  _CCP7BUFL = 0xa48
                    0x0a4a                  CCP7BUFH = 0xa4a
                    0x0a4a                  _CCP7BUFH = 0xa4a
                    0x0a4c                  CCP8CON1L = 0xa4c
                    0x0a4c                  _CCP8CON1L = 0xa4c
                    0x0a4c                  _CCP8CON1Lbits = 0xa4c
                    0x0a4e                  CCP8CON1H = 0xa4e
                    0x0a4e                  _CCP8CON1H = 0xa4e
                    0x0a4e                  _CCP8CON1Hbits = 0xa4e
                    0x0a50                  CCP8CON2L = 0xa50
                    0x0a50                  _CCP8CON2L = 0xa50
                    0x0a50                  _CCP8CON2Lbits = 0xa50
                    0x0a52                  CCP8CON2H = 0xa52
                    0x0a52                  _CCP8CON2H = 0xa52
                    0x0a52                  _CCP8CON2Hbits = 0xa52
                    0x0a56                  CCP8CON3H = 0xa56
                    0x0a56                  _CCP8CON3H = 0xa56
                    0x0a56                  _CCP8CON3Hbits = 0xa56
                    0x0a58                  CCP8STAT = 0xa58
                    0x0a58                  _CCP8STAT = 0xa58
                    0x0a58                  _CCP8STATbits = 0xa58
                    0x0a58                  CCP8STATL = 0xa58
                    0x0a58                  _CCP8STATL = 0xa58
                    0x0a58                  _CCP8STATLbits = 0xa58
                    0x0a5c                  CCP8TMRL = 0xa5c
                    0x0a5c                  _CCP8TMRL = 0xa5c
                    0x0a5e                  CCP8TMRH = 0xa5e
                    0x0a5e                  _CCP8TMRH = 0xa5e
                    0x0a60                  CCP8PRL = 0xa60
                    0x0a60                  _CCP8PRL = 0xa60
                    0x0a62                  CCP8PRH = 0xa62
                    0x0a62                  _CCP8PRH = 0xa62
                    0x0a64                  CCP8RA = 0xa64
                    0x0a64                  _CCP8RA = 0xa64
                    0x0a64                  CCP8RAL = 0xa64
                    0x0a64                  _CCP8RAL = 0xa64
                    0x0a68                  CCP8RB = 0xa68
                    0x0a68                  _CCP8RB = 0xa68
                    0x0a68                  CCP8RBL = 0xa68
                    0x0a68                  _CCP8RBL = 0xa68
                    0x0a6c                  CCP8BUFL = 0xa6c
                    0x0a6c                  _CCP8BUFL = 0xa6c
                    0x0a6e                  CCP8BUFH = 0xa6e
                    0x0a6e                  _CCP8BUFH = 0xa6e
                    0x0a70                  CCP9CON1L = 0xa70
                    0x0a70                  _CCP9CON1L = 0xa70
                    0x0a70                  _CCP9CON1Lbits = 0xa70
                    0x0a72                  CCP9CON1H = 0xa72
                    0x0a72                  _CCP9CON1H = 0xa72
                    0x0a72                  _CCP9CON1Hbits = 0xa72
                    0x0a74                  CCP9CON2L = 0xa74
                    0x0a74                  _CCP9CON2L = 0xa74
                    0x0a74                  _CCP9CON2Lbits = 0xa74
                    0x0a76                  CCP9CON2H = 0xa76
                    0x0a76                  _CCP9CON2H = 0xa76
                    0x0a76                  _CCP9CON2Hbits = 0xa76
                    0x0a78                  CCP9CON3L = 0xa78
                    0x0a78                  _CCP9CON3L = 0xa78
                    0x0a78                  _CCP9CON3Lbits = 0xa78
                    0x0a7a                  CCP9CON3H = 0xa7a
                    0x0a7a                  _CCP9CON3H = 0xa7a
                    0x0a7a                  _CCP9CON3Hbits = 0xa7a
                    0x0a7c                  CCP9STAT = 0xa7c
                    0x0a7c                  _CCP9STAT = 0xa7c
                    0x0a7c                  _CCP9STATbits = 0xa7c
                    0x0a7c                  CCP9STATL = 0xa7c
                    0x0a7c                  _CCP9STATL = 0xa7c
                    0x0a7c                  _CCP9STATLbits = 0xa7c
                    0x0a80                  CCP9TMRL = 0xa80
                    0x0a80                  _CCP9TMRL = 0xa80
                    0x0a82                  CCP9TMRH = 0xa82
                    0x0a82                  _CCP9TMRH = 0xa82
                    0x0a84                  CCP9PRL = 0xa84
                    0x0a84                  _CCP9PRL = 0xa84
                    0x0a86                  CCP9PRH = 0xa86
                    0x0a86                  _CCP9PRH = 0xa86
                    0x0a88                  CCP9RA = 0xa88
                    0x0a88                  _CCP9RA = 0xa88
                    0x0a88                  CCP9RAL = 0xa88
                    0x0a88                  _CCP9RAL = 0xa88
                    0x0a8c                  CCP9RB = 0xa8c
                    0x0a8c                  _CCP9RB = 0xa8c
                    0x0a8c                  CCP9RBL = 0xa8c
                    0x0a8c                  _CCP9RBL = 0xa8c
                    0x0a90                  CCP9BUFL = 0xa90
                    0x0a90                  _CCP9BUFL = 0xa90
                    0x0a92                  CCP9BUFH = 0xa92
                    0x0a92                  _CCP9BUFH = 0xa92
                    0x0abc                  DMACON = 0xabc
                    0x0abc                  _DMACON = 0xabc
                    0x0abc                  _DMACONbits = 0xabc
                    0x0abe                  DMABUF = 0xabe
                    0x0abe                  _DMABUF = 0xabe
                    0x0ac0                  DMAL = 0xac0
                    0x0ac0                  _DMAL = 0xac0
                    0x0ac2                  DMAH = 0xac2
                    0x0ac2                  _DMAH = 0xac2
                    0x0ac4                  DMACH0 = 0xac4
                    0x0ac4                  _DMACH0 = 0xac4
                    0x0ac4                  _DMACH0bits = 0xac4
                    0x0ac6                  DMAINT0 = 0xac6
                    0x0ac6                  _DMAINT0 = 0xac6
                    0x0ac6                  _DMAINT0bits = 0xac6
                    0x0ac8                  DMASRC0 = 0xac8
                    0x0ac8                  _DMASRC0 = 0xac8
                    0x0aca                  DMADST0 = 0xaca
                    0x0aca                  _DMADST0 = 0xaca
                    0x0acc                  DMACNT0 = 0xacc
                    0x0acc                  _DMACNT0 = 0xacc
                    0x0ace                  DMACH1 = 0xace
                    0x0ace                  _DMACH1 = 0xace
                    0x0ace                  _DMACH1bits = 0xace
                    0x0ad0                  DMAINT1 = 0xad0
                    0x0ad0                  _DMAINT1 = 0xad0
                    0x0ad0                  _DMAINT1bits = 0xad0
                    0x0ad2                  DMASRC1 = 0xad2
                    0x0ad2                  _DMASRC1 = 0xad2
                    0x0ad4                  DMADST1 = 0xad4
                    0x0ad4                  _DMADST1 = 0xad4
                    0x0ad6                  DMACNT1 = 0xad6
                    0x0ad6                  _DMACNT1 = 0xad6
                    0x0ad8                  DMACH2 = 0xad8
                    0x0ad8                  _DMACH2 = 0xad8
                    0x0ad8                  _DMACH2bits = 0xad8
                    0x0ada                  DMAINT2 = 0xada
                    0x0ada                  _DMAINT2 = 0xada
                    0x0ada                  _DMAINT2bits = 0xada
                    0x0adc                  DMASRC2 = 0xadc
                    0x0adc                  _DMASRC2 = 0xadc
                    0x0ade                  DMADST2 = 0xade
                    0x0ade                  _DMADST2 = 0xade
                    0x0ae0                  DMACNT2 = 0xae0
                    0x0ae0                  _DMACNT2 = 0xae0
                    0x0ae2                  DMACH3 = 0xae2
                    0x0ae2                  _DMACH3 = 0xae2
                    0x0ae2                  _DMACH3bits = 0xae2
                    0x0ae4                  DMAINT3 = 0xae4
                    0x0ae4                  _DMAINT3 = 0xae4
                    0x0ae4                  _DMAINT3bits = 0xae4
                    0x0ae6                  DMASRC3 = 0xae6
                    0x0ae6                  _DMASRC3 = 0xae6
                    0x0ae8                  DMADST3 = 0xae8
                    0x0ae8                  _DMADST3 = 0xae8
                    0x0aea                  DMACNT3 = 0xaea
                    0x0aea                  _DMACNT3 = 0xaea
                    0x0b00                  ADCON1L = 0xb00
                    0x0b00                  _ADCON1L = 0xb00
                    0x0b00                  _ADCON1Lbits = 0xb00
                    0x0b02                  ADCON1H = 0xb02
                    0x0b02                  _ADCON1H = 0xb02
                    0x0b02                  _ADCON1Hbits = 0xb02
                    0x0b04                  ADCON2L = 0xb04
                    0x0b04                  _ADCON2L = 0xb04
                    0x0b04                  _ADCON2Lbits = 0xb04
                    0x0b06                  ADCON2H = 0xb06
                    0x0b06                  _ADCON2H = 0xb06
                    0x0b06                  _ADCON2Hbits = 0xb06
                    0x0b08                  ADCON3L = 0xb08
                    0x0b08                  _ADCON3L = 0xb08
                    0x0b08                  _ADCON3Lbits = 0xb08
                    0x0b0a                  ADCON3H = 0xb0a
                    0x0b0a                  _ADCON3H = 0xb0a
                    0x0b0a                  _ADCON3Hbits = 0xb0a
                    0x0b0c                  ADCON4L = 0xb0c
                    0x0b0c                  _ADCON4L = 0xb0c
                    0x0b0c                  _ADCON4Lbits = 0xb0c
                    0x0b0e                  ADCON4H = 0xb0e
                    0x0b0e                  _ADCON4H = 0xb0e
                    0x0b0e                  _ADCON4Hbits = 0xb0e
                    0x0b10                  ADMOD0L = 0xb10
                    0x0b10                  _ADMOD0L = 0xb10
                    0x0b10                  _ADMOD0Lbits = 0xb10
                    0x0b12                  ADMOD0H = 0xb12
                    0x0b12                  _ADMOD0H = 0xb12
                    0x0b12                  _ADMOD0Hbits = 0xb12
                    0x0b14                  ADMOD1L = 0xb14
                    0x0b14                  _ADMOD1L = 0xb14
                    0x0b14                  _ADMOD1Lbits = 0xb14
                    0x0b16                  ADMOD1H = 0xb16
                    0x0b16                  _ADMOD1H = 0xb16
                    0x0b16                  _ADMOD1Hbits = 0xb16
                    0x0b20                  ADIEL = 0xb20
                    0x0b20                  _ADIEL = 0xb20
                    0x0b20                  _ADIELbits = 0xb20
                    0x0b22                  ADIEH = 0xb22
                    0x0b22                  _ADIEH = 0xb22
                    0x0b22                  _ADIEHbits = 0xb22
                    0x0b30                  ADSTATL = 0xb30
                    0x0b30                  _ADSTATL = 0xb30
                    0x0b30                  _ADSTATLbits = 0xb30
                    0x0b32                  ADSTATH = 0xb32
