:020000040000fa
:080000009e1204000000000044
:020000040000fa
:04000800c40e000022
:020000040000fa
:04000c00060f0000db
:020000040000fa
:04001000460f000097
:020000040000fa
:04001400e40e0000f6
:020000040000fa
:04001800260f0000af
:020000040000fa
:04001c009417000035
:020000040000fa
:04002000660f000067
:020000040000fa
:04002400941700002d
:020000040000fa
:040028009417000029
:020000040000fa
:04002c00e6120000d8
:020000040000fa
:040030009417000021
:020000040000fa
:04003400941700001d
:020000040000fa
:040038009417000019
:020000040000fa
:04003c009417000015
:020000040000fa
:040040009417000011
:020000040000fa
:04004400941700000d
:020000040000fa
:040048009417000009
:020000040000fa
:04004c009417000005
:020000040000fa
:040050009417000001
:020000040000fa
:0400540094170000fd
:020000040000fa
:0400580094170000f9
:020000040000fa
:04005c0094170000f5
:020000040000fa
:0400600094170000f1
:020000040000fa
:0400640094170000ed
:020000040000fa
:0400680094170000e9
:020000040000fa
:04006c0094170000e5
:020000040000fa
:0400700094170000e1
:020000040000fa
:0400740094170000dd
:020000040000fa
:0400780094170000d9
:020000040000fa
:04007c0094170000d5
:020000040000fa
:0400800094170000d1
:020000040000fa
:0400840094170000cd
:020000040000fa
:0400880094170000c9
:020000040000fa
:04008c0094170000c5
:020000040000fa
:0400900094170000c1
:020000040000fa
:0400940094170000bd
:020000040000fa
:0400980094170000b9
:020000040000fa
:04009c0094170000b5
:020000040000fa
:0400a00094170000b1
:020000040000fa
:0400a40094170000ad
:020000040000fa
:0400a80094170000a9
:020000040000fa
:0400ac0094170000a5
:020000040000fa
:0400b00094170000a1
:020000040000fa
:0400b400941700009d
:020000040000fa
:0400b8009417000099
:020000040000fa
:0400bc009417000095
:020000040000fa
:0400c0009417000091
:020000040000fa
:0400c400941700008d
:020000040000fa
:0400c8009417000089
:020000040000fa
:0400cc009417000085
:020000040000fa
:0400d0009417000081
:020000040000fa
:0400d400941700007d
:020000040000fa
:0400d8009417000079
:020000040000fa
:0400dc009417000075
:020000040000fa
:0400e0009417000071
:020000040000fa
:0400e400941700006d
:020000040000fa
:0400e8009417000069
:020000040000fa
:0400ec009417000065
:020000040000fa
:0400f0009417000061
:020000040000fa
:0400f400941700005d
:020000040000fa
:0400f8009417000059
:020000040000fa
:0400fc009417000055
:020000040000fa
:040100009417000050
:020000040000fa
:04010400941700004c
:020000040000fa
:040108009417000048
:020000040000fa
:04010c009417000044
:020000040000fa
:040110009417000040
:020000040000fa
:04011400941700003c
:020000040000fa
:040118009417000038
:020000040000fa
:04011c009417000034
:020000040000fa
:040120009417000030
:020000040000fa
:04012400941700002c
:020000040000fa
:040128009417000028
:020000040000fa
:04012c009417000024
:020000040000fa
:040130009417000020
:020000040000fa
:04013400941700001c
:020000040000fa
:040138009417000018
:020000040000fa
:04013c009417000014
:020000040000fa
:040140009417000010
:020000040000fa
:04014400941700000c
:020000040000fa
:040148009417000008
:020000040000fa
:04014c009417000004
:020000040000fa
:040150009417000000
:020000040000fa
:0401540094170000fc
:020000040000fa
:0401580094170000f8
:020000040000fa
:04015c0094170000f4
:020000040000fa
:0401600094170000f0
:020000040000fa
:0401640094170000ec
:020000040000fa
:0401680094170000e8
:020000040000fa
:04016c0094170000e4
:020000040000fa
:0401700094170000e0
:020000040000fa
:0401740094170000dc
:020000040000fa
:0401780094170000d8
:020000040000fa
:04017c0094170000d4
:020000040000fa
:0401800094170000d0
:020000040000fa
:0401840094170000cc
:020000040000fa
:0401880094170000c8
:020000040000fa
:04018c0094170000c4
:020000040000fa
:0401900094170000c0
:020000040000fa
:0401940094170000bc
:020000040000fa
:0401980094170000b8
:020000040000fa
:04019c0094170000b4
:020000040000fa
:0401a00094170000b0
:020000040000fa
:0401a40094170000ac
:020000040000fa
:0401a80094170000a8
:020000040000fa
:0401ac0094170000a4
:020000040000fa
:0401b00094170000a0
:020000040000fa
:0401b400941700009c
:020000040000fa
:0401b8009417000098
:020000040000fa
:0401bc009417000094
:020000040000fa
:0401c0009417000090
:020000040000fa
:0401c400941700008c
:020000040000fa
:0401c8009417000088
:020000040000fa
:0401cc009417000084
:020000040000fa
:0401d0009417000080
:020000040000fa
:0401d400941700007c
:020000040000fa
:0401d8009417000078
:020000040000fa
:0401dc009417000074
:020000040000fa
:0401e0009417000070
:020000040000fa
:0401e400941700006c
:020000040000fa
:0401e8009417000068
:020000040000fa
:0401ec009417000064
:020000040000fa
:0401f0009417000060
:020000040000fa
:0401f400941700005c
:020000040000fa
:0401f8009417000058
:020000040000fa
:0401fc009417000054
:020000040000fa
:04020000941700004f
:020000040000fa
:04020400941700004b
:020000040000fa
:040208009417000047
:020000040000fa
:04020c009417000043
:020000040000fa
:04021000941700003f
:020000040000fa
:04021400941700003b
:020000040000fa
:040218009417000037
:020000040000fa
:04021c009417000033
:020000040000fa
:04022000941700002f
:020000040000fa
:04022400941700002b
:020000040000fa
:040228009417000027
:020000040000fa
:04022c009417000023
:020000040000fa
:04023000941700001f
:020000040000fa
:04023400941700001b
:020000040000fa
:040238009417000017
:020000040000fa
:04023c009417000013
:020000040000fa
:04024000941700000f
:020000040000fa
:04024400941700000b
:020000040000fa
:040248009417000007
:020000040000fa
:04024c009417000003
:020000040000fa
:0402500094170000ff
:020000040000fa
:0402540094170000fb
:020000040000fa
:0402580094170000f7
:020000040000fa
:04025c0094170000f3
:020000040000fa
:0402600094170000ef
:020000040000fa
:0402640094170000eb
:020000040000fa
:0402680094170000e7
:020000040000fa
:04026c0094170000e3
:020000040000fa
:0402700094170000df
:020000040000fa
:0402740094170000db
:020000040000fa
:0402780094170000d7
:020000040000fa
:04027c0094170000d3
:020000040000fa
:0402800094170000cf
:020000040000fa
:0402840094170000cb
:020000040000fa
:0402880094170000c7
:020000040000fa
:04028c0094170000c3
:020000040000fa
:0402900094170000bf
:020000040000fa
:0402940094170000bb
:020000040000fa
:0402980094170000b7
:020000040000fa
:04029c0094170000b3
:020000040000fa
:0402a00094170000af
:020000040000fa
:0402a40094170000ab
:020000040000fa
:0402a80094170000a7
:020000040000fa
:0402ac0094170000a3
:020000040000fa
:0402b000941700009f
:020000040000fa
:0402b400941700009b
:020000040000fa
:0402b8009417000097
:020000040000fa
:0402bc009417000093
:020000040000fa
:0402c000941700008f
:020000040000fa
:0402c400941700008b
:020000040000fa
:0402c8009417000087
:020000040000fa
:0402cc009417000083
:020000040000fa
:0402d000941700007f
:020000040000fa
:0402d400941700007b
:020000040000fa
:0402d8009417000077
:020000040000fa
:0402dc009417000073
:020000040000fa
:0402e000941700006f
:020000040000fa
:0402e400941700006b
:020000040000fa
:0402e8009417000067
:020000040000fa
:0402ec009417000063
:020000040000fa
:0402f000941700005f
:020000040000fa
:0402f400941700005b
:020000040000fa
:0402f8009417000057
:020000040000fa
:0402fc009417000053
:020000040000fa
:04030000941700004e
:020000040000fa
:04030400941700004a
:020000040000fa
:040308009417000046
:020000040000fa
:04030c009417000042
:020000040000fa
:04031000941700003e
:020000040000fa
:04031400941700003a
:020000040000fa
:040318009417000036
:020000040000fa
:04031c009417000032
:020000040000fa
:04032000941700002e
:020000040000fa
:04032400941700002a
:020000040000fa
:040328009417000026
:020000040000fa
:04032c009417000022
:020000040000fa
:04033000941700001e
:020000040000fa
:04033400941700001a
:020000040000fa
:100400000b080000000000000000000000000000d9
:1004100000000000000100000020000000000000bb
:10042000feb700000200000009000000000000000c
:1004300000000000000000000000000000010000bb
:1004400000000000000000000000000000000000ac
:100450000000000000020000010000000100000098
:1004600000560000340000000000000008080000f2
:10047000000000000000000000000000000000007c
:100480000000000000000000000000000028000044
:040490000000000068
:020000040000fa
:100494000000000000000000ab41000041810000aa
:1004a400fdc20000c38300005683000082020000e6
:1004b40051c40000c6860000fa85000087070000ca
:1004c400ac06000005050000074700004484000056
:1004d40009c90000cc8c0000a28800008d0d00002a
:1004e400f40b00000f0f00005f4a00004e8e000066
:1004f400580d00000a0a0000f34c00004b8b00006a
:10050400a5cf0000c98900000e8e000088080000f5
:10051400b9d30000d8980000129200009919000085
:10052400441100001b1b0000ef5000005a9a000009
:10053400e81700001e1e0000435600005f9f0000e5
:1005440015d50000dd9d0000be9400009c1c000039
:10055400b01a0000141400001b5b00005595000045
:100564004dd80000d7970000e699000096160000c9
:10057400e1de0000d29200004a9f000093130000c5
:100584001c1c000011110000b75d00005090000019
:10059400d9e60000f0b0000072a70000b1310000fd
:1005a40024240000333300008f65000072b2000081
:1005b40088220000363600002363000077b700006d
:1005c40075e00000f5b50000dea10000b4340000c1
:1005d400d02f00003c3c00007b6e00007dbd00007d
:1005e4002ded0000ffbf000086ac0000be3e000001
:1005f40081eb0000faba00002aaa0000bb3b00000d
:100604007c29000039390000d768000078b8000060
:100614006035000028280000cb74000069a90000a0
:100624009df70000ebab000036b60000aa2a0000dc
:1006340031f10000eeae00009ab00000af2f0000d0
:10064400cc3300002d2d0000677200006cac00005c
:1006540069fc0000e4a40000c2bd0000a525000060
:10066400943e0000272700003f7f000066a600009c
:1006740038380000222200009379000063a30000b0
:10068400c5fa0000e1a100006ebb0000a02000003c
:10069400198c0000a0e00000b2cd0000e161000070
:1006a400e44e0000636300004f0f000022e20000ec
:1006b4004848000066660000e309000027e70000e0
:1006c400b58a0000a5e500001ecb0000e46400002c
:1006d400104500006c6c0000bb0400002ded000010
:1006e400ed870000afef000046c60000ee6e00008c
:1006f40041810000aaea0000eac00000eb6b0000a0
:10070400bc430000696900001702000028e80000eb
:10071400a05f0000787800000b1e000039f900008b
:100724005d9d0000bbfb0000f6dc0000fa7a0000cf
:10073400f19b0000befe00005ada0000ff7f0000bb
:100744000c5900007d7d0000a71800003cfc00004f
:10075400a9960000b4f4000002d70000f57500006b
:100764005454000077770000ff15000036f60000af
:10077400f8520000727200005313000033f30000bb
:1007840005900000b1f10000aed10000f07000004f
:10079400c06a0000505000006b2b000011d1000013
:1007a4003da8000093d3000096e90000d252000057
:1007b40091ae000096d600003aef0000d757000033
:1007c4006c6c000055550000c72d000014d40000c7
:1007d400c9a300009cdc000062e20000dd5d0000b3
:1007e400346100005f5f00009f2000001ede0000f7
:1007f400986700005a5a0000332600001bdb0000f3
:1008040065a5000099d90000cee40000d858000086
:1008140079b9000088c80000d2f80000c949000076
:10082400847b00004b4b00002f3a00000aca0000f2
:10083400287d00004e4e0000833c00000fcf0000d6
:10084400d5bf00008dcd00007efe0000cc4c000022
:100854007070000044440000db31000005c5000056
:100864008db2000087c7000026f30000c6460000d2
:1008740021b4000082c200008af50000c3430000d6
:10088400dc760000414100007737000000c0000022
:1008940099590000004000003218000041c10000d6
:1008a400649b0000c3c30000cfda00008242000052
:1008b400c89d0000c6c6000063dc00008747000036
:1008c400355f0000054500009e1e000044c4000082
:1008d40090900000cccc00003bd100008d4d000076
:1008e4006d5200000f4f0000c61300004ece0000f2
:1008f400c15400000a4a00006a1500004bcb0000f6
:100904003c960000c9c9000097d700008848000041
:10091400208a0000d8d800008bcb00009959000031
:10092400dd4800001b5b0000760900005ada000075
:10093400714e00001e5e0000da0f00005fdf000051
:100944008c8c0000dddd000027cd00009c5c0000e5
:1009540029430000145400008202000055d5000011
:10096400d4810000d7d700007fc000009656000055
:1009740078870000d2d20000d3c600009353000051
:1009840085450000115100002e04000050d00000e5
:1009940040bf0000f0f00000ebfe0000b171000069
:1009a400bd7d000033730000163c000072f20000ad
:1009b400117b000036760000ba3a000077f7000099
:1009c400ecb90000f5f5000047f80000b47400002d
:1009d400497600003c7c0000e23700007dfd000009
:1009e400b4b40000ffff00001ff50000be7e00004d
:1009f40018b20000fafa0000b3f30000bb7b000059
:100a0400e5700000397900004e31000078f80000ec
:100a1400f96c000028680000522d000069e900000c
:100a240004ae0000ebeb0000afef0000aa6a000088
:100a3400a8a80000eeee000003e90000af6f00007c
:100a4400556a00002d6d0000fe2b00006cec0000c8
:100a5400f0a50000e4e400005be40000a5650000ec
:100a64000d67000027670000a626000066e6000068
:100a7400a1610000226200000a20000063e300007c
:100a84005ca30000e1e10000f7e20000a0600000c8
:100a940080d50000a0a000002b940000e1210000fc
:100aa4007d17000063230000d656000022a2000038
:100ab400d1110000662600007a50000027a700002c
:100ac4002cd30000a5a5000087920000e4240000b8
:100ad400891c00006c2c0000225d00002dad00007c
:100ae40074de0000afaf0000df9f0000ee2e0000b8
:100af400d8d80000aaaa000073990000eb2b0000cc
:100b0400251a0000692900008e5b000028a8000057
:100b140039060000783800009247000039b9000017
:100b2400c4c40000bbbb00006f850000fa3a00009b
:100b340068c20000bebe0000c3830000ff3f000087
:100b4400950000007d3d00003e4100003cbc0000db
:100b540030cf0000b4b400009b8e0000f5350000d7
:100b6400cd0d000077370000664c000036b600005b
:100b7400610b000072320000ca4a000033b3000067
:100b84009cc90000b1b1000037880000f0300000bb
:100b94005933000050100000f2720000119100005f
:100ba400a4f10000939300000fb00000d2120000e3
:100bb40008f7000096960000a3b60000d7170000bf
:100bc400f5350000551500005e7400001494000013
:100bd40050fa00009c9c0000fbbb0000dd1d0000df
:100be400ad3800005f1f0000067900001e9e000063
:100bf400013e00005a1a0000aa7f00001b9b00005f
:100c0400fcfc00009999000057bd0000d8180000b2
:100c1400e0e00000888800004ba10000c909000042
:100c24001d2200004b0b0000b66300000a8a00007e
:100c3400b12400004e0e00001a6500000f8f000062
:100c44004ce600008d8d0000e7a70000cc0c0000ee
:100c5400e929000044040000426800000585000002
:100c640014eb000087870000bfaa0000c60600003e
:100c7400b8ed00008282000013ac0000c303000042
:100c8400452f000041010000ee6e000000800000ce
:100c9400809fbe00821f7800a00021000110200068
:100ca400a1028800a1242000022020003118ba00eb
:100cb4000201e900fdff3a004f0178004f00be0039
:100cc400000006005400f800889fbe004a06020097
:100cd400000000000404be002800b0000980b00039
:100ce4000203be00a40021000600b00005003a0083
:100cf4000700b00003003a000001eb008001eb00a4
:100d0400070037000830e10002003a000938e1002a
:100d140031003200a70288001601ba009681ba0099
:100d2400c80ade0082c26a00c22add0085024200cf
:100d3400c808dd000080fd00814068000040eb0031
:100d4400350068009580680081026900c82ade00c9
:100d5400c22add0085024200c808dd000080fd00d3
:100d6400814068000040eb00350068009580680011
:100d7400c80ade0083c26a00c22add00850242007e
:100d8400c808dd000080fd00814068000040eb00e1
:100d9400350068009580680081826900c82ade00f9
:100da400c22add0085024200c808dd000080fd0083
:100db400814068000040eb003500680095806800c1
:100dc4002600b0000780b0000830e100d1ff3a00ef
:100dd4000938e100cfff3a004f04be005400f90087
:040de4000000060005
:020000040000fa
:100de8001400fa0010c0b300004f78002061210001
:100df80030079800b1002000206121003506070067
:100e080068004700b2002000216121001408070093
:100e18003e019000f24190008381fb00024a90005d
:100e28000482fb004822dd00848171000300780001
:100e3800924990008381fb00224990000281fb00c7
:100e48004811dd00028171008200780010079800c7
:100e5800210798001e019000ae01900000802f002d
:100e68000100200002027800030178008001780068
:100e78000100780003026200000061008000eb00be
:100e8800c000dd00000020000001be006120b800a5
:100e980000017100818171001e009000ae00900079
:100ea800800f5100818f5900020032000040eb0092
:100eb800004f78003e019000b24190008381fb0012
:100ec800424290000482fb004822dd0084817100c8
:100ed80003007800d24190008381fb0062419000ba
:100ee8000281fb004811dd00028171008200780058
:100ef80039010700200037001e019000ae01900064
:100f0800008020000100200002004000838048008b
:100f18000001be001e009000ae009000b106070060
:100f28000004e000120032001e009000ae009000a5
:100f3800580107000080fb0000f0a7000000ea004d
:100f48000000ea004f00de00004f78001e0190000c
:100f5800ae01900000802000010020000200400047
:100f68008380480010079800210798000200370086
:100f78000040eb00004f78001e4078000004e000bd
:100f8800220032003e019000f24190008381fb0074
:100f9800024a90000482fb004822dd00848171002f
:100fa80003007800924990008381fb002249900059
:100fb8000281fb004811dd00028171008200780087
:100fc8003e019000924190008381fb0022419000f5
:100fd8000281fb004811dd00028171006112b80036
:100fe8004b29dd00c521de00830171004b21dd00a6
:100ff80000014100818149001e009000ae00900070
:10100800800f5100818f5900bbff3e00f700070099
:101018001e4078000004e000250032003e019000e8
:10102800f24190008381fb00024a90000482fb0099
:101038004822dd0084817100030078009249900005
:101048008381fb00224990000281fb004811dd00ea
:1010580002817100820078003e0190009241900068
:101068008381fb00224190000281fb004811dd00d2
:10107800028171006112b8004b29dd00c521de0034
:10108800830171004b21dd0000014100818149008d
:101098001e009000ae009000800f5100818f590013
:1010a80003003a0010c0b300305798000200370020
:1010b800e0cfb3003057980068004700c100200017
:1010c800e60507003e009000b040900060c1600057
:1010d800a1cab3008140710031409800404190009e
:1010e80080c0eb008140710041409800d0409000e2
:1010f80060c1600051c5b300814071005140980043
:101108006041900080c0eb00814071006140980010
:101118003e509000e14f500002003a000000eb0002
:1011280001003700300020000080fa0000000600af
:020000040000fa
:101138001e00fa00881f780020612100100798001f
:1011480020002000380707000080fb004800dd0071
:101158002007980010002000330707000080fb00dc
:10116800ae00900001007000200798007a05070083
:10117800ae009000eb804000810f5000020031006b
:1011880020002000900037002e0090006b004000e7
:1011980080007800206121004e0507006a004700a2
:1011a800b2002000216121002d07070010c0b30004
:1011b800505798001e019000f24190008381fb0077
:1011c800024a90000482fb004822dd0084817100fd
:1011d80003007800924990008381fb002249900027
:1011e8000281fb004811dd00028171008200780055
:1011f80030079800410798002e0090000000d100a9
:101208006101b8003e009000ce009000020040004e
:10121800838048000001be003e009000ce00900090
:10122800f00507000004e000490032002e0090009d
:10123800670060000000e00045003a00ae00900042
:10124800500f2000808f500041003e001e0190008a
:10125800b24190008381fb00424290000482fb006f
:101268004822dd008481710003007800d24190009b
:101278008381fb00624190000281fb004811dd0080
:101288000281710082007800530007000000eb0023
:10129800000f7800280037001e0090006b00400007
:1012a8009e0040007600470082002000ec06070000
:1012b8005e0a9000ee0a90003e0b9000ce0b900064
:1012c8001e019000f24190008381fb00024c9000c7
:1012d8000884fb004844dd00888171000300780021
:1012e800924990008381fb00224990000281fb0013
:1012f8004811dd0002817100820078001e0178002b
:101308000201d1008001eb0000004100818049000a
:101318000601be006d0007000004a2000004e00002
:1013280003003200e0cfb3005057980006003700a2
:101338009e007800688f40002e0090009e00780084
:10134800808f5000d4ff39002800070002003700c2
:10135800e0cfb300505798006a004700c100200052
:101368003e0507001e009000b040900060c160007c
:10137800a1cab300814071003140980040419000fb
:1013880080c0eb008140710041409800d04090003f
:1013980060c1600051c5b3008140710051409800a0
:1013a8006041900080c0eb0081407100614098006e
:1013b8005e509000e14f500002003a000000eb0040
:1013c80001003700300020004f0478000080fa0048
:0413d800000006000b
:020000040000fa
:1013dc000000fe002273210000197800010978003a
:1013ec00000006000000fe000000eb008000eb0097
:1013fc00f8ff0700d628ef00000006000000fe00f2
:10140c000000fe00801f7800811f7800821f78008a
:10141c002173210012468000c3e8a9003100780036
:10142c00b046880011007800b0468800d1e8a800ca
:10143c000000000000000000d1e8af00feff370004
:10144c0002f0a700c3e8a8004f017800cf00780095
:10145c004f007800000006000000fe00a202800091
:10146c00a10288009080ba001000ba00a202880085
:10147c00000006000000fe00a2028000a10288000d
:10148c001000ba00a2028800000006000000fe0056
:10149c00f27f20000001610008003a0032002400b5
:1014ac008246880090468800a1468800080a0200ff
:1014bc000000000010002000d1a8af0000002000a8
:1014cc00000006000000fe00d1e8af00feff370070
:1014dc000000a700130037000010a7001100370010
:1014ec00a1468800904688001000240080468800a1
:1014fc00a0028000a10f2000a102880001002000a2
:10150c008208bb008398bb008408bb008598bb0095
:10151c00080a020000000000a00288001000200051
:10152c00d1a8af0000002000000006000000fe0063
:10153c00d1e8af00feff37000000a7001400370011
:10154c000010a70012003700a146880090468800c2
:10155c00a10280001000240080468800a00f20000b
:10156c00a0028800000020000208bb00f20f20003f
:10157c000298bb000308bb000298bb00080a0200db
:10158c0000000000a102880010002000d1a8af00cc
:10159c0000002000000006000000fe00d1e8af00b3
:1015ac00feff3700f30f20008081610009003a0034
:1015bc0090468800a14688002000240080468800c0
:1015cc00c2468800080a020000000000100020003b
:1015dc00d1a8af0000002000000006000000fe00b3
:1015ec00d1e8af00feff3700f30f200080816100cf
:1015fc0015003a0090468800a1468800100024008f
:10160c0080468800a00f2000a00288000000200067
:10161c0001082000f40f20003208bb000498bb0026
:10162c003208bb000490bb00080a02000000000056
:10163c00d2a8ec00d2a8ec002100b100f6ff3a00d1
:10164c0010002000d1a8af00000020000000060010
:10165c00f27f2000000061000000060002802f00d5
:10166c0000006100f2ff2f00810061000000060005
:020000040000fa
:10167c001a00fa0020612100300798006000b800c1
:10168c00008fbe00b1002000206121001004070073
:10169c006c004700b200200021612100ef0507001b
:1016ac003e019000f24190008381fb00024a9000c1
:1016bc000482fb004822dd00848171000300780065
:1016cc00924990008381fb00224990000281fb002b
:1016dc004811dd0002817100820078003e0190000b
:1016ec00924190008381fb00224190000281fb001b
:1016fc004811dd00028171008001eb000000410007
:10170c008180490061025000e08258003e01900047
:10171c00f24190008381fb00024b90000683fb009a
:10172c004833dd00868171000300780092499000f7
:10173c008381fb00224990000281fb004811dd00ef
:10174c0002817100820078000401be00a40407002d
:10175c000004e000580032000000eb002007980065
:10176c00420037003e019000f24190008381fb0063
:10177c00024a90000482fb004822dd008481710043
:10178c0003007800924990008381fb00224990006d
:10179c000281fb004811dd0002817100820078009b
:1017ac002e0190000201d1008001eb0000004100ed
:1017bc008180490029ff07004007980051079800d5
:1017cc004e019000de019000f0ff2f000100200080
:1017dc000202780083017800000178000100780093
:1017ec0002016200008061008000eb00c000dd009f
:1017fc00000020000002be006110b8000002720060
:10180c00818272004e009000de0090004009de00e4
:10181c0003002000f00f20000100200002037800dc
:10182c000301780080017800010078000303630055
:10183c00000061008000eb00c000dd000000200013
:10184c000001be006130b80000017100818171009f
:10185c0004004100858049001e0f40005e9748003f
:10186c002e00900064004000200798003e0090007d
:10187c00904090008180fb00204090000080fb0095
:10188c004800dd0000807000800078002e00900081
:10189c00808f5000b3ff3e001e007800400f980070
:1018ac0010c0b300705798006c004700e100200096
:1018bc00e90307000d003700e0cfb3007057980024
:1018cc00ee009000f00f2000008060006007980090
:1018dc00fe00900000f02f00008060007007980060
:1018ec006c004700c1002000db0307007e50900015
:1018fc00e14f500002003a000000eb0001003700fd
:0c190c00300020000080fa0000000600ff
:020000040000fa
:101918000801fa002061210010079800b10020009a
:10192800206121006b03070064004700b20020001b
:10193800216121004a0507001e019000f241900034
:101948008381fb00024a90000482fb004822dd00ec
:101958008481710003007800924990008381fb0024
:10196800224990000281fb004811dd0002817100cc
:10197800820078001e019000924190008381fb0054
:10198800224190000281fb004811dd0002817100b4
:101998000201d1008001eb00000241008182490070
:1019a8001e019000f24190008381fb00024b9000e1
:1019b8000683fb004833dd00868171000300780050
:1019c800924990008381fb00224990000281fb002c
:1019d8004811dd0002817100820078000401be0018
:1019e800000407000004e000440032001e009000dc
:1019f800904090008180fb00204090000080fb0018
:101a08004800dd000080700080007800400f200052
:101a1800808f500039003e001e00900090409000da
:101a28008180fb00204090000080fb004800dd0022
:101a380000807000630060000000e0002f003a00a2
:101a48000000eb00000f7800200037001e01900016
:101a5800f24190008381fb00024a90000482fb005f
:101a68004822dd00848171000300780092499000cb
:101a78008381fb00224990000281fb004811dd00b0
:101a880002817100820078001e0178000201d100f5
:101a98008001eb00000041008180490070fe0700d2
:101aa8002007990031079900640047006c00400046
:101ab8001e004000411020008e804000420020009f
:101ac800e70407009e007800648f40001e00900025
:101ad800904090008180fb00204090000080fb0037
:101ae8004800dd00008070009e0f5000d7ff3e00c8
:101af80010c0b300704f98000a003700e0cfb30061
:101b0800704f9800ae009000f00f20000080600039
:101b180020079800be00900000f02f0000806000b1
:101b2800300798002e0090004800de003e0190002b
:101b3800f10f200081006100c808dd00010070007d
:101b4800ec00400064004700440307007e48900012
:101b5800e14f500002003a000000eb00010037009e
:0c1b6800300020000080fa0000000600a1
:020000040000fa
:101b74001000fa003012840041128400640147000e
:101b8400ab0107004e009000de0090005d040700ea
:101b94000004e000020032000040eb007700370050
:101ba4006e009000fe009000560407000004e00060
:101bb400020032000040eb00700037004e0190003c
:101bc400de019000f0ff210001002000800f510091
:101bd400818f590002003e000040eb00670037008f
:101be4006e019000fe019000f0ff21000100200032
:101bf400800f5100818f590002003e000040eb002d
:101c04005e0037004e019000de019000e07f2b0063
:101c140021002000800f5100818f590002003600fe
:101c24000040eb00550037006e019000fe0190006b
:101c3400e07f2b0021002000800f5100818f59008c
:101c4400020036000040eb004c0037004e019000cb
:101c5400de0190003012840041128400800f510094
:101c6400818f590007003e006e019000fe01900034
:101c74003012840041128400800f5100818f59007a
:101c84000a0031006e019000fe0190004e009000a9
:101c9400de0090000202be000001be006000b80039
:101ca40008fc0700008fbe00290037006000b80060
:101cb400008fbe004e019000de01900030128400bf
:101cc40041128400800f5100818f59000b003200b3
:101cd400301284004112840062015000e0815800f7
:101ce4004e009000de0090000202be000001be0023
:101cf4001e00be00f3fb0700008fbe006022b80088
:101d04006011b8001e00be00eefb0700008fbe008d
:101d14006022b8006011b8001e00be00e9fb070095
:101d2400008fbe006e019000fe019000301284000e
:101d34004112840064004000e08048000202be00ba
:101d44000001be001e00be00defb0700008fbe00c7
:101d54002e009000be0090003e016800ae81680035
:101d64000200be000080700000f0a7000000ea003e
:101d74000000e9004f00de00004078000080fa0017
:041d84000000060055
:020000040000fa
:101d88003600f800809fbe00829fbe00849fbe0080
:101d9800869fbe000000fa00c028a9000000eb00e2
:101da8004e0407000080fa004f03be004f02be0039
:101db8004f01be004f00be003600f900004006008b
:101dc8003600f800809fbe00829fbe00849fbe0040
:101dd800869fbe000000fa001a040700c048a90048
:101de800100020003d0407000080fa004f03be00e9
:101df8004f02be004f01be004f00be003600f90082
:101e0800004006003600f800809fbe00829fbe009a
:101e1800849fbe00869fbe000000fa00c068a9002b
:101e2800200020002d0407000080fa004f03be00a8
:101e38004f02be004f01be004f00be003600f90041
:101e4800004006003600f800809fbe00829fbe005a
:101e5800849fbe00869fbe000000fa00c088a900cb
:101e6800300020001d0407000080fa004f03be0068
:101e78004f02be004f01be004f00be003600f90001
:101e8800004006003600f800809fbe00829fbe001a
:101e9800849fbe00869fbe000000fa00c608a90005
:101ea800700020000d0407000080fa004f03be00f8
:101eb8004f02be004f01be004f00be003600f900c1
:101ec800004006003600f800809fbe00829fbe00da
:101ed800849fbe00869fbe000000fa002146800055
:101ee80000102000008060000000e00003003200c5
:101ef800c508a900c0002000f8030700214680009b
:101f080000002800008060000000e00003003200ac
:101f1800c5e8a90080002000f003070021468000e2
:101f280000022000008060000000e0000300320092
:101f3800c4a8a90090002000e803070020468000fc
:101f4800700060000000e00003003200c488a900af
:101f5800a0002000e1030700204680006100600027
:101f68000000e00003003200c408a900b00020000f
:081f7800da030700ffff370048
:020000040000fa
:101f8000a1028800800478000000eb001f003700e9
:101f9000e284440054a0b4009905ba00e2844400ed
:101fa00054a0b4009906ba00e284440054a0b400de
:101fb0000006eb00476fde00fd07b200ae018800af
:101fc000636ce10003003a000ad801000000eb0056
:101fd0000e003700606ce10008003a00004deb0095
:101fe0000a05e800020039003420ec000af0a000e5
:101ff0008b05e900f9ff3e00040037006168e1004d
:10200000010032000086eb000b00070019c7ba0080
:102010001905ba000e04e00003003a000a00e000cf
:10202000dbff3a0000000600fe07b200ae028800a7
:102030008a047800f5ff37000cd0a300e20f4d00b2
:102040001c00390089027800354dba000a05e80005
:10205000020039003420ec000af0a0008b05e900f2
:102060000f003200254dba000a05e80002003900d1
:102070003420ec000af0a0008b05e90008003200d3
:102080000c00e0000600320015cdba000a05e80099
:10209000020039003420ec000af0a0008b05e900b2
:1020a0008984e80054a0b4000b00e000e2ff3a008d
:1020b000000006009902ba00055d78008b05e90072
:1020c000f7ff3200c82ade00055d78008b05e900c5
:1020d000f3ff32000c00e000f1ff320019ddba001e
:0420e000eeff3700d8
:020000040000fa
:1020e4000600fa00881f78009c010700000f7800a2
:1020f4001e0078000000e00002003a0010002000fa
:10210400480037001e007800ea0f500002003e002d
:1021140020002000430037000000eb0043030700c9
:102124002047980010002000400307000084fb00b3
:10213400200020003d0307000080fb004800dd0074
:10214400000044006b00400020079800ae0090009f
:1021540000102000808f5000060036002e409000b2
:10216400e34f500003003200d00f20004702070065
:102174002c0037002e4090000080fb00e30f50003d
:102184001b003200e30f500007003c00e10f500039
:1021940013003200e10f50000f003c000000e0008b
:1021a400110032001d003700e90f50001200320008
:1021b400e90f500003003c00e80f5000110032000a
:1021c40016003700ea0f500010003200eb0f5000e9
:1021d4001000320011003700d6fb07001100370051
:1021e400ccfd07000f0037006c0207000d0037001c
:1021f400fcfa07000b003700b60107000000eb00f3
:10220400080037001cfd07000600370074010700b2
:10221400040037007f02070002003700f00f20009f
:102224001a0207004f0478000080fa00000006003c
:020000040000fa
:102234000600fa00889fbe00008fbe0022079800a7
:102244001e00be008efc07008000eb002e019000f3
:102254000089be002e0090001004be002200200061
:10226400030020003e004100ae80490084fc0700ca
:102274008000eb00c000dd000000200008004000ea
:10228400898048002e0190000089be004200200091
:10229400030020003e004100ae80490078fc0700a6
:1022a4008000eb002e01900020019800310198007d
:1022b4002e00900020049000b004900062002000e2
:1022c400030020003e004100ae8049006cfc070082
:1022d4008000eb00c000dd0000002000080040008a
:1022e400898048002e019000200198003101980057
:1022f40082002000030020003e004100ae8049001f
:102304005ffc07008000eb002e0190004001980064
:10231400510198002e00900040049000d0049000d9
:10232400a2002000030020003e004100ae804900ce
:1023340053fc07008000eb00c000dd00000020001b
:1023440008004000898048002e0190004001980058
:10235400510198004f04be000080fa0000000600fe
:020000040000fa
:102364000000fa00062eef00222eef003e2eef00b2
:1023740000012000d0728800762eef00f0012000ca
:1023840010708800d0ff2f00f07088000080eb00f0
:10239400d0718800f0fe2f00b0728800f0f921009f
:1023a400907388000c2eef00282eef00442eef00cf
:1023b400602eef007c2eef000a2eef00262eef0099
:1023c400422eef005e2eef007a2eef00082eef0073
:1023d400242eef00402eef005c2eef00782eef004d
:1023e400f001200000708800f0392000e0708800bf
:1023f400f00c2000c071880000c02200a072880088
:10240400f0002000807388000000eb0051052000dc
:10241400b1468800a10a2000b146880000688800ff
:1024240030c4b30028edb700216d800000fc2f00fc
:10243400008060000000a000206d88000080200063
:1024440051052000b1468800a10a2000b146880049
:0c245400006888000080fa00000006000c
:020000040000fa
:102460000000fa0010002300307c8800800c20005f
:10247000407c88008c2fef0010042000507c8800e6
:1024800010102800707c8800d0072000807c880015
:1024900010022000907c880090202800d07c8800ca
:1024a000b82fef00ba2fef00be2fef00002def0086
:1024b000a02fef00a42fef00a62fef00a82fef0012
:1024c000aa2fef00ae2fef00b02fef00b22fef00da
:1024d0001200200080072000a109200053f82000ee
:1024e00080497800814978008249780012002000f4
:1024f000600420007105200043f820008049780026
:10250000814978008249780000000000207c80002a
:10251000610060000000e000fcff3a0000000000e5
:10252000217c800000022000008060000000e000ac
:0c253000fbff32000080fa0000000600f3
:020000040000fa
:10253c008f7321000eff26000e01880000000000a2
:10254c00000020000000e00002003200000120002a
:10255c002002880014000700720207000000e0004f
:10256c0003003a00a03221000100200002003700d5
:10257c000000200001002000810f700001003200db
:10258c007cfe0700000020000000e000020032008a
:10259c00000002000000000008170200000000000c
:1025ac000040da000000fe00a00420000000e00063
:1025bc00020032000020200090018800000006007c
:020000040000fa
:1025cc003600f800809fbe00829fbe00849fbe0034
:1025dc00869fbe000000fa00108080000000e8001a
:1025ec001080880010808000e40f50000600360038
:1025fc00008080000000e0000200320000808000bb
:10260c00000001000230ef007073210010407800d0
:10261c008040e8007073210001487800607321004d
:10262c0011c0b300014878000028a9000080fa000e
:10263c004f03be004f02be004f01be004f00be0054
:08264c003600f9000040060011
:020000040000fa
:1026540004100000020000008000000012160000b8
:1026640000010000800000000a14000008020000bd
:10267400800000000610000002000000800000003e
:102684000a1000000004000080000000321700005f
:102694000400000082000000ffffff00ff000000b4
:1026a4001217000020000000800000000810000045
:1026b4000200000082000000ffff00003617000047
:1026c4000200000080000000001000000400000070
:0826d40080000000000000007e
:020000040000fa
:1026dc000600fa0010079800210798000000eb0094
:1026ec00000f78001b000700ae009000810f500017
:1026fc00150039000000eb00000f780007003700d0
:10270c001e0090001e004000a14021009e80400051
:10271c0091407800014878001e0fe8002e009000d0
:10272c009e007800808f5000f5ff3900ae009000bd
:10273c00010f78000000eb0050a88800c050210069
:10274c008040eb00014878001e0078000080fa0001
:04275c000000060073
:020000040000fa
:102760000000fa00881f780006d0bf000004a20015
:102770000004e0000f003200822020008000eb0007
:10278000a0402100bf01070010c0b30006f0b70051
:102790000900370058a8800010010700a14021005f
:1027a00081004400804878000800e80050a88800b4
:1027b0000100370000000000690107000004e0008c
:1027c0000400320051a88000f00f2000808f5000dc
:1027d000f0ff360050a880004f0478000080fa0017
:0427e00000000600ef
:020000040000fa
:1027e4000e00fa00b10020000e007800baff0700c6
:1027f400dffc07000004a2000004e0000300320034
:10280400c0cfb300304f98000200370010c0b300af
:10281400304f98009e007800f00f20000080600088
:10282400000f78009e00900000f02f0000806000f0
:1028340010079800c10020000e007800080007006f
:102844003e489000e14f500002003a000000eb00c7
:1028540001003700300020000080fa00000006006c
:020000040000fa
:102864000400fa00000f7800110798000a003700ee
:10287400aa0007000004e000070032001e007800f0
:10288400104078001e0fe800290107001e00900088
:102894000000e900100798001e0090000000e0000e
:1028a400f3ff3a0000000000e80007000004a20063
:1028b4000004e000fcff3a000000eb0070b0880068
:1028c400006121008040eb00014878000080fa009c
:0428d40000000600fa
:020000040000fa
:1028d8000c00fa00402128008e007800b01878001b
:1028e800a0107800e480400064004000b018780030
:1028f800a0107800e480400064004000b018780020
:10290800a0107800e480400064004000b10020007e
:10291800206121006fff0700c10020000e00780031
:10292800ceff0700770107000080fa0000000600cc
:020000040000fa
:102938000000fa0000082000c01188003a22ef00c9
:102948003c22ef0020022000f0118800b0a22000f5
:10295800001288004222ef004c22ef004e22ef00c6
:102968005022ef005222ef005422ef005622ef00cf
:102978005822ef005a22ef005c22ef0039e2a8004b
:1029880038a2a8003882a8000080fa0000000600db
:020000040000fa
:102998000000fa0004d0bf000004a2000004e00018
:1029a8000d003200c00007000004e00004003a00f7
:1029b8006efc07000004a2000004e00003003200df
:1029c80010c0b30004f0b700030037004801070047
:1029d80031010700ea000700c0fd07000080fa0087
:0429e80000000600e5
:020000040000fa
:1029ec000800fa00008fbe002207980033079800f9
:1029fc001e00be000f0007000004e00009003200ba
:102a0c002e009000be00900062005000e080580044
:102a1c00080007000004e000020032001000200053
:102a2c00010037000000eb00004078000080fa0045
:042a3c000000060090
:020000040000fa
:102a40000400fa00008fbe00f0ff2100010020000a
:102a50001e01be00800f5100818f59000800360012
:102a6000e07f2b00210020001e01be00800f5100de
:102a7000818f590002003e00100020000100370045
:102a80000000eb00004078000080fa000000060023
:020000040000fa
:102a90000e00fa0060079800b100200020612100bc
:102aa0000eff0700b2002000216121000e00780017
:102ab000ed0007006e00900000407800304f980055
:102ac000c10020000e00780066ff070030002000e3
:082ad0000080fa00000006007e
:020000040000fa
:102ad8000000fa000421ef006089290040088800fe
:102ae8000003280000088800008080000000e00043
:102af80002003a00005b2100bb0007000028a90083
:102b08002028a800607321008040eb00014878006d
:082b18000080fa000000060035
:020000040000fa
:102b20000000fa00f0118000700060000000e0007a
:102b300007003a00c1118000000220000080600000
:102b40000000e00002003200100020000100370009
:102b50000000eb00004078000080fa000000060052
:020000040000fa
:102b60000000fa00b073800066800a0000000000d8
:102b70000004a200614060000080fb006100600072
:102b80004600dd00b17380000160a100010070000b
:102b9000b073880076aea9000080fa00000006003d
:020000040000fa
:102ba0002600fa000122280011000900311f7800d8
:102bb000315f78005e02b100b10020002061210089
:102bc000c6fe0700510220000e00780025ff070016
:0c2bd0000000eb000080fa00000006008e
:020000040000fa
:102bdc000000fa0000000000f011800062006000ac
:102bec000000e000fcff3a00e01180006200600091
:102bfc000000e000010032003c22a90020128000fd
:0c2c0c00004078000080fa000000060084
:020000040000fa
:102c18001400fa000120280009000900311f78007b
:102c28004e01b100b100200020612100a9fe07007b
:102c3800410120000e00780008ff07000000eb00ab
:082c48000080fa000000060004
:020000040000fa
:102c50000000fa00e011800077800a000000000008
:102c60000080fb0000f0a7000000ea000000ea007e
:102c70004f00de00004078000080fa0000000600ef
:020000040000fa
:102c80000000fa0092000700b6fd0700f4fd0700ff
:102c90004f00070028ff07008fff0700860007008e
:102ca00000022000410007000080fa00000006003a
:020000040000fa
:102cb0000000fa00a173800000082000008060007e
:102cc00000f0a7000000ea000000e9004f00de006d
:0c2cd000004078000080fa0000000600c0
:020000040000fa
:102cdc000200fa00004f78001e80fb0061006000cb
:102cec004800dd00114680000180a1000100700049
:0c2cfc00104688000080fa00000006006e
:020000040000fa
:102d08000400fa00008fbe001e0078006100600019
:102d180000f0a7000000ea000000ea004f00de0013
:0c2d2800004078000080fa000000060067
:020000040000fa
:102d34000200fa00004f780000000000f01180004b
:102d4400700060000000e000fcff3a001e80fb0001
:0c2d5400401288000080fa000000060019
:020000040000fa
:102d60000000fa00f01180006200600000f0a7008f
:102d70000000ea000000e9004f00de00004078009b
:082d80000080fa0000000600cb
:020000040000fa
:102d88000200fa0010c0b300d2ff0700c080220082
:102d9800000f78001e007800000001000080fa0093
:042da8000000060021
:020000040000fa
:102dac000200fa00000f780021028000200f2000a2
:102dbc00008060001e007000200288000080fa0075
:042dcc0000000600fd
:020000040000fa
:102dd0000000fa0001428000f0f82f00008060003f
:102de0000040a000004288000080fa0000000600b9
:020000040000fa
:102df0000200fa00000f78002028a9009e00780049
:102e0000018088002028a8000080fa000000060049
:020000040000fa
:102e10000000fa009aff07004000070077aea90003
:102e200077cea90077eea800dbfe0700feff370093
:020000040000fa
:102e30000200fa00000f7800a04021001e004000b0
:0c2e4000104078000080fa00000006003e
:020000040000fa
:102e4c000000fa002071210080077800a072210098
:0c2e5c00000188000080fa000000060061
:020000040000fa
:102e68008001780002003700b15978000201e900ba
:0c2e78000200e000fcff3a000000060031
:020000040000fa
:102e84008001780002003700815978000201e900ce
:0c2e94000200e000fcff3a000000060015
:020000040000fa
:102ea0000000fa00c3e8a9000000000000000000d4
:082eb0000080fa00000006009a
:020000040000fa
:102eb8000000fa00c3e8a8000000000000000000bd
:082ec8000080fa000000060082
:020000040000fa
:102ed0000000fa000040eb0080ff07000080fa00cd
:042ee00000000600e8
:020000040000fa
:102ee4000200fa00000f78009e00780041808800fc
:042ef400ffff3700a5
:020000040000fa
:102ef8000000fa0001e1a9002028a9000080fa00da
:042f080000000600bf
:020000040000fa
:102f0c000000fa000000fe000080fa00000006003d
:020000040000fa
:0c2f1c000000fa000080fa00000006002f
:020000040000fa
:082f28000040da000000fe0089
:020000040000fa
:042f30000000050098
:020000040000fa
:04400800c40e0000e2
:020000040000fa
:04400c00060f00009b
:020000040000fa
:04401000460f000057
:020000040000fa
:04401400e40e0000b6
:020000040000fa
:04401800260f00006f
:020000040000fa
:04401c0094170000f5
:020000040000fa
:04402000660f000027
:020000040000fa
:0440240094170000ed
:020000040000fa
:0440280094170000e9
:020000040000fa
:04402c00e612000098
:020000040000fa
:0440300094170000e1
:020000040000fa
:0440340094170000dd
:020000040000fa
:0440380094170000d9
:020000040000fa
:04403c0094170000d5
:020000040000fa
:0440400094170000d1
:020000040000fa
:0440440094170000cd
:020000040000fa
:0440480094170000c9
:020000040000fa
:04404c0094170000c5
:020000040000fa
:0440500094170000c1
:020000040000fa
:0440540094170000bd
:020000040000fa
:0440580094170000b9
:020000040000fa
:04405c0094170000b5
:020000040000fa
:0440600094170000b1
:020000040000fa
:0440640094170000ad
:020000040000fa
:0440680094170000a9
:020000040000fa
:04406c0094170000a5
:020000040000fa
:0440700094170000a1
:020000040000fa
:04407400941700009d
:020000040000fa
:044078009417000099
:020000040000fa
:04407c009417000095
:020000040000fa
:044080009417000091
:020000040000fa
:04408400941700008d
:020000040000fa
:044088009417000089
:020000040000fa
:04408c009417000085
:020000040000fa
:044090009417000081
:020000040000fa
:04409400941700007d
:020000040000fa
:044098009417000079
:020000040000fa
:04409c009417000075
:020000040000fa
:0440a0009417000071
:020000040000fa
:0440a400941700006d
:020000040000fa
:0440a8009417000069
:020000040000fa
:0440ac009417000065
:020000040000fa
:0440b0009417000061
:020000040000fa
:0440b400941700005d
:020000040000fa
:0440b8009417000059
:020000040000fa
:0440bc009417000055
:020000040000fa
:0440c0009417000051
:020000040000fa
:0440c400941700004d
:020000040000fa
:0440c8009417000049
:020000040000fa
:0440cc009417000045
:020000040000fa
:0440d0009417000041
:020000040000fa
:0440d400941700003d
:020000040000fa
:0440d8009417000039
:020000040000fa
:0440dc009417000035
:020000040000fa
:0440e0009417000031
:020000040000fa
:0440e400941700002d
:020000040000fa
:0440e8009417000029
:020000040000fa
:0440ec009417000025
:020000040000fa
:0440f0009417000021
:020000040000fa
:0440f400941700001d
:020000040000fa
:0440f8009417000019
:020000040000fa
:0440fc009417000015
:020000040000fa
:044100009417000010
:020000040000fa
:04410400941700000c
:020000040000fa
:044108009417000008
:020000040000fa
:04410c009417000004
:020000040000fa
:044110009417000000
:020000040000fa
:0441140094170000fc
:020000040000fa
:0441180094170000f8
:020000040000fa
:04411c0094170000f4
:020000040000fa
:0441200094170000f0
:020000040000fa
:0441240094170000ec
:020000040000fa
:0441280094170000e8
:020000040000fa
:04412c0094170000e4
:020000040000fa
:0441300094170000e0
:020000040000fa
:0441340094170000dc
:020000040000fa
:0441380094170000d8
:020000040000fa
:04413c0094170000d4
:020000040000fa
:0441400094170000d0
:020000040000fa
:0441440094170000cc
:020000040000fa
:0441480094170000c8
:020000040000fa
:04414c0094170000c4
:020000040000fa
:0441500094170000c0
:020000040000fa
:0441540094170000bc
:020000040000fa
:0441580094170000b8
:020000040000fa
:04415c0094170000b4
:020000040000fa
:0441600094170000b0
:020000040000fa
:0441640094170000ac
:020000040000fa
:0441680094170000a8
:020000040000fa
:04416c0094170000a4
:020000040000fa
:0441700094170000a0
:020000040000fa
:04417400941700009c
:020000040000fa
:044178009417000098
:020000040000fa
:04417c009417000094
:020000040000fa
:044180009417000090
:020000040000fa
:04418400941700008c
:020000040000fa
:044188009417000088
:020000040000fa
:04418c009417000084
:020000040000fa
:044190009417000080
:020000040000fa
:04419400941700007c
:020000040000fa
:044198009417000078
:020000040000fa
:04419c009417000074
:020000040000fa
:0441a0009417000070
:020000040000fa
:0441a400941700006c
:020000040000fa
:0441a8009417000068
:020000040000fa
:0441ac009417000064
:020000040000fa
:0441b0009417000060
:020000040000fa
:0441b400941700005c
:020000040000fa
:0441b8009417000058
:020000040000fa
:0441bc009417000054
:020000040000fa
:0441c0009417000050
:020000040000fa
:0441c400941700004c
:020000040000fa
:0441c8009417000048
:020000040000fa
:0441cc009417000044
:020000040000fa
:0441d0009417000040
:020000040000fa
:0441d400941700003c
:020000040000fa
:0441d8009417000038
:020000040000fa
:0441dc009417000034
:020000040000fa
:0441e0009417000030
:020000040000fa
:0441e400941700002c
:020000040000fa
:0441e8009417000028
:020000040000fa
:0441ec009417000024
:020000040000fa
:0441f0009417000020
:020000040000fa
:0441f400941700001c
:020000040000fa
:0441f8009417000018
:020000040000fa
:0441fc009417000014
:020000040000fa
:04420000941700000f
:020000040000fa
:04420400941700000b
:020000040000fa
:044208009417000007
:020000040000fa
:04420c009417000003
:020000040000fa
:0442100094170000ff
:020000040000fa
:0442140094170000fb
:020000040000fa
:0442180094170000f7
:020000040000fa
:04421c0094170000f3
:020000040000fa
:0442200094170000ef
:020000040000fa
:0442240094170000eb
:020000040000fa
:0442280094170000e7
:020000040000fa
:04422c0094170000e3
:020000040000fa
:0442300094170000df
:020000040000fa
:0442340094170000db
:020000040000fa
:0442380094170000d7
:020000040000fa
:04423c0094170000d3
:020000040000fa
:0442400094170000cf
:020000040000fa
:0442440094170000cb
:020000040000fa
:0442480094170000c7
:020000040000fa
:04424c0094170000c3
:020000040000fa
:0442500094170000bf
:020000040000fa
:0442540094170000bb
:020000040000fa
:0442580094170000b7
:020000040000fa
:04425c0094170000b3
:020000040000fa
:0442600094170000af
:020000040000fa
:0442640094170000ab
:020000040000fa
:0442680094170000a7
:020000040000fa
:04426c0094170000a3
:020000040000fa
:04427000941700009f
:020000040000fa
:04427400941700009b
:020000040000fa
:044278009417000097
:020000040000fa
:04427c009417000093
:020000040000fa
:04428000941700008f
:020000040000fa
:04428400941700008b
:020000040000fa
:044288009417000087
:020000040000fa
:04428c009417000083
:020000040000fa
:04429000941700007f
:020000040000fa
:04429400941700007b
:020000040000fa
:044298009417000077
:020000040000fa
:04429c009417000073
:020000040000fa
:0442a000941700006f
:020000040000fa
:0442a400941700006b
:020000040000fa
:0442a8009417000067
:020000040000fa
:0442ac009417000063
:020000040000fa
:0442b000941700005f
:020000040000fa
:0442b400941700005b
:020000040000fa
:0442b8009417000057
:020000040000fa
:0442bc009417000053
:020000040000fa
:0442c000941700004f
:020000040000fa
:0442c400941700004b
:020000040000fa
:0442c8009417000047
:020000040000fa
:0442cc009417000043
:020000040000fa
:0442d000941700003f
:020000040000fa
:0442d400941700003b
:020000040000fa
:0442d8009417000037
:020000040000fa
:0442dc009417000033
:020000040000fa
:0442e000941700002f
:020000040000fa
:0442e400941700002b
:020000040000fa
:0442e8009417000027
:020000040000fa
:0442ec009417000023
:020000040000fa
:0442f000941700001f
:020000040000fa
:0442f400941700001b
:020000040000fa
:0442f8009417000017
:020000040000fa
:0442fc009417000013
:020000040000fa
:04430000941700000e
:020000040000fa
:04430400941700000a
:020000040000fa
:044308009417000006
:020000040000fa
:04430c009417000002
:020000040000fa
:0443100094170000fe
:020000040000fa
:0443140094170000fa
:020000040000fa
:0443180094170000f6
:020000040000fa
:04431c0094170000f2
:020000040000fa
:0443200094170000ee
:020000040000fa
:0443240094170000ea
:020000040000fa
:0443280094170000e6
:020000040000fa
:04432c0094170000e2
:020000040000fa
:0443300094170000de
:020000040000fa
:0443340094170000da
:020000040000fa
:020000040005f5
:047e0000f77fff0009
:020000040000fa
:020000040005f5
:047e2000faffff0066
:020000040000fa
:020000040005f5
:047e300078ffff00d8
:020000040000fa
:020000040005f5
:047e38007bffff00cd
:020000040000fa
:020000040005f5
:047e40006003ff00dc
:020000040000fa
:020000040005f5
:047e4800ffffff0039
:020000040000fa
:020000040005f5
:047e5000ddffff0053
:020000040000fa
:020000040005f5
:047e58000000ff0027
:020000040000fa
:020000040005f5
:047e60000000ff001f
:020000040000fa
:020000040005f5
:047e68000000ff0017
:020000040000fa
:020000040005f5
:047e70000000ff000f
:020000040000fa
:020000040005f5
:047e7800ffffff0009
:020000040000fa
:020000040005f5
:047e8000fffcff0004
:020000040000fa
:020000040005f5
:047e8800ffffff00f9
:020000040000fa
:020000040005f5
:047ff800ffffff0088
:020000040000fa
:020000040100f9
:04300000ffffff00cf
:00000001FF
