:0400000085EF00F098
:10000800B517B517B517B517B517B517B517B51788
:10001800B517B517B517B517B517B517B517B51778
:10002800B517B517B517B517B517B517B517B51768
:10003800B517B517B517B517B517B517B5178A1684
:10004800B517B517B517B517B517B517B517B51748
:10005800B517B517B517B517B517B517B517B51738
:10006800B517B517B517B517B517B517B517B51728
:10007800B517B517B517B5174200B517B517B517A2
:10008800B517B517B517B517B517B517B517B51708
:10009800B517B517B517B5174200B517B517B51782
:1000A800B517B517B517B517B517B517B517B517E8
:1000B800B517B517B517B517B517B517B517B517D8
:1000C800B517B517B517B517B517B517B517B517C8
:1000D800B517B517B517B517B517B517B517B517B8
:1000E8004200B517B517B517B517B517B517B51732
:1000F800B517B517B517B517B517B517B517B51798
:06010800FF0006EF28F0E5
:10380000000001020304050607080C1014182030FC
:10381000400001020304050607080C1014182030AC
:053820004050014000D2
:103826004BEF1DF005017B517C11D8B41DEF1CF048
:103836001FEF1CF035EF1CF0000E216E000E206EFF
:10384600000E7A6F000E796F000E786F000E776F9C
:10385600000E7C6F000E7B6F000E886F030E876F65
:103866006DEF1DF085518611D8B43CEF1CF03EEF8C
:103876001CF06DEF1DF0000E846F000E836F000EBE
:10388600826F000E816F000E806F000E7F6F000E3C
:103896007E6F000E7D6F000E866F000E856F000E28
:1038A600886F010E876F6DEF1DF006EC2FF0000993
:1038B600D8B460EF1CF062EF1CF06DEF1DF0000E47
:1038C60005018325D96E070E8421DA6E3AEC26F0BF
:1038D600DF6E0501834B842B2CC532F52DC533F5E0
:1038E60060EC2DF062EC2FF0000E0501886F020EE1
:1038F600876F6DEF1DF006EC2FF00009D8B486EF48
:103906001CF088EF1CF099EF1CF0000E05018325D2
:10391600D96E070E8421DA6E3AEC26F0DF6E0501C9
:10392600834B842B000E826F000E816F95EC2EF078
:103936000009D8B4A1EF1CF0A3EF1CF06DEF1DF049
:103946000501814B822B825109E1020E815DD8A0CF
:10395600AFEF1CF0B1EF1CF06DEF1DF0000E806FA5
:10396600010E7F6F83C57DF584C57EF55FEC2FF074
:10397600000E0501886F000E876F6DEF1DF00501C3
:103986007551205C76512158D8B0CCEF1CF0CEEFA3
:103996001CF06DEF1DF0CEEC2DF00009D8B4D6EF7B
:1039A6001CF0D8EF1CF06DEF1DF0000E2024D96E30
:1039B600080E2120DA6EDF50D2EC2EF0204A212AA2
:1039C6002CC532F52DC533F560EC2DF062EC2FF0E9
:1039D600000E0501886F040E876F6DEF1DF005015F
:1039E6007551205C76512158D8B0FCEF1CF0FEEFE3
:1039F6001CF01AEF1DF0CEEC2DF00009D8B406EF3E
:103A06001DF008EF1DF029EF1DF0000E2024D96EE1
:103A1600080E2120DA6EDF50D2EC2EF0204A212A41
:103A2600000E05017A6F000E796F29EF1DF0000E6A
:103A3600786F010E776F000E766F000E756F5FEC74
:103A46002FF0000E0501886F000E876F95EC2EF0A3
:103A56000009D8B431EF1DF033EF1DF06DEF1DF006
:103A66000501794B7A2B7A5109E1020E795DD8A0CE
:103A76003FEF1DF041EF1DF06DEF1DF0000E786F6A
:103A8600010E776F000E766F000E756FB9EF1CF0A2
:103A960087C534F588C535F53550000AD8B456EFD4
:103AA6001DF06DEF1DF03450000AD8B415EF1CF070
:103AB600010AD8B458EF1CF0030AD8B47EEF1CF004
:103AC600010AD8B4C2EF1CF0070AD8B4F2EF1CF012
:103AD6006DEF1DF0120061000CF5D9F4610010F5D0
:103AE600DAF4610078F348F5610078F349F561008E
:103AF60078F34AF5610078F34BF520EE04F0435075
:103B0600D9264450DA22DFA08BEF1DF08DEF1DF091
:103B1600C7EF1DF020EE01F04150D9264250DA22BF
:103B26004838E842F80BF80BDF6E050E456ED89064
:103B36004B324A3249324832452E9AEF1DF020EE7A
:103B460002F04150D9264250DA22610020F5DFF416
:103B560049C548F54AC549F54BC54AF54B6A20EEB5
:103B660003F04150D9264250DA2248501F0BDF6E2F
:103B7600050E456ED8904B324A3249324832452EB0
:103B8600BDEF1DF0DFEF1DF020EE03F04150D9260A
:103B96004250DA22000EDF6E10EE02F04150E126AE
:103BA6004250E222DFC4E7F420EE01F04150D9266C
:103BB6004250DA22E7C4DFF4610004F5D9F461006B
:103BC60008F5DAF4610020F5DFF449C548F54AC581
:103BD60049F54BC54AF54B6A48C545F5070E4516E6
:103BE60020EE01F04150D9264250DA224550DF122C
:103BF60020EE04F04350D9264450DA22DF30E83272
:103C06000F0B476E20EE04F04350D9264450DA22BB
:103C1600DFB010EF1EF014EF1EF0456A452A15EFCF
:103C26001EF0456A4538F00B471220EE04F043506B
:103C3600D9264450DA22DFB223EF1EF027EF1EF01A
:103C4600200E456E28EF1EF0456A4550471220EEBD
:103C560004F04350D9264450DA22DFBE35EF1EF079
:103C660039EF1EF0400E456E3AEF1EF0456A45509C
:103C7600471220EE04F04350D9264450DA22DFBC26
:103C860047EF1EF04BEF1EF0800E456E4CEF1EF018
:103C9600456A4550471220EE04F04150D92642505D
:103CA600DA2261001CF5DFF420EE04F04350D92639
:103CB6004450DA22DFB262EF1EF064EF1EF090EF9E
:103CC6001EF0080E4124366E000E4220376E20EE9E
:103CD60005F04350D9264450DA22610078F338F5CE
:103CE600610074F339F520EE04F04350D9264450B0
:103CF600DA22DF30E8320F0B456E466A110E452494
:103D0600F66E380E4620F76EF86A000EF8220800A6
:103D1600F5503A6E3B6AEAEC2AF0120020EE04F007
:103D26004150D9264250DA22DF504B6E4BC545F53D
:103D360020EE04F04350D9264450DA224546454643
:103D4600DF504518C30B4518DF6E4BB8ADEF1EF0BC
:103D5600B1EF1EF0456A452AB2EF1EF0456A20EE25
:103D660004F04350D9264450DA22DF504518FE0BA2
:103D76004518DF6E4BBAC2EF1EF0C6EF1EF0456A5D
:103D8600452AC7EF1EF0456A20EE04F04350D926B7
:103D96004450DA224546DF504518FD0B4518DF6EC4
:103DA6004BBCD8EF1EF0DCEF1EF0456A452ADDEF6E
:103DB6001EF0456A20EE04F04350D9264450DA221C
:103DC60045324532DF5045187F0B4518DF6E4BBE36
:103DD600EFEF1EF0F3EF1EF0456A452AF4EF1EF0F2
:103DE600456A20EE04F04350D9264450DA22453A7B
:103DF60045464546DF504518BF0B4518DF6E20EE99
:103E060001F04150D9264250DA22DF50456E070EA6
:103E160045164550476E486A496A4A6A49C54AF591
:103E260048C549F547C548F5476A610004F5D9F420
:103E3600610008F5DAF4DF50456E4550471220EE72
:103E460004F04350D9264450DA22DFA02DEF1FF0AC
:103E56002FEF1FF070EF1FF0050ED890473648364B
:103E660049364A36E82E30EF1FF020EE03F0415077
:103E7600D9264250DA22DF50456E1F0E45164550B0
:103E8600471249C54AF548C549F547C548F5476A41
:103E960020EE02F04150D9264250DA22DF50456E1C
:103EA60045504712050ED8904736483649364A36A9
:103EB600E82E56EF1FF020EE01F04150D926425071
:103EC600DA22DF50456ED8904532D8904532D890E8
:103ED60045321F0E45164550471261000CF5D9F4C0
:103EE600610010F5DAF461001CF5DEF4610020F5DE
:103EF600DEF4610024F5DEF4610028F5DEF4400E00
:103F0600366E060E376E080E4124386E000E4220BD
:103F1600396E20EE04F04350D9264450DA22DF30C1
:103F2600E8320F0B456E466A110E4524F66E380EC2
:103F36004620F76EF86A000EF8220800F5503A6E31
:103F46003B6AEAEC2AF020EE05F04350D9264450AD
:103F5600DA22400EDE6E060EDD6E120036C540F524
:103F660037C541F53A503B10D8A4BCEF1FF0BEEF61
:103F76001FF0C0EF1FF078EF20F0610000F5D9F4D4
:103F8600610004F5DAF46100E0F4DFF43A5040240D
:103F96003C6E3B5041203D6EFF0E3C24D96EFF0E19
:103FA6003D20DA6E6100E0F4DFF43B5007E1030EDA
:103FB6003A5CD8B0E1EF1FF0E3EF1FF0E5EF1FF03A
:103FC60078EF20F020EE01F04050D9264150DA2259
:103FD6006100E0F4DFF420EE02F04050D9264150B3
:103FE600DA226100E0F4DFF43A5040243C6E3B50A4
:103FF60041203D6EFE0E3C24D96EFF0E3D20DA6E4A
:104006006100E0F4DFF43A5040243C6E3B5041201E
:104016003D6EFD0E3C24D96EFF0E3D20DA6E61002A
:10402600E0F4DFF43B5007E1070E3A5CD8B01EEF30
:1040360020F020EF20F022EF20F078EF20F020EEA5
:1040460003F04050D9264150DA226100E0F4DFF453
:104056003A5040243C6E3B5041203D6EFC0E3C24C1
:10406600D96EFF0E3D20DA6E6100E0F4DFF43B50BE
:1040760007E1090E3A5CD8B043EF20F045EF20F097
:1040860047EF20F078EF20F040C53CF541C53DF5FF
:104096003C1E3D1E3C4A3D2A030E3C143E6E3F6AC2
:1040A6003E5040263F5041223E503A5E3F503B5ADA
:1040B600FC0E3A16FF0E3B166FEF20F0610000F57E
:1040C600D9F4610004F5DAF46100E0F4DFF43A06AD
:1040D600D8A03B06404A412A3A503B10D8A476EF76
:1040E60020F078EF20F061EF20F012003F6E000E16
:1040F600406E20EE04F03750D9263850DA22DF50D1
:10410600416E3F500C0D530EF324D96E010EF42070
:10411600DA6EDF50396E050E3A6ED89039323A2E85
:1041260090EF20F03950070B3E6E41AE9DEF20F028
:104136009FEF20F0B2EF20F0010101B9A5EF20F0CA
:10414600A7EF20F0B1EF20F04EEC2FF0060AD8A42E
:10415600AFEF20F0B1EF20F0B2EF20F04082413017
:10416600E8320F0B396E080E3964BCEF20F0BEEF53
:1041760020F0D0EF20F041ACC3EF20F0C5EF20F0E7
:10418600CFEF20F04EEC2FF0060AD8A4CDEF20F0AA
:10419600CFEF20F0D0EF20F040803E50396E3A6AE3
:1041A600080E3926000E3A22110E3924F66E380E04
:1041B6003A20F76EF86A000EF82208006100D4F380
:1041C6003BF54130E8320F0B3C6E3D6A110E3C2444
:1041D600F66E380E3D20F76EF86A000EF8220800DB
:1041E600F5503B5CD8B0FAEF20F0FCEF20F0FDEF85
:1041F60020F040803F50A2EC2EF00009D8A406EF34
:1042060021F008EF21F00AEF21F0030E4012405092
:104216001200000E546E5450020D5A0EF324D96E3D
:10422600050EF420DA6EDF50536E5350BAEC2EF0C2
:10423600526E52A021EF21F023EF21F089EF21F0F9
:1042460053500C0D580EF324D96E010EF420DA6E7D
:10425600610078F350F5610074F351F55050511038
:10426600D8B438EF21F03AEF21F092EF21F050C5A3
:1042760041F551C542F54CC543F54DC544F591ECA4
:104286001EF053500C0D510EF324D96E010EF4207E
:10429600DA6E000EDB805450020D5B0EF324D96EED
:1042A600050EF420DA6EDF2A535079EC2EF04E6EAE
:1042B6005450020D5B0EF324D96E050EF420DA6E0F
:1042C6004E50DE5CD8A06AEF21F06CEF21F076EF5D
:1042D60021F05450020D5B0EF324D96E050EF42026
:1042E600DA6E000EDF6E52A67BEF21F07DEF21F035
:1042F60087EF21F053500C0D540EF324D96E010EA6
:10430600F420DA6EF70EDF1692EF21F0542A54509D
:10431600D8B490EF21F092EF21F00EEF21F01200C9
:1043260053EC2FF036503710D8A49CEF21F09EEFB7
:1043360021F0DBEF21F047EC2DF036C54DF537C502
:104346004EF54D504E10D8B4ABEF21F0ADEF21F045
:10435600DBEF21F0000E416E070E426E4DC543F5B0
:104366004EC544F5F7EC29F0090E07010019D8A44B
:10437600BFEF21F0C1EF21F0C8EF21F048EC2FF09C
:10438600000E05018A6F000E896FC3B6CDEF21F0CE
:10439600D0EF21F0010ED1EF21F0000EFF0A4C6E96
:1043A6004C464C464C46C3504C18F70B4C18C36E43
:1043B600000E486E080E496E9FEC2CF048C54FF56E
:1043C60049C550F54F505010D8B4ECEF21F0EEEF40
:1043D60021F0F9EF21F04FC536F550C537F5FCEC65
:1043E6002EF0000E05018A6F010E896F0501890501
:1043F6008A11D8A401EF22F003EF22F015EF22F084
:104406002EEC2DF036503710D8B40CEF22F00EEF0C
:1044160022F015EF22F048EC2FF0000E05018A6F0E
:10442600000E896F120033EC24F01804D8A41EEF96
:1044360022F020EF22F08CEF22F0AEEC2EF01504E5
:10444600D8A428EF22F02AEF22F030EF22F0000E57
:10445600156E16C510F517C50FF531C50DF51EC538
:1044660009F51FC50AF50B6A0C6A1EC546F51FC578
:1044760047F5486A496A010E016E000E366E000E57
:10448600376E460E386E050E396E000E68EC2FF04C
:104496000550426E0650436E446A456A0950425CB6
:1044A6000A5043580B5044580C504558D8B05EEF4C
:1044B60022F060EF22F072EF22F0020E3CEC2FF0B9
:1044C600000E366E000E376E460E386E050E396ECD
:1044D600010E68EC2FF0000E016E8CEF22F0010E3B
:1044E6000E6E000E146E000E086E000E076E0BECBC
:1044F6002EF00204D8A482EF22F084EF22F089EF96
:1045060022F0010E3CEC2FF08CEF22F0000E3CEC7A
:104516002FF01200E4EF22F028502910D8A496EFCD
:1045260022F098EF22F0FEEF22F0010E45EC2EF07D
:10453600FEEF22F00501D251D05F000ED15BD251C1
:10454600CE27000ECF23D051D111D8A4ADEF22F043
:10455600AFEF22F0B4EF22F0000E45EC2EF0FEEFA6
:1045660022F0010ECB6FD55188EC29F036C52AF51D
:1045760037C52BF50501D42B100ED419D8A4C6EFD8
:1045860022F0C8EF22F0CAEF22F0000ED46FD65107
:10459600D8B4D0EF22F0D2EF22F0FEEF22F0DA2BE1
:1045A600D651DA5DD8A0DAEF22F0DCEF22F0FEEF8A
:1045B60022F0030E256EE90E246E030ECB6FFEEF7E
:1045C60022F094EC2BF03D6E3E6A3E50000AD8B4C1
:1045D600EFEF22F0FEEF22F03D50000AD8B49DEF37
:1045E60022F0010AD8B4FEEF22F0030AD8B48FEF06
:1045F60022F0FEEF22F0120049EF23F08DEC22F0BC
:1046060067EF23F0DB05D8A40BEF23F00DEF23F0C3
:104616001CEF23F0F2EC2EF00501D55188EC29F0C1
:1046260036C52AF537C52BF5010E0501CB6F67EFA9
:1046360023F024502510D8A423EF23F025EF23F0F0
:1046460067EF23F0020E45EC2EF067EF23F0CE5114
:10465600CF11D8A431EF23F033EF23F045EF23F049
:1046660017EC2BF0E806D8A43BEF23F03DEF23F040
:1046760041EF23F048EC25F067EF23F0BDEC27F07F
:1046860067EF23F04EEC28F067EF23F00501CB51DE
:10469600ED6FEE6BEE51000AD8B454EF23F067EFDE
:1046A60023F0ED51000AD8B467EF23F0010AD8B41D
:1046B6002AEF23F0030AD8B401EF23F0010AD8B495
:1046C60005EF23F067EF23F01200C6EC2EF0000989
:1046D600D8A470EF23F072EF23F0CDEF23F0035050
:1046E6000410D8B479EF23F07BEF23F0CDEF23F05D
:1046F6008B0E556E050E566E310E576E050E586EA4
:10470600C0EC29F00009D8A48BEF23F08DEF23F03D
:10471600AEEF23F080EC2CF0E806D8A495EF23F05A
:1047260097EF23F0CDEF23F0000E016E030E00ECA1
:104736002CF0CDEF23F0BEEC2CF0CDEF23F016ECF1
:1047460022F0CDEF23F0D9EC26F0CDEF23F0BDEC2F
:104756002AF0CDEF23F058EC2FF00501EC6FED6B4E
:10476600ED51000AD8B4BAEF23F0CDEF23F0EC51A7
:10477600000AD8B49EEF23F0010AD8B4A2EF23F0C2
:10478600030AD8B4A6EF23F0010AD8B4AAEF23F09F
:10479600CDEF23F01200000E386E000E3F6E3F5034
:1047A600020D5A0EF324D96E050EF420DA6EDF5090
:1047B6003B6E3B50BAEC2EF03A6E3AA0E5EF23F092
:1047C600E7EF23F028EF24F03B5079EC2EF03C6E17
:1047D6003AA6F0EF23F0F2EF23F0F6EF23F03CC514
:1047E60039F526EF24F03B500C0D550EF324D96E07
:1047F600010EF420DA6EDF501F0B3D6E3F50020DA6
:104806005B0EF324D96E050EF420DA6EDF503E6E91
:104816003E503D5CD8B012EF24F014EF24F01AEFAE
:1048260024F03E503D5C3C24396E26EF24F03D508A
:104836003E5CD8B021EF24F023EF24F0F2EF23F012
:104846003E503D5C396E395038263F2A3F50D8B429
:104856002FEF24F031EF24F0D2EF23F0385012007E
:10486600010E186E8BC536F50F0E361636501E6EB7
:104876001F6A1E501F6E1E6A05018C511E121E50A5
:104886001F10D8A449EF24F04BEF24F071EF24F069
:104896008DC51EF51F6A1E501F6E1E6A8E511E1292
:1048A6001E501F6E1E6A8F511E121E501F6E1E6AEC
:1048B60090511E12100E1F5CD8B064EF24F066EF04
:1048C60024F068EF24F0000E186E3150FA0F196EBE
:1048D600910E1A6E050E1B6E78EF24F03150FE0F06
:1048E600196E8D0E1A6E050E1B6E080E31607EEF68
:1048F60024F080EF24F082EF24F0000E186E65ECB1
:104906002FF0366E36501E5C000E1F58D8B08EEF54
:1049160024F090EF24F092EF24F0000E186E1200AF
:104926001204D8A499EF24F09BEF24F0C6EF24F0EC
:1049360011500F0B30090601006F10C501F60FC5A7
:1049460002F6A10E526E000E536E000E546E000E4D
:10495600556E000E566E000E576E060E586E030EFE
:10496600596E4EEC29F0E806D8A4BCEF24F0BEEF51
:1049760024F0C6EF24F0000E126E010E136E030E25
:10498600276EE90E266E1304D8A4CCEF24F0CEEFE2
:1049960024F0EEEF24F094EC2BF00009D8A4D6EF27
:1049A60024F0D8EF24F0E0EF24F0000E136E030E8F
:1049B600236EE90E226EEEEF24F026502710D8A4BF
:1049C600E7EF24F0E9EF24F0EEEF24F0000E136E8B
:1049D600010E00EC2CF01200376E300E3764F6EF45
:1049E60024F0F8EF24F0FCEF24F0400E366E46EF8C
:1049F60025F0200E376402EF25F004EF25F008EFCE
:104A060025F0300E366E46EF25F0180E37640EEFA1
:104A160025F010EF25F014EF25F0200E366E46EF48
:104A260025F0140E37641AEF25F01CEF25F020EF61
:104A360025F0180E366E46EF25F0100E376426EF79
:104A460025F028EF25F02CEF25F0140E366E46EFF4
:104A560025F00C0E376432EF25F034EF25F038EFF1
:104A660025F0100E366E46EF25F0080E37643EEF41
:104A760025F040EF25F044EF25F00C0E366E46EF9C
:104A860025F037C536F536501200000E0501D66FF3
:104A9600000ED56F000E366E060E376E000E396E9E
:104AA600CC0E386E000E3B6E400E3A6EB1EC1FF027
:104AB6000501D15107E1080ED05DD8B065EF25F0AC
:104AC60067EF25F07CEF25F0010E366E060E376E89
:104AD600CCC538F5CDC539F5D0C53AF5D1C53BF5C8
:104AE600EAEC2AF0D0C500F60501D0292F6E95EF25
:104AF60025F0020E366E060E376ECCC538F5CDC5DE
:104B060039F5D0C53AF5D1C53BF5EAEC2AF0000EE9
:104B16000601006FD0C501F60501D051020FEFEC7A
:104B260024F02F6ED0C5D2F5DEEC2BF01200366ED7
:104B3600090E3660A1EF25F0A3EF25F0A6EF25F0CC
:104B46003650E9EF25F00D0E3660ACEF25F0AEEFEE
:104B560025F0B1EF25F0090EE9EF25F0110E3660CC
:104B6600B7EF25F0B9EF25F0BCEF25F00A0EE9EF17
:104B760025F0150E3660C2EF25F0C4EF25F0C7EF1D
:104B860025F00B0EE9EF25F0190E3660CDEF25F076
:104B9600CFEF25F0D2EF25F00C0EE9EF25F0210E30
:104BA6003660D8EF25F0DAEF25F0DDEF25F00D0EB3
:104BB600E9EF25F0310E3660E3EF25F0E5EF25F05D
:104BC600E8EF25F00E0EE9EF25F00F0E12000501B5
:104BD6008B510F0B1C6E010E186E8C0E1A6E050E85
:104BE6001B6E0E501C18D8B4FBEF25F0FDEF25F018
:104BF600FFEF25F0000E186E3104196E19500724C8
:104C0600366E000E0820376E386A396A0950365CEF
:104C16000A5037580B5038580C503958D8A016EF50
:104C260026F018EF26F02CEF26F031500D5CD8B0A8
:104C36001FEF26F021EF26F025EF26F0000E186E66
:104C460039EF26F0010E1D6E0750095C196E39EF1B
:104C560026F031500D18D8B433EF26F035EF26F094
:104C660037EF26F021EF26F0000E1D6E1200B2A0DF
:104C76003FEF26F041EF26F03AEF26F0000E306EB9
:104C86000201B2A749EF26F04BEF26F05AEF26F0C5
:104C9600308202D85AEF26F00500FA6E05017051EF
:104CA600FD6E7151FE6E7251FF6EFA5012000201D6
:104CB600B2A360EF26F062EF26F071EF26F03084A3
:104CC60002D871EF26F00500FA6E05016D51FD6EF2
:104CD6006E51FE6E6F51FF6EFA5012003050D8B40E
:104CE60077EF26F079EF26F087EF26F002D887EFE8
:104CF60026F00500FA6E05016A51FD6E6B51FE6ED7
:104D06006C51FF6EFA5012000201A1511200000E02
:104D1600C26E000EC16E000EBE6E000EC36E000E99
:104D2600BF6E000EC06E070ECA6EF60ECB6EC6685C
:104D3600C768C868FE0EC96EFC0E0401186F1069BC
:104D46000869070E206FF40E286F0069000E196FB0
:104D5600000E296F000E216F000E096F000E016F05
:104D6600000E116F000E226F000E2A6F000E026FEA
:104D7600000E0A6F000E126F000E1A6F03690B69A0
:104D860013691B69070E236F2B6904690C69146983
:104D96001C690F0E246F2C69190E02013D6F460E19
:104DA600196F200E296F290E726F1200EAEC25F09A
:104DB6001850D8B4E1EF26F0E3EF26F018EF27F00D
:104DC6001050D8B4E9EF26F0EBEF26F0FAEF26F014
:104DD600142A10501418D8A4F3EF26F0F5EF26F095
:104DE600FAEF26F0010E026E010E3CEC2FF00BECF2
:104DF6002EF01D04D8A402EF27F004EF27F00BEFE6
:104E060027F0000E00EC2CF0020E016E27EF27F0C3
:104E16000E2A0F0E0E6412EF27F014EF27F027EF7D
:104E260027F0000E0E6E27EF27F00E501C18D8B490
:104E36001FEF27F021EF27F027EF27F0020E3CECBB
:104E46002FF0040E00EC2CF01200516E030E506E83
:104E5600515061EC2CF00009D8B434EF27F036EF4E
:104E660027F071EF27F04CC537F54DC538F5515091
:104E760079EC20F0506E5050D8A444EF27F046EF5E
:104E860027F071EF27F051500C0D580EF324D96E10
:104E9600010EF420DA6E610078F34EF5610074F3CA
:104EA6004FF54E504F10D8B45BEF27F05DEF27F06B
:104EB60071EF27F04EC541F54FC542F54CC543F598
:104EC6004DC544F56EEC1DF051500C0D510EF324FA
:104ED600D96E010EF420DA6E030EDF125050120066
:104EE600010E186E090E31607BEF27F07DEF27F07B
:104EF600A9EF27F005018B510F0B196E8C0E1A6E58
:104F0600050E1B6E1950D8A48BEF27F08DEF27F0F6
:104F16008FEF27F0000E186EFF0E366EFF0E376EFF
:104F26003150386E396A3650382637503922195082
:104F3600385C000E3958D8B0A3EF27F0A5EF27F05C
:104F4600BCEF27F0000E186EBCEF27F08D0E1A6E20
:104F5600050E1B6E8CC519F58BC536F50F0E36166C
:104F6600D8B4B8EF27F0BAEF27F0BCEF27F0A5EFDB
:104F760027F01200100E0501D15DD8B0C5EF27F05D
:104F8600C7EF27F0DEEF27F03E0ED26FD1511009A2
:104F96000601006FD0C501F6020E366E060E376E9C
:104FA600CCC538F5CDC539F5D2C53AF53B6AEAEC3C
:104FB6002AF0FCEF27F03A0ED26F100E0601006FB2
:104FC600000E016FD0C502F6D0C503F60501D1511A
:104FD6000601046FD0C505F6060E366E060E376E50
:104FE600CCC538F5CDC539F5D2C53AF53B6AEAECFC
:104FF6002AF0400E2F6E010E0501D66F000ED46FFB
:10500600DEEC2BF01200CE0EF66E5E0EF76E000E84
:10501600F86E09006100D4F35AF509006100D4F373
:105026005BF502EE00F111EE04F0EE6AE550E15098
:10503600FCE1E250FAE102EE00F010EE00F1EE6A59
:10504600E550E150FCE1E250FAE101EE00F310EE2A
:1050560000F1EE6AE550E150FCE1E250FAE101EEC2
:1050660000F2800EEE6AE806FDE101EE60F18C0EBC
:10507600EE6AE806FDE101EE01F1310EEE6AE806A0
:10508600FDE10401080E5D6F000E5E6F000E5F6F9E
:1050960000016DEF2BF02A502B10D8A455EF28F005
:1050A60057EF28F092EF28F0000E366E060E376E98
:1050B600000E396ECC0E386E000E3B6E400E3A6E08
:1050C600B1EC1FF00501D15107E1400ED05DD8B01B
:1050D6006FEF28F071EF28F075EF28F0D0C5D2F504
:1050E60077EF28F03F0ED26FD229EFEC24F02F6E27
:1050F6000501D45120090601006F010E366E060E19
:10510600376E0501CE51CC25386ECF51CD21396E83
:10511600D2C53AF53B6AEAEC2AF0DEEC2BF0120037
:10512600386E000E376E4EEC2FF0366E040E3618C3
:10513600D8B4A0EF28F0A2EF28F0B3EF28F0380497
:10514600D8B4A8EF28F0AAEF28F0B3EF28F0040EA1
:105156003818D8A4B1EF28F0B3EF28F0D3EF28F031
:10516600010103513818F80B3818036FC6EF28F001
:105176001DA9C0EF28F0C2EF28F0C6EF28F0020EF6
:10518600376ED5EF28F00239E832070B3818D8A465
:10519600CFEF28F0D1EF28F0BBEF28F0D5EF28F0BD
:1051A600010E376E375012002A502B10D8B4DEEF9E
:1051B60028F0E0EF28F0E3EF28F02A06D8A02B0627
:1051C60028502910D8B4EAEF28F0ECEF28F0EFEFDA
:1051D60028F02806D8A0290626502710D8B4F6EFBE
:1051E60028F0F8EF28F0FBEF28F02606D8A02706CF
:1051F60024502510D8B402EF29F004EF29F007EF68
:1052060029F02406D8A0250622502310D8B40EEF84
:1052160029F010EF29F013EF29F02206D8A0230673
:105226001200000E0201A56F000EA66F000EA76FFA
:10523600000EA86F000EA96F000EAA6FB00EAB6F1E
:10524600800EAC6F000EAD6F110EAE6F040EAF6F19
:10525600000EB06F000EB16F000EB26F000EB36F8E
:10526600DA0E366E5E0E376E000E386E20EC2FF0BC
:10527600D80E366E5E0E376E000E386E19EC2FF0B5
:10528600DC0E366E5E0E376E000E386E27EC2FF093
:10529600000E306E120052C5DEF553C5DFF554C55B
:1052A600E0F555C5E1F557C5E3F558C5E4F5050143
:1052B600E28F59509AEC25F00501EC6FEC47EC476C
:1052C600E251EC19C30BEC19E26FE28DE29356043E
:1052D600D8A470EF29F072EF29F075EF29F0E2817A
:1052E60076EF29F0E291DE0E4C6E050E4D6E010E44
:1052F60028EC27F00009D8B483EF29F086EF29F0CF
:10530600010E87EF29F0000E12003A6E800E3A6009
:105316008FEF29F091EF29F096EF29F03AC538F58D
:10532600396AB0EF29F0F00E3A649CEF29F09EEF4F
:1053360029F0ACEF29F0FA0E3A60A4EF29F0A6EFB7
:1053460029F0ACEF29F0000E396E010E386EB0EF81
:1053560029F0000E396E7F0E386E38503910D8B4E9
:10536600B7EF29F0B9EF29F0BBEF29F0384A392A0F
:1053760038C536F539C537F51200CEEC23F00009ED
:10538600D8A4C8EF29F0CAEF29F0CDEF29F0000E16
:10539600F6EF29F0E50E4C6E050E4D6E0CEC21F085
:1053A6000501E931E8320F0B88EC2EF061005CF55F
:1053B600D9F4610060F5DAF4DF6E55C536F556C5E9
:1053C60037F5EAC538F5EBC539F561005CF5D9F472
:1053D600610060F5DAF4DF50596E59503A6E3B6A57
:1053E600EAEC2AF0010E120041504210D8B4FEEF4A
:1053F60029F000EF2AF02AEF2AF04304010E445860
:10540600D8B008EF2AF00AEF2AF02AEF2AF0020EA7
:10541600366E0A0E376E41C538F542C539F543C5B5
:105426003AF544C53BF5EAEC2AF061000CF502FBBF
:10543600610010F503FB020E366E0A0E376E62002F
:1054460008FC38F562000CFC39F5DBEC2CF0120098
:105456002E50D8A431EF2AF033EF2AF035EF2AF098
:1054660068EC2EF0C6EC2EF0E806D8A43DEF2AF044
:105476003FEF2AF058EF2AF022EE00F2DE50DE105F
:10548600D8A448EF2AF04AEF2AF058EF2AF021EC88
:105496002CF06100D8F400FA6100DCF401FA000E89
:1054A600416E090E426EB9EC2BF0620000F844F52D
:1054B600620004F845F51200000E086E000E076E35
:1054C600000E096E000E0A6E000E0B6E000E0C6EBC
:1054D600000E316E000E126E000E146E000E106E6F
:1054E600010E0F6E010E116E000E156E10C516F52B
:1054F6000FC517F5000E016E000E026E000E036E4C
:10550600000E046E000E0501646F000E656F000E3E
:10551600666F000ECB6F1200000E0501886F000E3D
:10552600876F000E866F010E856F000E846F000E6A
:10553600836F000E826F000E816F000E806F000E6B
:105546007F6F000E7E6F000E7D6F000E7C6F000E6B
:105556007B6F000E216E000E206E000E7A6F000E1D
:10556600796F000E786F000E776F000E766F000E63
:10557600756F120005018B510F0B3E6ED0EF2AF0AE
:105586008CC5DCF58DC5DDF5010EDB6FE9EF2AF084
:10559600080E45EC2EF0E9EF2AF03E503C6E3D6ACF
:1055A6003D50000AD8B4DAEF2AF0E9EF2AF03C5071
:1055B600000AD8B4C3EF2AF0010AD8B4E9EF2AF0FA
:1055C600030AD8B4CBEF2AF0E9EF2AF0120038C567
:1055D6003EF539C53FF536C53CF537C53DF509EF0E
:1055E6002BF06100F8F4D9F46100FCF4DAF4DF5032
:1055F600406E3E4A3F2A6100F0F4D9F46100F4F4AB
:10560600DAF4610000F5DFF43C4A3D2A3A06D8A0F8
:105616003B063A2806E13B28D8A414EF2BF016EFF8
:105626002BF0F4EF2AF012000501D15109E13F0EEB
:10563600D05DD8A021EF2BF023EF2BF033EF2BF02A
:10564600070ED019D111D8B42BEF2BF02EEF2BF07B
:10565600010E2FEF2BF0000E366E376A37EF2BF068
:10566600000E376E010E366E36503710D8A43EEF58
:105676002BF041EF2BF0010E42EF2BF0000E120043
:105686000101018F040E93EC28F00009D8A44EEF17
:105696002BF050EF2BF06CEF2BF0000E01014C6F4E
:1056A600380E4D6F000E4E6F000E4F6F600E006F7E
:1056B600870E016F000E026F8DEC2DF0DEEC2EF0E2
:1056C600E8EC2EF032EC2EF077EC2DF0000E93EC99
:1056D60028F0120057EC2EF05FEC2AF0040E366E1E
:1056E6000B0E376E020E396E000E386E10EC2FF070
:1056F60042EC2FF08FEC2AF0460E366E5B0E376EBC
:10570600000E386E2EEC2FF05CEC2FF0D68ED68C79
:10571600C38635EC2FF093EC21F08CEF2BF085EF60
:1057260000F0010E3C6EA0EF2BF0000E3C6EB7EFC2
:105736002BF0020E3C6EB7EF2BF0010EF7EC2DF0BE
:105746003A6E3B6A3B50000AD8B4ACEF2BF0B7EF89
:105756002BF03A50000AD8B49CEF2BF0010AD8B4CB
:1057660098EF2BF0B7EF2BF03C501200C6EC2EF062
:10577600436E4350D8B4C2EF2BF0C4EF2BF0DDEFED
:105786002BF041504210D8B4CBEF2BF0CDEF2BF0DD
:10579600DBEF2BF041C536F542C537F503C538F5C5
:1057A60004C539F509C53AF50AC53BF5EAEC2AF010
:1057B600000E016E1200A10E526E000E536E000E08
:1057C600546E000E556E000E566E000E576E060E87
:1057D600586E2FC559F54EEC29F0E806D8A4F6EF19
:1057E6002BF0F8EF2BF0FFEF2BF0030E296EE90EEE
:1057F600286E020E0501CB6F12003A6E3A50D8A4FD
:1058060007EF2CF009EF2CF013EF2CF003C53BF556
:1058160004C53CF507C53DF508C53EF53F6A406A37
:105826003AC541F5000E366E000E376E3B0E386EE9
:10583600050E396E020E68EC2FF01200C6EC2EF043
:105846000009D8A429EF2CF02BEF2CF035EF2CF023
:10585600000E386E000E396E000E3A6E000E3B6E6C
:105866003DEF2CF009C538F50AC539F50BC53AF5F3
:105876000CC53BF538C536F539C537F51200D68A5D
:10588600000ED6BE010E366ED69E550E0401596F19
:10589600AA0E596F5991000E5F6F000E5E6F080ECB
:1058A6005D6F550E596FAA0E596F598136B002D0E9
:1058B600D69E01D0D68E0301658F1200376E000E7C
:1058C600366E040E37606AEF2CF06CEF2CF07EEF2C
:1058D6002CF037500C0D500EF324D96E010EF42027
:1058E600DA6E0101DFAE7AEF2CF07CEF2CF07EEF62
:1058F6002CF0010E366E36501200000E366E225017
:105906002310D8A489EF2CF08BEF2CF09DEF2CF010
:105916000150D8B491EF2CF093EF2CF09DEF2CF0C2
:105926001350D8A499EF2CF09BEF2CF09DEF2CF0A0
:10593600010E366E365012002BEC2AF044C54AF59D
:1059460045C54BF548C536F549C537F5000E386EE1
:10595600090E396E4AC53AF54BC53BF5EAEC2AF015
:1059660022EE00F24A50DE5E4B50DD5A4AC548F53B
:105976004BC549F5120073EC27F01804D8A4C6EFFE
:105986002CF0C8EF2CF0DAEF2CF0AEEC2EF0000E77
:10599600086E000E076E0BEC2EF01950096E0A6A9F
:1059A6000B6A0C6A000E00EC2CF0020E016E12005F
:1059B600000E3A6E0501CB51D8A4E4EF2CF0E6EFC9
:1059C6002CF0F6EF2CF0000ECF6F000ECE6F36C522
:1059D600CCF537C5CDF538C5D0F539C5D1F5010EAD
:1059E600CB6F010E3A6E3A501200000E03011F6F84
:1059F600000E206F010E216FFB0E1D6F1E0E1C6F19
:105A0600B1981C51600074FC36F5376A36C537F517
:105A1600366A36102C6E37502D6E340E1E6F1200FD
:105A2800B19E0501675168116911D8B41EEF2DF0B8
:105A380020EF2DF02DEF2DF002D82DEF2DF00500E1
:105A4800FA6E6751FD6E6851FE6E6951FF6EFA502D
:105A580012001100050177517811D8A436EF2DF006
:105A680038EF2DF03EEF2DF0000E376E000E366E3B
:105A780046EF2DF0000E786F000E776F7DC536F576
:105A88007EC537F5120005017F518011D8A44FEF6C
:105A98002DF051EF2DF057EF2DF0000E376E000E60
:105AA800366E5FEF2DF0000E806F000E7F6F7DC5A4
:105AB80036F57EC537F5120003011EA566EF2DF0F9
:105AC80068EF2DF071EF2DF01E9133501D6F6100BE
:105AD800C8F41CF31E8176EF2DF033501D6F610062
:105AE800C8F41CF31200000E366E3650020D5B0E21
:105AF800F324D96E050EF420DA6E000EDF6E362A16
:105B08003650D8B48AEF2DF08CEF2DF079EF2DF0C8
:105B180012000F0E0101046F0F0E056F3E0E066F87
:105B2800000E076F030E086F030E096F0E0E0A6F43
:105B3800000E0B6F0F0E0D6F020E0E6F1200050197
:105B4800734B742B0B0E73197411D8A4AEEF2DF090
:105B5800B0EF2DF0B6EF2DF0000E746F000E736FDE
:105B6800D7EC28F013EC1CF01200430E03011B6F56
:105B78007C0E196F000E186FB19EA18ED60E366E70
:105B88005E0E376E000E386E2EEC2FF0000E0301FD
:105B98001A6F1200000E326EB2A2D5EF2DF0D7EFB9
:105BA8002DF0E1EF2DF00201ABABDDEF2DF0DFEFD3
:105BB8002DF0E1EF2DF0010E326E32501200000E82
:105BC8000001606F000E616F000E626F000E636F60
:105BD800000E646F000E656F000E666F000E676F33
:105BE800000E686F1200396E000E386E395061EC85
:105BF8002CF00009D8B403EF2EF005EF2EF009EFD2
:105C08002EF03950A2EC2EF0386E385012000750A2
:105C18000324366E08500420376E1AC538F51BC5A4
:105C280039F519C53AF53B6AEAEC2AF01950072606
:105C3800000E08221200200E0001AD6F000EAF6F9B
:105C4800010EB36F020EB16F000EB06FB2A12FEF4D
:105C58002EF031EF2EF02AEF2EF01200A20E0101E5
:105C68008C6F000E8D6F000E8E6F000E8F6F906917
:105C7800070E916F000E926F400E936F820E806F29
:105C880012003A6E3AC53BF5000E366E000E376EBE
:105C98003B0E386E050E396E030E68EC2FF0000EC1
:105CA8000501CB6F120042EC2CF0E3EC2DF08AECEE
:105CB80026F01FEC2EF0F8EC2CF0B9EC2DF014ECDB
:105CC80029F043EC2BF01200000E366E090E376EE9
:105CD800000E396E000E386E020E3B6E040E3A6EE0
:105CE800B1EC1FF0010E2E6E1200376E37500C0DFE
:105CF800530EF324D96E010EF420DA6EDF50366E9F
:105D08001F0E361636281200366E010E3624F66E31
:105D1800F76A380EF722F86A000EF8220800F550E4
:105D28001200B1A89AEF2EF09CEF2EF0A0EF2EF003
:105D3800B198010EA1EF2EF0000E1200366E36500B
:105D48000C0D540EF324D96E010EF420DA6EDF50D8
:105D5800010B12000150D8B4B4EF2EF0B6EF2EF0BC
:105D6800B9EF2EF0060E00EC2CF01200366E36500D
:105D78000C0D540EF324D96E010EF420DA6EDF50A8
:105D8800090B1200020E0118D8B4CDEF2EF0D0EF97
:105D98002EF0010ED1EF2EF0000E1200326EB2A2DC
:105DA800D8EF2EF0DAEF2EF0D3EF2EF06100C8F422
:105DB800A3F21200800E01015C6F040E5D6F600E8D
:105DC8005E6FE50E5F6F1200000E0101686F040E32
:105DD800696F600E6A6FE50E6B6F1200000E0501A9
:105DE800DA6FDCC5D6F5DDC5D5F5000EDB6F120020
:105DF80036C575F537C576F5000E05017C6F010EC1
:105E08007B6F1200B2B00BEF2FF00EEF2FF0010EE8
:105E18000FEF2FF0000E120036C503F537C504F555
:105E280038C505F539C506F5120036C56DF537C50F
:105E38006EF538C56FF5120036C570F537C571F5C2
:105E480038C572F5120036C56AF537C56BF538C521
:105E58006CF5120036C567F537C568F538C569F5BC
:105E6800120068EC23F093EC24F0FFEC22F012000F
:105E7800366E36C511F5010E126E1200000E0501C0
:105E88008A6F000E896F1200000E0501866F010EE1
:105E9800856F120001010239E832070B120087C52D
:105EA80036F588C537F5120005018B390F0B12003E
:105EB80003011A8F120003011E91120003011E81B3
:0A5EC8001200080E12000200120082
:0A5ED400110012001200120012006B
:020000040020DA
:10000000FF0FFF0FFF0FFF0FFF0FFF0FFF0FFF0F80
:10001000FF0FFF0FFF0FFF0FFF0FFF0FFF0FFF0F70
:020000040030CA
:10000000AAEFFFFF9FFFFFFFFFFFFFFFFFFFFFFFC5
:10001000FFFFFFFFFFFFFFFFFFFFFFFFFFFFFFFFF0
:04002000FFFFFFFFE0
:00000001FF
