

Microchip MPLAB XC8 Assembler V2.32 build 20210201212658 
                                                                                               Tue Jul 20 09:07:10 2021

Microchip MPLAB XC8 C Compiler v2.32 (Free license) build 20210201212658 Og1 
     1                           	processor	18F57Q84
     2                           	fnconf	rparam,??,?,0
     3                           	pagewidth 120
     4                           	opt	flic
     5                           	psect	idataCOMRAM,global,class=CODE,delta=1,noexec
     6                           	psect	smallconst,global,reloc=2,class=SMALLCONST,delta=1,noexec
     7                           	psect	cinit,global,reloc=2,class=CODE,delta=1
     8                           	psect	bssCOMRAM,global,class=COMRAM,space=1,delta=1,lowdata,noexec
     9                           	psect	dataCOMRAM,global,class=COMRAM,space=1,delta=1,lowdata,noexec
    10                           	psect	bssBANK5,global,class=BANK5,space=1,delta=1,lowdata,noexec
    11                           	psect	bssBANK6,global,class=BANK6,space=1,delta=1,lowdata,noexec
    12                           	psect	bssBANK7,global,class=BANK7,space=1,delta=1,lowdata,noexec
    13                           	psect	bssBANK8,global,class=BANK8,space=1,delta=1,lowdata,noexec
    14                           	psect	bssBIGRAM,global,class=BIGRAM,space=1,delta=1,noexec
    15                           	psect	cstackBANK5,global,class=BANK5,space=1,delta=1,lowdata,noexec
    16                           	psect	cstackCOMRAM,global,class=COMRAM,space=1,delta=1,lowdata,noexec
    17                           	psect	text0,global,reloc=2,class=CODE,delta=1
    18                           	psect	text1,global,reloc=2,class=CODE,delta=1
    19                           	psect	text2,global,reloc=2,class=CODE,delta=1
    20                           	psect	text3,global,reloc=2,class=CODE,delta=1
    21                           	psect	text4,global,reloc=2,class=CODE,delta=1
    22                           	psect	text5,global,reloc=2,class=CODE,delta=1
    23                           	psect	text6,global,reloc=2,class=CODE,delta=1
    24                           	psect	text7,global,reloc=2,class=CODE,delta=1
    25                           	psect	text8,global,reloc=2,class=CODE,delta=1
    26                           	psect	text9,global,reloc=2,class=CODE,delta=1
    27                           	psect	text10,global,reloc=2,class=CODE,delta=1
    28                           	psect	text11,global,reloc=2,class=CODE,delta=1
    29                           	psect	text12,global,reloc=2,class=CODE,delta=1
    30                           	psect	text13,global,reloc=2,class=CODE,delta=1
    31                           	psect	text14,global,reloc=2,class=CODE,delta=1
    32                           	psect	text15,global,reloc=2,class=CODE,delta=1
    33                           	psect	text16,global,reloc=2,class=CODE,delta=1
    34                           	psect	text17,global,reloc=2,class=CODE,delta=1
    35                           	psect	text18,global,reloc=2,class=CODE,delta=1
    36                           	psect	text19,global,reloc=2,class=CODE,delta=1
    37                           	psect	text20,global,reloc=2,class=CODE,delta=1
    38                           	psect	text21,global,reloc=2,class=CODE,delta=1
    39                           	psect	text22,global,reloc=2,class=CODE,delta=1
    40                           	psect	text23,global,reloc=2,class=CODE,delta=1
    41                           	psect	text24,global,reloc=2,class=CODE,delta=1
    42                           	psect	text25,global,reloc=2,class=CODE,delta=1
    43                           	psect	text26,global,reloc=2,class=CODE,delta=1
    44                           	psect	text27,global,reloc=2,class=CODE,delta=1
    45                           	psect	text28,global,reloc=2,class=CODE,delta=1
    46                           	psect	text29,global,reloc=2,class=CODE,delta=1
    47                           	psect	text30,global,reloc=2,class=CODE,delta=1
    48                           	psect	text31,global,reloc=2,class=CODE,delta=1
    49                           	psect	text32,global,reloc=2,class=CODE,delta=1
    50                           	psect	text33,global,reloc=2,class=CODE,delta=1
    51                           	psect	text34,global,reloc=2,class=CODE,delta=1
    52                           	psect	text35,global,reloc=2,class=CODE,delta=1
    53                           	psect	text36,global,reloc=2,class=CODE,delta=1,inline
    54                           	psect	text37,global,reloc=2,class=CODE,delta=1,inline
    55                           	psect	text38,global,reloc=2,class=CODE,delta=1
    56                           	psect	text39,global,reloc=2,class=CODE,delta=1
    57                           	psect	text40,global,reloc=2,class=CODE,delta=1
    58                           	psect	text41,global,reloc=2,class=CODE,delta=1
    59                           	psect	text42,global,reloc=2,class=CODE,delta=1
    60                           	psect	text43,global,reloc=2,class=CODE,delta=1
    61                           	psect	text44,global,reloc=2,class=CODE,delta=1
    62                           	psect	text45,global,reloc=2,class=CODE,delta=1
    63                           	psect	text46,global,reloc=2,class=CODE,delta=1
    64                           	psect	text47,global,reloc=2,class=CODE,delta=1
    65                           	psect	text48,global,reloc=2,class=CODE,delta=1,inline
    66                           	psect	text49,global,reloc=2,class=CODE,delta=1
    67                           	psect	text50,global,reloc=2,class=CODE,delta=1
    68                           	psect	text51,global,reloc=2,class=CODE,delta=1
    69                           	psect	text52,global,reloc=2,class=CODE,delta=1,inline
    70                           	psect	text53,global,reloc=2,class=CODE,delta=1
    71                           	psect	text54,global,reloc=2,class=CODE,delta=1
    72                           	psect	text55,global,reloc=2,class=CODE,delta=1
    73                           	psect	text56,global,reloc=2,class=CODE,delta=1
    74                           	psect	text57,global,reloc=2,class=CODE,delta=1
    75                           	psect	text58,global,reloc=2,class=CODE,delta=1
    76                           	psect	text59,global,reloc=2,class=CODE,delta=1
    77                           	psect	text60,global,reloc=2,class=CODE,delta=1
    78                           	psect	text61,global,reloc=2,class=CODE,delta=1
    79                           	psect	text62,global,reloc=2,class=CODE,delta=1
    80                           	psect	text63,global,reloc=2,class=CODE,delta=1
    81                           	psect	text64,global,reloc=2,class=CODE,delta=1
    82                           	psect	text65,global,reloc=2,class=CODE,delta=1
    83                           	psect	text66,global,reloc=2,class=CODE,delta=1
    84                           	psect	text67,global,reloc=2,class=CODE,delta=1
    85                           	psect	text68,global,reloc=2,class=CODE,delta=1
    86                           	psect	text69,global,reloc=2,class=CODE,delta=1
    87                           	psect	text70,global,reloc=2,class=CODE,delta=1
    88                           	psect	text71,global,reloc=2,class=CODE,delta=1
    89                           	psect	text72,global,reloc=2,class=CODE,delta=1
    90                           	psect	text73,global,reloc=2,class=CODE,delta=1
    91                           	psect	text74,global,reloc=2,class=CODE,delta=1
    92                           	psect	text75,global,reloc=2,class=CODE,delta=1
    93                           	psect	text76,global,reloc=2,class=CODE,delta=1
    94                           	psect	text77,global,reloc=2,class=CODE,delta=1
    95                           	psect	text78,global,reloc=2,class=CODE,delta=1
    96                           	psect	text79,global,reloc=2,class=CODE,delta=1
    97                           	psect	text80,global,reloc=2,class=CODE,delta=1
    98                           	psect	text81,global,reloc=2,class=CODE,delta=1
    99                           	psect	text82,global,reloc=2,class=CODE,delta=1
   100                           	psect	text83,global,reloc=2,class=CODE,delta=1,group=2
   101                           	psect	text84,global,reloc=2,class=CODE,delta=1
   102                           	psect	text85,global,reloc=2,class=CODE,delta=1
   103                           	psect	text86,global,reloc=2,class=CODE,delta=1,group=2
   104                           	psect	text87,global,reloc=4,class=CODE,delta=1
   105                           	psect	text88,global,reloc=4,class=CODE,delta=1
   106                           	psect	text89,global,reloc=2,class=CODE,delta=1
   107                           	psect	text90,global,reloc=2,class=CODE,delta=1
   108                           	psect	text91,global,reloc=2,class=CODE,delta=1
   109                           	psect	text92,global,reloc=2,class=CODE,delta=1
   110                           	psect	text93,global,reloc=2,class=CODE,delta=1
   111                           	psect	text94,global,reloc=2,class=CODE,delta=1
   112                           	psect	text95,global,reloc=2,class=CODE,delta=1
   113                           	psect	text96,global,reloc=2,class=CODE,delta=1
   114                           	psect	text97,global,reloc=2,class=CODE,delta=1
   115                           	psect	text98,global,reloc=2,class=CODE,delta=1
   116                           	psect	text99,global,reloc=2,class=CODE,delta=1
   117                           	psect	text100,global,reloc=2,class=CODE,delta=1
   118                           	psect	text101,global,reloc=2,class=CODE,delta=1
   119                           	psect	text102,global,reloc=2,class=CODE,delta=1
   120                           	psect	text103,global,reloc=2,class=CODE,delta=1
   121                           	psect	ivt0x8,global,reloc=2,class=CODE,delta=1,noexec,keep,optim=
   122                           	psect	intsave_regs,global,class=BIGRAM,space=1,delta=1,noexec
   123                           	psect	text104,global,reloc=2,class=CODE,delta=1
   124                           	psect	rparam,global,class=COMRAM,space=1,delta=1,noexec
   125                           	psect	idloc,global,abs,ovrld,class=IDLOC,space=5,delta=1,noexec
   126                           	psect	config,global,abs,ovrld,class=CONFIG,space=4,delta=1,noexec
   127  0000                     
   128                           ; Version 2.35
   129                           ; Generated 04/06/2021 GMT
   130                           ; 
   131                           ; Copyright © 2021, Microchip Technology Inc. and its subsidiaries ("Microchip")
   132                           ; All rights reserved.
   133                           ; 
   134                           ; This software is developed by Microchip Technology Inc. and its subsidiaries ("Microch
      +                          ip").
   135                           ; 
   136                           ; Redistribution and use in source and binary forms, with or without modification, are
   137                           ; permitted provided that the following conditions are met:
   138                           ; 
   139                           ;     1. Redistributions of source code must retain the above copyright notice, this lis
      +                          t of
   140                           ;        conditions and the following disclaimer.
   141                           ; 
   142                           ;     2. Redistributions in binary form must reproduce the above copyright notice, this 
      +                          list
   143                           ;        of conditions and the following disclaimer in the documentation and/or other
   144                           ;        materials provided with the distribution. Publication is not required when
   145                           ;        this file is used in an embedded application.
   146                           ; 
   147                           ;     3. Microchip's name may not be used to endorse or promote products derived from th
      +                          is
   148                           ;        software without specific prior written permission.
   149                           ; 
   150                           ; THIS SOFTWARE IS PROVIDED BY MICROCHIP "AS IS" AND ANY EXPRESS OR IMPLIED WARRANTIES,
   151                           ; INCLUDING, BUT NOT LIMITED TO, THE IMPLIED WARRANTIES OF MERCHANTABILITY AND FITNESS F
      +                          OR
   152                           ; PURPOSE ARE DISCLAIMED.  IN NO EVENT SHALL MICROCHIP BE LIABLE FOR ANY DIRECT, INDIREC
      +                          T,
   153                           ; INCIDENTAL, SPECIAL, EXEMPLARY, OR CONSEQUENTIAL DAMAGES (INCLUDING BUT NOT LIMITED TO
   154                           ; PROCUREMENT OF SUBSTITUTE GOODS OR SERVICES; LOSS OF USE, DATA OR PROFITS; OR BUSINESS
   155                           ; INTERRUPTION) HOWSOEVER CAUSED AND ON ANY THEORY OF LIABILITY, WHETHER IN CONTRACT, ST
      +                          RICT
   156                           ; LIABILITY, OR TORT (INCLUDING NEGLIGENCE OR OTHERWISE) ARISING IN ANY WAY OUT OF THE U
      +                          SE OF
   157                           ; THIS SOFTWARE, EVEN IF ADVISED OF THE POSSIBILITY OF SUCH DAMAGE.
   158                           ; 
   159                           ; 
   160                           ; Code-generator required, PIC18F57Q84 Definitions
   161                           ; 
   162                           ; SFR Addresses
   163  0000                     
   164                           	psect	idataCOMRAM
   165  005ECE                     __pidataCOMRAM:
   166                           	callstack 0
   167                           
   168                           ;initializer for _rxFifos
   169  005ECE  02                 	db	2
   170  005ECF  00                 	db	0
   171                           
   172                           	psect	smallconst
   173  003800                     __psmallconst:
   174                           	callstack 0
   175  003800  00                 	db	0
   176  003801                     DlcToDataBytesGet@dlcByteSize:
   177                           	callstack 0
   178  003801  00                 	db	0
   179  003802  01                 	db	1
   180  003803  02                 	db	2
   181  003804  03                 	db	3
   182  003805  04                 	db	4
   183  003806  05                 	db	5
   184  003807  06                 	db	6
   185  003808  07                 	db	7
   186  003809  08                 	db	8
   187  00380A  0C                 	db	12
   188  00380B  10                 	db	16
   189  00380C  14                 	db	20
   190  00380D  18                 	db	24
   191  00380E  20                 	db	32
   192  00380F  30                 	db	48
   193  003810  40                 	db	64
   194  003811                     __end_ofDlcToDataBytesGet@dlcByteSize:
   195                           	callstack 0
   196  003811                     _DLC_BYTES:
   197                           	callstack 0
   198  003811  00                 	db	0
   199  003812  01                 	db	1
   200  003813  02                 	db	2
   201  003814  03                 	db	3
   202  003815  04                 	db	4
   203  003816  05                 	db	5
   204  003817  06                 	db	6
   205  003818  07                 	db	7
   206  003819  08                 	db	8
   207  00381A  0C                 	db	12
   208  00381B  10                 	db	16
   209  00381C  14                 	db	20
   210  00381D  18                 	db	24
   211  00381E  20                 	db	32
   212  00381F  30                 	db	48
   213  003820  40                 	db	64
   214  003821                     __end_of_DLC_BYTES:
   215                           	callstack 0
   216  003821  50                 	db	80
   217  003822  01                 	db	1
   218  003823                     __end_of_FIFO:
   219                           	callstack 0
   220  003823  40                 	db	64
   221  003824                     __end_of_canMaximumFrameLength:
   222                           	callstack 0
   223  0000                     _PMD8	set	104
   224  0000                     _PMD7	set	103
   225  0000                     _PMD6	set	102
   226  0000                     _PMD5	set	101
   227  0000                     _PMD4	set	100
   228  0000                     _PMD3	set	99
   229  0000                     _PMD2	set	98
   230  0000                     _PMD1	set	97
   231  0000                     _PMD0	set	96
   232  0000                     _OSCTUNE	set	176
   233  0000                     _OSCFRQ	set	177
   234  0000                     _OSCEN	set	179
   235  0000                     _OSCCON3	set	175
   236  0000                     _OSCCON1	set	173
   237  0000                     _PLLR	set	1424
   238  0000                     _C1FIFOBA	set	332
   239  0000                     _C1INTTbits	set	287
   240  0000                     _C1TRECUbits	set	310
   241  0000                     _C1CONUbits	set	258
   242  0000                     _C1INTHbits	set	285
   243  0000                     _C1CONTbits	set	259
   244  0000                     _C1CONU	set	258
   245  0000                     _C1CONH	set	257
   246  0000                     _C1CONL	set	256
   247  0000                     _C1CONHbits	set	257
   248  0000                     _C1TDCU	set	270
   249  0000                     _C1TDCH	set	269
   250  0000                     _C1DBTCFGT	set	267
   251  0000                     _C1DBTCFGU	set	266
   252  0000                     _C1DBTCFGH	set	265
   253  0000                     _C1DBTCFGL	set	264
   254  0000                     _C1NBTCFGT	set	263
   255  0000                     _C1NBTCFGU	set	262
   256  0000                     _C1NBTCFGH	set	261
   257  0000                     _C1NBTCFGL	set	260
   258  0000                     _C1FIFOCON1T	set	351
   259  0000                     _C1FIFOCON1U	set	350
   260  0000                     _C1FIFOCON1H	set	349
   261  0000                     _C1FIFOCON1L	set	348
   262  0000                     _C1FLTCON0L	set	384
   263  0000                     _C1MASK0T	set	403
   264  0000                     _C1MASK0U	set	402
   265  0000                     _C1MASK0H	set	401
   266  0000                     _C1MASK0L	set	400
   267  0000                     _C1FLTOBJ0T	set	399
   268  0000                     _C1FLTOBJ0U	set	398
   269  0000                     _C1FLTOBJ0H	set	397
   270  0000                     _C1FLTOBJ0L	set	396
   271  0000                     _C1FIFOCON2T	set	363
   272  0000                     _C1FIFOCON2U	set	362
   273  0000                     _C1FIFOCON2H	set	361
   274  0000                     _C1FIFOCON2L	set	360
   275  0000                     _C1TXQCONL	set	336
   276  0000                     _U1TXB	set	675
   277  0000                     _U1RXB	set	673
   278  0000                     _U1ERRIRbits	set	690
   279  0000                     _U1CON0bits	set	683
   280  0000                     _U1ERRIE	set	691
   281  0000                     _U1ERRIR	set	690
   282  0000                     _U1UIR	set	689
   283  0000                     _U1FIFO	set	688
   284  0000                     _U1BRGH	set	687
   285  0000                     _U1BRGL	set	686
   286  0000                     _U1CON2	set	685
   287  0000                     _U1CON1	set	684
   288  0000                     _U1CON0	set	683
   289  0000                     _U1P3H	set	682
   290  0000                     _U1P3L	set	681
   291  0000                     _U1P2H	set	680
   292  0000                     _U1P2L	set	679
   293  0000                     _U1P1H	set	678
   294  0000                     _U1P1L	set	677
   295  0000                     _U1RXPPS	set	626
   296  0000                     _RF0PPS	set	553
   297  0000                     _RD0PPS	set	537
   298  0000                     _CANRXPPS	set	573
   299  0000                     _T1GCONbits	set	799
   300  0000                     _T1CONbits	set	798
   301  0000                     _T1CON	set	798
   302  0000                     _TMR1L	set	796
   303  0000                     _TMR1H	set	797
   304  0000                     _T1CLK	set	801
   305  0000                     _T1GATE	set	800
   306  0000                     _T1GCON	set	799
   307  0000                     _T0CON0bits	set	794
   308  0000                     _T0CON0	set	794
   309  0000                     _TMR0L	set	792
   310  0000                     _TMR0H	set	793
   311  0000                     _T0CON1	set	795
   312  0000                     _IPR3bits	set	869
   313  0000                     _IVTBASEL	set	1117
   314  0000                     _IVTBASEH	set	1118
   315  0000                     _IVTBASEU	set	1119
   316  0000                     _IVTLOCKbits	set	1113
   317  0000                     _IVTLOCK	set	1113
   318  0000                     _INLVLF	set	1068
   319  0000                     _INLVLE	set	1060
   320  0000                     _INLVLD	set	1052
   321  0000                     _INLVLC	set	1044
   322  0000                     _INLVLB	set	1036
   323  0000                     _INLVLA	set	1028
   324  0000                     _SLRCONF	set	1067
   325  0000                     _SLRCONE	set	1059
   326  0000                     _SLRCOND	set	1051
   327  0000                     _SLRCONC	set	1043
   328  0000                     _SLRCONB	set	1035
   329  0000                     _SLRCONA	set	1027
   330  0000                     _ODCOND	set	1050
   331  0000                     _ODCONC	set	1042
   332  0000                     _ODCONB	set	1034
   333  0000                     _ODCONA	set	1026
   334  0000                     _ODCONF	set	1066
   335  0000                     _ODCONE	set	1058
   336  0000                     _WPUC	set	1041
   337  0000                     _WPUA	set	1025
   338  0000                     _WPUB	set	1033
   339  0000                     _WPUE	set	1057
   340  0000                     _WPUF	set	1065
   341  0000                     _WPUD	set	1049
   342  0000                     _ANSELA	set	1024
   343  0000                     _ANSELF	set	1064
   344  0000                     _ANSELE	set	1056
   345  0000                     _ANSELB	set	1032
   346  0000                     _ANSELC	set	1040
   347  0000                     _ANSELD	set	1048
   348  0000                     _PIE3bits	set	1185
   349  0000                     _PIR3bits	set	1201
   350  0000                     _INTCON0bits	set	1238
   351  0000                     _PIR4bits	set	1202
   352  0000                     _TRISD	set	1225
   353  0000                     _TRISC	set	1224
   354  0000                     _TRISB	set	1223
   355  0000                     _TRISA	set	1222
   356  0000                     _TRISF	set	1227
   357  0000                     _TRISE	set	1226
   358  0000                     _LATC	set	1216
   359  0000                     _LATB	set	1215
   360  0000                     _LATF	set	1219
   361  0000                     _LATA	set	1214
   362  0000                     _LATD	set	1217
   363  0000                     _LATE	set	1218
   364  0000                     _LATFbits	set	1219
   365  0000                     _GIE	set	9911
   366  003824  00                 	db	0	; dummy byte at the end
   367  0000                     
   368                           ; #config settings
   369                           
   370                           	psect	cinit
   371  00500C                     __pcinit:
   372                           	callstack 0
   373  00500C                     start_initialization:
   374                           	callstack 0
   375  00500C                     __initialization:
   376                           	callstack 0
   377                           
   378                           ; Initialize objects allocated to COMRAM (2 bytes)
   379                           ; load TBLPTR registers with __pidataCOMRAM
   380  00500C  0ECE               	movlw	low __pidataCOMRAM
   381  00500E  6EF6               	movwf	tblptrl,c
   382  005010  0E5E               	movlw	high __pidataCOMRAM
   383  005012  6EF7               	movwf	tblptrh,c
   384  005014  0E00               	movlw	low (__pidataCOMRAM shr (0+16))
   385  005016  6EF8               	movwf	tblptru,c
   386  005018  0009               	tblrd		*+	;fetch initializer
   387  00501A  0061 F3D4  F55A    	movff	tablat,__pdataCOMRAM
   388  005020  0009               	tblrd		*+	;fetch initializer
   389  005022  0061 F3D4  F55B    	movff	tablat,__pdataCOMRAM+1
   390                           
   391                           ; Clear objects allocated to BIGRAM (1028 bytes)
   392  005028  EE02  F100         	lfsr	0,__pbssBIGRAM
   393  00502C  EE11 F004          	lfsr	1,1028
   394  005030                     clear_0:
   395  005030  6AEE               	clrf	postinc0,c
   396  005032  50E5               	movf	postdec1,w,c
   397  005034  50E1               	movf	fsr1l,w,c
   398  005036  E1FC               	bnz	clear_0
   399  005038  50E2               	movf	fsr1h,w,c
   400  00503A  E1FA               	bnz	clear_0
   401                           
   402                           ; Clear objects allocated to BANK8 (256 bytes)
   403  00503C  EE02  F000         	lfsr	0,__pbssBANK8
   404  005040  EE10 F100          	lfsr	1,256
   405  005044                     clear_1:
   406  005044  6AEE               	clrf	postinc0,c
   407  005046  50E5               	movf	postdec1,w,c
   408  005048  50E1               	movf	fsr1l,w,c
   409  00504A  E1FC               	bnz	clear_1
   410  00504C  50E2               	movf	fsr1h,w,c
   411  00504E  E1FA               	bnz	clear_1
   412                           
   413                           ; Clear objects allocated to BANK7 (256 bytes)
   414  005050  EE01  F300         	lfsr	0,__pbssBANK7
   415  005054  EE10 F100          	lfsr	1,256
   416  005058                     clear_2:
   417  005058  6AEE               	clrf	postinc0,c
   418  00505A  50E5               	movf	postdec1,w,c
   419  00505C  50E1               	movf	fsr1l,w,c
   420  00505E  E1FC               	bnz	clear_2
   421  005060  50E2               	movf	fsr1h,w,c
   422  005062  E1FA               	bnz	clear_2
   423                           
   424                           ; Clear objects allocated to BANK6 (128 bytes)
   425  005064  EE01  F200         	lfsr	0,__pbssBANK6
   426  005068  0E80               	movlw	128
   427  00506A                     clear_3:
   428  00506A  6AEE               	clrf	postinc0,c
   429  00506C  06E8               	decf	wreg,f,c
   430  00506E  E1FD               	bnz	clear_3
   431                           
   432                           ; Clear objects allocated to BANK5 (140 bytes)
   433  005070  EE01  F160         	lfsr	0,__pbssBANK5
   434  005074  0E8C               	movlw	140
   435  005076                     clear_4:
   436  005076  6AEE               	clrf	postinc0,c
   437  005078  06E8               	decf	wreg,f,c
   438  00507A  E1FD               	bnz	clear_4
   439                           
   440                           ; Clear objects allocated to COMRAM (49 bytes)
   441  00507C  EE01  F101         	lfsr	0,__pbssCOMRAM
   442  005080  0E31               	movlw	49
   443  005082                     clear_5:
   444  005082  6AEE               	clrf	postinc0,c
   445  005084  06E8               	decf	wreg,f,c
   446  005086  E1FD               	bnz	clear_5
   447                           
   448                           ;
   449                           ; Setup IVTBASE
   450                           ;
   451  005088  0104               	movlb	4
   452  00508A  0E08               	movlw	(ivt0x8_base shr 0)& (0+255)
   453  00508C  6F5D               	movwf	93,b
   454  00508E  0E00               	movlw	(ivt0x8_base shr (0+8))& (0+255)
   455  005090  6F5E               	movwf	94,b
   456  005092  0E00               	movlw	(ivt0x8_base shr (0+16))& (0+255)
   457  005094  6F5F               	movwf	95,b
   458  005096                     end_of_initialization:
   459                           	callstack 0
   460  005096                     __end_of__initialization:
   461                           	callstack 0
   462  005096  0100               	movlb	0
   463  005098  EF6D  F02B         	goto	_main	;jump to C main() function
   464                           
   465                           	psect	bssCOMRAM
   466  000501                     __pbssCOMRAM:
   467                           	callstack 0
   468  000501                     _incomingMessage:
   469                           	callstack 0
   470  000501                     	ds	23
   471  000518                     _frame:
   472                           	callstack 0
   473  000518                     	ds	8
   474  000520                     _u16DrvRs485TxDataCnt:
   475                           	callstack 0
   476  000520                     	ds	2
   477  000522                     _rxTimeoutCounter:
   478                           	callstack 0
   479  000522                     	ds	2
   480  000524                     _flowcontrolReceiveTimeoutCounter:
   481                           	callstack 0
   482  000524                     	ds	2
   483  000526                     _flowcontrolTransmitTimeoutCounter:
   484                           	callstack 0
   485  000526                     	ds	2
   486  000528                     _txTransmitTimeoutCounter:
   487                           	callstack 0
   488  000528                     	ds	2
   489  00052A                     _txSeparationTimeRemaining:
   490                           	callstack 0
   491  00052A                     	ds	2
   492  00052C                     _timer1ReloadVal:
   493                           	callstack 0
   494  00052C                     	ds	2
   495  00052E                     _initialized:
   496                           	callstack 0
   497  00052E                     	ds	1
   498  00052F                     _txFrameLength:
   499                           	callstack 0
   500  00052F                     	ds	1
   501  000530                     _uart1RxLastError:
   502                           	callstack 0
   503  000530                     	ds	1
   504  000531                     _rxFrameLength:
   505                           	callstack 0
   506  000531                     	ds	1
   507                           
   508                           	psect	dataCOMRAM
   509  00055A                     __pdataCOMRAM:
   510                           	callstack 0
   511  00055A                     _rxFifos:
   512                           	callstack 0
   513  00055A                     	ds	2
   514                           
   515                           	psect	bssBANK5
   516  000560                     __pbssBANK5:
   517                           	callstack 0
   518  000560                     FirstFrameProcess@F437:
   519                           	callstack 0
   520  000560                     	ds	4
   521  000564                     _callback:
   522                           	callstack 0
   523  000564                     	ds	3
   524  000567                     _TMR0_InterruptHandler:
   525                           	callstack 0
   526  000567                     	ds	3
   527  00056A                     _UART1_ErrorHandler:
   528                           	callstack 0
   529  00056A                     	ds	3
   530  00056D                     _UART1_OverrunErrorHandler:
   531                           	callstack 0
   532  00056D                     	ds	3
   533  000570                     _UART1_FramingErrorHandler:
   534                           	callstack 0
   535  000570                     	ds	3
   536  000573                     TMR0_UserInterruptHandler@counter:
   537                           	callstack 0
   538  000573                     	ds	2
   539  000575                     _u16DrvRs485TxDataNum:
   540                           	callstack 0
   541  000575                     	ds	2
   542  000577                     _u16DrvRs485TxFinished:
   543                           	callstack 0
   544  000577                     	ds	2
   545  000579                     _u16DrvRs485TxEndCnt:
   546                           	callstack 0
   547  000579                     	ds	2
   548  00057B                     _u16DrvRs485TxCmd:
   549                           	callstack 0
   550  00057B                     	ds	2
   551  00057D                     _u16DrvRs485RxDataNum:
   552                           	callstack 0
   553  00057D                     	ds	2
   554  00057F                     _u16DrvRs485RxFinished:
   555                           	callstack 0
   556  00057F                     	ds	2
   557  000581                     _u16DrvRs485RxEndCnt:
   558                           	callstack 0
   559  000581                     	ds	2
   560  000583                     _u16DrvRs485RxDataCnt:
   561                           	callstack 0
   562  000583                     	ds	2
   563  000585                     _u16DrvRs485RxCmd:
   564                           	callstack 0
   565  000585                     	ds	2
   566  000587                     _u16DrvRs485State:
   567                           	callstack 0
   568  000587                     	ds	2
   569  000589                     _u16CommGuiState:
   570                           	callstack 0
   571  000589                     	ds	2
   572  00058B                     _rxFrameData:
   573                           	callstack 0
   574  00058B                     	ds	64
   575  0005CB                     _outgoingMessage:
   576                           	callstack 0
   577  0005CB                     	ds	19
   578  0005DE                     _txCanMsg:
   579                           	callstack 0
   580  0005DE                     	ds	7
   581  0005E5                     _rxCanMsg:
   582                           	callstack 0
   583  0005E5                     	ds	7
   584                           
   585                           	psect	bssBANK6
   586  000600                     __pbssBANK6:
   587                           	callstack 0
   588  000600                     _txFrameData:
   589                           	callstack 0
   590  000600                     	ds	64
   591  000640                     _rxMsgData:
   592                           	callstack 0
   593  000640                     	ds	64
   594                           
   595                           	psect	bssBANK7
   596  000700                     __pbssBANK7:
   597                           	callstack 0
   598  000700                     _u8DrvRs485Received:
   599                           	callstack 0
   600  000700                     	ds	256
   601                           
   602                           	psect	bssBANK8
   603  000800                     __pbssBANK8:
   604                           	callstack 0
   605  000800                     _u8DrvRs485Responsed:
   606                           	callstack 0
   607  000800                     	ds	256
   608                           
   609                           	psect	bssBIGRAM
   610  000900                     __pbssBIGRAM:
   611                           	callstack 0
   612  000900                     _canComData:
   613                           	callstack 0
   614  000900                     	ds	516
   615  000B04                     _rxBuffer:
   616                           	callstack 0
   617  000B04                     	ds	512
   618                           
   619                           	psect	cstackBANK5
   620  0005EC                     __pcstackBANK5:
   621                           	callstack 0
   622  0005EC                     ??_CAN_PHY_Transmit:
   623  0005EC                     ??_ProcessIncomingFrame:
   624                           
   625                           ; 1 bytes @ 0x0
   626  0005EC                     	ds	1
   627  0005ED                     ??_ProcessOutgoingMessage:
   628                           
   629                           ; 1 bytes @ 0x1
   630  0005ED                     	ds	2
   631                           
   632                           	psect	cstackCOMRAM
   633  000532                     __pcstackCOMRAM:
   634                           	callstack 0
   635  000532                     _UART1_is_tx_ready$389:
   636                           	callstack 0
   637  000532                     UART1_Write@txData:
   638                           	callstack 0
   639  000532                     TMR1_WriteTimer@timerVal:
   640                           	callstack 0
   641                           
   642                           ; 2 bytes @ 0x0
   643  000532                     	ds	2
   644  000534                     ??_DrvRs485RxTx:
   645                           
   646                           ; 1 bytes @ 0x2
   647  000534                     	ds	2
   648  000536                     ??_TMR1_Initialize:
   649  000536                     ??_GetRxFifoDepth:
   650  000536                     ??_SingleFrameParse:
   651  000536                     ??_FirstFrameParse:
   652  000536                     ??_ConsecutiveFrameParse:
   653  000536                     ?_u16DrvRs485StateGet:
   654                           	callstack 0
   655  000536                     ?_u16DrvRs485IsRxFinished:
   656                           	callstack 0
   657  000536                     ?_u16DrvRs485IsTxFinished:
   658                           	callstack 0
   659  000536                     ?_CAN_TP_MessageLengthGet:
   660                           	callstack 0
   661  000536                     ?_SeparationTimeToTicks:
   662                           	callstack 0
   663  000536                     CAN1_RX_FIFO_ResetInfo@index:
   664                           	callstack 0
   665  000536                     CAN1_OperationModeSet@opMode:
   666                           	callstack 0
   667  000536                     GetRxFifoStatus@validChannel:
   668                           	callstack 0
   669  000536                     _isTxChannel$796:
   670                           	callstack 0
   671  000536                     GetTxFifoStatus@validChannel:
   672                           	callstack 0
   673  000536                     INTERRUPT_Initialize@state:
   674                           	callstack 0
   675  000536                     FlowControlStatusUpdate@status:
   676                           	callstack 0
   677  000536                     _ReceptionTimedOut$1527:
   678                           	callstack 0
   679  000536                     AdjustFrameSize@newFrameLength:
   680                           	callstack 0
   681  000536                     DlcToDataBytesGet@dlc:
   682                           	callstack 0
   683  000536                     BytesToDLCGet@length:
   684                           	callstack 0
   685  000536                     IssueEvent@header:
   686                           	callstack 0
   687  000536                     CAN_TP_RxMessageBufferSet@buffer:
   688                           	callstack 0
   689  000536                     _CanDataFitInOneFrame$1548:
   690                           	callstack 0
   691  000536                     CAN_TP_MessageSend@buffer:
   692                           	callstack 0
   693  000536                     vDrvRs485TxCmdSet@u16TxNum:
   694                           	callstack 0
   695  000536                     memcpy@d1:
   696                           	callstack 0
   697  000536                     memset@dest:
   698                           	callstack 0
   699  000536                     UART1_SetFramingErrorHandler@interruptHandler:
   700                           	callstack 0
   701  000536                     UART1_SetOverrunErrorHandler@interruptHandler:
   702                           	callstack 0
   703  000536                     UART1_SetErrorHandler@interruptHandler:
   704                           	callstack 0
   705  000536                     TMR0_SetInterruptHandler@InterruptHandler:
   706                           	callstack 0
   707                           
   708                           ; 3 bytes @ 0x4
   709  000536                     	ds	1
   710  000537                     CAN1_OperationModeSet@status:
   711                           	callstack 0
   712  000537                     GetRxFifoDepth@validChannel:
   713                           	callstack 0
   714  000537                     isTxChannel@channel:
   715                           	callstack 0
   716  000537                     AdjustFrameSize@frameDataLength:
   717                           	callstack 0
   718  000537                     ValidateTransmission@txCanMsg:
   719                           	callstack 0
   720                           
   721                           ; 2 bytes @ 0x5
   722  000537                     	ds	1
   723  000538                     CAN1_OperationModeSet@requestMode:
   724                           	callstack 0
   725  000538                     CAN1_ReceivedMessageCountGet@totalMsgObj:
   726                           	callstack 0
   727  000538                     CAN1_TransmitFIFOStatusGet@status:
   728                           	callstack 0
   729  000538                     IssueEvent@data:
   730                           	callstack 0
   731  000538                     CAN_TP_RxMessageBufferSet@bufferSize:
   732                           	callstack 0
   733  000538                     SeparationTimeToTicks@ticks:
   734                           	callstack 0
   735  000538                     CAN_TP_MessageSend@length:
   736                           	callstack 0
   737  000538                     memcpy@s1:
   738                           	callstack 0
   739  000538                     memset@c:
   740                           	callstack 0
   741  000538                     _CAN_TP_MessageLengthGet$1482:
   742                           	callstack 0
   743                           
   744                           ; 4 bytes @ 0x6
   745  000538                     	ds	1
   746  000539                     ??_ValidateTransmission:
   747  000539                     CAN1_ReceivedMessageCountGet@numOfMsg:
   748                           	callstack 0
   749  000539                     CAN1_TransmitFIFOStatusGet@fifoChannel:
   750                           	callstack 0
   751                           
   752                           ; 1 bytes @ 0x7
   753  000539                     	ds	1
   754  00053A                     ??_CAN_PHY_TransmitStatusGet:
   755  00053A                     CAN1_ReceivedMessageCountGet@rxMsgStatus:
   756                           	callstack 0
   757  00053A                     IncomingMessageComplete@result:
   758                           	callstack 0
   759  00053A                     OutgoingMessageComplete@result:
   760                           	callstack 0
   761  00053A                     SeparationTimeToTicks@separationTime:
   762                           	callstack 0
   763  00053A                     CAN_TP_MessageSend@sent:
   764                           	callstack 0
   765  00053A                     memcpy@n:
   766                           	callstack 0
   767  00053A                     memset@n:
   768                           	callstack 0
   769                           
   770                           ; 2 bytes @ 0x8
   771  00053A                     	ds	1
   772  00053B                     CAN1_ReceivedMessageCountGet@channel:
   773                           	callstack 0
   774  00053B                     OutgoingMessageComplete@confirmData:
   775                           	callstack 0
   776  00053B                     IncomingMessageComplete@indicationData:
   777                           	callstack 0
   778                           
   779                           ; 7 bytes @ 0x9
   780  00053B                     	ds	1
   781  00053C                     ??_memset:
   782  00053C                     ??_FlowcontrolFrameProcess:
   783  00053C                     CAN1_ReceivedMessageCountGet@fifoDepth:
   784                           	callstack 0
   785  00053C                     CAN_PHY_TransmitStatusGet@status:
   786                           	callstack 0
   787  00053C                     memcpy@d:
   788                           	callstack 0
   789                           
   790                           ; 2 bytes @ 0xA
   791  00053C                     	ds	1
   792  00053D                     ??_OutputMessageLastFrameStatusCheck:
   793  00053D                     CAN1_ReceivedMessageCountGet@fifoTail:
   794                           	callstack 0
   795                           
   796                           ; 1 bytes @ 0xB
   797  00053D                     	ds	1
   798  00053E                     CAN1_ReceivedMessageCountGet@fifoHead:
   799                           	callstack 0
   800  00053E                     ValidateTransmission@plsize:
   801                           	callstack 0
   802  00053E                     FlowcontrolFrameProcess@status:
   803                           	callstack 0
   804  00053E                     memcpy@s:
   805                           	callstack 0
   806  00053E                     memset@k:
   807                           	callstack 0
   808                           
   809                           ; 2 bytes @ 0xC
   810  00053E                     	ds	1
   811  00053F                     CAN1_ReceivedMessageCountGet@index:
   812                           	callstack 0
   813  00053F                     ValidateTransmission@validChannel:
   814                           	callstack 0
   815                           
   816                           ; 1 bytes @ 0xD
   817  00053F                     	ds	1
   818  000540                     ValidateTransmission@txMsgStatus:
   819                           	callstack 0
   820  000540                     memcpy@tmp:
   821                           	callstack 0
   822  000540                     memset@s:
   823                           	callstack 0
   824                           
   825                           ; 2 bytes @ 0xE
   826  000540                     	ds	1
   827  000541                     ValidateTransmission@field:
   828                           	callstack 0
   829  000541                     ReadMessageFromFifo@rxFifoObj:
   830                           	callstack 0
   831  000541                     WriteMessageToFifo@txFifoObj:
   832                           	callstack 0
   833  000541                     CAN_TP_MessageGet@buffer:
   834                           	callstack 0
   835  000541                     BOOT_COM_Write@data:
   836                           	callstack 0
   837                           
   838                           ; 2 bytes @ 0xF
   839  000541                     	ds	1
   840  000542                     ??_FirstFrameProcess:
   841  000542                     
   842                           ; 1 bytes @ 0x10
   843  000542                     	ds	1
   844  000543                     CAN_TP_MessageGet@messageReady:
   845                           	callstack 0
   846  000543                     ReadMessageFromFifo@rxCanMsg:
   847                           	callstack 0
   848  000543                     WriteMessageToFifo@txCanMsg:
   849                           	callstack 0
   850  000543                     BOOT_COM_Write@length:
   851                           	callstack 0
   852                           
   853                           ; 2 bytes @ 0x11
   854  000543                     	ds	1
   855  000544                     ?_BOOT_COM_GetBytesReady:
   856                           	callstack 0
   857                           
   858                           ; 2 bytes @ 0x12
   859  000544                     	ds	1
   860  000545                     ??_ReadMessageFromFifo:
   861  000545                     ??_WriteMessageToFifo:
   862                           
   863                           ; 1 bytes @ 0x13
   864  000545                     	ds	1
   865  000546                     FirstFrameProcess@firstFrameData:
   866                           	callstack 0
   867                           
   868                           ; 4 bytes @ 0x14
   869  000546                     	ds	1
   870  000547                     WriteMessageToFifo@status:
   871                           	callstack 0
   872  000547                     ReadMessageFromFifo@msgId:
   873                           	callstack 0
   874                           
   875                           ; 4 bytes @ 0x15
   876  000547                     	ds	1
   877  000548                     ?_BOOT_COM_Read:
   878                           	callstack 0
   879  000548                     BOOT_COM_Read@data:
   880                           	callstack 0
   881  000548                     WriteMessageToFifo@msgId:
   882                           	callstack 0
   883                           
   884                           ; 4 bytes @ 0x16
   885  000548                     	ds	2
   886  00054A                     BOOT_COM_Read@size:
   887                           	callstack 0
   888                           
   889                           ; 2 bytes @ 0x18
   890  00054A                     	ds	1
   891  00054B                     ReadMessageFromFifo@status:
   892                           	callstack 0
   893                           
   894                           ; 1 bytes @ 0x19
   895  00054B                     	ds	1
   896  00054C                     ??_AppCommGui:
   897  00054C                     CAN1_Receive@rxCanMsg:
   898                           	callstack 0
   899  00054C                     CAN1_Transmit@txCanMsg:
   900                           	callstack 0
   901                           
   902                           ; 2 bytes @ 0x1A
   903  00054C                     	ds	1
   904  00054D                     AppCommGui@u16RxNum:
   905                           	callstack 0
   906                           
   907                           ; 2 bytes @ 0x1B
   908  00054D                     	ds	1
   909  00054E                     ??_CAN1_Receive:
   910  00054E                     CAN1_Transmit@txFifoObj:
   911                           	callstack 0
   912                           
   913                           ; 2 bytes @ 0x1C
   914  00054E                     	ds	1
   915  00054F                     AppCommGui@u16TxNum:
   916                           	callstack 0
   917                           
   918                           ; 2 bytes @ 0x1D
   919  00054F                     	ds	1
   920  000550                     CAN1_Transmit@status:
   921                           	callstack 0
   922  000550                     CAN1_Receive@rxFifoObj:
   923                           	callstack 0
   924                           
   925                           ; 2 bytes @ 0x1E
   926  000550                     	ds	1
   927  000551                     CAN1_Transmit@fifoChannel:
   928                           	callstack 0
   929                           
   930                           ; 1 bytes @ 0x1F
   931  000551                     	ds	1
   932  000552                     CAN1_Receive@rxMsgStatus:
   933                           	callstack 0
   934  000552                     CAN_PHY_Transmit@messageId:
   935                           	callstack 0
   936                           
   937                           ; 4 bytes @ 0x20
   938  000552                     	ds	1
   939  000553                     CAN1_Receive@channel:
   940                           	callstack 0
   941                           
   942                           ; 1 bytes @ 0x21
   943  000553                     	ds	1
   944  000554                     CAN1_Receive@index:
   945                           	callstack 0
   946                           
   947                           ; 1 bytes @ 0x22
   948  000554                     	ds	1
   949  000555                     CAN_PHY_Receive@data:
   950                           	callstack 0
   951                           
   952                           ; 2 bytes @ 0x23
   953  000555                     	ds	1
   954  000556                     CAN_PHY_Transmit@isEid:
   955                           	callstack 0
   956                           
   957                           ; 1 bytes @ 0x24
   958  000556                     	ds	1
   959  000557                     CAN_PHY_Receive@length:
   960                           	callstack 0
   961  000557                     CAN_PHY_Transmit@data:
   962                           	callstack 0
   963                           
   964                           ; 2 bytes @ 0x25
   965  000557                     	ds	2
   966  000559                     ??_CAN_PHY_Receive:
   967  000559                     CAN_PHY_Transmit@length:
   968                           	callstack 0
   969                           
   970                           ; 1 bytes @ 0x27
   971  000559                     	ds	1
   972  00055A                     
   973                           ; 1 bytes @ 0x28
   974 ;;
   975 ;;Main: autosize = 0, tempsize = 0, incstack = 0, save=0
   976 ;;
   977 ;; *************** function _main *****************
   978 ;; Defined at:
   979 ;;		line 69 in file "main.c"
   980 ;; Parameters:    Size  Location     Type
   981 ;;		None
   982 ;; Auto vars:     Size  Location     Type
   983 ;;		None
   984 ;; Return value:  Size  Location     Type
   985 ;;                  1    wreg      void 
   986 ;; Registers used:
   987 ;;		wreg, fsr1l, fsr1h, fsr2l, fsr2h, status,2, status,0, tblptrl, tblptrh, tblptru, prodl, prodh, cstack
   988 ;; Tracked objects:
   989 ;;		On entry : 0/0
   990 ;;		On exit  : 0/0
   991 ;;		Unchanged: 0/0
   992 ;; Data sizes:     COMRAM   BANK5   BANK6   BANK7   BANK8   BANK9  BANK10  BANK11  BANK12  BANK13  BANK14  BANK15  BANK1
      +6  BANK17  BANK18  BANK19  BANK20  BANK21  BANK22  BANK23  BANK24  BANK25  BANK26  BANK27  BANK28  BANK29  BANK30  BANK3
      +1  BANK32  BANK33  BANK34  BANK35  BANK36  BANK37  BANK38  BANK39  BANK40  BANK41  BANK42  BANK43  BANK44  BANK45  BANK4
      +6  BANK47  BANK48  BANK49  BANK50  BANK51  BANK52  BANK53  BANK54  BANK55
   993 ;;      Params:         0       0       0       0       0       0       0       0       0       0       0       0       
      +0       0       0       0       0       0       0       0       0       0       0       0       0       0       0       
      +0       0       0       0       0       0       0       0       0       0       0       0       0       0       0       
      +0       0       0       0       0       0       0       0       0       0
   994 ;;      Locals:         0       0       0       0       0       0       0       0       0       0       0       0       
      +0       0       0       0       0       0       0       0       0       0       0       0       0       0       0       
      +0       0       0       0       0       0       0       0       0       0       0       0       0       0       0       
      +0       0       0       0       0       0       0       0       0       0
   995 ;;      Temps:          0       0       0       0       0       0       0       0       0       0       0       0       
      +0       0       0       0       0       0       0       0       0       0       0       0       0       0       0       
      +0       0       0       0       0       0       0       0       0       0       0       0       0       0       0       
      +0       0       0       0       0       0       0       0       0       0
   996 ;;      Totals:         0       0       0       0       0       0       0       0       0       0       0       0       
      +0       0       0       0       0       0       0       0       0       0       0       0       0       0       0       
      +0       0       0       0       0       0       0       0       0       0       0       0       0       0       0       
      +0       0       0       0       0       0       0       0       0       0
   997 ;;Total ram usage:        0 bytes
   998 ;; Hardware stack levels required when called: 13
   999 ;; This function calls:
  1000 ;;		_AppCommGui
  1001 ;;		_AppCommGuiInit
  1002 ;;		_CAN_TP_Initialize
  1003 ;;		_CAN_TP_RxMessageBufferSet
  1004 ;;		_CAN_TP_Tasks
  1005 ;;		_DrvRs485Init
  1006 ;;		_SYSTEM_Initialize
  1007 ;;		_TMR0_SetInterruptHandler
  1008 ;;		_TMR0_StartTimer
  1009 ;; This function is called by:
  1010 ;;		Startup code after reset
  1011 ;; This function uses a non-reentrant model
  1012 ;;
  1013                           
  1014                           	psect	text0
  1015  0056DA                     __ptext0:
  1016                           	callstack 0
  1017  0056DA                     _main:
  1018                           	callstack 114
  1019  0056DA                     
  1020                           ;main.c: 72:     SYSTEM_Initialize();
  1021  0056DA  EC57  F02E         	call	_SYSTEM_Initialize	;wreg free
  1022  0056DE                     
  1023                           ;main.c: 74:     CAN_TP_Initialize();
  1024  0056DE  EC5F  F02A         	call	_CAN_TP_Initialize	;wreg free
  1025  0056E2                     
  1026                           ;main.c: 75:     CAN_TP_RxMessageBufferSet(rxBuffer, sizeof(rxBuffer));
  1027  0056E2  0E04               	movlw	low _rxBuffer
  1028  0056E4  6E36               	movwf	CAN_TP_RxMessageBufferSet@buffer^(0+1280),c
  1029  0056E6  0E0B               	movlw	high _rxBuffer
  1030  0056E8  6E37               	movwf	(CAN_TP_RxMessageBufferSet@buffer+1)^(0+1280),c
  1031  0056EA  0E02               	movlw	2
  1032  0056EC  6E39               	movwf	(CAN_TP_RxMessageBufferSet@bufferSize+1)^(0+1280),c
  1033  0056EE  0E00               	movlw	0
  1034  0056F0  6E38               	movwf	CAN_TP_RxMessageBufferSet@bufferSize^(0+1280),c
  1035  0056F2  EC10  F02F         	call	_CAN_TP_RxMessageBufferSet	;wreg free
  1036  0056F6                     
  1037                           ;main.c: 77:     AppCommGuiInit();
  1038  0056F6  EC42  F02F         	call	_AppCommGuiInit	;wreg free
  1039  0056FA                     
  1040                           ;main.c: 78:     DrvRs485Init();
  1041  0056FA  EC8F  F02A         	call	_DrvRs485Init	;wreg free
  1042  0056FE                     
  1043                           ;main.c: 79:     TMR0_SetInterruptHandler(TMR0_UserInterruptHandler);
  1044  0056FE  0E46               	movlw	low _TMR0_UserInterruptHandler
  1045  005700  6E36               	movwf	TMR0_SetInterruptHandler@InterruptHandler^(0+1280),c
  1046  005702  0E5B               	movlw	high _TMR0_UserInterruptHandler
  1047  005704  6E37               	movwf	(TMR0_SetInterruptHandler@InterruptHandler+1)^(0+1280),c
  1048  005706  0E00               	movlw	low (_TMR0_UserInterruptHandler shr (0+16))
  1049  005708  6E38               	movwf	(TMR0_SetInterruptHandler@InterruptHandler+2)^(0+1280),c
  1050  00570A  EC2E  F02F         	call	_TMR0_SetInterruptHandler	;wreg free
  1051  00570E                     
  1052                           ;main.c: 80:     TMR0_StartTimer();
  1053  00570E  EC5C  F02F         	call	_TMR0_StartTimer	;wreg free
  1054  005712                     
  1055                           ;main.c: 87:     (INTCON0bits.GIEH = 1);
  1056  005712  8ED6               	bsf	214,7,c	;volatile
  1057  005714                     
  1058                           ;main.c: 90:     (INTCON0bits.GIEL = 1);
  1059  005714  8CD6               	bsf	214,6,c	;volatile
  1060  005716  86C3               	bsf	195,3,c	;volatile
  1061  005718                     l5309:
  1062                           
  1063                           ;main.c: 101:     {;main.c: 103:         CAN_TP_Tasks();
  1064  005718  EC35  F02F         	call	_CAN_TP_Tasks	;wreg free
  1065  00571C                     
  1066                           ;main.c: 104:         AppCommGui();
  1067  00571C  EC93  F021         	call	_AppCommGui	;wreg free
  1068  005720  EF8C  F02B         	goto	l5309
  1069  005724  EF85  F000         	goto	start
  1070  005728                     __end_of_main:
  1071                           	callstack 0
  1072                           
  1073 ;; *************** function _TMR0_StartTimer *****************
  1074 ;; Defined at:
  1075 ;;		line 88 in file "mcc_generated_files/tmr0.c"
  1076 ;; Parameters:    Size  Location     Type
  1077 ;;		None
  1078 ;; Auto vars:     Size  Location     Type
  1079 ;;		None
  1080 ;; Return value:  Size  Location     Type
  1081 ;;                  1    wreg      void 
  1082 ;; Registers used:
  1083 ;;		None
  1084 ;; Tracked objects:
  1085 ;;		On entry : 0/0
  1086 ;;		On exit  : 0/0
  1087 ;;		Unchanged: 0/0
  1088 ;; Data sizes:     COMRAM   BANK5   BANK6   BANK7   BANK8   BANK9  BANK10  BANK11  BANK12  BANK13  BANK14  BANK15  BANK1
      +6  BANK17  BANK18  BANK19  BANK20  BANK21  BANK22  BANK23  BANK24  BANK25  BANK26  BANK27  BANK28  BANK29  BANK30  BANK3
      +1  BANK32  BANK33  BANK34  BANK35  BANK36  BANK37  BANK38  BANK39  BANK40  BANK41  BANK42  BANK43  BANK44  BANK45  BANK4
      +6  BANK47  BANK48  BANK49  BANK50  BANK51  BANK52  BANK53  BANK54  BANK55
  1089 ;;      Params:         0       0       0       0       0       0       0       0       0       0       0       0       
      +0       0       0       0       0       0       0       0       0       0       0       0       0       0       0       
      +0       0       0       0       0       0       0       0       0       0       0       0       0       0       0       
      +0       0       0       0       0       0       0       0       0       0
  1090 ;;      Locals:         0       0       0       0       0       0       0       0       0       0       0       0       
      +0       0       0       0       0       0       0       0       0       0       0       0       0       0       0       
      +0       0       0       0       0       0       0       0       0       0       0       0       0       0       0       
      +0       0       0       0       0       0       0       0       0       0
  1091 ;;      Temps:          0       0       0       0       0       0       0       0       0       0       0       0       
      +0       0       0       0       0       0       0       0       0       0       0       0       0       0       0       
      +0       0       0       0       0       0       0       0       0       0       0       0       0       0       0       
      +0       0       0       0       0       0       0       0       0       0
  1092 ;;      Totals:         0       0       0       0       0       0       0       0       0       0       0       0       
      +0       0       0       0       0       0       0       0       0       0       0       0       0       0       0       
      +0       0       0       0       0       0       0       0       0       0       0       0       0       0       0       
      +0       0       0       0       0       0       0       0       0       0
  1093 ;;Total ram usage:        0 bytes
  1094 ;; Hardware stack levels used: 1
  1095 ;; Hardware stack levels required when called: 5
  1096 ;; This function calls:
  1097 ;;		Nothing
  1098 ;; This function is called by:
  1099 ;;		_main
  1100 ;; This function uses a non-reentrant model
  1101 ;;
  1102                           
  1103                           	psect	text1
  1104  005EB8                     __ptext1:
  1105                           	callstack 0
  1106  005EB8                     _TMR0_StartTimer:
  1107                           	callstack 121
  1108  005EB8                     
  1109                           ;mcc_generated_files/tmr0.c: 91:     T0CON0bits.T0EN = 1;
  1110  005EB8  0103               	movlb	3	; () banked
  1111  005EBA  8F1A               	bsf	26,7,b	;volatile
  1112  005EBC                     
  1113                           ; BSR set to: 3
  1114  005EBC  0012               	return		;funcret
  1115  005EBE                     __end_of_TMR0_StartTimer:
  1116                           	callstack 0
  1117                           
  1118 ;; *************** function _SYSTEM_Initialize *****************
  1119 ;; Defined at:
  1120 ;;		line 50 in file "mcc_generated_files/mcc.c"
  1121 ;; Parameters:    Size  Location     Type
  1122 ;;		None
  1123 ;; Auto vars:     Size  Location     Type
  1124 ;;		None
  1125 ;; Return value:  Size  Location     Type
  1126 ;;                  1    wreg      void 
  1127 ;; Registers used:
  1128 ;;		wreg, fsr2l, fsr2h, status,2, status,0, prodl, prodh, cstack
  1129 ;; Tracked objects:
  1130 ;;		On entry : 0/0
  1131 ;;		On exit  : 0/0
  1132 ;;		Unchanged: 0/0
  1133 ;; Data sizes:     COMRAM   BANK5   BANK6   BANK7   BANK8   BANK9  BANK10  BANK11  BANK12  BANK13  BANK14  BANK15  BANK1
      +6  BANK17  BANK18  BANK19  BANK20  BANK21  BANK22  BANK23  BANK24  BANK25  BANK26  BANK27  BANK28  BANK29  BANK30  BANK3
      +1  BANK32  BANK33  BANK34  BANK35  BANK36  BANK37  BANK38  BANK39  BANK40  BANK41  BANK42  BANK43  BANK44  BANK45  BANK4
      +6  BANK47  BANK48  BANK49  BANK50  BANK51  BANK52  BANK53  BANK54  BANK55
  1134 ;;      Params:         0       0       0       0       0       0       0       0       0       0       0       0       
      +0       0       0       0       0       0       0       0       0       0       0       0       0       0       0       
      +0       0       0       0       0       0       0       0       0       0       0       0       0       0       0       
      +0       0       0       0       0       0       0       0       0       0
  1135 ;;      Locals:         0       0       0       0       0       0       0       0       0       0       0       0       
      +0       0       0       0       0       0       0       0       0       0       0       0       0       0       0       
      +0       0       0       0       0       0       0       0       0       0       0       0       0       0       0       
      +0       0       0       0       0       0       0       0       0       0
  1136 ;;      Temps:          0       0       0       0       0       0       0       0       0       0       0       0       
      +0       0       0       0       0       0       0       0       0       0       0       0       0       0       0       
      +0       0       0       0       0       0       0       0       0       0       0       0       0       0       0       
      +0       0       0       0       0       0       0       0       0       0
  1137 ;;      Totals:         0       0       0       0       0       0       0       0       0       0       0       0       
      +0       0       0       0       0       0       0       0       0       0       0       0       0       0       0       
      +0       0       0       0       0       0       0       0       0       0       0       0       0       0       0       
      +0       0       0       0       0       0       0       0       0       0
  1138 ;;Total ram usage:        0 bytes
  1139 ;; Hardware stack levels used: 1
  1140 ;; Hardware stack levels required when called: 8
  1141 ;; This function calls:
  1142 ;;		_CAN1_Initialize
  1143 ;;		_INTERRUPT_Initialize
  1144 ;;		_OSCILLATOR_Initialize
  1145 ;;		_PIN_MANAGER_Initialize
  1146 ;;		_PMD_Initialize
  1147 ;;		_TMR0_Initialize
  1148 ;;		_TMR1_Initialize
  1149 ;;		_UART1_Initialize
  1150 ;; This function is called by:
  1151 ;;		_main
  1152 ;; This function uses a non-reentrant model
  1153 ;;
  1154                           
  1155                           	psect	text2
  1156  005CAE                     __ptext2:
  1157                           	callstack 0
  1158  005CAE                     _SYSTEM_Initialize:
  1159                           	callstack 118
  1160  005CAE                     
  1161                           ;mcc_generated_files/mcc.c: 52:     INTERRUPT_Initialize();
  1162  005CAE  EC42  F02C         	call	_INTERRUPT_Initialize	;wreg free
  1163                           
  1164                           ;mcc_generated_files/mcc.c: 53:     PMD_Initialize();
  1165  005CB2  ECE3  F02D         	call	_PMD_Initialize	;wreg free
  1166                           
  1167                           ;mcc_generated_files/mcc.c: 54:     PIN_MANAGER_Initialize();
  1168  005CB6  EC8A  F026         	call	_PIN_MANAGER_Initialize	;wreg free
  1169                           
  1170                           ;mcc_generated_files/mcc.c: 55:     OSCILLATOR_Initialize();
  1171  005CBA  EC1F  F02E         	call	_OSCILLATOR_Initialize	;wreg free
  1172  005CBE                     
  1173                           ;mcc_generated_files/mcc.c: 56:     TMR1_Initialize();
  1174  005CBE  ECF8  F02C         	call	_TMR1_Initialize	;wreg free
  1175  005CC2                     
  1176                           ;mcc_generated_files/mcc.c: 57:     TMR0_Initialize();
  1177  005CC2  ECB9  F02D         	call	_TMR0_Initialize	;wreg free
  1178  005CC6                     
  1179                           ;mcc_generated_files/mcc.c: 58:     UART1_Initialize();
  1180  005CC6  EC14  F029         	call	_UART1_Initialize	;wreg free
  1181  005CCA                     
  1182                           ;mcc_generated_files/mcc.c: 59:     CAN1_Initialize();
  1183  005CCA  EC43  F02B         	call	_CAN1_Initialize	;wreg free
  1184  005CCE  0012               	return		;funcret
  1185  005CD0                     __end_of_SYSTEM_Initialize:
  1186                           	callstack 0
  1187                           
  1188 ;; *************** function _UART1_Initialize *****************
  1189 ;; Defined at:
  1190 ;;		line 66 in file "mcc_generated_files/uart1.c"
  1191 ;; Parameters:    Size  Location     Type
  1192 ;;		None
  1193 ;; Auto vars:     Size  Location     Type
  1194 ;;		None
  1195 ;; Return value:  Size  Location     Type
  1196 ;;                  1    wreg      void 
  1197 ;; Registers used:
  1198 ;;		wreg, status,2, status,0, cstack
  1199 ;; Tracked objects:
  1200 ;;		On entry : 0/0
  1201 ;;		On exit  : 0/0
  1202 ;;		Unchanged: 0/0
  1203 ;; Data sizes:     COMRAM   BANK5   BANK6   BANK7   BANK8   BANK9  BANK10  BANK11  BANK12  BANK13  BANK14  BANK15  BANK1
      +6  BANK17  BANK18  BANK19  BANK20  BANK21  BANK22  BANK23  BANK24  BANK25  BANK26  BANK27  BANK28  BANK29  BANK30  BANK3
      +1  BANK32  BANK33  BANK34  BANK35  BANK36  BANK37  BANK38  BANK39  BANK40  BANK41  BANK42  BANK43  BANK44  BANK45  BANK4
      +6  BANK47  BANK48  BANK49  BANK50  BANK51  BANK52  BANK53  BANK54  BANK55
  1204 ;;      Params:         0       0       0       0       0       0       0       0       0       0       0       0       
      +0       0       0       0       0       0       0       0       0       0       0       0       0       0       0       
      +0       0       0       0       0       0       0       0       0       0       0       0       0       0       0       
      +0       0       0       0       0       0       0       0       0       0
  1205 ;;      Locals:         0       0       0       0       0       0       0       0       0       0       0       0       
      +0       0       0       0       0       0       0       0       0       0       0       0       0       0       0       
      +0       0       0       0       0       0       0       0       0       0       0       0       0       0       0       
      +0       0       0       0       0       0       0       0       0       0
  1206 ;;      Temps:          0       0       0       0       0       0       0       0       0       0       0       0       
      +0       0       0       0       0       0       0       0       0       0       0       0       0       0       0       
      +0       0       0       0       0       0       0       0       0       0       0       0       0       0       0       
      +0       0       0       0       0       0       0       0       0       0
  1207 ;;      Totals:         0       0       0       0       0       0       0       0       0       0       0       0       
      +0       0       0       0       0       0       0       0       0       0       0       0       0       0       0       
      +0       0       0       0       0       0       0       0       0       0       0       0       0       0       0       
      +0       0       0       0       0       0       0       0       0       0
  1208 ;;Total ram usage:        0 bytes
  1209 ;; Hardware stack levels used: 1
  1210 ;; Hardware stack levels required when called: 6
  1211 ;; This function calls:
  1212 ;;		_UART1_SetErrorHandler
  1213 ;;		_UART1_SetFramingErrorHandler
  1214 ;;		_UART1_SetOverrunErrorHandler
  1215 ;; This function is called by:
  1216 ;;		_SYSTEM_Initialize
  1217 ;; This function uses a non-reentrant model
  1218 ;;
  1219                           
  1220                           	psect	text3
  1221  005228                     __ptext3:
  1222                           	callstack 0
  1223  005228                     _UART1_Initialize:
  1224                           	callstack 119
  1225  005228                     
  1226                           ;mcc_generated_files/uart1.c: 73:     U1P1L = 0x00;
  1227  005228  0E00               	movlw	0
  1228  00522A  0102               	movlb	2	; () banked
  1229  00522C  6FA5               	movwf	165,b	;volatile
  1230                           
  1231                           ;mcc_generated_files/uart1.c: 76:     U1P1H = 0x00;
  1232  00522E  0E00               	movlw	0
  1233  005230  6FA6               	movwf	166,b	;volatile
  1234                           
  1235                           ;mcc_generated_files/uart1.c: 79:     U1P2L = 0x00;
  1236  005232  0E00               	movlw	0
  1237  005234  6FA7               	movwf	167,b	;volatile
  1238                           
  1239                           ;mcc_generated_files/uart1.c: 82:     U1P2H = 0x00;
  1240  005236  0E00               	movlw	0
  1241  005238  6FA8               	movwf	168,b	;volatile
  1242                           
  1243                           ;mcc_generated_files/uart1.c: 85:     U1P3L = 0x00;
  1244  00523A  0E00               	movlw	0
  1245  00523C  6FA9               	movwf	169,b	;volatile
  1246                           
  1247                           ;mcc_generated_files/uart1.c: 88:     U1P3H = 0x00;
  1248  00523E  0E00               	movlw	0
  1249  005240  6FAA               	movwf	170,b	;volatile
  1250                           
  1251                           ;mcc_generated_files/uart1.c: 91:     U1CON0 = 0xB0;
  1252  005242  0EB0               	movlw	176
  1253  005244  6FAB               	movwf	171,b	;volatile
  1254                           
  1255                           ;mcc_generated_files/uart1.c: 94:     U1CON1 = 0x80;
  1256  005246  0E80               	movlw	128
  1257  005248  6FAC               	movwf	172,b	;volatile
  1258                           
  1259                           ;mcc_generated_files/uart1.c: 97:     U1CON2 = 0x00;
  1260  00524A  0E00               	movlw	0
  1261  00524C  6FAD               	movwf	173,b	;volatile
  1262                           
  1263                           ;mcc_generated_files/uart1.c: 100:     U1BRGL = 0x11;
  1264  00524E  0E11               	movlw	17
  1265  005250  6FAE               	movwf	174,b	;volatile
  1266                           
  1267                           ;mcc_generated_files/uart1.c: 103:     U1BRGH = 0x04;
  1268  005252  0E04               	movlw	4
  1269  005254  6FAF               	movwf	175,b	;volatile
  1270                           
  1271                           ;mcc_generated_files/uart1.c: 106:     U1FIFO = 0x00;
  1272  005256  0E00               	movlw	0
  1273  005258  6FB0               	movwf	176,b	;volatile
  1274                           
  1275                           ;mcc_generated_files/uart1.c: 109:     U1UIR = 0x00;
  1276  00525A  0E00               	movlw	0
  1277  00525C  6FB1               	movwf	177,b	;volatile
  1278                           
  1279                           ;mcc_generated_files/uart1.c: 112:     U1ERRIR = 0x00;
  1280  00525E  0E00               	movlw	0
  1281  005260  6FB2               	movwf	178,b	;volatile
  1282                           
  1283                           ;mcc_generated_files/uart1.c: 115:     U1ERRIE = 0x00;
  1284  005262  0E00               	movlw	0
  1285  005264  6FB3               	movwf	179,b	;volatile
  1286  005266                     
  1287                           ; BSR set to: 2
  1288                           ;mcc_generated_files/uart1.c: 118:     UART1_SetFramingErrorHandler(UART1_DefaultFraming
      +                          ErrorHandler);
  1289  005266  0EDA               	movlw	low _UART1_DefaultFramingErrorHandler
  1290  005268  6E36               	movwf	UART1_SetFramingErrorHandler@interruptHandler^(0+1280),c
  1291  00526A  0E5E               	movlw	high _UART1_DefaultFramingErrorHandler
  1292  00526C  6E37               	movwf	(UART1_SetFramingErrorHandler@interruptHandler+1)^(0+1280),c
  1293  00526E  0E00               	movlw	low (_UART1_DefaultFramingErrorHandler shr (0+16))
  1294  005270  6E38               	movwf	(UART1_SetFramingErrorHandler@interruptHandler+2)^(0+1280),c
  1295  005272  EC20  F02F         	call	_UART1_SetFramingErrorHandler	;wreg free
  1296  005276                     
  1297                           ;mcc_generated_files/uart1.c: 119:     UART1_SetOverrunErrorHandler(UART1_DefaultOverrun
      +                          ErrorHandler);
  1298  005276  0ED8               	movlw	low _UART1_DefaultOverrunErrorHandler
  1299  005278  6E36               	movwf	UART1_SetOverrunErrorHandler@interruptHandler^(0+1280),c
  1300  00527A  0E5E               	movlw	high _UART1_DefaultOverrunErrorHandler
  1301  00527C  6E37               	movwf	(UART1_SetOverrunErrorHandler@interruptHandler+1)^(0+1280),c
  1302  00527E  0E00               	movlw	low (_UART1_DefaultOverrunErrorHandler shr (0+16))
  1303  005280  6E38               	movwf	(UART1_SetOverrunErrorHandler@interruptHandler+2)^(0+1280),c
  1304  005282  EC19  F02F         	call	_UART1_SetOverrunErrorHandler	;wreg free
  1305  005286                     
  1306                           ;mcc_generated_files/uart1.c: 120:     UART1_SetErrorHandler(UART1_DefaultErrorHandler);
  1307  005286  0EDC               	movlw	low _UART1_DefaultErrorHandler
  1308  005288  6E36               	movwf	UART1_SetErrorHandler@interruptHandler^(0+1280),c
  1309  00528A  0E5E               	movlw	high _UART1_DefaultErrorHandler
  1310  00528C  6E37               	movwf	(UART1_SetErrorHandler@interruptHandler+1)^(0+1280),c
  1311  00528E  0E00               	movlw	low (_UART1_DefaultErrorHandler shr (0+16))
  1312  005290  6E38               	movwf	(UART1_SetErrorHandler@interruptHandler+2)^(0+1280),c
  1313  005292  EC27  F02F         	call	_UART1_SetErrorHandler	;wreg free
  1314  005296                     
  1315                           ;mcc_generated_files/uart1.c: 122:     uart1RxLastError.status = 0;
  1316  005296  0E00               	movlw	0
  1317  005298  6E30               	movwf	_uart1RxLastError^(0+1280),c	;volatile
  1318  00529A  0012               	return		;funcret
  1319  00529C                     __end_of_UART1_Initialize:
  1320                           	callstack 0
  1321                           
  1322 ;; *************** function _UART1_SetOverrunErrorHandler *****************
  1323 ;; Defined at:
  1324 ;;		line 194 in file "mcc_generated_files/uart1.c"
  1325 ;; Parameters:    Size  Location     Type
  1326 ;;  interruptHan    3    4[COMRAM] PTR FTN()void 
  1327 ;;		 -> UART1_DefaultOverrunErrorHandler(1), 
  1328 ;; Auto vars:     Size  Location     Type
  1329 ;;		None
  1330 ;; Return value:  Size  Location     Type
  1331 ;;                  1    wreg      void 
  1332 ;; Registers used:
  1333 ;;		wreg, status,2, status,0
  1334 ;; Tracked objects:
  1335 ;;		On entry : 0/0
  1336 ;;		On exit  : 0/0
  1337 ;;		Unchanged: 0/0
  1338 ;; Data sizes:     COMRAM   BANK5   BANK6   BANK7   BANK8   BANK9  BANK10  BANK11  BANK12  BANK13  BANK14  BANK15  BANK1
      +6  BANK17  BANK18  BANK19  BANK20  BANK21  BANK22  BANK23  BANK24  BANK25  BANK26  BANK27  BANK28  BANK29  BANK30  BANK3
      +1  BANK32  BANK33  BANK34  BANK35  BANK36  BANK37  BANK38  BANK39  BANK40  BANK41  BANK42  BANK43  BANK44  BANK45  BANK4
      +6  BANK47  BANK48  BANK49  BANK50  BANK51  BANK52  BANK53  BANK54  BANK55
  1339 ;;      Params:         3       0       0       0       0       0       0       0       0       0       0       0       
      +0       0       0       0       0       0       0       0       0       0       0       0       0       0       0       
      +0       0       0       0       0       0       0       0       0       0       0       0       0       0       0       
      +0       0       0       0       0       0       0       0       0       0
  1340 ;;      Locals:         0       0       0       0       0       0       0       0       0       0       0       0       
      +0       0       0       0       0       0       0       0       0       0       0       0       0       0       0       
      +0       0       0       0       0       0       0       0       0       0       0       0       0       0       0       
      +0       0       0       0       0       0       0       0       0       0
  1341 ;;      Temps:          0       0       0       0       0       0       0       0       0       0       0       0       
      +0       0       0       0       0       0       0       0       0       0       0       0       0       0       0       
      +0       0       0       0       0       0       0       0       0       0       0       0       0       0       0       
      +0       0       0       0       0       0       0       0       0       0
  1342 ;;      Totals:         3       0       0       0       0       0       0       0       0       0       0       0       
      +0       0       0       0       0       0       0       0       0       0       0       0       0       0       0       
      +0       0       0       0       0       0       0       0       0       0       0       0       0       0       0       
      +0       0       0       0       0       0       0       0       0       0
  1343 ;;Total ram usage:        3 bytes
  1344 ;; Hardware stack levels used: 1
  1345 ;; Hardware stack levels required when called: 5
  1346 ;; This function calls:
  1347 ;;		Nothing
  1348 ;; This function is called by:
  1349 ;;		_UART1_Initialize
  1350 ;; This function uses a non-reentrant model
  1351 ;;
  1352                           
  1353                           	psect	text4
  1354  005E32                     __ptext4:
  1355                           	callstack 0
  1356  005E32                     _UART1_SetOverrunErrorHandler:
  1357                           	callstack 119
  1358  005E32                     
  1359                           ;mcc_generated_files/uart1.c: 195:     UART1_OverrunErrorHandler = interruptHandler;
  1360  005E32  C536  F56D         	movff	UART1_SetOverrunErrorHandler@interruptHandler,_UART1_OverrunErrorHandler
  1361  005E36  C537  F56E         	movff	UART1_SetOverrunErrorHandler@interruptHandler+1,_UART1_OverrunErrorHandler+1
  1362  005E3A  C538  F56F         	movff	UART1_SetOverrunErrorHandler@interruptHandler+2,_UART1_OverrunErrorHandler+2
  1363  005E3E  0012               	return		;funcret
  1364  005E40                     __end_of_UART1_SetOverrunErrorHandler:
  1365                           	callstack 0
  1366                           
  1367 ;; *************** function _UART1_SetFramingErrorHandler *****************
  1368 ;; Defined at:
  1369 ;;		line 190 in file "mcc_generated_files/uart1.c"
  1370 ;; Parameters:    Size  Location     Type
  1371 ;;  interruptHan    3    4[COMRAM] PTR FTN()void 
  1372 ;;		 -> UART1_DefaultFramingErrorHandler(1), 
  1373 ;; Auto vars:     Size  Location     Type
  1374 ;;		None
  1375 ;; Return value:  Size  Location     Type
  1376 ;;                  1    wreg      void 
  1377 ;; Registers used:
  1378 ;;		wreg, status,2, status,0
  1379 ;; Tracked objects:
  1380 ;;		On entry : 0/0
  1381 ;;		On exit  : 0/0
  1382 ;;		Unchanged: 0/0
  1383 ;; Data sizes:     COMRAM   BANK5   BANK6   BANK7   BANK8   BANK9  BANK10  BANK11  BANK12  BANK13  BANK14  BANK15  BANK1
      +6  BANK17  BANK18  BANK19  BANK20  BANK21  BANK22  BANK23  BANK24  BANK25  BANK26  BANK27  BANK28  BANK29  BANK30  BANK3
      +1  BANK32  BANK33  BANK34  BANK35  BANK36  BANK37  BANK38  BANK39  BANK40  BANK41  BANK42  BANK43  BANK44  BANK45  BANK4
      +6  BANK47  BANK48  BANK49  BANK50  BANK51  BANK52  BANK53  BANK54  BANK55
  1384 ;;      Params:         3       0       0       0       0       0       0       0       0       0       0       0       
      +0       0       0       0       0       0       0       0       0       0       0       0       0       0       0       
      +0       0       0       0       0       0       0       0       0       0       0       0       0       0       0       
      +0       0       0       0       0       0       0       0       0       0
  1385 ;;      Locals:         0       0       0       0       0       0       0       0       0       0       0       0       
      +0       0       0       0       0       0       0       0       0       0       0       0       0       0       0       
      +0       0       0       0       0       0       0       0       0       0       0       0       0       0       0       
      +0       0       0       0       0       0       0       0       0       0
  1386 ;;      Temps:          0       0       0       0       0       0       0       0       0       0       0       0       
      +0       0       0       0       0       0       0       0       0       0       0       0       0       0       0       
      +0       0       0       0       0       0       0       0       0       0       0       0       0       0       0       
      +0       0       0       0       0       0       0       0       0       0
  1387 ;;      Totals:         3       0       0       0       0       0       0       0       0       0       0       0       
      +0       0       0       0       0       0       0       0       0       0       0       0       0       0       0       
      +0       0       0       0       0       0       0       0       0       0       0       0       0       0       0       
      +0       0       0       0       0       0       0       0       0       0
  1388 ;;Total ram usage:        3 bytes
  1389 ;; Hardware stack levels used: 1
  1390 ;; Hardware stack levels required when called: 5
  1391 ;; This function calls:
  1392 ;;		Nothing
  1393 ;; This function is called by:
  1394 ;;		_UART1_Initialize
  1395 ;; This function uses a non-reentrant model
  1396 ;;
  1397                           
  1398                           	psect	text5
  1399  005E40                     __ptext5:
  1400                           	callstack 0
  1401  005E40                     _UART1_SetFramingErrorHandler:
  1402                           	callstack 119
  1403  005E40                     
  1404                           ;mcc_generated_files/uart1.c: 191:     UART1_FramingErrorHandler = interruptHandler;
  1405  005E40  C536  F570         	movff	UART1_SetFramingErrorHandler@interruptHandler,_UART1_FramingErrorHandler
  1406  005E44  C537  F571         	movff	UART1_SetFramingErrorHandler@interruptHandler+1,_UART1_FramingErrorHandler+1
  1407  005E48  C538  F572         	movff	UART1_SetFramingErrorHandler@interruptHandler+2,_UART1_FramingErrorHandler+2
  1408  005E4C  0012               	return		;funcret
  1409  005E4E                     __end_of_UART1_SetFramingErrorHandler:
  1410                           	callstack 0
  1411                           
  1412 ;; *************** function _UART1_SetErrorHandler *****************
  1413 ;; Defined at:
  1414 ;;		line 198 in file "mcc_generated_files/uart1.c"
  1415 ;; Parameters:    Size  Location     Type
  1416 ;;  interruptHan    3    4[COMRAM] PTR FTN()void 
  1417 ;;		 -> UART1_DefaultErrorHandler(1), 
  1418 ;; Auto vars:     Size  Location     Type
  1419 ;;		None
  1420 ;; Return value:  Size  Location     Type
  1421 ;;                  1    wreg      void 
  1422 ;; Registers used:
  1423 ;;		wreg, status,2, status,0
  1424 ;; Tracked objects:
  1425 ;;		On entry : 0/0
  1426 ;;		On exit  : 0/0
  1427 ;;		Unchanged: 0/0
  1428 ;; Data sizes:     COMRAM   BANK5   BANK6   BANK7   BANK8   BANK9  BANK10  BANK11  BANK12  BANK13  BANK14  BANK15  BANK1
      +6  BANK17  BANK18  BANK19  BANK20  BANK21  BANK22  BANK23  BANK24  BANK25  BANK26  BANK27  BANK28  BANK29  BANK30  BANK3
      +1  BANK32  BANK33  BANK34  BANK35  BANK36  BANK37  BANK38  BANK39  BANK40  BANK41  BANK42  BANK43  BANK44  BANK45  BANK4
      +6  BANK47  BANK48  BANK49  BANK50  BANK51  BANK52  BANK53  BANK54  BANK55
  1429 ;;      Params:         3       0       0       0       0       0       0       0       0       0       0       0       
      +0       0       0       0       0       0       0       0       0       0       0       0       0       0       0       
      +0       0       0       0       0       0       0       0       0       0       0       0       0       0       0       
      +0       0       0       0       0       0       0       0       0       0
  1430 ;;      Locals:         0       0       0       0       0       0       0       0       0       0       0       0       
      +0       0       0       0       0       0       0       0       0       0       0       0       0       0       0       
      +0       0       0       0       0       0       0       0       0       0       0       0       0       0       0       
      +0       0       0       0       0       0       0       0       0       0
  1431 ;;      Temps:          0       0       0       0       0       0       0       0       0       0       0       0       
      +0       0       0       0       0       0       0       0       0       0       0       0       0       0       0       
      +0       0       0       0       0       0       0       0       0       0       0       0       0       0       0       
      +0       0       0       0       0       0       0       0       0       0
  1432 ;;      Totals:         3       0       0       0       0       0       0       0       0       0       0       0       
      +0       0       0       0       0       0       0       0       0       0       0       0       0       0       0       
      +0       0       0       0       0       0       0       0       0       0       0       0       0       0       0       
      +0       0       0       0       0       0       0       0       0       0
  1433 ;;Total ram usage:        3 bytes
  1434 ;; Hardware stack levels used: 1
  1435 ;; Hardware stack levels required when called: 5
  1436 ;; This function calls:
  1437 ;;		Nothing
  1438 ;; This function is called by:
  1439 ;;		_UART1_Initialize
  1440 ;; This function uses a non-reentrant model
  1441 ;;
  1442                           
  1443                           	psect	text6
  1444  005E4E                     __ptext6:
  1445                           	callstack 0
  1446  005E4E                     _UART1_SetErrorHandler:
  1447                           	callstack 119
  1448  005E4E                     
  1449                           ;mcc_generated_files/uart1.c: 199:     UART1_ErrorHandler = interruptHandler;
  1450  005E4E  C536  F56A         	movff	UART1_SetErrorHandler@interruptHandler,_UART1_ErrorHandler
  1451  005E52  C537  F56B         	movff	UART1_SetErrorHandler@interruptHandler+1,_UART1_ErrorHandler+1
  1452  005E56  C538  F56C         	movff	UART1_SetErrorHandler@interruptHandler+2,_UART1_ErrorHandler+2
  1453  005E5A  0012               	return		;funcret
  1454  005E5C                     __end_of_UART1_SetErrorHandler:
  1455                           	callstack 0
  1456                           
  1457 ;; *************** function _TMR1_Initialize *****************
  1458 ;; Defined at:
  1459 ;;		line 63 in file "mcc_generated_files/tmr1.c"
  1460 ;; Parameters:    Size  Location     Type
  1461 ;;		None
  1462 ;; Auto vars:     Size  Location     Type
  1463 ;;		None
  1464 ;; Return value:  Size  Location     Type
  1465 ;;                  1    wreg      void 
  1466 ;; Registers used:
  1467 ;;		wreg, status,2, status,0
  1468 ;; Tracked objects:
  1469 ;;		On entry : 0/0
  1470 ;;		On exit  : 0/0
  1471 ;;		Unchanged: 0/0
  1472 ;; Data sizes:     COMRAM   BANK5   BANK6   BANK7   BANK8   BANK9  BANK10  BANK11  BANK12  BANK13  BANK14  BANK15  BANK1
      +6  BANK17  BANK18  BANK19  BANK20  BANK21  BANK22  BANK23  BANK24  BANK25  BANK26  BANK27  BANK28  BANK29  BANK30  BANK3
      +1  BANK32  BANK33  BANK34  BANK35  BANK36  BANK37  BANK38  BANK39  BANK40  BANK41  BANK42  BANK43  BANK44  BANK45  BANK4
      +6  BANK47  BANK48  BANK49  BANK50  BANK51  BANK52  BANK53  BANK54  BANK55
  1473 ;;      Params:         0       0       0       0       0       0       0       0       0       0       0       0       
      +0       0       0       0       0       0       0       0       0       0       0       0       0       0       0       
      +0       0       0       0       0       0       0       0       0       0       0       0       0       0       0       
      +0       0       0       0       0       0       0       0       0       0
  1474 ;;      Locals:         0       0       0       0       0       0       0       0       0       0       0       0       
      +0       0       0       0       0       0       0       0       0       0       0       0       0       0       0       
      +0       0       0       0       0       0       0       0       0       0       0       0       0       0       0       
      +0       0       0       0       0       0       0       0       0       0
  1475 ;;      Temps:          2       0       0       0       0       0       0       0       0       0       0       0       
      +0       0       0       0       0       0       0       0       0       0       0       0       0       0       0       
      +0       0       0       0       0       0       0       0       0       0       0       0       0       0       0       
      +0       0       0       0       0       0       0       0       0       0
  1476 ;;      Totals:         2       0       0       0       0       0       0       0       0       0       0       0       
      +0       0       0       0       0       0       0       0       0       0       0       0       0       0       0       
      +0       0       0       0       0       0       0       0       0       0       0       0       0       0       0       
      +0       0       0       0       0       0       0       0       0       0
  1477 ;;Total ram usage:        2 bytes
  1478 ;; Hardware stack levels used: 1
  1479 ;; Hardware stack levels required when called: 5
  1480 ;; This function calls:
  1481 ;;		Nothing
  1482 ;; This function is called by:
  1483 ;;		_SYSTEM_Initialize
  1484 ;; This function uses a non-reentrant model
  1485 ;;
  1486                           
  1487                           	psect	text7
  1488  0059F0                     __ptext7:
  1489                           	callstack 0
  1490  0059F0                     _TMR1_Initialize:
  1491                           	callstack 120
  1492  0059F0                     
  1493                           ;mcc_generated_files/tmr1.c: 68:     T1GCON = 0x00;
  1494  0059F0  0E00               	movlw	0
  1495  0059F2  0103               	movlb	3	; () banked
  1496  0059F4  6F1F               	movwf	31,b	;volatile
  1497                           
  1498                           ;mcc_generated_files/tmr1.c: 71:     T1GATE = 0x00;
  1499  0059F6  0E00               	movlw	0
  1500  0059F8  6F20               	movwf	32,b	;volatile
  1501                           
  1502                           ;mcc_generated_files/tmr1.c: 74:     T1CLK = 0x01;
  1503  0059FA  0E01               	movlw	1
  1504  0059FC  6F21               	movwf	33,b	;volatile
  1505                           
  1506                           ;mcc_generated_files/tmr1.c: 77:     TMR1H = 0xFB;
  1507  0059FE  0EFB               	movlw	251
  1508  005A00  6F1D               	movwf	29,b	;volatile
  1509                           
  1510                           ;mcc_generated_files/tmr1.c: 80:     TMR1L = 0x1E;
  1511  005A02  0E1E               	movlw	30
  1512  005A04  6F1C               	movwf	28,b	;volatile
  1513  005A06                     
  1514                           ; BSR set to: 3
  1515                           ;mcc_generated_files/tmr1.c: 83:     PIR3bits.TMR1IF = 0;
  1516  005A06  98B1               	bcf	177,4,c	;volatile
  1517  005A08                     
  1518                           ; BSR set to: 3
  1519                           ;mcc_generated_files/tmr1.c: 86:     timer1ReloadVal=(uint16_t)((TMR1H << 8) | TMR1L);
  1520  005A08  511C               	movf	28,w,b	;volatile
  1521  005A0A  0060 FC74  F536    	movff	797,??_TMR1_Initialize	;volatile
  1522  005A10  6A37               	clrf	(??_TMR1_Initialize+1)^(0+1280),c
  1523  005A12  C536  F537         	movff	??_TMR1_Initialize,??_TMR1_Initialize+1
  1524  005A16  6A36               	clrf	??_TMR1_Initialize^(0+1280),c
  1525  005A18  1036               	iorwf	??_TMR1_Initialize^(0+1280),w,c
  1526  005A1A  6E2C               	movwf	_timer1ReloadVal^(0+1280),c	;volatile
  1527  005A1C  5037               	movf	(??_TMR1_Initialize+1)^(0+1280),w,c
  1528  005A1E  6E2D               	movwf	(_timer1ReloadVal+1)^(0+1280),c	;volatile
  1529  005A20                     
  1530                           ; BSR set to: 3
  1531                           ;mcc_generated_files/tmr1.c: 89:     T1CON = 0x34;
  1532  005A20  0E34               	movlw	52
  1533  005A22  6F1E               	movwf	30,b	;volatile
  1534  005A24                     
  1535                           ; BSR set to: 3
  1536  005A24  0012               	return		;funcret
  1537  005A26                     __end_of_TMR1_Initialize:
  1538                           	callstack 0
  1539                           
  1540 ;; *************** function _TMR0_Initialize *****************
  1541 ;; Defined at:
  1542 ;;		line 62 in file "mcc_generated_files/tmr0.c"
  1543 ;; Parameters:    Size  Location     Type
  1544 ;;		None
  1545 ;; Auto vars:     Size  Location     Type
  1546 ;;		None
  1547 ;; Return value:  Size  Location     Type
  1548 ;;                  1    wreg      void 
  1549 ;; Registers used:
  1550 ;;		wreg, status,2, status,0, cstack
  1551 ;; Tracked objects:
  1552 ;;		On entry : 0/0
  1553 ;;		On exit  : 0/0
  1554 ;;		Unchanged: 0/0
  1555 ;; Data sizes:     COMRAM   BANK5   BANK6   BANK7   BANK8   BANK9  BANK10  BANK11  BANK12  BANK13  BANK14  BANK15  BANK1
      +6  BANK17  BANK18  BANK19  BANK20  BANK21  BANK22  BANK23  BANK24  BANK25  BANK26  BANK27  BANK28  BANK29  BANK30  BANK3
      +1  BANK32  BANK33  BANK34  BANK35  BANK36  BANK37  BANK38  BANK39  BANK40  BANK41  BANK42  BANK43  BANK44  BANK45  BANK4
      +6  BANK47  BANK48  BANK49  BANK50  BANK51  BANK52  BANK53  BANK54  BANK55
  1556 ;;      Params:         0       0       0       0       0       0       0       0       0       0       0       0       
      +0       0       0       0       0       0       0       0       0       0       0       0       0       0       0       
      +0       0       0       0       0       0       0       0       0       0       0       0       0       0       0       
      +0       0       0       0       0       0       0       0       0       0
  1557 ;;      Locals:         0       0       0       0       0       0       0       0       0       0       0       0       
      +0       0       0       0       0       0       0       0       0       0       0       0       0       0       0       
      +0       0       0       0       0       0       0       0       0       0       0       0       0       0       0       
      +0       0       0       0       0       0       0       0       0       0
  1558 ;;      Temps:          0       0       0       0       0       0       0       0       0       0       0       0       
      +0       0       0       0       0       0       0       0       0       0       0       0       0       0       0       
      +0       0       0       0       0       0       0       0       0       0       0       0       0       0       0       
      +0       0       0       0       0       0       0       0       0       0
  1559 ;;      Totals:         0       0       0       0       0       0       0       0       0       0       0       0       
      +0       0       0       0       0       0       0       0       0       0       0       0       0       0       0       
      +0       0       0       0       0       0       0       0       0       0       0       0       0       0       0       
      +0       0       0       0       0       0       0       0       0       0
  1560 ;;Total ram usage:        0 bytes
  1561 ;; Hardware stack levels used: 1
  1562 ;; Hardware stack levels required when called: 6
  1563 ;; This function calls:
  1564 ;;		_TMR0_SetInterruptHandler
  1565 ;; This function is called by:
  1566 ;;		_SYSTEM_Initialize
  1567 ;; This function uses a non-reentrant model
  1568 ;;
  1569                           
  1570                           	psect	text8
  1571  005B72                     __ptext8:
  1572                           	callstack 0
  1573  005B72                     _TMR0_Initialize:
  1574                           	callstack 119
  1575  005B72                     
  1576                           ;mcc_generated_files/tmr0.c: 67:     T0CON1 = 0x43;
  1577  005B72  0E43               	movlw	67
  1578  005B74  0103               	movlb	3	; () banked
  1579  005B76  6F1B               	movwf	27,b	;volatile
  1580                           
  1581                           ;mcc_generated_files/tmr0.c: 70:     TMR0H = 0x7C;
  1582  005B78  0E7C               	movlw	124
  1583  005B7A  6F19               	movwf	25,b	;volatile
  1584                           
  1585                           ;mcc_generated_files/tmr0.c: 73:     TMR0L = 0x00;
  1586  005B7C  0E00               	movlw	0
  1587  005B7E  6F18               	movwf	24,b	;volatile
  1588  005B80                     
  1589                           ; BSR set to: 3
  1590                           ;mcc_generated_files/tmr0.c: 76:     PIR3bits.TMR0IF = 0;
  1591  005B80  9EB1               	bcf	177,7,c	;volatile
  1592  005B82                     
  1593                           ; BSR set to: 3
  1594                           ;mcc_generated_files/tmr0.c: 79:     PIE3bits.TMR0IE = 1;
  1595  005B82  8EA1               	bsf	161,7,c	;volatile
  1596  005B84                     
  1597                           ; BSR set to: 3
  1598                           ;mcc_generated_files/tmr0.c: 82:     TMR0_SetInterruptHandler(TMR0_DefaultInterruptHandl
      +                          er);
  1599  005B84  0ED6               	movlw	low _TMR0_DefaultInterruptHandler
  1600  005B86  6E36               	movwf	TMR0_SetInterruptHandler@InterruptHandler^(0+1280),c
  1601  005B88  0E5E               	movlw	high _TMR0_DefaultInterruptHandler
  1602  005B8A  6E37               	movwf	(TMR0_SetInterruptHandler@InterruptHandler+1)^(0+1280),c
  1603  005B8C  0E00               	movlw	low (_TMR0_DefaultInterruptHandler shr (0+16))
  1604  005B8E  6E38               	movwf	(TMR0_SetInterruptHandler@InterruptHandler+2)^(0+1280),c
  1605  005B90  EC2E  F02F         	call	_TMR0_SetInterruptHandler	;wreg free
  1606  005B94                     
  1607                           ;mcc_generated_files/tmr0.c: 85:     T0CON0 = 0x00;
  1608  005B94  0E00               	movlw	0
  1609  005B96  0103               	movlb	3	; () banked
  1610  005B98  6F1A               	movwf	26,b	;volatile
  1611  005B9A                     
  1612                           ; BSR set to: 3
  1613  005B9A  0012               	return		;funcret
  1614  005B9C                     __end_of_TMR0_Initialize:
  1615                           	callstack 0
  1616                           
  1617 ;; *************** function _TMR0_SetInterruptHandler *****************
  1618 ;; Defined at:
  1619 ;;		line 135 in file "mcc_generated_files/tmr0.c"
  1620 ;; Parameters:    Size  Location     Type
  1621 ;;  InterruptHan    3    4[COMRAM] PTR FTN()void 
  1622 ;;		 -> TMR0_UserInterruptHandler(1), TMR0_DefaultInterruptHandler(1), 
  1623 ;; Auto vars:     Size  Location     Type
  1624 ;;		None
  1625 ;; Return value:  Size  Location     Type
  1626 ;;                  1    wreg      void 
  1627 ;; Registers used:
  1628 ;;		wreg, status,2, status,0
  1629 ;; Tracked objects:
  1630 ;;		On entry : 0/0
  1631 ;;		On exit  : 0/0
  1632 ;;		Unchanged: 0/0
  1633 ;; Data sizes:     COMRAM   BANK5   BANK6   BANK7   BANK8   BANK9  BANK10  BANK11  BANK12  BANK13  BANK14  BANK15  BANK1
      +6  BANK17  BANK18  BANK19  BANK20  BANK21  BANK22  BANK23  BANK24  BANK25  BANK26  BANK27  BANK28  BANK29  BANK30  BANK3
      +1  BANK32  BANK33  BANK34  BANK35  BANK36  BANK37  BANK38  BANK39  BANK40  BANK41  BANK42  BANK43  BANK44  BANK45  BANK4
      +6  BANK47  BANK48  BANK49  BANK50  BANK51  BANK52  BANK53  BANK54  BANK55
  1634 ;;      Params:         3       0       0       0       0       0       0       0       0       0       0       0       
      +0       0       0       0       0       0       0       0       0       0       0       0       0       0       0       
      +0       0       0       0       0       0       0       0       0       0       0       0       0       0       0       
      +0       0       0       0       0       0       0       0       0       0
  1635 ;;      Locals:         0       0       0       0       0       0       0       0       0       0       0       0       
      +0       0       0       0       0       0       0       0       0       0       0       0       0       0       0       
      +0       0       0       0       0       0       0       0       0       0       0       0       0       0       0       
      +0       0       0       0       0       0       0       0       0       0
  1636 ;;      Temps:          0       0       0       0       0       0       0       0       0       0       0       0       
      +0       0       0       0       0       0       0       0       0       0       0       0       0       0       0       
      +0       0       0       0       0       0       0       0       0       0       0       0       0       0       0       
      +0       0       0       0       0       0       0       0       0       0
  1637 ;;      Totals:         3       0       0       0       0       0       0       0       0       0       0       0       
      +0       0       0       0       0       0       0       0       0       0       0       0       0       0       0       
      +0       0       0       0       0       0       0       0       0       0       0       0       0       0       0       
      +0       0       0       0       0       0       0       0       0       0
  1638 ;;Total ram usage:        3 bytes
  1639 ;; Hardware stack levels used: 1
  1640 ;; Hardware stack levels required when called: 5
  1641 ;; This function calls:
  1642 ;;		Nothing
  1643 ;; This function is called by:
  1644 ;;		_TMR0_Initialize
  1645 ;;		_main
  1646 ;; This function uses a non-reentrant model
  1647 ;;
  1648                           
  1649                           	psect	text9
  1650  005E5C                     __ptext9:
  1651                           	callstack 0
  1652  005E5C                     _TMR0_SetInterruptHandler:
  1653                           	callstack 121
  1654  005E5C                     
  1655                           ;mcc_generated_files/tmr0.c: 136:     TMR0_InterruptHandler = InterruptHandler;
  1656  005E5C  C536  F567         	movff	TMR0_SetInterruptHandler@InterruptHandler,_TMR0_InterruptHandler
  1657  005E60  C537  F568         	movff	TMR0_SetInterruptHandler@InterruptHandler+1,_TMR0_InterruptHandler+1
  1658  005E64  C538  F569         	movff	TMR0_SetInterruptHandler@InterruptHandler+2,_TMR0_InterruptHandler+2
  1659  005E68  0012               	return		;funcret
  1660  005E6A                     __end_of_TMR0_SetInterruptHandler:
  1661                           	callstack 0
  1662                           
  1663 ;; *************** function _PMD_Initialize *****************
  1664 ;; Defined at:
  1665 ;;		line 80 in file "mcc_generated_files/mcc.c"
  1666 ;; Parameters:    Size  Location     Type
  1667 ;;		None
  1668 ;; Auto vars:     Size  Location     Type
  1669 ;;		None
  1670 ;; Return value:  Size  Location     Type
  1671 ;;                  1    wreg      void 
  1672 ;; Registers used:
  1673 ;;		wreg, status,2
  1674 ;; Tracked objects:
  1675 ;;		On entry : 0/0
  1676 ;;		On exit  : 0/0
  1677 ;;		Unchanged: 0/0
  1678 ;; Data sizes:     COMRAM   BANK5   BANK6   BANK7   BANK8   BANK9  BANK10  BANK11  BANK12  BANK13  BANK14  BANK15  BANK1
      +6  BANK17  BANK18  BANK19  BANK20  BANK21  BANK22  BANK23  BANK24  BANK25  BANK26  BANK27  BANK28  BANK29  BANK30  BANK3
      +1  BANK32  BANK33  BANK34  BANK35  BANK36  BANK37  BANK38  BANK39  BANK40  BANK41  BANK42  BANK43  BANK44  BANK45  BANK4
      +6  BANK47  BANK48  BANK49  BANK50  BANK51  BANK52  BANK53  BANK54  BANK55
  1679 ;;      Params:         0       0       0       0       0       0       0       0       0       0       0       0       
      +0       0       0       0       0       0       0       0       0       0       0       0       0       0       0       
      +0       0       0       0       0       0       0       0       0       0       0       0       0       0       0       
      +0       0       0       0       0       0       0       0       0       0
  1680 ;;      Locals:         0       0       0       0       0       0       0       0       0       0       0       0       
      +0       0       0       0       0       0       0       0       0       0       0       0       0       0       0       
      +0       0       0       0       0       0       0       0       0       0       0       0       0       0       0       
      +0       0       0       0       0       0       0       0       0       0
  1681 ;;      Temps:          0       0       0       0       0       0       0       0       0       0       0       0       
      +0       0       0       0       0       0       0       0       0       0       0       0       0       0       0       
      +0       0       0       0       0       0       0       0       0       0       0       0       0       0       0       
      +0       0       0       0       0       0       0       0       0       0
  1682 ;;      Totals:         0       0       0       0       0       0       0       0       0       0       0       0       
      +0       0       0       0       0       0       0       0       0       0       0       0       0       0       0       
      +0       0       0       0       0       0       0       0       0       0       0       0       0       0       0       
      +0       0       0       0       0       0       0       0       0       0
  1683 ;;Total ram usage:        0 bytes
  1684 ;; Hardware stack levels used: 1
  1685 ;; Hardware stack levels required when called: 5
  1686 ;; This function calls:
  1687 ;;		Nothing
  1688 ;; This function is called by:
  1689 ;;		_SYSTEM_Initialize
  1690 ;; This function uses a non-reentrant model
  1691 ;;
  1692                           
  1693                           	psect	text10
  1694  005BC6                     __ptext10:
  1695                           	callstack 0
  1696  005BC6                     _PMD_Initialize:
  1697                           	callstack 120
  1698  005BC6                     
  1699                           ;mcc_generated_files/mcc.c: 83:     PMD0 = 0x00;
  1700  005BC6  0E00               	movlw	0
  1701  005BC8  0100               	movlb	0	; () banked
  1702  005BCA  6F60               	movwf	96,b	;volatile
  1703                           
  1704                           ;mcc_generated_files/mcc.c: 85:     PMD1 = 0x00;
  1705  005BCC  0E00               	movlw	0
  1706  005BCE  6F61               	movwf	97,b	;volatile
  1707                           
  1708                           ;mcc_generated_files/mcc.c: 87:     PMD2 = 0x00;
  1709  005BD0  0E00               	movlw	0
  1710  005BD2  6F62               	movwf	98,b	;volatile
  1711                           
  1712                           ;mcc_generated_files/mcc.c: 89:     PMD3 = 0x00;
  1713  005BD4  0E00               	movlw	0
  1714  005BD6  6F63               	movwf	99,b	;volatile
  1715                           
  1716                           ;mcc_generated_files/mcc.c: 91:     PMD4 = 0x00;
  1717  005BD8  0E00               	movlw	0
  1718  005BDA  6F64               	movwf	100,b	;volatile
  1719                           
  1720                           ;mcc_generated_files/mcc.c: 93:     PMD5 = 0x00;
  1721  005BDC  0E00               	movlw	0
  1722  005BDE  6F65               	movwf	101,b	;volatile
  1723                           
  1724                           ;mcc_generated_files/mcc.c: 95:     PMD6 = 0x00;
  1725  005BE0  0E00               	movlw	0
  1726  005BE2  6F66               	movwf	102,b	;volatile
  1727                           
  1728                           ;mcc_generated_files/mcc.c: 97:     PMD7 = 0x00;
  1729  005BE4  0E00               	movlw	0
  1730  005BE6  6F67               	movwf	103,b	;volatile
  1731                           
  1732                           ;mcc_generated_files/mcc.c: 99:     PMD8 = 0x00;
  1733  005BE8  0E00               	movlw	0
  1734  005BEA  6F68               	movwf	104,b	;volatile
  1735  005BEC                     
  1736                           ; BSR set to: 0
  1737  005BEC  0012               	return		;funcret
  1738  005BEE                     __end_of_PMD_Initialize:
  1739                           	callstack 0
  1740                           
  1741 ;; *************** function _PIN_MANAGER_Initialize *****************
  1742 ;; Defined at:
  1743 ;;		line 55 in file "mcc_generated_files/pin_manager.c"
  1744 ;; Parameters:    Size  Location     Type
  1745 ;;		None
  1746 ;; Auto vars:     Size  Location     Type
  1747 ;;		None
  1748 ;; Return value:  Size  Location     Type
  1749 ;;                  1    wreg      void 
  1750 ;; Registers used:
  1751 ;;		wreg, status,2
  1752 ;; Tracked objects:
  1753 ;;		On entry : 0/0
  1754 ;;		On exit  : 0/0
  1755 ;;		Unchanged: 0/0
  1756 ;; Data sizes:     COMRAM   BANK5   BANK6   BANK7   BANK8   BANK9  BANK10  BANK11  BANK12  BANK13  BANK14  BANK15  BANK1
      +6  BANK17  BANK18  BANK19  BANK20  BANK21  BANK22  BANK23  BANK24  BANK25  BANK26  BANK27  BANK28  BANK29  BANK30  BANK3
      +1  BANK32  BANK33  BANK34  BANK35  BANK36  BANK37  BANK38  BANK39  BANK40  BANK41  BANK42  BANK43  BANK44  BANK45  BANK4
      +6  BANK47  BANK48  BANK49  BANK50  BANK51  BANK52  BANK53  BANK54  BANK55
  1757 ;;      Params:         0       0       0       0       0       0       0       0       0       0       0       0       
      +0       0       0       0       0       0       0       0       0       0       0       0       0       0       0       
      +0       0       0       0       0       0       0       0       0       0       0       0       0       0       0       
      +0       0       0       0       0       0       0       0       0       0
  1758 ;;      Locals:         0       0       0       0       0       0       0       0       0       0       0       0       
      +0       0       0       0       0       0       0       0       0       0       0       0       0       0       0       
      +0       0       0       0       0       0       0       0       0       0       0       0       0       0       0       
      +0       0       0       0       0       0       0       0       0       0
  1759 ;;      Temps:          0       0       0       0       0       0       0       0       0       0       0       0       
      +0       0       0       0       0       0       0       0       0       0       0       0       0       0       0       
      +0       0       0       0       0       0       0       0       0       0       0       0       0       0       0       
      +0       0       0       0       0       0       0       0       0       0
  1760 ;;      Totals:         0       0       0       0       0       0       0       0       0       0       0       0       
      +0       0       0       0       0       0       0       0       0       0       0       0       0       0       0       
      +0       0       0       0       0       0       0       0       0       0       0       0       0       0       0       
      +0       0       0       0       0       0       0       0       0       0
  1761 ;;Total ram usage:        0 bytes
  1762 ;; Hardware stack levels used: 1
  1763 ;; Hardware stack levels required when called: 5
  1764 ;; This function calls:
  1765 ;;		Nothing
  1766 ;; This function is called by:
  1767 ;;		_SYSTEM_Initialize
  1768 ;; This function uses a non-reentrant model
  1769 ;;
  1770                           
  1771                           	psect	text11
  1772  004D14                     __ptext11:
  1773                           	callstack 0
  1774  004D14                     _PIN_MANAGER_Initialize:
  1775                           	callstack 120
  1776  004D14                     
  1777                           ;mcc_generated_files/pin_manager.c: 60:     LATE = 0x00;
  1778  004D14  0E00               	movlw	0
  1779  004D16  6EC2               	movwf	194,c	;volatile
  1780                           
  1781                           ;mcc_generated_files/pin_manager.c: 61:     LATD = 0x00;
  1782  004D18  0E00               	movlw	0
  1783  004D1A  6EC1               	movwf	193,c	;volatile
  1784                           
  1785                           ;mcc_generated_files/pin_manager.c: 62:     LATA = 0x00;
  1786  004D1C  0E00               	movlw	0
  1787  004D1E  6EBE               	movwf	190,c	;volatile
  1788                           
  1789                           ;mcc_generated_files/pin_manager.c: 63:     LATF = 0x00;
  1790  004D20  0E00               	movlw	0
  1791  004D22  6EC3               	movwf	195,c	;volatile
  1792                           
  1793                           ;mcc_generated_files/pin_manager.c: 64:     LATB = 0x00;
  1794  004D24  0E00               	movlw	0
  1795  004D26  6EBF               	movwf	191,c	;volatile
  1796                           
  1797                           ;mcc_generated_files/pin_manager.c: 65:     LATC = 0x00;
  1798  004D28  0E00               	movlw	0
  1799  004D2A  6EC0               	movwf	192,c	;volatile
  1800                           
  1801                           ;mcc_generated_files/pin_manager.c: 70:     TRISE = 0x07;
  1802  004D2C  0E07               	movlw	7
  1803  004D2E  6ECA               	movwf	202,c	;volatile
  1804                           
  1805                           ;mcc_generated_files/pin_manager.c: 71:     TRISF = 0xF6;
  1806  004D30  0EF6               	movlw	246
  1807  004D32  6ECB               	movwf	203,c	;volatile
  1808  004D34                     
  1809                           ;mcc_generated_files/pin_manager.c: 72:     TRISA = 0xFF;
  1810  004D34  68C6               	setf	198,c	;volatile
  1811  004D36                     
  1812                           ;mcc_generated_files/pin_manager.c: 73:     TRISB = 0xFF;
  1813  004D36  68C7               	setf	199,c	;volatile
  1814  004D38                     
  1815                           ;mcc_generated_files/pin_manager.c: 74:     TRISC = 0xFF;
  1816  004D38  68C8               	setf	200,c	;volatile
  1817                           
  1818                           ;mcc_generated_files/pin_manager.c: 75:     TRISD = 0xFE;
  1819  004D3A  0EFE               	movlw	254
  1820  004D3C  6EC9               	movwf	201,c	;volatile
  1821                           
  1822                           ;mcc_generated_files/pin_manager.c: 80:     ANSELD = 0xFC;
  1823  004D3E  0EFC               	movlw	252
  1824  004D40  0104               	movlb	4	; () banked
  1825  004D42  6F18               	movwf	24,b	;volatile
  1826  004D44                     
  1827                           ; BSR set to: 4
  1828                           ;mcc_generated_files/pin_manager.c: 81:     ANSELC = 0xFF;
  1829  004D44  6910               	setf	16,b	;volatile
  1830  004D46                     
  1831                           ; BSR set to: 4
  1832                           ;mcc_generated_files/pin_manager.c: 82:     ANSELB = 0xFF;
  1833  004D46  6908               	setf	8,b	;volatile
  1834                           
  1835                           ;mcc_generated_files/pin_manager.c: 83:     ANSELE = 0x07;
  1836  004D48  0E07               	movlw	7
  1837  004D4A  6F20               	movwf	32,b	;volatile
  1838                           
  1839                           ;mcc_generated_files/pin_manager.c: 84:     ANSELF = 0xF4;
  1840  004D4C  0EF4               	movlw	244
  1841  004D4E  6F28               	movwf	40,b	;volatile
  1842  004D50                     
  1843                           ; BSR set to: 4
  1844                           ;mcc_generated_files/pin_manager.c: 85:     ANSELA = 0xFF;
  1845  004D50  6900               	setf	0,b	;volatile
  1846                           
  1847                           ;mcc_generated_files/pin_manager.c: 90:     WPUD = 0x00;
  1848  004D52  0E00               	movlw	0
  1849  004D54  6F19               	movwf	25,b	;volatile
  1850                           
  1851                           ;mcc_generated_files/pin_manager.c: 91:     WPUF = 0x00;
  1852  004D56  0E00               	movlw	0
  1853  004D58  6F29               	movwf	41,b	;volatile
  1854                           
  1855                           ;mcc_generated_files/pin_manager.c: 92:     WPUE = 0x00;
  1856  004D5A  0E00               	movlw	0
  1857  004D5C  6F21               	movwf	33,b	;volatile
  1858                           
  1859                           ;mcc_generated_files/pin_manager.c: 93:     WPUB = 0x00;
  1860  004D5E  0E00               	movlw	0
  1861  004D60  6F09               	movwf	9,b	;volatile
  1862                           
  1863                           ;mcc_generated_files/pin_manager.c: 94:     WPUA = 0x00;
  1864  004D62  0E00               	movlw	0
  1865  004D64  6F01               	movwf	1,b	;volatile
  1866                           
  1867                           ;mcc_generated_files/pin_manager.c: 95:     WPUC = 0x00;
  1868  004D66  0E00               	movlw	0
  1869  004D68  6F11               	movwf	17,b	;volatile
  1870                           
  1871                           ;mcc_generated_files/pin_manager.c: 100:     ODCONE = 0x00;
  1872  004D6A  0E00               	movlw	0
  1873  004D6C  6F22               	movwf	34,b	;volatile
  1874                           
  1875                           ;mcc_generated_files/pin_manager.c: 101:     ODCONF = 0x00;
  1876  004D6E  0E00               	movlw	0
  1877  004D70  6F2A               	movwf	42,b	;volatile
  1878                           
  1879                           ;mcc_generated_files/pin_manager.c: 102:     ODCONA = 0x00;
  1880  004D72  0E00               	movlw	0
  1881  004D74  6F02               	movwf	2,b	;volatile
  1882                           
  1883                           ;mcc_generated_files/pin_manager.c: 103:     ODCONB = 0x00;
  1884  004D76  0E00               	movlw	0
  1885  004D78  6F0A               	movwf	10,b	;volatile
  1886                           
  1887                           ;mcc_generated_files/pin_manager.c: 104:     ODCONC = 0x00;
  1888  004D7A  0E00               	movlw	0
  1889  004D7C  6F12               	movwf	18,b	;volatile
  1890                           
  1891                           ;mcc_generated_files/pin_manager.c: 105:     ODCOND = 0x00;
  1892  004D7E  0E00               	movlw	0
  1893  004D80  6F1A               	movwf	26,b	;volatile
  1894  004D82                     
  1895                           ; BSR set to: 4
  1896                           ;mcc_generated_files/pin_manager.c: 110:     SLRCONA = 0xFF;
  1897  004D82  6903               	setf	3,b	;volatile
  1898  004D84                     
  1899                           ; BSR set to: 4
  1900                           ;mcc_generated_files/pin_manager.c: 111:     SLRCONB = 0xFF;
  1901  004D84  690B               	setf	11,b	;volatile
  1902  004D86                     
  1903                           ; BSR set to: 4
  1904                           ;mcc_generated_files/pin_manager.c: 112:     SLRCONC = 0xFF;
  1905  004D86  6913               	setf	19,b	;volatile
  1906  004D88                     
  1907                           ; BSR set to: 4
  1908                           ;mcc_generated_files/pin_manager.c: 113:     SLRCOND = 0xFF;
  1909  004D88  691B               	setf	27,b	;volatile
  1910                           
  1911                           ;mcc_generated_files/pin_manager.c: 114:     SLRCONE = 0x07;
  1912  004D8A  0E07               	movlw	7
  1913  004D8C  6F23               	movwf	35,b	;volatile
  1914  004D8E                     
  1915                           ; BSR set to: 4
  1916                           ;mcc_generated_files/pin_manager.c: 115:     SLRCONF = 0xFF;
  1917  004D8E  692B               	setf	43,b	;volatile
  1918  004D90                     
  1919                           ; BSR set to: 4
  1920                           ;mcc_generated_files/pin_manager.c: 120:     INLVLA = 0xFF;
  1921  004D90  6904               	setf	4,b	;volatile
  1922  004D92                     
  1923                           ; BSR set to: 4
  1924                           ;mcc_generated_files/pin_manager.c: 121:     INLVLB = 0xFF;
  1925  004D92  690C               	setf	12,b	;volatile
  1926  004D94                     
  1927                           ; BSR set to: 4
  1928                           ;mcc_generated_files/pin_manager.c: 122:     INLVLC = 0xFF;
  1929  004D94  6914               	setf	20,b	;volatile
  1930  004D96                     
  1931                           ; BSR set to: 4
  1932                           ;mcc_generated_files/pin_manager.c: 123:     INLVLD = 0xFF;
  1933  004D96  691C               	setf	28,b	;volatile
  1934                           
  1935                           ;mcc_generated_files/pin_manager.c: 124:     INLVLE = 0x0F;
  1936  004D98  0E0F               	movlw	15
  1937  004D9A  6F24               	movwf	36,b	;volatile
  1938  004D9C                     
  1939                           ; BSR set to: 4
  1940                           ;mcc_generated_files/pin_manager.c: 125:     INLVLF = 0xFF;
  1941  004D9C  692C               	setf	44,b	;volatile
  1942                           
  1943                           ;mcc_generated_files/pin_manager.c: 134:     CANRXPPS = 0x19;
  1944  004D9E  0E19               	movlw	25
  1945  004DA0  0102               	movlb	2	; () banked
  1946  004DA2  6F3D               	movwf	61,b	;volatile
  1947                           
  1948                           ;mcc_generated_files/pin_manager.c: 135:     RD0PPS = 0x46;
  1949  004DA4  0E46               	movlw	70
  1950  004DA6  6F19               	movwf	25,b	;volatile
  1951                           
  1952                           ;mcc_generated_files/pin_manager.c: 136:     RF0PPS = 0x20;
  1953  004DA8  0E20               	movlw	32
  1954  004DAA  6F29               	movwf	41,b	;volatile
  1955                           
  1956                           ;mcc_generated_files/pin_manager.c: 137:     U1RXPPS = 0x29;
  1957  004DAC  0E29               	movlw	41
  1958  004DAE  6F72               	movwf	114,b	;volatile
  1959  004DB0                     
  1960                           ; BSR set to: 2
  1961  004DB0  0012               	return		;funcret
  1962  004DB2                     __end_of_PIN_MANAGER_Initialize:
  1963                           	callstack 0
  1964                           
  1965 ;; *************** function _OSCILLATOR_Initialize *****************
  1966 ;; Defined at:
  1967 ;;		line 62 in file "mcc_generated_files/mcc.c"
  1968 ;; Parameters:    Size  Location     Type
  1969 ;;		None
  1970 ;; Auto vars:     Size  Location     Type
  1971 ;;		None
  1972 ;; Return value:  Size  Location     Type
  1973 ;;                  1    wreg      void 
  1974 ;; Registers used:
  1975 ;;		wreg, status,2
  1976 ;; Tracked objects:
  1977 ;;		On entry : 0/0
  1978 ;;		On exit  : 0/0
  1979 ;;		Unchanged: 0/0
  1980 ;; Data sizes:     COMRAM   BANK5   BANK6   BANK7   BANK8   BANK9  BANK10  BANK11  BANK12  BANK13  BANK14  BANK15  BANK1
      +6  BANK17  BANK18  BANK19  BANK20  BANK21  BANK22  BANK23  BANK24  BANK25  BANK26  BANK27  BANK28  BANK29  BANK30  BANK3
      +1  BANK32  BANK33  BANK34  BANK35  BANK36  BANK37  BANK38  BANK39  BANK40  BANK41  BANK42  BANK43  BANK44  BANK45  BANK4
      +6  BANK47  BANK48  BANK49  BANK50  BANK51  BANK52  BANK53  BANK54  BANK55
  1981 ;;      Params:         0       0       0       0       0       0       0       0       0       0       0       0       
      +0       0       0       0       0       0       0       0       0       0       0       0       0       0       0       
      +0       0       0       0       0       0       0       0       0       0       0       0       0       0       0       
      +0       0       0       0       0       0       0       0       0       0
  1982 ;;      Locals:         0       0       0       0       0       0       0       0       0       0       0       0       
      +0       0       0       0       0       0       0       0       0       0       0       0       0       0       0       
      +0       0       0       0       0       0       0       0       0       0       0       0       0       0       0       
      +0       0       0       0       0       0       0       0       0       0
  1983 ;;      Temps:          0       0       0       0       0       0       0       0       0       0       0       0       
      +0       0       0       0       0       0       0       0       0       0       0       0       0       0       0       
      +0       0       0       0       0       0       0       0       0       0       0       0       0       0       0       
      +0       0       0       0       0       0       0       0       0       0
  1984 ;;      Totals:         0       0       0       0       0       0       0       0       0       0       0       0       
      +0       0       0       0       0       0       0       0       0       0       0       0       0       0       0       
      +0       0       0       0       0       0       0       0       0       0       0       0       0       0       0       
      +0       0       0       0       0       0       0       0       0       0
  1985 ;;Total ram usage:        0 bytes
  1986 ;; Hardware stack levels used: 1
  1987 ;; Hardware stack levels required when called: 5
  1988 ;; This function calls:
  1989 ;;		Nothing
  1990 ;; This function is called by:
  1991 ;;		_SYSTEM_Initialize
  1992 ;; This function uses a non-reentrant model
  1993 ;;
  1994                           
  1995                           	psect	text12
  1996  005C3E                     __ptext12:
  1997                           	callstack 0
  1998  005C3E                     _OSCILLATOR_Initialize:
  1999                           	callstack 120
  2000  005C3E                     
  2001                           ;mcc_generated_files/mcc.c: 65:     OSCCON1 = 0x20;
  2002  005C3E  0E20               	movlw	32
  2003  005C40  0100               	movlb	0	; () banked
  2004  005C42  6FAD               	movwf	173,b	;volatile
  2005                           
  2006                           ;mcc_generated_files/mcc.c: 67:     OSCCON3 = 0x00;
  2007  005C44  0E00               	movlw	0
  2008  005C46  6FAF               	movwf	175,b	;volatile
  2009                           
  2010                           ;mcc_generated_files/mcc.c: 69:     OSCEN = 0x01;
  2011  005C48  0E01               	movlw	1
  2012  005C4A  6FB3               	movwf	179,b	;volatile
  2013                           
  2014                           ;mcc_generated_files/mcc.c: 71:     OSCFRQ = 0x02;
  2015  005C4C  0E02               	movlw	2
  2016  005C4E  6FB1               	movwf	177,b	;volatile
  2017                           
  2018                           ;mcc_generated_files/mcc.c: 73:     OSCTUNE = 0x00;
  2019  005C50  0E00               	movlw	0
  2020  005C52  6FB0               	movwf	176,b	;volatile
  2021  005C54                     l186:
  2022                           
  2023                           ; BSR set to: 0
  2024                           ;mcc_generated_files/mcc.c: 75:     while(PLLR == 0)
  2025  005C54  A1B2               	btfss	178,0,b	;volatile
  2026  005C56  EF2F  F02E         	goto	u1521
  2027  005C5A  EF31  F02E         	goto	u1520
  2028  005C5E                     u1521:
  2029  005C5E  EF2A  F02E         	goto	l186
  2030  005C62                     u1520:
  2031  005C62                     
  2032                           ; BSR set to: 0
  2033  005C62  0012               	return		;funcret
  2034  005C64                     __end_of_OSCILLATOR_Initialize:
  2035                           	callstack 0
  2036                           
  2037 ;; *************** function _INTERRUPT_Initialize *****************
  2038 ;; Defined at:
  2039 ;;		line 52 in file "mcc_generated_files/interrupt_manager.c"
  2040 ;; Parameters:    Size  Location     Type
  2041 ;;		None
  2042 ;; Auto vars:     Size  Location     Type
  2043 ;;  state           1    4[COMRAM] _Bool 
  2044 ;; Return value:  Size  Location     Type
  2045 ;;                  1    wreg      void 
  2046 ;; Registers used:
  2047 ;;		wreg, status,2
  2048 ;; Tracked objects:
  2049 ;;		On entry : 0/0
  2050 ;;		On exit  : 0/0
  2051 ;;		Unchanged: 0/0
  2052 ;; Data sizes:     COMRAM   BANK5   BANK6   BANK7   BANK8   BANK9  BANK10  BANK11  BANK12  BANK13  BANK14  BANK15  BANK1
      +6  BANK17  BANK18  BANK19  BANK20  BANK21  BANK22  BANK23  BANK24  BANK25  BANK26  BANK27  BANK28  BANK29  BANK30  BANK3
      +1  BANK32  BANK33  BANK34  BANK35  BANK36  BANK37  BANK38  BANK39  BANK40  BANK41  BANK42  BANK43  BANK44  BANK45  BANK4
      +6  BANK47  BANK48  BANK49  BANK50  BANK51  BANK52  BANK53  BANK54  BANK55
  2053 ;;      Params:         0       0       0       0       0       0       0       0       0       0       0       0       
      +0       0       0       0       0       0       0       0       0       0       0       0       0       0       0       
      +0       0       0       0       0       0       0       0       0       0       0       0       0       0       0       
      +0       0       0       0       0       0       0       0       0       0
  2054 ;;      Locals:         1       0       0       0       0       0       0       0       0       0       0       0       
      +0       0       0       0       0       0       0       0       0       0       0       0       0       0       0       
      +0       0       0       0       0       0       0       0       0       0       0       0       0       0       0       
      +0       0       0       0       0       0       0       0       0       0
  2055 ;;      Temps:          0       0       0       0       0       0       0       0       0       0       0       0       
      +0       0       0       0       0       0       0       0       0       0       0       0       0       0       0       
      +0       0       0       0       0       0       0       0       0       0       0       0       0       0       0       
      +0       0       0       0       0       0       0       0       0       0
  2056 ;;      Totals:         1       0       0       0       0       0       0       0       0       0       0       0       
      +0       0       0       0       0       0       0       0       0       0       0       0       0       0       0       
      +0       0       0       0       0       0       0       0       0       0       0       0       0       0       0       
      +0       0       0       0       0       0       0       0       0       0
  2057 ;;Total ram usage:        1 bytes
  2058 ;; Hardware stack levels used: 1
  2059 ;; Hardware stack levels required when called: 5
  2060 ;; This function calls:
  2061 ;;		Nothing
  2062 ;; This function is called by:
  2063 ;;		_SYSTEM_Initialize
  2064 ;; This function uses a non-reentrant model
  2065 ;;
  2066                           
  2067                           	psect	text13
  2068  005884                     __ptext13:
  2069                           	callstack 0
  2070  005884                     _INTERRUPT_Initialize:
  2071                           	callstack 120
  2072  005884                     
  2073                           ;mcc_generated_files/interrupt_manager.c: 54:     INTCON0bits.IPEN = 1;
  2074  005884  8AD6               	bsf	214,5,c	;volatile
  2075  005886                     
  2076                           ;mcc_generated_files/interrupt_manager.c: 56:     _Bool state = (unsigned char)GIE;
  2077  005886  0E00               	movlw	0
  2078  005888  BED6               	btfsc	1238,7,c	;volatile
  2079  00588A  0E01               	movlw	1
  2080  00588C  6E36               	movwf	INTERRUPT_Initialize@state^(0+1280),c
  2081  00588E                     
  2082                           ;mcc_generated_files/interrupt_manager.c: 57:     GIE = 0;
  2083  00588E  9ED6               	bcf	1238,7,c	;volatile
  2084                           
  2085                           ;mcc_generated_files/interrupt_manager.c: 58:     IVTLOCK = 0x55;
  2086  005890  0E55               	movlw	85
  2087  005892  0104               	movlb	4	; () banked
  2088  005894  6F59               	movwf	89,b	;volatile
  2089                           
  2090                           ;mcc_generated_files/interrupt_manager.c: 59:     IVTLOCK = 0xAA;
  2091  005896  0EAA               	movlw	170
  2092  005898  6F59               	movwf	89,b	;volatile
  2093  00589A                     
  2094                           ; BSR set to: 4
  2095                           ;mcc_generated_files/interrupt_manager.c: 60:     IVTLOCKbits.IVTLOCKED = 0x00;
  2096  00589A  9159               	bcf	89,0,b	;volatile
  2097                           
  2098                           ;mcc_generated_files/interrupt_manager.c: 62:     IVTBASEU = 0;
  2099  00589C  0E00               	movlw	0
  2100  00589E  6F5F               	movwf	95,b	;volatile
  2101                           
  2102                           ;mcc_generated_files/interrupt_manager.c: 63:     IVTBASEH = 0;
  2103  0058A0  0E00               	movlw	0
  2104  0058A2  6F5E               	movwf	94,b	;volatile
  2105                           
  2106                           ;mcc_generated_files/interrupt_manager.c: 64:     IVTBASEL = 8;
  2107  0058A4  0E08               	movlw	8
  2108  0058A6  6F5D               	movwf	93,b	;volatile
  2109                           
  2110                           ;mcc_generated_files/interrupt_manager.c: 66:     IVTLOCK = 0x55;
  2111  0058A8  0E55               	movlw	85
  2112  0058AA  6F59               	movwf	89,b	;volatile
  2113                           
  2114                           ;mcc_generated_files/interrupt_manager.c: 67:     IVTLOCK = 0xAA;
  2115  0058AC  0EAA               	movlw	170
  2116  0058AE  6F59               	movwf	89,b	;volatile
  2117  0058B0                     
  2118                           ; BSR set to: 4
  2119                           ;mcc_generated_files/interrupt_manager.c: 68:     IVTLOCKbits.IVTLOCKED = 0x01;
  2120  0058B0  8159               	bsf	89,0,b	;volatile
  2121  0058B2                     
  2122                           ; BSR set to: 4
  2123                           ;mcc_generated_files/interrupt_manager.c: 70:     GIE = state;
  2124  0058B2  B036               	btfsc	INTERRUPT_Initialize@state^(0+1280),0,c
  2125  0058B4  D002               	bra	u1515
  2126  0058B6  9ED6               	bcf	1238,7,c	;volatile
  2127  0058B8  D001               	bra	u1516
  2128  0058BA                     u1515:
  2129  0058BA  8ED6               	bsf	1238,7,c	;volatile
  2130  0058BC                     u1516:
  2131  0058BC                     
  2132                           ;mcc_generated_files/interrupt_manager.c: 72:     IPR3bits.TMR0IP = 1;
  2133  0058BC  0103               	movlb	3	; () banked
  2134  0058BE  8F65               	bsf	101,7,b	;volatile
  2135  0058C0                     
  2136                           ; BSR set to: 3
  2137  0058C0  0012               	return		;funcret
  2138  0058C2                     __end_of_INTERRUPT_Initialize:
  2139                           	callstack 0
  2140                           
  2141 ;; *************** function _CAN1_Initialize *****************
  2142 ;; Defined at:
  2143 ;;		line 205 in file "mcc_generated_files/can1.c"
  2144 ;; Parameters:    Size  Location     Type
  2145 ;;		None
  2146 ;; Auto vars:     Size  Location     Type
  2147 ;;		None
  2148 ;; Return value:  Size  Location     Type
  2149 ;;                  1    wreg      void 
  2150 ;; Registers used:
  2151 ;;		wreg, fsr2l, fsr2h, status,2, status,0, prodl, prodh, cstack
  2152 ;; Tracked objects:
  2153 ;;		On entry : 0/0
  2154 ;;		On exit  : 0/0
  2155 ;;		Unchanged: 0/0
  2156 ;; Data sizes:     COMRAM   BANK5   BANK6   BANK7   BANK8   BANK9  BANK10  BANK11  BANK12  BANK13  BANK14  BANK15  BANK1
      +6  BANK17  BANK18  BANK19  BANK20  BANK21  BANK22  BANK23  BANK24  BANK25  BANK26  BANK27  BANK28  BANK29  BANK30  BANK3
      +1  BANK32  BANK33  BANK34  BANK35  BANK36  BANK37  BANK38  BANK39  BANK40  BANK41  BANK42  BANK43  BANK44  BANK45  BANK4
      +6  BANK47  BANK48  BANK49  BANK50  BANK51  BANK52  BANK53  BANK54  BANK55
  2157 ;;      Params:         0       0       0       0       0       0       0       0       0       0       0       0       
      +0       0       0       0       0       0       0       0       0       0       0       0       0       0       0       
      +0       0       0       0       0       0       0       0       0       0       0       0       0       0       0       
      +0       0       0       0       0       0       0       0       0       0
  2158 ;;      Locals:         0       0       0       0       0       0       0       0       0       0       0       0       
      +0       0       0       0       0       0       0       0       0       0       0       0       0       0       0       
      +0       0       0       0       0       0       0       0       0       0       0       0       0       0       0       
      +0       0       0       0       0       0       0       0       0       0
  2159 ;;      Temps:          0       0       0       0       0       0       0       0       0       0       0       0       
      +0       0       0       0       0       0       0       0       0       0       0       0       0       0       0       
      +0       0       0       0       0       0       0       0       0       0       0       0       0       0       0       
      +0       0       0       0       0       0       0       0       0       0
  2160 ;;      Totals:         0       0       0       0       0       0       0       0       0       0       0       0       
      +0       0       0       0       0       0       0       0       0       0       0       0       0       0       0       
      +0       0       0       0       0       0       0       0       0       0       0       0       0       0       0       
      +0       0       0       0       0       0       0       0       0       0
  2161 ;;Total ram usage:        0 bytes
  2162 ;; Hardware stack levels used: 1
  2163 ;; Hardware stack levels required when called: 7
  2164 ;; This function calls:
  2165 ;;		_CAN1_BitRateConfiguration
  2166 ;;		_CAN1_OperationModeSet
  2167 ;;		_CAN1_RX_FIFO_Configuration
  2168 ;;		_CAN1_RX_FIFO_FilterMaskConfiguration
  2169 ;;		_CAN1_RX_FIFO_ResetInfo
  2170 ;;		_CAN1_TX_FIFO_Configuration
  2171 ;; This function is called by:
  2172 ;;		_SYSTEM_Initialize
  2173 ;; This function uses a non-reentrant model
  2174 ;;
  2175                           
  2176                           	psect	text14
  2177  005686                     __ptext14:
  2178                           	callstack 0
  2179  005686                     _CAN1_Initialize:
  2180                           	callstack 118
  2181  005686                     
  2182                           ;mcc_generated_files/can1.c: 208:     C1CONHbits.ON = 1;
  2183  005686  0101               	movlb	1	; () banked
  2184  005688  8F01               	bsf	1,7,b	;volatile
  2185  00568A                     
  2186                           ; BSR set to: 1
  2187                           ;mcc_generated_files/can1.c: 210:     if (CAN_OP_MODE_REQUEST_SUCCESS == CAN1_OperationM
      +                          odeSet(CAN_CONFIGURATION_MODE))
  2188  00568A  0E04               	movlw	4
  2189  00568C  EC93  F028         	call	_CAN1_OperationModeSet
  2190  005690  0900               	iorlw	0
  2191  005692  A4D8               	btfss	status,2,c
  2192  005694  EF4E  F02B         	goto	u3491
  2193  005698  EF50  F02B         	goto	u3490
  2194  00569C                     u3491:
  2195  00569C  EF6C  F02B         	goto	l413
  2196  0056A0                     u3490:
  2197  0056A0                     
  2198                           ;mcc_generated_files/can1.c: 211:     {;mcc_generated_files/can1.c: 213:         C1FIFOB
      +                          A = 0x3800;
  2199  0056A0  0E00               	movlw	0
  2200  0056A2  0101               	movlb	1	; () banked
  2201  0056A4  6F4C               	movwf	76,b	;volatile
  2202  0056A6  0E38               	movlw	56
  2203  0056A8  6F4D               	movwf	77,b	;volatile
  2204  0056AA  0E00               	movlw	0
  2205  0056AC  6F4E               	movwf	78,b	;volatile
  2206  0056AE  0E00               	movlw	0
  2207  0056B0  6F4F               	movwf	79,b	;volatile
  2208                           
  2209                           ;mcc_generated_files/can1.c: 216:         C1CONL = 0x60;
  2210  0056B2  0E60               	movlw	96
  2211  0056B4  6F00               	movwf	0,b	;volatile
  2212                           
  2213                           ;mcc_generated_files/can1.c: 219:         C1CONH = 0x87;
  2214  0056B6  0E87               	movlw	135
  2215  0056B8  6F01               	movwf	1,b	;volatile
  2216                           
  2217                           ;mcc_generated_files/can1.c: 222:         C1CONU = 0x00;
  2218  0056BA  0E00               	movlw	0
  2219  0056BC  6F02               	movwf	2,b	;volatile
  2220  0056BE                     
  2221                           ; BSR set to: 1
  2222                           ;mcc_generated_files/can1.c: 224:         CAN1_BitRateConfiguration();
  2223  0056BE  EC8D  F02D         	call	_CAN1_BitRateConfiguration	;wreg free
  2224  0056C2                     
  2225                           ;mcc_generated_files/can1.c: 225:         CAN1_TX_FIFO_Configuration();
  2226  0056C2  ECDE  F02E         	call	_CAN1_TX_FIFO_Configuration	;wreg free
  2227  0056C6                     
  2228                           ;mcc_generated_files/can1.c: 226:         CAN1_RX_FIFO_Configuration();
  2229  0056C6  ECE8  F02E         	call	_CAN1_RX_FIFO_Configuration	;wreg free
  2230  0056CA                     
  2231                           ;mcc_generated_files/can1.c: 227:         CAN1_RX_FIFO_FilterMaskConfiguration();
  2232  0056CA  EC32  F02E         	call	_CAN1_RX_FIFO_FilterMaskConfiguration	;wreg free
  2233  0056CE                     
  2234                           ;mcc_generated_files/can1.c: 228:         CAN1_RX_FIFO_ResetInfo();
  2235  0056CE  EC77  F02D         	call	_CAN1_RX_FIFO_ResetInfo	;wreg free
  2236  0056D2                     
  2237                           ;mcc_generated_files/can1.c: 229:         CAN1_OperationModeSet(CAN_NORMAL_FD_MODE);
  2238  0056D2  0E00               	movlw	0
  2239  0056D4  EC93  F028         	call	_CAN1_OperationModeSet
  2240  0056D8                     l413:
  2241  0056D8  0012               	return		;funcret
  2242  0056DA                     __end_of_CAN1_Initialize:
  2243                           	callstack 0
  2244                           
  2245 ;; *************** function _CAN1_TX_FIFO_Configuration *****************
  2246 ;; Defined at:
  2247 ;;		line 155 in file "mcc_generated_files/can1.c"
  2248 ;; Parameters:    Size  Location     Type
  2249 ;;		None
  2250 ;; Auto vars:     Size  Location     Type
  2251 ;;		None
  2252 ;; Return value:  Size  Location     Type
  2253 ;;                  1    wreg      void 
  2254 ;; Registers used:
  2255 ;;		wreg, status,2
  2256 ;; Tracked objects:
  2257 ;;		On entry : 0/0
  2258 ;;		On exit  : 0/0
  2259 ;;		Unchanged: 0/0
  2260 ;; Data sizes:     COMRAM   BANK5   BANK6   BANK7   BANK8   BANK9  BANK10  BANK11  BANK12  BANK13  BANK14  BANK15  BANK1
      +6  BANK17  BANK18  BANK19  BANK20  BANK21  BANK22  BANK23  BANK24  BANK25  BANK26  BANK27  BANK28  BANK29  BANK30  BANK3
      +1  BANK32  BANK33  BANK34  BANK35  BANK36  BANK37  BANK38  BANK39  BANK40  BANK41  BANK42  BANK43  BANK44  BANK45  BANK4
      +6  BANK47  BANK48  BANK49  BANK50  BANK51  BANK52  BANK53  BANK54  BANK55
  2261 ;;      Params:         0       0       0       0       0       0       0       0       0       0       0       0       
      +0       0       0       0       0       0       0       0       0       0       0       0       0       0       0       
      +0       0       0       0       0       0       0       0       0       0       0       0       0       0       0       
      +0       0       0       0       0       0       0       0       0       0
  2262 ;;      Locals:         0       0       0       0       0       0       0       0       0       0       0       0       
      +0       0       0       0       0       0       0       0       0       0       0       0       0       0       0       
      +0       0       0       0       0       0       0       0       0       0       0       0       0       0       0       
      +0       0       0       0       0       0       0       0       0       0
  2263 ;;      Temps:          0       0       0       0       0       0       0       0       0       0       0       0       
      +0       0       0       0       0       0       0       0       0       0       0       0       0       0       0       
      +0       0       0       0       0       0       0       0       0       0       0       0       0       0       0       
      +0       0       0       0       0       0       0       0       0       0
  2264 ;;      Totals:         0       0       0       0       0       0       0       0       0       0       0       0       
      +0       0       0       0       0       0       0       0       0       0       0       0       0       0       0       
      +0       0       0       0       0       0       0       0       0       0       0       0       0       0       0       
      +0       0       0       0       0       0       0       0       0       0
  2265 ;;Total ram usage:        0 bytes
  2266 ;; Hardware stack levels used: 1
  2267 ;; Hardware stack levels required when called: 5
  2268 ;; This function calls:
  2269 ;;		Nothing
  2270 ;; This function is called by:
  2271 ;;		_CAN1_Initialize
  2272 ;; This function uses a non-reentrant model
  2273 ;;
  2274                           
  2275                           	psect	text15
  2276  005DBC                     __ptext15:
  2277                           	callstack 0
  2278  005DBC                     _CAN1_TX_FIFO_Configuration:
  2279                           	callstack 119
  2280  005DBC                     
  2281                           ;mcc_generated_files/can1.c: 158:     C1FIFOCON1L = 0x80;
  2282  005DBC  0E80               	movlw	128
  2283  005DBE  0101               	movlb	1	; () banked
  2284  005DC0  6F5C               	movwf	92,b	;volatile
  2285                           
  2286                           ;mcc_generated_files/can1.c: 161:     C1FIFOCON1H = 0x04;
  2287  005DC2  0E04               	movlw	4
  2288  005DC4  6F5D               	movwf	93,b	;volatile
  2289                           
  2290                           ;mcc_generated_files/can1.c: 164:     C1FIFOCON1U = 0x60;
  2291  005DC6  0E60               	movlw	96
  2292  005DC8  6F5E               	movwf	94,b	;volatile
  2293                           
  2294                           ;mcc_generated_files/can1.c: 167:     C1FIFOCON1T = 0xE5;
  2295  005DCA  0EE5               	movlw	229
  2296  005DCC  6F5F               	movwf	95,b	;volatile
  2297  005DCE                     
  2298                           ; BSR set to: 1
  2299  005DCE  0012               	return		;funcret
  2300  005DD0                     __end_of_CAN1_TX_FIFO_Configuration:
  2301                           	callstack 0
  2302                           
  2303 ;; *************** function _CAN1_RX_FIFO_ResetInfo *****************
  2304 ;; Defined at:
  2305 ;;		line 114 in file "mcc_generated_files/can1.c"
  2306 ;; Parameters:    Size  Location     Type
  2307 ;;		None
  2308 ;; Auto vars:     Size  Location     Type
  2309 ;;  index           1    4[COMRAM] unsigned char 
  2310 ;; Return value:  Size  Location     Type
  2311 ;;                  1    wreg      void 
  2312 ;; Registers used:
  2313 ;;		wreg, fsr2l, fsr2h, status,2, status,0, prodl, prodh
  2314 ;; Tracked objects:
  2315 ;;		On entry : 0/0
  2316 ;;		On exit  : 0/0
  2317 ;;		Unchanged: 0/0
  2318 ;; Data sizes:     COMRAM   BANK5   BANK6   BANK7   BANK8   BANK9  BANK10  BANK11  BANK12  BANK13  BANK14  BANK15  BANK1
      +6  BANK17  BANK18  BANK19  BANK20  BANK21  BANK22  BANK23  BANK24  BANK25  BANK26  BANK27  BANK28  BANK29  BANK30  BANK3
      +1  BANK32  BANK33  BANK34  BANK35  BANK36  BANK37  BANK38  BANK39  BANK40  BANK41  BANK42  BANK43  BANK44  BANK45  BANK4
      +6  BANK47  BANK48  BANK49  BANK50  BANK51  BANK52  BANK53  BANK54  BANK55
  2319 ;;      Params:         0       0       0       0       0       0       0       0       0       0       0       0       
      +0       0       0       0       0       0       0       0       0       0       0       0       0       0       0       
      +0       0       0       0       0       0       0       0       0       0       0       0       0       0       0       
      +0       0       0       0       0       0       0       0       0       0
  2320 ;;      Locals:         1       0       0       0       0       0       0       0       0       0       0       0       
      +0       0       0       0       0       0       0       0       0       0       0       0       0       0       0       
      +0       0       0       0       0       0       0       0       0       0       0       0       0       0       0       
      +0       0       0       0       0       0       0       0       0       0
  2321 ;;      Temps:          0       0       0       0       0       0       0       0       0       0       0       0       
      +0       0       0       0       0       0       0       0       0       0       0       0       0       0       0       
      +0       0       0       0       0       0       0       0       0       0       0       0       0       0       0       
      +0       0       0       0       0       0       0       0       0       0
  2322 ;;      Totals:         1       0       0       0       0       0       0       0       0       0       0       0       
      +0       0       0       0       0       0       0       0       0       0       0       0       0       0       0       
      +0       0       0       0       0       0       0       0       0       0       0       0       0       0       0       
      +0       0       0       0       0       0       0       0       0       0
  2323 ;;Total ram usage:        1 bytes
  2324 ;; Hardware stack levels used: 1
  2325 ;; Hardware stack levels required when called: 5
  2326 ;; This function calls:
  2327 ;;		Nothing
  2328 ;; This function is called by:
  2329 ;;		_CAN1_Initialize
  2330 ;; This function uses a non-reentrant model
  2331 ;;
  2332                           
  2333                           	psect	text16
  2334  005AEE                     __ptext16:
  2335                           	callstack 0
  2336  005AEE                     _CAN1_RX_FIFO_ResetInfo:
  2337                           	callstack 119
  2338  005AEE                     
  2339                           ;mcc_generated_files/can1.c: 116:     uint8_t index;;mcc_generated_files/can1.c: 118:   
      +                            for (index = 0; index < (1U); index++)
  2340  005AEE  0E00               	movlw	0
  2341  005AF0  6E36               	movwf	CAN1_RX_FIFO_ResetInfo@index^(0+1280),c
  2342  005AF2                     l2515:
  2343                           
  2344                           ;mcc_generated_files/can1.c: 119:     {;mcc_generated_files/can1.c: 120:         rxFifos
      +                          [index].fifoHead = 0;
  2345  005AF2  5036               	movf	CAN1_RX_FIFO_ResetInfo@index^(0+1280),w,c
  2346  005AF4  0D02               	mullw	2
  2347  005AF6  0E5B               	movlw	low (_rxFifos+1)
  2348  005AF8  24F3               	addwf	243,w,c
  2349  005AFA  6ED9               	movwf	fsr2l,c
  2350  005AFC  0E05               	movlw	high (_rxFifos+1)
  2351  005AFE  20F4               	addwfc	prodh,w,c
  2352  005B00  6EDA               	movwf	fsr2h,c
  2353  005B02  0E00               	movlw	0
  2354  005B04  6EDF               	movwf	indf2,c
  2355  005B06                     
  2356                           ;mcc_generated_files/can1.c: 121:     }
  2357  005B06  2A36               	incf	CAN1_RX_FIFO_ResetInfo@index^(0+1280),f,c
  2358  005B08  5036               	movf	CAN1_RX_FIFO_ResetInfo@index^(0+1280),w,c
  2359  005B0A  B4D8               	btfsc	status,2,c
  2360  005B0C  EF8A  F02D         	goto	u1061
  2361  005B10  EF8C  F02D         	goto	u1060
  2362  005B14                     u1061:
  2363  005B14  EF79  F02D         	goto	l2515
  2364  005B18                     u1060:
  2365  005B18  0012               	return		;funcret
  2366  005B1A                     __end_of_CAN1_RX_FIFO_ResetInfo:
  2367                           	callstack 0
  2368                           
  2369 ;; *************** function _CAN1_RX_FIFO_FilterMaskConfiguration *****************
  2370 ;; Defined at:
  2371 ;;		line 140 in file "mcc_generated_files/can1.c"
  2372 ;; Parameters:    Size  Location     Type
  2373 ;;		None
  2374 ;; Auto vars:     Size  Location     Type
  2375 ;;		None
  2376 ;; Return value:  Size  Location     Type
  2377 ;;                  1    wreg      void 
  2378 ;; Registers used:
  2379 ;;		wreg, status,2
  2380 ;; Tracked objects:
  2381 ;;		On entry : 0/0
  2382 ;;		On exit  : 0/0
  2383 ;;		Unchanged: 0/0
  2384 ;; Data sizes:     COMRAM   BANK5   BANK6   BANK7   BANK8   BANK9  BANK10  BANK11  BANK12  BANK13  BANK14  BANK15  BANK1
      +6  BANK17  BANK18  BANK19  BANK20  BANK21  BANK22  BANK23  BANK24  BANK25  BANK26  BANK27  BANK28  BANK29  BANK30  BANK3
      +1  BANK32  BANK33  BANK34  BANK35  BANK36  BANK37  BANK38  BANK39  BANK40  BANK41  BANK42  BANK43  BANK44  BANK45  BANK4
      +6  BANK47  BANK48  BANK49  BANK50  BANK51  BANK52  BANK53  BANK54  BANK55
  2385 ;;      Params:         0       0       0       0       0       0       0       0       0       0       0       0       
      +0       0       0       0       0       0       0       0       0       0       0       0       0       0       0       
      +0       0       0       0       0       0       0       0       0       0       0       0       0       0       0       
      +0       0       0       0       0       0       0       0       0       0
  2386 ;;      Locals:         0       0       0       0       0       0       0       0       0       0       0       0       
      +0       0       0       0       0       0       0       0       0       0       0       0       0       0       0       
      +0       0       0       0       0       0       0       0       0       0       0       0       0       0       0       
      +0       0       0       0       0       0       0       0       0       0
  2387 ;;      Temps:          0       0       0       0       0       0       0       0       0       0       0       0       
      +0       0       0       0       0       0       0       0       0       0       0       0       0       0       0       
      +0       0       0       0       0       0       0       0       0       0       0       0       0       0       0       
      +0       0       0       0       0       0       0       0       0       0
  2388 ;;      Totals:         0       0       0       0       0       0       0       0       0       0       0       0       
      +0       0       0       0       0       0       0       0       0       0       0       0       0       0       0       
      +0       0       0       0       0       0       0       0       0       0       0       0       0       0       0       
      +0       0       0       0       0       0       0       0       0       0
  2389 ;;Total ram usage:        0 bytes
  2390 ;; Hardware stack levels used: 1
  2391 ;; Hardware stack levels required when called: 5
  2392 ;; This function calls:
  2393 ;;		Nothing
  2394 ;; This function is called by:
  2395 ;;		_CAN1_Initialize
  2396 ;; This function uses a non-reentrant model
  2397 ;;
  2398                           
  2399                           	psect	text17
  2400  005C64                     __ptext17:
  2401                           	callstack 0
  2402  005C64                     _CAN1_RX_FIFO_FilterMaskConfiguration:
  2403                           	callstack 119
  2404  005C64                     
  2405                           ;mcc_generated_files/can1.c: 143:     C1FLTOBJ0L = 0xA2;
  2406  005C64  0EA2               	movlw	162
  2407  005C66  0101               	movlb	1	; () banked
  2408  005C68  6F8C               	movwf	140,b	;volatile
  2409                           
  2410                           ;mcc_generated_files/can1.c: 144:     C1FLTOBJ0H = 0x00;
  2411  005C6A  0E00               	movlw	0
  2412  005C6C  6F8D               	movwf	141,b	;volatile
  2413                           
  2414                           ;mcc_generated_files/can1.c: 145:     C1FLTOBJ0U = 0x00;
  2415  005C6E  0E00               	movlw	0
  2416  005C70  6F8E               	movwf	142,b	;volatile
  2417                           
  2418                           ;mcc_generated_files/can1.c: 146:     C1FLTOBJ0T = 0x00;
  2419  005C72  0E00               	movlw	0
  2420  005C74  6F8F               	movwf	143,b	;volatile
  2421  005C76                     
  2422                           ; BSR set to: 1
  2423                           ;mcc_generated_files/can1.c: 147:     C1MASK0L = 0xFF;
  2424  005C76  6990               	setf	144,b	;volatile
  2425                           
  2426                           ;mcc_generated_files/can1.c: 148:     C1MASK0H = 0x07;
  2427  005C78  0E07               	movlw	7
  2428  005C7A  6F91               	movwf	145,b	;volatile
  2429                           
  2430                           ;mcc_generated_files/can1.c: 149:     C1MASK0U = 0x00;
  2431  005C7C  0E00               	movlw	0
  2432  005C7E  6F92               	movwf	146,b	;volatile
  2433                           
  2434                           ;mcc_generated_files/can1.c: 150:     C1MASK0T = 0x40;
  2435  005C80  0E40               	movlw	64
  2436  005C82  6F93               	movwf	147,b	;volatile
  2437                           
  2438                           ;mcc_generated_files/can1.c: 151:     C1FLTCON0L = 0x82;
  2439  005C84  0E82               	movlw	130
  2440  005C86  6F80               	movwf	128,b	;volatile
  2441  005C88                     
  2442                           ; BSR set to: 1
  2443  005C88  0012               	return		;funcret
  2444  005C8A                     __end_of_CAN1_RX_FIFO_FilterMaskConfiguration:
  2445                           	callstack 0
  2446                           
  2447 ;; *************** function _CAN1_RX_FIFO_Configuration *****************
  2448 ;; Defined at:
  2449 ;;		line 124 in file "mcc_generated_files/can1.c"
  2450 ;; Parameters:    Size  Location     Type
  2451 ;;		None
  2452 ;; Auto vars:     Size  Location     Type
  2453 ;;		None
  2454 ;; Return value:  Size  Location     Type
  2455 ;;                  1    wreg      void 
  2456 ;; Registers used:
  2457 ;;		wreg, status,2
  2458 ;; Tracked objects:
  2459 ;;		On entry : 0/0
  2460 ;;		On exit  : 0/0
  2461 ;;		Unchanged: 0/0
  2462 ;; Data sizes:     COMRAM   BANK5   BANK6   BANK7   BANK8   BANK9  BANK10  BANK11  BANK12  BANK13  BANK14  BANK15  BANK1
      +6  BANK17  BANK18  BANK19  BANK20  BANK21  BANK22  BANK23  BANK24  BANK25  BANK26  BANK27  BANK28  BANK29  BANK30  BANK3
      +1  BANK32  BANK33  BANK34  BANK35  BANK36  BANK37  BANK38  BANK39  BANK40  BANK41  BANK42  BANK43  BANK44  BANK45  BANK4
      +6  BANK47  BANK48  BANK49  BANK50  BANK51  BANK52  BANK53  BANK54  BANK55
  2463 ;;      Params:         0       0       0       0       0       0       0       0       0       0       0       0       
      +0       0       0       0       0       0       0       0       0       0       0       0       0       0       0       
      +0       0       0       0       0       0       0       0       0       0       0       0       0       0       0       
      +0       0       0       0       0       0       0       0       0       0
  2464 ;;      Locals:         0       0       0       0       0       0       0       0       0       0       0       0       
      +0       0       0       0       0       0       0       0       0       0       0       0       0       0       0       
      +0       0       0       0       0       0       0       0       0       0       0       0       0       0       0       
      +0       0       0       0       0       0       0       0       0       0
  2465 ;;      Temps:          0       0       0       0       0       0       0       0       0       0       0       0       
      +0       0       0       0       0       0       0       0       0       0       0       0       0       0       0       
      +0       0       0       0       0       0       0       0       0       0       0       0       0       0       0       
      +0       0       0       0       0       0       0       0       0       0
  2466 ;;      Totals:         0       0       0       0       0       0       0       0       0       0       0       0       
      +0       0       0       0       0       0       0       0       0       0       0       0       0       0       0       
      +0       0       0       0       0       0       0       0       0       0       0       0       0       0       0       
      +0       0       0       0       0       0       0       0       0       0
  2467 ;;Total ram usage:        0 bytes
  2468 ;; Hardware stack levels used: 1
  2469 ;; Hardware stack levels required when called: 5
  2470 ;; This function calls:
  2471 ;;		Nothing
  2472 ;; This function is called by:
  2473 ;;		_CAN1_Initialize
  2474 ;; This function uses a non-reentrant model
  2475 ;;
  2476                           
  2477                           	psect	text18
  2478  005DD0                     __ptext18:
  2479                           	callstack 0
  2480  005DD0                     _CAN1_RX_FIFO_Configuration:
  2481                           	callstack 119
  2482  005DD0                     
  2483                           ;mcc_generated_files/can1.c: 127:     C1FIFOCON2L = 0x00;
  2484  005DD0  0E00               	movlw	0
  2485  005DD2  0101               	movlb	1	; () banked
  2486  005DD4  6F68               	movwf	104,b	;volatile
  2487                           
  2488                           ;mcc_generated_files/can1.c: 130:     C1FIFOCON2H = 0x04;
  2489  005DD6  0E04               	movlw	4
  2490  005DD8  6F69               	movwf	105,b	;volatile
  2491                           
  2492                           ;mcc_generated_files/can1.c: 133:     C1FIFOCON2U = 0x60;
  2493  005DDA  0E60               	movlw	96
  2494  005DDC  6F6A               	movwf	106,b	;volatile
  2495                           
  2496                           ;mcc_generated_files/can1.c: 136:     C1FIFOCON2T = 0xE5;
  2497  005DDE  0EE5               	movlw	229
  2498  005DE0  6F6B               	movwf	107,b	;volatile
  2499  005DE2                     
  2500                           ; BSR set to: 1
  2501  005DE2  0012               	return		;funcret
  2502  005DE4                     __end_of_CAN1_RX_FIFO_Configuration:
  2503                           	callstack 0
  2504                           
  2505 ;; *************** function _CAN1_OperationModeSet *****************
  2506 ;; Defined at:
  2507 ;;		line 233 in file "mcc_generated_files/can1.c"
  2508 ;; Parameters:    Size  Location     Type
  2509 ;;  requestMode     1    wreg     const enum E23066
  2510 ;; Auto vars:     Size  Location     Type
  2511 ;;  requestMode     1    6[COMRAM] const enum E23066
  2512 ;;  status          1    5[COMRAM] enum E23076
  2513 ;;  opMode          1    4[COMRAM] enum E23066
  2514 ;; Return value:  Size  Location     Type
  2515 ;;                  1    wreg      enum E23076
  2516 ;; Registers used:
  2517 ;;		wreg, status,2, status,0, cstack
  2518 ;; Tracked objects:
  2519 ;;		On entry : 0/0
  2520 ;;		On exit  : 0/0
  2521 ;;		Unchanged: 0/0
  2522 ;; Data sizes:     COMRAM   BANK5   BANK6   BANK7   BANK8   BANK9  BANK10  BANK11  BANK12  BANK13  BANK14  BANK15  BANK1
      +6  BANK17  BANK18  BANK19  BANK20  BANK21  BANK22  BANK23  BANK24  BANK25  BANK26  BANK27  BANK28  BANK29  BANK30  BANK3
      +1  BANK32  BANK33  BANK34  BANK35  BANK36  BANK37  BANK38  BANK39  BANK40  BANK41  BANK42  BANK43  BANK44  BANK45  BANK4
      +6  BANK47  BANK48  BANK49  BANK50  BANK51  BANK52  BANK53  BANK54  BANK55
  2523 ;;      Params:         0       0       0       0       0       0       0       0       0       0       0       0       
      +0       0       0       0       0       0       0       0       0       0       0       0       0       0       0       
      +0       0       0       0       0       0       0       0       0       0       0       0       0       0       0       
      +0       0       0       0       0       0       0       0       0       0
  2524 ;;      Locals:         3       0       0       0       0       0       0       0       0       0       0       0       
      +0       0       0       0       0       0       0       0       0       0       0       0       0       0       0       
      +0       0       0       0       0       0       0       0       0       0       0       0       0       0       0       
      +0       0       0       0       0       0       0       0       0       0
  2525 ;;      Temps:          0       0       0       0       0       0       0       0       0       0       0       0       
      +0       0       0       0       0       0       0       0       0       0       0       0       0       0       0       
      +0       0       0       0       0       0       0       0       0       0       0       0       0       0       0       
      +0       0       0       0       0       0       0       0       0       0
  2526 ;;      Totals:         3       0       0       0       0       0       0       0       0       0       0       0       
      +0       0       0       0       0       0       0       0       0       0       0       0       0       0       0       
      +0       0       0       0       0       0       0       0       0       0       0       0       0       0       0       
      +0       0       0       0       0       0       0       0       0       0
  2527 ;;Total ram usage:        3 bytes
  2528 ;; Hardware stack levels used: 1
  2529 ;; Hardware stack levels required when called: 6
  2530 ;; This function calls:
  2531 ;;		_CAN1_OperationModeGet
  2532 ;; This function is called by:
  2533 ;;		_CAN1_Initialize
  2534 ;;		_CAN1_Sleep
  2535 ;; This function uses a non-reentrant model
  2536 ;;
  2537                           
  2538                           	psect	text19
  2539  005126                     __ptext19:
  2540                           	callstack 0
  2541  005126                     _CAN1_OperationModeSet:
  2542                           	callstack 118
  2543                           
  2544                           ; BSR set to: 1
  2545                           ;incstack = 0
  2546                           ;CAN1_OperationModeSet@requestMode stored from wreg
  2547  005126  6E38               	movwf	CAN1_OperationModeSet@requestMode^(0+1280),c
  2548  005128                     
  2549                           ;mcc_generated_files/can1.c: 233: CAN_OP_MODE_STATUS CAN1_OperationModeSet(const CAN_OP_
      +                          MODES requestMode);mcc_generated_files/can1.c: 234: {;mcc_generated_files/can1.c: 235:  
      +                             CAN_OP_MODE_STATUS status = CAN_OP_MODE_REQUEST_SUCCESS;
  2550  005128  0E00               	movlw	0
  2551  00512A  6E37               	movwf	CAN1_OperationModeSet@status^(0+1280),c
  2552  00512C                     
  2553                           ;mcc_generated_files/can1.c: 236:     CAN_OP_MODES opMode = CAN1_OperationModeGet();
  2554  00512C  EC4E  F02F         	call	_CAN1_OperationModeGet	;wreg free
  2555  005130  6E36               	movwf	CAN1_OperationModeSet@opMode^(0+1280),c
  2556  005132                     
  2557                           ;mcc_generated_files/can1.c: 238:     if (CAN_CONFIGURATION_MODE == opMode
  2558  005132  0E04               	movlw	4
  2559  005134  1836               	xorwf	CAN1_OperationModeSet@opMode^(0+1280),w,c
  2560  005136  B4D8               	btfsc	status,2,c
  2561  005138  EFA0  F028         	goto	u3051
  2562  00513C  EFA2  F028         	goto	u3050
  2563  005140                     u3051:
  2564  005140  EFB3  F028         	goto	l4203
  2565  005144                     u3050:
  2566  005144  0438               	decf	CAN1_OperationModeSet@requestMode^(0+1280),w,c
  2567  005146  B4D8               	btfsc	status,2,c
  2568  005148  EFA8  F028         	goto	u3061
  2569  00514C  EFAA  F028         	goto	u3060
  2570  005150                     u3061:
  2571  005150  EFB3  F028         	goto	l4203
  2572  005154                     u3060:
  2573  005154  0E04               	movlw	4
  2574  005156  1838               	xorwf	CAN1_OperationModeSet@requestMode^(0+1280),w,c
  2575  005158  A4D8               	btfss	status,2,c
  2576  00515A  EFB1  F028         	goto	u3071
  2577  00515E  EFB3  F028         	goto	u3070
  2578  005162                     u3071:
  2579  005162  EFD3  F028         	goto	l4209
  2580  005166                     u3070:
  2581  005166                     l4203:
  2582                           
  2583                           ;mcc_generated_files/can1.c: 241:     {;mcc_generated_files/can1.c: 242:         C1CONTb
      +                          its.REQOP = requestMode;
  2584  005166  0101               	movlb	1	; () banked
  2585  005168  5103               	movf	3,w,b	;volatile
  2586  00516A  1838               	xorwf	CAN1_OperationModeSet@requestMode^(0+1280),w,c
  2587  00516C  0BF8               	andlw	-8
  2588  00516E  1838               	xorwf	CAN1_OperationModeSet@requestMode^(0+1280),w,c
  2589  005170  6F03               	movwf	3,b	;volatile
  2590                           
  2591                           ;mcc_generated_files/can1.c: 244:         while (C1CONUbits.OPMOD != requestMode)
  2592  005172  EFC6  F028         	goto	l4207
  2593  005176                     l420:
  2594                           
  2595                           ; BSR set to: 1
  2596                           ;mcc_generated_files/can1.c: 245:         {;mcc_generated_files/can1.c: 247:            
      +                           if (1 == C1INTHbits.SERRIF)
  2597  005176  A91D               	btfss	29,4,b	;volatile
  2598  005178  EFC0  F028         	goto	u3081
  2599  00517C  EFC2  F028         	goto	u3080
  2600  005180                     u3081:
  2601  005180  EFC6  F028         	goto	l4207
  2602  005184                     u3080:
  2603  005184                     
  2604                           ; BSR set to: 1
  2605                           ;mcc_generated_files/can1.c: 248:             {;mcc_generated_files/can1.c: 249:        
      +                                   status = CAN_OP_MODE_SYS_ERROR_OCCURED;
  2606  005184  0E02               	movlw	2
  2607  005186  6E37               	movwf	CAN1_OperationModeSet@status^(0+1280),c
  2608                           
  2609                           ;mcc_generated_files/can1.c: 250:                 break;
  2610  005188  EFD5  F028         	goto	l423
  2611  00518C                     l4207:
  2612                           
  2613                           ; BSR set to: 1
  2614                           ;mcc_generated_files/can1.c: 244:         while (C1CONUbits.OPMOD != requestMode)
  2615  00518C  3902               	swapf	2,w,b	;volatile
  2616  00518E  32E8               	rrcf	wreg,f,c
  2617  005190  0B07               	andlw	7
  2618  005192  1838               	xorwf	CAN1_OperationModeSet@requestMode^(0+1280),w,c
  2619  005194  A4D8               	btfss	status,2,c
  2620  005196  EFCF  F028         	goto	u3091
  2621  00519A  EFD1  F028         	goto	u3090
  2622  00519E                     u3091:
  2623  00519E  EFBB  F028         	goto	l420
  2624  0051A2                     u3090:
  2625  0051A2  EFD5  F028         	goto	l423
  2626  0051A6                     l4209:
  2627                           
  2628                           ;mcc_generated_files/can1.c: 255:     {;mcc_generated_files/can1.c: 256:         status 
      +                          = CAN_OP_MODE_REQUEST_FAIL;
  2629  0051A6  0E01               	movlw	1
  2630  0051A8  6E37               	movwf	CAN1_OperationModeSet@status^(0+1280),c
  2631  0051AA                     l423:
  2632                           
  2633                           ;mcc_generated_files/can1.c: 259:     return status;
  2634  0051AA  5037               	movf	CAN1_OperationModeSet@status^(0+1280),w,c
  2635  0051AC  0012               	return		;funcret
  2636  0051AE                     __end_of_CAN1_OperationModeSet:
  2637                           	callstack 0
  2638                           
  2639 ;; *************** function _CAN1_BitRateConfiguration *****************
  2640 ;; Defined at:
  2641 ;;		line 171 in file "mcc_generated_files/can1.c"
  2642 ;; Parameters:    Size  Location     Type
  2643 ;;		None
  2644 ;; Auto vars:     Size  Location     Type
  2645 ;;		None
  2646 ;; Return value:  Size  Location     Type
  2647 ;;                  1    wreg      void 
  2648 ;; Registers used:
  2649 ;;		wreg, status,2
  2650 ;; Tracked objects:
  2651 ;;		On entry : 0/0
  2652 ;;		On exit  : 0/0
  2653 ;;		Unchanged: 0/0
  2654 ;; Data sizes:     COMRAM   BANK5   BANK6   BANK7   BANK8   BANK9  BANK10  BANK11  BANK12  BANK13  BANK14  BANK15  BANK1
      +6  BANK17  BANK18  BANK19  BANK20  BANK21  BANK22  BANK23  BANK24  BANK25  BANK26  BANK27  BANK28  BANK29  BANK30  BANK3
      +1  BANK32  BANK33  BANK34  BANK35  BANK36  BANK37  BANK38  BANK39  BANK40  BANK41  BANK42  BANK43  BANK44  BANK45  BANK4
      +6  BANK47  BANK48  BANK49  BANK50  BANK51  BANK52  BANK53  BANK54  BANK55
  2655 ;;      Params:         0       0       0       0       0       0       0       0       0       0       0       0       
      +0       0       0       0       0       0       0       0       0       0       0       0       0       0       0       
      +0       0       0       0       0       0       0       0       0       0       0       0       0       0       0       
      +0       0       0       0       0       0       0       0       0       0
  2656 ;;      Locals:         0       0       0       0       0       0       0       0       0       0       0       0       
      +0       0       0       0       0       0       0       0       0       0       0       0       0       0       0       
      +0       0       0       0       0       0       0       0       0       0       0       0       0       0       0       
      +0       0       0       0       0       0       0       0       0       0
  2657 ;;      Temps:          0       0       0       0       0       0       0       0       0       0       0       0       
      +0       0       0       0       0       0       0       0       0       0       0       0       0       0       0       
      +0       0       0       0       0       0       0       0       0       0       0       0       0       0       0       
      +0       0       0       0       0       0       0       0       0       0
  2658 ;;      Totals:         0       0       0       0       0       0       0       0       0       0       0       0       
      +0       0       0       0       0       0       0       0       0       0       0       0       0       0       0       
      +0       0       0       0       0       0       0       0       0       0       0       0       0       0       0       
      +0       0       0       0       0       0       0       0       0       0
  2659 ;;Total ram usage:        0 bytes
  2660 ;; Hardware stack levels used: 1
  2661 ;; Hardware stack levels required when called: 5
  2662 ;; This function calls:
  2663 ;;		Nothing
  2664 ;; This function is called by:
  2665 ;;		_CAN1_Initialize
  2666 ;; This function uses a non-reentrant model
  2667 ;;
  2668                           
  2669                           	psect	text20
  2670  005B1A                     __ptext20:
  2671                           	callstack 0
  2672  005B1A                     _CAN1_BitRateConfiguration:
  2673                           	callstack 119
  2674  005B1A                     
  2675                           ;mcc_generated_files/can1.c: 174:     C1NBTCFGL = 0x0F;
  2676  005B1A  0E0F               	movlw	15
  2677  005B1C  0101               	movlb	1	; () banked
  2678  005B1E  6F04               	movwf	4,b	;volatile
  2679                           
  2680                           ;mcc_generated_files/can1.c: 177:     C1NBTCFGH = 0x0F;
  2681  005B20  0E0F               	movlw	15
  2682  005B22  6F05               	movwf	5,b	;volatile
  2683                           
  2684                           ;mcc_generated_files/can1.c: 180:     C1NBTCFGU = 0x3E;
  2685  005B24  0E3E               	movlw	62
  2686  005B26  6F06               	movwf	6,b	;volatile
  2687                           
  2688                           ;mcc_generated_files/can1.c: 183:     C1NBTCFGT = 0x00;
  2689  005B28  0E00               	movlw	0
  2690  005B2A  6F07               	movwf	7,b	;volatile
  2691                           
  2692                           ;mcc_generated_files/can1.c: 186:     C1DBTCFGL = 0x03;
  2693  005B2C  0E03               	movlw	3
  2694  005B2E  6F08               	movwf	8,b	;volatile
  2695                           
  2696                           ;mcc_generated_files/can1.c: 189:     C1DBTCFGH = 0x03;
  2697  005B30  0E03               	movlw	3
  2698  005B32  6F09               	movwf	9,b	;volatile
  2699                           
  2700                           ;mcc_generated_files/can1.c: 192:     C1DBTCFGU = 0x0E;
  2701  005B34  0E0E               	movlw	14
  2702  005B36  6F0A               	movwf	10,b	;volatile
  2703                           
  2704                           ;mcc_generated_files/can1.c: 195:     C1DBTCFGT = 0x00;
  2705  005B38  0E00               	movlw	0
  2706  005B3A  6F0B               	movwf	11,b	;volatile
  2707                           
  2708                           ;mcc_generated_files/can1.c: 198:     C1TDCH = 0x0F;
  2709  005B3C  0E0F               	movlw	15
  2710  005B3E  6F0D               	movwf	13,b	;volatile
  2711                           
  2712                           ;mcc_generated_files/can1.c: 201:     C1TDCU = 0x02;
  2713  005B40  0E02               	movlw	2
  2714  005B42  6F0E               	movwf	14,b	;volatile
  2715  005B44                     
  2716                           ; BSR set to: 1
  2717  005B44  0012               	return		;funcret
  2718  005B46                     __end_of_CAN1_BitRateConfiguration:
  2719                           	callstack 0
  2720                           
  2721 ;; *************** function _DrvRs485Init *****************
  2722 ;; Defined at:
  2723 ;;		line 64 in file "source/driver/drv_rs485.c"
  2724 ;; Parameters:    Size  Location     Type
  2725 ;;		None
  2726 ;; Auto vars:     Size  Location     Type
  2727 ;;		None
  2728 ;; Return value:  Size  Location     Type
  2729 ;;                  1    wreg      void 
  2730 ;; Registers used:
  2731 ;;		wreg, status,2
  2732 ;; Tracked objects:
  2733 ;;		On entry : 0/0
  2734 ;;		On exit  : 0/0
  2735 ;;		Unchanged: 0/0
  2736 ;; Data sizes:     COMRAM   BANK5   BANK6   BANK7   BANK8   BANK9  BANK10  BANK11  BANK12  BANK13  BANK14  BANK15  BANK1
      +6  BANK17  BANK18  BANK19  BANK20  BANK21  BANK22  BANK23  BANK24  BANK25  BANK26  BANK27  BANK28  BANK29  BANK30  BANK3
      +1  BANK32  BANK33  BANK34  BANK35  BANK36  BANK37  BANK38  BANK39  BANK40  BANK41  BANK42  BANK43  BANK44  BANK45  BANK4
      +6  BANK47  BANK48  BANK49  BANK50  BANK51  BANK52  BANK53  BANK54  BANK55
  2737 ;;      Params:         0       0       0       0       0       0       0       0       0       0       0       0       
      +0       0       0       0       0       0       0       0       0       0       0       0       0       0       0       
      +0       0       0       0       0       0       0       0       0       0       0       0       0       0       0       
      +0       0       0       0       0       0       0       0       0       0
  2738 ;;      Locals:         0       0       0       0       0       0       0       0       0       0       0       0       
      +0       0       0       0       0       0       0       0       0       0       0       0       0       0       0       
      +0       0       0       0       0       0       0       0       0       0       0       0       0       0       0       
      +0       0       0       0       0       0       0       0       0       0
  2739 ;;      Temps:          0       0       0       0       0       0       0       0       0       0       0       0       
      +0       0       0       0       0       0       0       0       0       0       0       0       0       0       0       
      +0       0       0       0       0       0       0       0       0       0       0       0       0       0       0       
      +0       0       0       0       0       0       0       0       0       0
  2740 ;;      Totals:         0       0       0       0       0       0       0       0       0       0       0       0       
      +0       0       0       0       0       0       0       0       0       0       0       0       0       0       0       
      +0       0       0       0       0       0       0       0       0       0       0       0       0       0       0       
      +0       0       0       0       0       0       0       0       0       0
  2741 ;;Total ram usage:        0 bytes
  2742 ;; Hardware stack levels used: 1
  2743 ;; Hardware stack levels required when called: 5
  2744 ;; This function calls:
  2745 ;;		Nothing
  2746 ;; This function is called by:
  2747 ;;		_main
  2748 ;; This function uses a non-reentrant model
  2749 ;;
  2750                           
  2751                           	psect	text21
  2752  00551E                     __ptext21:
  2753                           	callstack 0
  2754  00551E                     _DrvRs485Init:
  2755                           	callstack 121
  2756  00551E                     
  2757                           ;source/driver/drv_rs485.c: 66:     u16DrvRs485State = 0;
  2758  00551E  0E00               	movlw	0
  2759  005520  0105               	movlb	5	; () banked
  2760  005522  6F88               	movwf	(_u16DrvRs485State+1)& (0+255),b
  2761  005524  0E00               	movlw	0
  2762  005526  6F87               	movwf	_u16DrvRs485State& (0+255),b
  2763                           
  2764                           ;source/driver/drv_rs485.c: 68:     u16DrvRs485RxCmd = 1;
  2765  005528  0E00               	movlw	0
  2766  00552A  6F86               	movwf	(_u16DrvRs485RxCmd+1)& (0+255),b
  2767  00552C  0E01               	movlw	1
  2768  00552E  6F85               	movwf	_u16DrvRs485RxCmd& (0+255),b
  2769                           
  2770                           ;source/driver/drv_rs485.c: 69:     u16DrvRs485RxDataCnt = 0;
  2771  005530  0E00               	movlw	0
  2772  005532  6F84               	movwf	(_u16DrvRs485RxDataCnt+1)& (0+255),b
  2773  005534  0E00               	movlw	0
  2774  005536  6F83               	movwf	_u16DrvRs485RxDataCnt& (0+255),b
  2775                           
  2776                           ;source/driver/drv_rs485.c: 70:     u16DrvRs485RxEndCnt = 0;
  2777  005538  0E00               	movlw	0
  2778  00553A  6F82               	movwf	(_u16DrvRs485RxEndCnt+1)& (0+255),b
  2779  00553C  0E00               	movlw	0
  2780  00553E  6F81               	movwf	_u16DrvRs485RxEndCnt& (0+255),b
  2781                           
  2782                           ;source/driver/drv_rs485.c: 71:     u16DrvRs485RxFinished = 0;
  2783  005540  0E00               	movlw	0
  2784  005542  6F80               	movwf	(_u16DrvRs485RxFinished+1)& (0+255),b
  2785  005544  0E00               	movlw	0
  2786  005546  6F7F               	movwf	_u16DrvRs485RxFinished& (0+255),b
  2787                           
  2788                           ;source/driver/drv_rs485.c: 72:     u16DrvRs485RxDataNum = 0;
  2789  005548  0E00               	movlw	0
  2790  00554A  6F7E               	movwf	(_u16DrvRs485RxDataNum+1)& (0+255),b
  2791  00554C  0E00               	movlw	0
  2792  00554E  6F7D               	movwf	_u16DrvRs485RxDataNum& (0+255),b
  2793                           
  2794                           ;source/driver/drv_rs485.c: 74:     u16DrvRs485TxCmd = 0;
  2795  005550  0E00               	movlw	0
  2796  005552  6F7C               	movwf	(_u16DrvRs485TxCmd+1)& (0+255),b
  2797  005554  0E00               	movlw	0
  2798  005556  6F7B               	movwf	_u16DrvRs485TxCmd& (0+255),b
  2799                           
  2800                           ;source/driver/drv_rs485.c: 75:     u16DrvRs485TxDataCnt = 0;
  2801  005558  0E00               	movlw	0
  2802  00555A  6E21               	movwf	(_u16DrvRs485TxDataCnt+1)^(0+1280),c
  2803  00555C  0E00               	movlw	0
  2804  00555E  6E20               	movwf	_u16DrvRs485TxDataCnt^(0+1280),c
  2805                           
  2806                           ;source/driver/drv_rs485.c: 76:     u16DrvRs485TxEndCnt = 0;
  2807  005560  0E00               	movlw	0
  2808  005562  6F7A               	movwf	(_u16DrvRs485TxEndCnt+1)& (0+255),b
  2809  005564  0E00               	movlw	0
  2810  005566  6F79               	movwf	_u16DrvRs485TxEndCnt& (0+255),b
  2811                           
  2812                           ;source/driver/drv_rs485.c: 77:     u16DrvRs485TxFinished = 0;
  2813  005568  0E00               	movlw	0
  2814  00556A  6F78               	movwf	(_u16DrvRs485TxFinished+1)& (0+255),b
  2815  00556C  0E00               	movlw	0
  2816  00556E  6F77               	movwf	_u16DrvRs485TxFinished& (0+255),b
  2817                           
  2818                           ;source/driver/drv_rs485.c: 78:     u16DrvRs485TxDataNum = 0;
  2819  005570  0E00               	movlw	0
  2820  005572  6F76               	movwf	(_u16DrvRs485TxDataNum+1)& (0+255),b
  2821  005574  0E00               	movlw	0
  2822  005576  6F75               	movwf	_u16DrvRs485TxDataNum& (0+255),b
  2823  005578                     
  2824                           ; BSR set to: 5
  2825  005578  0012               	return		;funcret
  2826  00557A                     __end_of_DrvRs485Init:
  2827                           	callstack 0
  2828                           
  2829 ;; *************** function _CAN_TP_Tasks *****************
  2830 ;; Defined at:
  2831 ;;		line 1080 in file "mcc_generated_files/can_tp.c"
  2832 ;; Parameters:    Size  Location     Type
  2833 ;;		None
  2834 ;; Auto vars:     Size  Location     Type
  2835 ;;		None
  2836 ;; Return value:  Size  Location     Type
  2837 ;;                  1    wreg      void 
  2838 ;; Registers used:
  2839 ;;		wreg, fsr1l, fsr1h, fsr2l, fsr2h, status,2, status,0, tblptrl, tblptrh, tblptru, prodl, prodh, cstack
  2840 ;; Tracked objects:
  2841 ;;		On entry : 0/0
  2842 ;;		On exit  : 0/0
  2843 ;;		Unchanged: 0/0
  2844 ;; Data sizes:     COMRAM   BANK5   BANK6   BANK7   BANK8   BANK9  BANK10  BANK11  BANK12  BANK13  BANK14  BANK15  BANK1
      +6  BANK17  BANK18  BANK19  BANK20  BANK21  BANK22  BANK23  BANK24  BANK25  BANK26  BANK27  BANK28  BANK29  BANK30  BANK3
      +1  BANK32  BANK33  BANK34  BANK35  BANK36  BANK37  BANK38  BANK39  BANK40  BANK41  BANK42  BANK43  BANK44  BANK45  BANK4
      +6  BANK47  BANK48  BANK49  BANK50  BANK51  BANK52  BANK53  BANK54  BANK55
  2845 ;;      Params:         0       0       0       0       0       0       0       0       0       0       0       0       
      +0       0       0       0       0       0       0       0       0       0       0       0       0       0       0       
      +0       0       0       0       0       0       0       0       0       0       0       0       0       0       0       
      +0       0       0       0       0       0       0       0       0       0
  2846 ;;      Locals:         0       0       0       0       0       0       0       0       0       0       0       0       
      +0       0       0       0       0       0       0       0       0       0       0       0       0       0       0       
      +0       0       0       0       0       0       0       0       0       0       0       0       0       0       0       
      +0       0       0       0       0       0       0       0       0       0
  2847 ;;      Temps:          0       0       0       0       0       0       0       0       0       0       0       0       
      +0       0       0       0       0       0       0       0       0       0       0       0       0       0       0       
      +0       0       0       0       0       0       0       0       0       0       0       0       0       0       0       
      +0       0       0       0       0       0       0       0       0       0
  2848 ;;      Totals:         0       0       0       0       0       0       0       0       0       0       0       0       
      +0       0       0       0       0       0       0       0       0       0       0       0       0       0       0       
      +0       0       0       0       0       0       0       0       0       0       0       0       0       0       0       
      +0       0       0       0       0       0       0       0       0       0
  2849 ;;Total ram usage:        0 bytes
  2850 ;; Hardware stack levels used: 1
  2851 ;; Hardware stack levels required when called: 12
  2852 ;; This function calls:
  2853 ;;		_ProcessIncomingFrame
  2854 ;;		_ProcessOutgoingMessage
  2855 ;;		_TransmitPendingFlowControl
  2856 ;; This function is called by:
  2857 ;;		_main
  2858 ;; This function uses a non-reentrant model
  2859 ;;
  2860                           
  2861                           	psect	text22
  2862  005E6A                     __ptext22:
  2863                           	callstack 0
  2864  005E6A                     _CAN_TP_Tasks:
  2865                           	callstack 114
  2866  005E6A                     
  2867                           ;mcc_generated_files/can_tp.c: 1082:     ProcessIncomingFrame();
  2868  005E6A  EC68  F023         	call	_ProcessIncomingFrame	;wreg free
  2869  005E6E                     
  2870                           ;mcc_generated_files/can_tp.c: 1084:     TransmitPendingFlowControl();
  2871  005E6E  EC93  F024         	call	_TransmitPendingFlowControl	;wreg free
  2872  005E72                     
  2873                           ;mcc_generated_files/can_tp.c: 1086:     ProcessOutgoingMessage();
  2874  005E72  ECFF  F022         	call	_ProcessOutgoingMessage	;wreg free
  2875  005E76  0012               	return		;funcret
  2876  005E78                     __end_of_CAN_TP_Tasks:
  2877                           	callstack 0
  2878                           
  2879 ;; *************** function _TransmitPendingFlowControl *****************
  2880 ;; Defined at:
  2881 ;;		line 405 in file "mcc_generated_files/can_tp.c"
  2882 ;; Parameters:    Size  Location     Type
  2883 ;;		None
  2884 ;; Auto vars:     Size  Location     Type
  2885 ;;		None
  2886 ;; Return value:  Size  Location     Type
  2887 ;;                  1    wreg      void 
  2888 ;; Registers used:
  2889 ;;		wreg, fsr1l, fsr1h, fsr2l, fsr2h, status,2, status,0, tblptrl, tblptrh, tblptru, prodl, prodh, cstack
  2890 ;; Tracked objects:
  2891 ;;		On entry : 0/0
