:020000040000fa
:080000000002040000000000f2
:020000040000fa
:04000800fe020000f4
:020000040000fa
:04000c0040030000ad
:020000040000fa
:040010008003000069
:020000040000fa
:040014001e030000c7
:020000040000fa
:040018006003000081
:020000040000fa
:04001c002e040000ae
:020000040000fa
:04002000a003000039
:020000040000fa
:040024002e040000a6
:020000040000fa
:040028002e040000a2
:020000040000fa
:04002c00ea030000e3
:020000040000fa
:040030002e0400009a
:020000040000fa
:040034002e04000096
:020000040000fa
:040038002e04000092
:020000040000fa
:04003c002e0400008e
:020000040000fa
:040040002e0400008a
:020000040000fa
:040044002e04000086
:020000040000fa
:040048002e04000082
:020000040000fa
:04004c002e0400007e
:020000040000fa
:040050002e0400007a
:020000040000fa
:040054002e04000076
:020000040000fa
:040058002e04000072
:020000040000fa
:04005c002e0400006e
:020000040000fa
:040060002e0400006a
:020000040000fa
:040064002e04000066
:020000040000fa
:040068002e04000062
:020000040000fa
:04006c002e0400005e
:020000040000fa
:040070002e0400005a
:020000040000fa
:040074002e04000056
:020000040000fa
:040078002e04000052
:020000040000fa
:04007c002e0400004e
:020000040000fa
:040080002e0400004a
:020000040000fa
:040084002e04000046
:020000040000fa
:040088002e04000042
:020000040000fa
:04008c002e0400003e
:020000040000fa
:040090002e0400003a
:020000040000fa
:040094002e04000036
:020000040000fa
:040098002e04000032
:020000040000fa
:04009c002e0400002e
:020000040000fa
:0400a0002e0400002a
:020000040000fa
:0400a4002e04000026
:020000040000fa
:0400a8002e04000022
:020000040000fa
:0400ac002e0400001e
:020000040000fa
:0400b0002e0400001a
:020000040000fa
:0400b4002e04000016
:020000040000fa
:0400b8002e04000012
:020000040000fa
:0400bc002e0400000e
:020000040000fa
:0400c0002e0400000a
:020000040000fa
:0400c4002e04000006
:020000040000fa
:0400c8002e04000002
:020000040000fa
:0400cc002e040000fe
:020000040000fa
:0400d0002e040000fa
:020000040000fa
:0400d4002e040000f6
:020000040000fa
:0400d8002e040000f2
:020000040000fa
:0400dc002e040000ee
:020000040000fa
:0400e0002e040000ea
:020000040000fa
:0400e4002e040000e6
:020000040000fa
:0400e8002e040000e2
:020000040000fa
:0400ec002e040000de
:020000040000fa
:0400f0002e040000da
:020000040000fa
:0400f4002e040000d6
:020000040000fa
:0400f8002e040000d2
:020000040000fa
:0400fc002e040000ce
:020000040000fa
:040100002e040000c9
:020000040000fa
:040104002e040000c5
:020000040000fa
:040108002e040000c1
:020000040000fa
:04010c002e040000bd
:020000040000fa
:040110002e040000b9
:020000040000fa
:040114002e040000b5
:020000040000fa
:040118002e040000b1
:020000040000fa
:04011c002e040000ad
:020000040000fa
:040120002e040000a9
:020000040000fa
:040124002e040000a5
:020000040000fa
:040128002e040000a1
:020000040000fa
:04012c002e0400009d
:020000040000fa
:040130002e04000099
:020000040000fa
:040134002e04000095
:020000040000fa
:040138002e04000091
:020000040000fa
:04013c002e0400008d
:020000040000fa
:040140002e04000089
:020000040000fa
:040144002e04000085
:020000040000fa
:040148002e04000081
:020000040000fa
:04014c002e0400007d
:020000040000fa
:040150002e04000079
:020000040000fa
:040154002e04000075
:020000040000fa
:040158002e04000071
:020000040000fa
:04015c002e0400006d
:020000040000fa
:040160002e04000069
:020000040000fa
:040164002e04000065
:020000040000fa
:040168002e04000061
:020000040000fa
:04016c002e0400005d
:020000040000fa
:040170002e04000059
:020000040000fa
:040174002e04000055
:020000040000fa
:040178002e04000051
:020000040000fa
:04017c002e0400004d
:020000040000fa
:040180002e04000049
:020000040000fa
:040184002e04000045
:020000040000fa
:040188002e04000041
:020000040000fa
:04018c002e0400003d
:020000040000fa
:040190002e04000039
:020000040000fa
:040194002e04000035
:020000040000fa
:040198002e04000031
:020000040000fa
:04019c002e0400002d
:020000040000fa
:0401a0002e04000029
:020000040000fa
:0401a4002e04000025
:020000040000fa
:0401a8002e04000021
:020000040000fa
:0401ac002e0400001d
:020000040000fa
:0401b0002e04000019
:020000040000fa
:0401b4002e04000015
:020000040000fa
:0401b8002e04000011
:020000040000fa
:0401bc002e0400000d
:020000040000fa
:0401c0002e04000009
:020000040000fa
:0401c4002e04000005
:020000040000fa
:0401c8002e04000001
:020000040000fa
:0401cc002e040000fd
:020000040000fa
:0401d0002e040000f9
:020000040000fa
:0401d4002e040000f5
:020000040000fa
:0401d8002e040000f1
:020000040000fa
:0401dc002e040000ed
:020000040000fa
:0401e0002e040000e9
:020000040000fa
:0401e4002e040000e5
:020000040000fa
:0401e8002e040000e1
:020000040000fa
:0401ec002e040000dd
:020000040000fa
:0401f0002e040000d9
:020000040000fa
:0401f4002e040000d5
:020000040000fa
:0401f8002e040000d1
:020000040000fa
:0401fc002e040000cd
:020000040000fa
:040200002e040000c8
:020000040000fa
:040204002e040000c4
:020000040000fa
:040208002e040000c0
:020000040000fa
:04020c002e040000bc
:020000040000fa
:040210002e040000b8
:020000040000fa
:040214002e040000b4
:020000040000fa
:040218002e040000b0
:020000040000fa
:04021c002e040000ac
:020000040000fa
:040220002e040000a8
:020000040000fa
:040224002e040000a4
:020000040000fa
:040228002e040000a0
:020000040000fa
:04022c002e0400009c
:020000040000fa
:040230002e04000098
:020000040000fa
:040234002e04000094
:020000040000fa
:040238002e04000090
:020000040000fa
:04023c002e0400008c
:020000040000fa
:040240002e04000088
:020000040000fa
:040244002e04000084
:020000040000fa
:040248002e04000080
:020000040000fa
:04024c002e0400007c
:020000040000fa
:040250002e04000078
:020000040000fa
:040254002e04000074
:020000040000fa
:040258002e04000070
:020000040000fa
:04025c002e0400006c
:020000040000fa
:040260002e04000068
:020000040000fa
:040264002e04000064
:020000040000fa
:040268002e04000060
:020000040000fa
:04026c002e0400005c
:020000040000fa
:040270002e04000058
:020000040000fa
:040274002e04000054
:020000040000fa
:040278002e04000050
:020000040000fa
:04027c002e0400004c
:020000040000fa
:040280002e04000048
:020000040000fa
:040284002e04000044
:020000040000fa
:040288002e04000040
:020000040000fa
:04028c002e0400003c
:020000040000fa
:040290002e04000038
:020000040000fa
:040294002e04000034
:020000040000fa
:040298002e04000030
:020000040000fa
:04029c002e0400002c
:020000040000fa
:0402a0002e04000028
:020000040000fa
:0402a4002e04000024
:020000040000fa
:0402a8002e04000020
:020000040000fa
:0402ac002e0400001c
:020000040000fa
:0402b0002e04000018
:020000040000fa
:0402b4002e04000014
:020000040000fa
:0402b8002e04000010
:020000040000fa
:0402bc002e0400000c
:020000040000fa
:0402c0002e04000008
:020000040000fa
:0402c4002e04000004
:020000040000fa
:0402c8002e04000000
:020000040000fa
:0402cc002e040000fc
:020000040000fa
:0402d0002e040000f8
:020000040000fa
:0402d4002e040000f4
:020000040000fa
:0402d8002e040000f0
:020000040000fa
:0402dc002e040000ec
:020000040000fa
:0402e0002e040000e8
:020000040000fa
:0402e4002e040000e4
:020000040000fa
:0402e8002e040000e0
:020000040000fa
:0402ec002e040000dc
:020000040000fa
:0402f0002e040000d8
:020000040000fa
:0402f4002e040000d4
:020000040000fa
:0402f8002e040000d0
:020000040000fa
:0402fc002e040000cc
:020000040000fa
:040300002e040000c7
:020000040000fa
:040304002e040000c3
:020000040000fa
:040308002e040000bf
:020000040000fa
:04030c002e040000bb
:020000040000fa
:040310002e040000b7
:020000040000fa
:040314002e040000b3
:020000040000fa
:040318002e040000af
:020000040000fa
:04031c002e040000ab
:020000040000fa
:100400008f0221000eff24000e0188000000000072
:10041000000020000000e000020032000001200087
:1004200020028800140007000e0107000000e00011
:1004300003003a00e08a200001002000020037009b
:100440000000200001002000810f70000100320038
:100450000f000700000020000000e0000200320052
:1004600000000200000000008c08020000000000f4
:100470000040da000000fe00200020000000e00044
:1004800002003200100020009001880000000600e9
:10049000a1028800800478000000eb001f003700f4
:1004a000e284440054a0b4009905ba00e2844400f8
:1004b00054a0b4009906ba00e284440054a0b400e9
:1004c0000006eb00476fde00fd07b200ae018800ba
:1004d000636ce10003003a000ad801000000eb0061
:1004e0000e003700606ce10008003a00004deb00a0
:1004f0000a05e800020039003420ec000af0a000f0
:100500008b05e900f9ff3e00040037006168e10057
:10051000010032000086eb000b00070019c7ba008b
:100520001905ba000e04e00003003a000a00e000da
:10053000dbff3a0000000600fe07b200ae028800b2
:100540008a047800f5ff37000cd0a300e20f4d00bd
:100550001c00390089027800354dba000a05e80010
:10056000020039003420ec000af0a0008b05e900fd
:100570000f003200254dba000a05e80002003900dc
:100580003420ec000af0a0008b05e90008003200de
:100590000c00e0000600320015cdba000a05e800a4
:1005a000020039003420ec000af0a0008b05e900bd
:1005b0008984e80054a0b4000b00e000e2ff3a0098
:1005c000000006009902ba00055d78008b05e9007d
:1005d000f7ff3200c82ade00055d78008b05e900d0
:1005e000f3ff32000c00e000f1ff320019ddba0029
:1005f000eeff370000000000000000003600f800a9
:10060000809fbe00829fbe00849fbe00869fbe006a
:100610000000fa00c028a9000000eb00dd0207007e
:100620000080fa004f03be004f02be004f01be0023
:100630004f00be003600f900004006003600f8000a
:10064000809fbe00829fbe00849fbe00869fbe002a
:100650000000fa00d4020700c048a90010002000e2
:10066000cc0207000080fa004f03be004f02be001c
:100670004f01be004f00be003600f90000400600ea
:100680003600f800809fbe00829fbe00849fbe009f
:10069000869fbe000000fa00c068a900200020006c
:1006a000bc0207000080fa004f03be004f02be00ec
:1006b0004f01be004f00be003600f90000400600aa
:1006c0003600f800809fbe00829fbe00849fbe005f
:1006d000869fbe000000fa00c088a90030002000fc
:1006e000ac0207000080fa004f03be004f02be00bc
:1006f0004f01be004f00be003600f900004006006a
:100700003600f800809fbe00829fbe00849fbe001e
:10071000869fbe000000fa00c608a90070002000f5
:100720009c0207000080fa004f03be004f02be008b
:100730004f01be004f00be003600f9000040060029
:100740003600f800809fbe00829fbe00849fbe00de
:10075000869fbe000000fa002146800000102000a5
:10076000008060000000e00003003200c508a9001e
:10077000c000200087020700214680000002200000
:10078000008060000000e00003003200c4a8a9005f
:10079000900020007f02070020468000700060006b
:1007a0000000e00003003200c488a900a00020007f
:1007b0007802070020468000610060000000e00031
:1007c00003003200c408a900b00020007102070035
:1007d000ffff37003600f800809fbe00829fbe00fa
:1007e000849fbe00869fbe000000fa00108080003b
:1007f0000000e8001080880010808000e40f5000a6
:1008000006003600008080000000e0000200320098
:1008100000808000000001000230ef007002210023
:10082000104078008040e800700221000148780004
:100830006002210011c0b300014878000028a9001f
:100840000080fa004f03be004f02be004f01be0001
:100850004f00be003600f900004006000040da00fc
:080860000000fe00000005008d
:020000040000fa
:100868000000fa00007c80000080fa00000006000a
:100878000200fa00faff0700000f78001e00780057
:10088800240007000004e0000200320000002800f5
:10089800710007001e0078002a0007000004e0002d
:1008a80002003200000024006b0007001e007800e0
:1008b800320007000004e00002003200002020009f
:1008c800650007001e0078003a0007000004e000f9
:1008d80002003200000820005f0007001e007800b8
:1008e800420007000004e00002003200000420007b
:1008f800590007001e0078004a0007000004e000c5
:100908000200320000012000530007000080fa00b6
:10091800000006000400fa00100798000040eb00f1
:10092800004f78001e0090000000e00002003d002b
:1009380010c0b300004f78001e4078000080fa0015
:10094800000006000400fa00100798000040eb00c1
:10095800004f78009e009000000024000080600096
:100968000000e0000200320010c0b300004f780021
:100978001e4078000080fa00000006000400fa001b
:10098800100798000040eb00004f78009e00900090
:1009980000202000008060000000e000020032001b
:1009a80010c0b300004f78001e4078000080fa00a5
:1009b800000006000400fa00100798000040eb0051
:1009c800004f78009e009000000820000080600022
:1009d8000000e0000200320010c0b300004f7800b1
:1009e8001e4078000080fa00000006000400fa00ab
:1009f800100798000040eb00004f78009e00900020
:100a080000042000008060000000e00002003200c6
:100a180010c0b300004f78001e4078000080fa0034
:100a2800000006000400fa00100798000040eb00e0
:100a3800004f78001e009000700060000000e00089
:100a48000200320010c0b300004f78001e4078004a
:100a58000080fa00000006000200fa00000f78008b
:100a68009e80ea00007c800000806000007c880096
:100a78000080fa00000006000000fa00802fef0056
:100a88000080fa00000006000000fa00d221ef0002
:100a98000080fa00000006000000fa00d321a80038
:100aa8000080fa00000006000000fa00a00e800096
:100ab80088800a00000000000080fb0000f0a7000a
:100ac8000000ea000000ea004f00de000040780065
:100ad8000080fa00000006000000fa00d321a900f7
:100ae8000080fa00000006000000fa00a00e800056
:100af80099800a00000000000080fb0000f0a700b9
:100b08000000ea000000ea004f00de000040780024
:100b18000080fa00000006000000fa00d301a800d7
:100b28000080fa00000006000000fa00d301a900c6
:100b38000080fa00000006000200fa0030002000e1
:100b4800000f7800a10e80000000280000806000df
:100b58000000e0000300320040002000000f780091
:100b680016003700a00e8000dc800a00000000009c
:100b78000080fb00e10f500007003200e20f500038
:100b8800080032000000e00009003a000000eb0015
:100b9800000f78000900370020002000000f7800bf
:100ba8000600370010002000000f7800030037000f
:100bb80030002000000f7800000000001e007800c0
:100bc8000080fa00000006000600fa0010079800ee
:100bd800210798000000eb00000f78000f00370095
:100be800d10f800000102000008060000000e000ad
:100bf8000e003a00f10f80001e00900001087800f6
:100c08001e0090000080e800100798002e00900059
:100c18000000e900200798001e0fe8002e00900051
:100c28000000e000eeff3a0001003700000000007d
:100c38001e0078000080fa00000006000600fa0096
:100c480010079800210798000000eb00000f7800bb
:100c58000e003700d00f8000620060000000e00046
:100c68000e003a001e00900010007800e00f880087
:100c78001e0090000080e800100798002e009000e9
:100c88000000e900200798001e0fe8002e009000e1
:100c98000000e000efff3a0001003700000000000c
:100ca8001e0078000080fa00000006000000fa002c
:100cb8000421ef0030952800400888000003280030
:100cc80000088800008080000000e00002003a0070
:100cd800e0862000240007000028a9002028a8009a
:100ce800600221008040eb00014878000080fa0093
:100cf800000006000200fa00000f78009e0078004d
:100d080041088800600221008040eb00014878001b
:100d18000080fa00000006000000fa004008800089
:100d28000080fa00000006000200fa00000f7800b8
:100d38009e00780021088800600221008040eb00b6
:100d4800014878000080fa00000006000000fa0060
:100d5800200880000080fa00000006000000fa0069
:100d68000080fa00000006000200fa00000f780078
:100d78002028a9009e007800018088002028a8006b
:100d88000080fa00000006000000fa00600221005e
:100d98008040eb00014878002028a80001e1a80065
:100da8000080fa00000006000000fa0001e1a90036
:100db8002028a9000080fa00000006000200fa00be
:100dc80060022100104f78001e4078000004e00007
:100dd80003003200600221008040eb0001487800e7
:100de8001e4078000080fa00000006000000fa00ab
:100df80070022100104078000080fb000080fa009b
:100e0800000006000000fa00700221008040eb009c
:100e1800014878000080fa00000006000000fa008f
:100e280010002300307c8800400b2000407c8800a4
:100e380010042000507c880010102800707c880066
:100e4800d0072000807c880010022000907c880059
:100e5800b82fef00ba2fef00be2fef00002def00e4
:100e6800a42fef00a62fef00aa2fef00ae2fef0060
:100e7800b02fef00b22fef001200200080072000f3
:100e8800a109200053f820008049780081497800a2
:100e980082497800120020006004200071052000bb
:100ea80043f8200080497800814978008249780019
:100eb80000000000207c8000610060000000e0006d
:100ec800fcff3a0000000000217c800000022000a6
:100ed800008060000000e000fbff32000080fa00a4
:100ee800000006000000fa00707c8000ee800a0016
:100ef800000000000080fb0000f0a7000000ea00ee
:100f08000000ea004f00de00004078000080fa0090
:100f1800000006000000fa00062eef00222eef0067
:100f28003e2eef005a2eef00762eef00f001200043
:100f3800107088000080eb00f07088000080eb00e3
:100f4800d07188000080eb00b0728800d0ff2f00bd
:100f5800907388000c2eef00282eef00442eef002f
:100f6800602eef007c2eef000a2eef00262eef00f9
:100f7800422eef005e2eef007a2eef00082eef00d3
:100f8800242eef00402eef005c2eef00782eef00ad
:100f9800f001200000708800f0392000e07088001f
:100fa800f00c2000c071880000c02700a0728800e3
:100fb80000042000807388000080fa00000006000a
:100fc8000200fa00000f78000300370000f925003e
:100fd80011002000510007001e00780000f0a70053
:100fe8000000ea000000ea004f00de000040780040
:100ff8001e0fe9000004e000f4ff3a000080fa0048
:10100800000006000200fa00000f78000500370013
:1010180000b42000010020004000070001fe2f005e
:101028001e8f40001e007800ff0f5000f8ff3e00a2
:1010380003003700a005200001002000370007004a
:101048001e00780000f0a7000000ea000000ea0097
:101058004f00de00004078001e0fe9000004e000a9
:10106800f4ff3a000080fa00000006000200fa00cf
:10107800000f780021028000200f2000008060000f
:101088001e007000200288000080fa0000000600a0
:101098000000fa00c3e8a8000000000000000000fb
:1010a8000080fa00000006000000fa0099ff07001f
:1010b8004200070059ff070073fe0700fbfe070008
:1010c800f3ff070000022000e8ff07000080fa0095
:1010d800000006000000fa00b073800011800a00ca
:1010e800000000000004a200614060000080fb00d6
:1010f8006100600000004000b17380000110a10091
:1011080001007000b07388000080fa00000006003b
:0c1118000000fa00e4ff0700ffff3700b2
:020000040000fa
:10112400f03fb1000180b10006003500ee03090074
:1011340000000000403fb1000180b100fbff3d0012
:101144001000b000203fb00002003500008009000c
:0811540000000000000006008d
:020000040000fa
:10115c0006100000200000008000000004100000b9
:10116c000200000082000000ffff000026100000bb
:10117c0002000000800000000010000004000000cd
:08118c008000000000000000db
:020000040000fa
:101194000200fa00000f78009e0078002180880089
:1011a400ffff37000000fa0060002100800778008c
:1011b400e0012100000188000080fa000000060020
:1011c4000000fa0001428000f0f82f000080600067
:1011d4000040a000004288000080fa0000000600e1
:00000001FF
