Microchip MPLAB XC8 Compiler V2.32

Linker command line:

-W-3 --edf=C:\Program Files\Microchip\xc8\v2.32\pic\dat\en_msgs.txt \
  -pivt0x8=08h -cn \
  -h+dist/default/production\uart_to_can_pic18f57q84.X.production.sym \
  --cmf=dist/default/production\uart_to_can_pic18f57q84.X.production.cmf -z \
  -Q18F57Q84 -oC:\Users\A51933\AppData\Local\Temp\xcAskbs.4 \
  --defsym=__MPLAB_BUILD=1 \
  -Mdist/default/production/uart_to_can_pic18f57q84.X.production.map -E1 \
  -ver=XC8 Compiler --acfsm=1493 -ASTACK=0D04h-037FFh -pstack=STACK \
  -ACODE=00h-01FFFFh -ACONST=00h-01FFFFh -ASMALLCONST=03800h-038FFhx456 \
  -AMEDIUMCONST=03800h-0FFFFh,013800h-01FFFFh -ACOMRAM=0501h-055Fh \
  -AABS1=0500h-037FFh -ABIGRAM=0501h-037FFh \
  -ARAM=0560h-05FFh,0600h-06FFhx50 -ABANK5=0560h-05FFh -ABANK6=0600h-06FFh \
  -ABANK7=0700h-07FFh -ABANK8=0800h-08FFh -ABANK9=0900h-09FFh \
  -ABANK10=0A00h-0AFFh -ABANK11=0B00h-0BFFh -ABANK12=0C00h-0CFFh \
  -ABANK13=0D00h-0DFFh -ABANK14=0E00h-0EFFh -ABANK15=0F00h-0FFFh \
  -ABANK16=01000h-010FFh -ABANK17=01100h-011FFh -ABANK18=01200h-012FFh \
  -ABANK19=01300h-013FFh -ABANK20=01400h-014FFh -ABANK21=01500h-015FFh \
  -ABANK22=01600h-016FFh -ABANK23=01700h-017FFh -ABANK24=01800h-018FFh \
  -ABANK25=01900h-019FFh -ABANK26=01A00h-01AFFh -ABANK27=01B00h-01BFFh \
  -ABANK28=01C00h-01CFFh -ABANK29=01D00h-01DFFh -ABANK30=01E00h-01EFFh \
  -ABANK31=01F00h-01FFFh -ABANK32=02000h-020FFh -ABANK33=02100h-021FFh \
  -ABANK34=02200h-022FFh -ABANK35=02300h-023FFh -ABANK36=02400h-024FFh \
  -ABANK37=02500h-025FFh -ABANK38=02600h-026FFh -ABANK39=02700h-027FFh \
  -ABANK40=02800h-028FFh -ABANK41=02900h-029FFh -ABANK42=02A00h-02AFFh \
  -ABANK43=02B00h-02BFFh -ABANK44=02C00h-02CFFh -ABANK45=02D00h-02DFFh \
  -ABANK46=02E00h-02EFFh -ABANK47=02F00h-02FFFh -ABANK48=03000h-030FFh \
  -ABANK49=03100h-031FFh -ABANK50=03200h-032FFh -ABANK51=03300h-033FFh \
  -ABANK52=03400h-034FFh -ABANK53=03500h-035FFh -ABANK54=03600h-036FFh \
  -ABANK55=03700h-037FFh -ASFR=00h-0FFhx4,0400h-045Fh,0460h-04FFh \
  -ACONFIG=0300000h-0300023h -AIDLOC=0200000h-020001Fh \
  -AEEDATA=0380000h-03803FFh -peeprom_data=EEDATA -preset_vec=00h \
  -ppowerup=CODE,init -pramtop=03800h -psmallconst=SMALLCONST \
  -pmediumconst=MEDIUMCONST -pconst=CONST -AFARRAM=00h-00h \
  -prdata=COMRAM,nvrram=COMRAM,nvbit=COMRAM,rbss=COMRAM,rbit=COMRAM \
  -pfarbss=FARRAM,fardata=FARRAM,nvFARRAM=FARRAM \
  -pintsave_regs=BIGRAM,bigbss=BIGRAM,bigdata=BIGRAM -pbss=RAM \
  -pidata=CODE,irdata=CODE,ibigdata=CODE,ifardata=CODE -prparam=COMRAM \
  C:\Users\A51933\AppData\Local\Temp\xcAskbs.o \
  dist/default/production\uart_to_can_pic18f57q84.X.production.o 

Object code version is 3.11

Machine type is 18F57Q84



                Name                               Link     Load   Length Selector   Space Scale
C:\Users\A51933\AppData\Local\Temp\xcAskbs.o
                idloc                            200000   200000       20        0       5
                config                           300000   300000       24        0       4
                init                                10A      10A        4        4       0
                reset_vec                             0        0        4        0       0
dist/default/production\uart_to_can_pic18f57q84.X.production.o
                idloc                            200000   200000       20        0       5
                config                           300000   300000       24        0       4
                smallconst                         3800     3800       26     1C00       0
                ivt0x8                                8        8      102        4       0
                text103                            51AE     51AE       7A     1C13       0
                text102                            5EC4     5EC4        6     168A       0
                text101                            5EBE     5EBE        6     168A       0
                text100                            5D2A     5D2A       1A     168A       0
                text99                             5AC0     5AC0       2E     168A       0
                text98                             5EDC     5EDC        2     17B5       0
                text97                             5EDA     5EDA        2     17B5       0
                text96                             5ED8     5ED8        2     17B5       0
                text95                             4C74     4C74       A0     1C13       0
                text94                             5DA4     5DA4       18     168A       0
                text93                             5E0C     5E0C       14     168A       0
                text92                             5B9C     5B9C       2A     168A       0
                text91                             3826     3826      2B6     1C13       0
                text90                             5B46     5B46       2C     168A       0
                text89                             5ED6     5ED6        2     17B5       0
                text88                             5A28     5A28       34     168A       0
                text87                             5ED4     5ED4        2     17B5       0
                text86                             3F62     3F62      190     1C13       0
                text85                             5CD0     5CD0       22     168A       0
                text84                             5D8C     5D8C       18     168A       0
                text83                             55D4     55D4       5A     1C13       0
                text82                             5772     5772       4A     1C13       0
                text81                             5842     5842       42     1C13       0
                text80                             5456     5456       68     1C13       0
                text79                             593E     593E       3E     1C13       0
                text78                             59B6     59B6       3A     1C13       0
                text77                             53EE     53EE       68     1C13       0
                text76                             5A8E     5A8E       32     168A       0
                text75                             5A5C     5A5C       32     168A       0
                text74                             5EA6     5EA6        A     168A       0
                text73                             5E90     5E90        C     168A       0
                text72                             5DF8     5DF8       14     168A       0
                text71                             4326     4326      106     1C13       0
                text70                             5E84     5E84        C     168A       0
                text69                             54BE     54BE       60     1C13       0
                text68                             5E20     5E20       12     168A       0
                text67                             5CF2     5CF2       1E     168A       0
                text66                             5D74     5D74       18     168A       0
                text65                             3D22     3D22      240     1C13       0
                text64                             4218     4218      10E     1C13       0
                text63                             479C     479C       CA     1C13       0
                text62                             5D10     5D10       1A     168A       0
                text61                             5380     5380       6E     1C13       0
                text60                             4BD4     4BD4       A0     1C13       0
                text59                             5C16     5C16       28     168A       0
                text58                             5E78     5E78        C     168A       0
                text57                             5ED0     5ED0        2     168A       0
                text56                             5800     5800       42     1C13       0
                text55                             4DB2     4DB2       9E     1C13       0
                text54                             5ECA     5ECA        4     168A       0
                text53                             4866     4866       C0     1C13       0
                text52                             5D5C     5D5C       18     168A       0
                text51                             442C     442C       EE     1C13       0
                text50                             5C8A     5C8A       24     168A       0
                text49                             557A     557A       5A     1C13       0
                text48                             5EB0     5EB0        8     168A       0
                text47                             5900     5900       3E     1C13       0
                text46                             4EE6     4EE6       94     1C13       0
                text45                             597C     597C       3A     1C13       0
                text44                             46D0     46D0       CC     1C13       0
                text43                             562E     562E       58     1C13       0
                text42                             5D44     5D44       18     168A       0
                text41                             58C2     58C2       3E     1C13       0
                text40                             5BEE     5BEE       28     168A       0
                text39                             5728     5728       4A     1C13       0
                text38                             5310     5310       70     1C13       0
                text37                             451A     451A       E4     1C13       0
                text36                             5DE4     5DE4       14     168A       0
                text35                             49DE     49DE       B2     1C13       0
                text34                             4B34     4B34       A0     1C13       0
                text33                             5E9C     5E9C        A     168A       0
                text32                             40F2     40F2      126     1C13       0
                text31                             3ADC     3ADC      246     1C13       0
                text30                             4E50     4E50       96     1C13       0
                text29                             529C     529C       74     1C13       0
                text28                             57BC     57BC       44     1C13       0
                text27                             509C     509C       8A     1C13       0
                text26                             4F7A     4F7A       92     1C13       0
                text25                             4A90     4A90       A4     1C13       0
                text24                             45FE     45FE       D2     1C13       0
                text23                             4926     4926       B8     1C13       0
                text22                             5E6A     5E6A        E     168A       0
                text21                             551E     551E       5C     1C13       0
                text20                             5B1A     5B1A       2C     168A       0
                text19                             5126     5126       88     1C13       0
                text18                             5DD0     5DD0       14     168A       0
                text17                             5C64     5C64       26     168A       0
                text16                             5AEE     5AEE       2C     168A       0
                text15                             5DBC     5DBC       14     168A       0
                text14                             5686     5686       54     1C13       0
                text13                             5884     5884       3E     1C13       0
                text12                             5C3E     5C3E       26     168A       0
                text11                             4D14     4D14       9E     1C13       0
                text10                             5BC6     5BC6       28     168A       0
                text9                              5E5C     5E5C        E     168A       0
                text8                              5B72     5B72       2A     168A       0
                text7                              59F0     59F0       36     1C13       0
                text6                              5E4E     5E4E        E     168A       0
                text5                              5E40     5E40        E     168A       0
                text4                              5E32     5E32        E     168A       0
                text3                              5228     5228       74     1C13       0
                text2                              5CAE     5CAE       22     168A       0
                text1                              5EB8     5EB8        6     168A       0
                text0                              56DA     56DA       4E     1C13       0
                cstackCOMRAM                        532      532       28      501       1
                cstackBANK5                         5EC      5EC        3      560       1
                bssBIGRAM                           900      900      404      900       1
                bssBANK8                            800      800      100      800       1
                bssBANK7                            700      700      100      700       1
                bssBANK6                            600      600       80      600       1
                bssBANK5                            560      560       8C      560       1
                dataCOMRAM                          55A      55A        2      501       1
                bssCOMRAM                           501      501       31      501       1
                cinit                              500C     500C       90     1C13       0
                idataCOMRAM                        5ECE     5ECE        2     168A       0

TOTAL           Name                               Link     Load   Length     Space
        CLASS   STACK          

        CLASS   CODE           
                init                                10A      10A        4         0
                reset_vec                             0        0        4         0
                ivt0x8                                8        8      102         0
                text103                            51AE     51AE       7A         0
                text102                            5EC4     5EC4        6         0
                text101                            5EBE     5EBE        6         0
                text100                            5D2A     5D2A       1A         0
                text99                             5AC0     5AC0       2E         0
                text98                             5EDC     5EDC        2         0
                text97                             5EDA     5EDA        2         0
                text96                             5ED8     5ED8        2         0
                text95                             4C74     4C74       A0         0
                text94                             5DA4     5DA4       18         0
                text93                             5E0C     5E0C       14         0
                text92                             5B9C     5B9C       2A         0
                text91                             3826     3826      2B6         0
                text90                             5B46     5B46       2C         0
                text89                             5ED6     5ED6        2         0
                text88                             5A28     5A28       34         0
                text87                             5ED4     5ED4        2         0
                text86                             3F62     3F62      190         0
                text85                             5CD0     5CD0       22         0
                text84                             5D8C     5D8C       18         0
                text83                             55D4     55D4       5A         0
                text82                             5772     5772       4A         0
                text81                             5842     5842       42         0
                text80                             5456     5456       68         0
                text79                             593E     593E       3E         0
                text78                             59B6     59B6       3A         0
                text77                             53EE     53EE       68         0
                text76                             5A8E     5A8E       32         0
                text75                             5A5C     5A5C       32         0
                text74                             5EA6     5EA6        A         0
                text73                             5E90     5E90        C         0
                text72                             5DF8     5DF8       14         0
                text71                             4326     4326      106         0
                text70                             5E84     5E84        C         0
                text69                             54BE     54BE       60         0
                text68                             5E20     5E20       12         0
                text67                             5CF2     5CF2       1E         0
                text66                             5D74     5D74       18         0
                text65                             3D22     3D22      240         0
                text64                             4218     4218      10E         0
                text63                             479C     479C       CA         0
                text62                             5D10     5D10       1A         0
                text61                             5380     5380       6E         0
                text60                             4BD4     4BD4       A0         0
                text59                             5C16     5C16       28         0
                text58                             5E78     5E78        C         0
                text57                             5ED0     5ED0        2         0
                text56                             5800     5800       42         0
                text55                             4DB2     4DB2       9E         0
                text54                             5ECA     5ECA        4         0
                text53                             4866     4866       C0         0
                text52                             5D5C     5D5C       18         0
                text51                             442C     442C       EE         0
                text50                             5C8A     5C8A       24         0
                text49                             557A     557A       5A         0
                text48                             5EB0     5EB0        8         0
                text47                             5900     5900       3E         0
                text46                             4EE6     4EE6       94         0
                text45                             597C     597C       3A         0
                text44                             46D0     46D0       CC         0
                text43                             562E     562E       58         0
                text42                             5D44     5D44       18         0
                text41                             58C2     58C2       3E         0
                text40                             5BEE     5BEE       28         0
                text39                             5728     5728       4A         0
                text38                             5310     5310       70         0
                text37                             451A     451A       E4         0
                text36                             5DE4     5DE4       14         0
                text35                             49DE     49DE       B2         0
                text34                             4B34     4B34       A0         0
                text33                             5E9C     5E9C        A         0
                text32                             40F2     40F2      126         0
                text31                             3ADC     3ADC      246         0
                text30                             4E50     4E50       96         0
                text29                             529C     529C       74         0
                text28                             57BC     57BC       44         0
                text27                             509C     509C       8A         0
                text26                             4F7A     4F7A       92         0
                text25                             4A90     4A90       A4         0
                text24                             45FE     45FE       D2         0
                text23                             4926     4926       B8         0
                text22                             5E6A     5E6A        E         0
                text21                             551E     551E       5C         0
                text20                             5B1A     5B1A       2C         0
                text19                             5126     5126       88         0
                text18                             5DD0     5DD0       14         0
                text17                             5C64     5C64       26         0
                text16                             5AEE     5AEE       2C         0
                text15                             5DBC     5DBC       14         0
                text14                             5686     5686       54         0
                text13                             5884     5884       3E         0
                text12                             5C3E     5C3E       26         0
                text11                             4D14     4D14       9E         0
                text10                             5BC6     5BC6       28         0
                text9                              5E5C     5E5C        E         0
                text8                              5B72     5B72       2A         0
                text7                              59F0     59F0       36         0
                text6                              5E4E     5E4E        E         0
                text5                              5E40     5E40        E         0
                text4                              5E32     5E32        E         0
                text3                              5228     5228       74         0
                text2                              5CAE     5CAE       22         0
                text1                              5EB8     5EB8        6         0
                text0                              56DA     56DA       4E         0
                cinit                              500C     500C       90         0
                idataCOMRAM                        5ECE     5ECE        2         0

        CLASS   CONST          

        CLASS   SMALLCONST     
                smallconst                         3800     3800       26         0

        CLASS   MEDIUMCONST    

        CLASS   COMRAM         
                cstackCOMRAM                        532      532       28         1
                dataCOMRAM                          55A      55A        2         1
                bssCOMRAM                           501      501       31         1

        CLASS   ABS1           

        CLASS   BIGRAM         
                bssBIGRAM                           900      900      404         1

        CLASS   RAM            

        CLASS   BANK5          
                cstackBANK5                         5EC      5EC        3         1
                bssBANK5                            560      560       8C         1

        CLASS   BANK6          
                bssBANK6                            600      600       80         1

        CLASS   BANK7          
                bssBANK7                            700      700      100         1

        CLASS   BANK8          
                bssBANK8                            800      800      100         1

        CLASS   BANK9          

        CLASS   BANK10         

        CLASS   BANK11         

        CLASS   BANK12         

        CLASS   BANK13         

        CLASS   BANK14         

        CLASS   BANK15         

        CLASS   BANK16         

        CLASS   BANK17         

        CLASS   BANK18         

        CLASS   BANK19         

        CLASS   BANK20         

        CLASS   BANK21         

        CLASS   BANK22         

        CLASS   BANK23         

        CLASS   BANK24         

        CLASS   BANK25         

        CLASS   BANK26         

        CLASS   BANK27         

        CLASS   BANK28         

        CLASS   BANK29         

        CLASS   BANK30         

        CLASS   BANK31         

        CLASS   BANK32         

        CLASS   BANK33         

        CLASS   BANK34         

        CLASS   BANK35         

        CLASS   BANK36         

        CLASS   BANK37         

        CLASS   BANK38         

        CLASS   BANK39         

        CLASS   BANK40         

        CLASS   BANK41         

        CLASS   BANK42         

        CLASS   BANK43         

        CLASS   BANK44         

        CLASS   BANK45         

        CLASS   BANK46         

        CLASS   BANK47         

        CLASS   BANK48         

        CLASS   BANK49         

        CLASS   BANK50         

        CLASS   BANK51         

        CLASS   BANK52         

        CLASS   BANK53         

        CLASS   BANK54         

        CLASS   BANK55         

        CLASS   SFR            

        CLASS   CONFIG         
                config                           300000   300000       24         4

        CLASS   IDLOC          
                idloc                            200000   200000       20         5

        CLASS   EEDATA         

        CLASS   FARRAM         



SEGMENTS        Name                           Load    Length   Top    Selector   Space  Class

                reset_vec                      000000  000004  000004         0       0  CODE    
                ivt0x8                         000008  000106  00010E         4       0  CODE    
                bssCOMRAM                      000501  00005B  00055C       501       1  COMRAM  
                bssBANK5                       000560  00008F  0005EF       560       1  BANK5   
                bssBANK6                       000600  000080  000680       600       1  BANK6   
                bssBANK7                       000700  000100  000800       700       1  BANK7   
                bssBANK8                       000800  000100  000900       800       1  BANK8   
                bssBIGRAM                      000900  000404  000D04       900       1  BIGRAM  
                smallconst                     003800  000026  003826      1C00       0  SMALLCON
                text91                         003826  002200  005A26      1C13       0  CODE    
                text88                         005A28  0004AA  005ED2      168A       0  CODE    
                text87                         005ED4  00000A  005EDE      17B5       0  CODE    


UNUSED ADDRESS RANGES

        Name                Unused          Largest block    Delta
        BANK13           000D04-000DFF               FC
        BANK14           000E00-000EFF              100
        BANK15           000F00-000FFF              100
        BANK16           001000-0010FF              100
        BANK17           001100-0011FF              100
        BANK18           001200-0012FF              100
        BANK19           001300-0013FF              100
        BANK20           001400-0014FF              100
        BANK21           001500-0015FF              100
        BANK22           001600-0016FF              100
        BANK23           001700-0017FF              100
        BANK24           001800-0018FF              100
        BANK25           001900-0019FF              100
        BANK26           001A00-001AFF              100
        BANK27           001B00-001BFF              100
        BANK28           001C00-001CFF              100
        BANK29           001D00-001DFF              100
        BANK30           001E00-001EFF              100
        BANK31           001F00-001FFF              100
        BANK32           002000-0020FF              100
        BANK33           002100-0021FF              100
        BANK34           002200-0022FF              100
        BANK35           002300-0023FF              100
        BANK36           002400-0024FF              100
        BANK37           002500-0025FF              100
        BANK38           002600-0026FF              100
        BANK39           002700-0027FF              100
        BANK40           002800-0028FF              100
        BANK41           002900-0029FF              100
        BANK42           002A00-002AFF              100
        BANK43           002B00-002BFF              100
        BANK44           002C00-002CFF              100
        BANK45           002D00-002DFF              100
        BANK46           002E00-002EFF              100
        BANK47           002F00-002FFF              100
        BANK48           003000-0030FF              100
        BANK49           003100-0031FF              100
        BANK5            0005EF-0005FF               11
        BANK50           003200-0032FF              100
        BANK51           003300-0033FF              100
        BANK52           003400-0034FF              100
        BANK53           003500-0035FF              100
        BANK54           003600-0036FF              100
        BANK55           003700-0037FF              100
        BANK6            000680-0006FF               80
        BIGRAM           00055C-00055F                4
                         0005EF-0005FF               11
                         000680-0006FF               80
                         000D04-0037FF             2AFC
        CODE             000004-000007                4
                         00010E-0037FF             36F2
                         005A26-005A27                2
                         005ED2-005ED3                2
                         005EDE-01FFFF            1A122
        COMRAM           00055C-00055F                4
        CONST            000004-000007                4
                         00010E-0037FF             36F2
                         005A26-005A27                2
                         005ED2-005ED3                2
                         005EDE-01FFFF            1A122
        EEDATA           380000-3803FF              400
        MEDIUMCONST      005A26-005A27                2
                         005ED2-005ED3                2
                         005EDE-00FFFF             A122
                         013800-01FFFF             C800
        RAM              0005EF-0005FF               11
                         000680-0006FF               80
                         000D04-0037FF              100
        SFR              000000-0004FF              100
        SMALLCONST       005A26-005A27                2
                         005ED2-005ED3                2
                         005EDE-01FFFF              100
        STACK            000D04-0037FF             2AFC

                                  Symbol Table

?_BOOT_COM_GetBytesReady                          cstackCOMRAM 000544
?_BOOT_COM_Read                                   cstackCOMRAM 000548
?_CAN_TP_MessageLengthGet                         cstackCOMRAM 000536
?_SeparationTimeToTicks                           cstackCOMRAM 000536
?_u16DrvRs485IsRxFinished                         cstackCOMRAM 000536
?_u16DrvRs485IsTxFinished                         cstackCOMRAM 000536
?_u16DrvRs485StateGet                             cstackCOMRAM 000536
AdjustFrameSize@frameDataLength                   cstackCOMRAM 000537
AdjustFrameSize@newFrameLength                    cstackCOMRAM 000536
AppCommGui@u16RxNum                               cstackCOMRAM 00054D
AppCommGui@u16TxNum                               cstackCOMRAM 00054F
BOOT_COM_Read@data                                cstackCOMRAM 000548
BOOT_COM_Read@size                                cstackCOMRAM 00054A
BOOT_COM_Write@data                               cstackCOMRAM 000541
BOOT_COM_Write@length                             cstackCOMRAM 000543
BytesToDLCGet@length                              cstackCOMRAM 000536
CAN1_OperationModeSet@opMode                      cstackCOMRAM 000536
CAN1_OperationModeSet@requestMode                 cstackCOMRAM 000538
CAN1_OperationModeSet@status                      cstackCOMRAM 000537
CAN1_RX_FIFO_ResetInfo@index                      cstackCOMRAM 000536
CAN1_Receive@channel                              cstackCOMRAM 000553
CAN1_Receive@index                                cstackCOMRAM 000554
CAN1_Receive@rxCanMsg                             cstackCOMRAM 00054C
CAN1_Receive@rxFifoObj                            cstackCOMRAM 000550
CAN1_Receive@rxMsgStatus                          cstackCOMRAM 000552
CAN1_ReceivedMessageCountGet@channel              cstackCOMRAM 00053B
CAN1_ReceivedMessageCountGet@fifoDepth            cstackCOMRAM 00053C
CAN1_ReceivedMessageCountGet@fifoHead             cstackCOMRAM 00053E
CAN1_ReceivedMessageCountGet@fifoTail             cstackCOMRAM 00053D
CAN1_ReceivedMessageCountGet@index                cstackCOMRAM 00053F
CAN1_ReceivedMessageCountGet@numOfMsg             cstackCOMRAM 000539
CAN1_ReceivedMessageCountGet@rxMsgStatus          cstackCOMRAM 00053A
CAN1_ReceivedMessageCountGet@totalMsgObj          cstackCOMRAM 000538
CAN1_Transmit@fifoChannel                         cstackCOMRAM 000551
CAN1_Transmit@status                              cstackCOMRAM 000550
CAN1_Transmit@txCanMsg                            cstackCOMRAM 00054C
CAN1_Transmit@txFifoObj                           cstackCOMRAM 00054E
CAN1_TransmitFIFOStatusGet@fifoChannel            cstackCOMRAM 000539
CAN1_TransmitFIFOStatusGet@status                 cstackCOMRAM 000538
CAN_PHY_Receive@data                              cstackCOMRAM 000555
CAN_PHY_Receive@length                            cstackCOMRAM 000557
CAN_PHY_Transmit@data                             cstackCOMRAM 000557
CAN_PHY_Transmit@isEid                            cstackCOMRAM 000556
CAN_PHY_Transmit@length                           cstackCOMRAM 000559
CAN_PHY_Transmit@messageId                        cstackCOMRAM 000552
CAN_PHY_TransmitStatusGet@status                  cstackCOMRAM 00053C
CAN_TP_MessageGet@buffer                          cstackCOMRAM 000541
CAN_TP_MessageGet@messageReady                    cstackCOMRAM 000543
CAN_TP_MessageSend@buffer                         cstackCOMRAM 000536
CAN_TP_MessageSend@length                         cstackCOMRAM 000538
CAN_TP_MessageSend@sent                           cstackCOMRAM 00053A
CAN_TP_RxMessageBufferSet@buffer                  cstackCOMRAM 000536
CAN_TP_RxMessageBufferSet@bufferSize              cstackCOMRAM 000538
DlcToDataBytesGet@dlc                             cstackCOMRAM 000536
DlcToDataBytesGet@dlcByteSize                     smallconst   003801
FirstFrameProcess@F437                            bssBANK5     000560
FirstFrameProcess@firstFrameData                  cstackCOMRAM 000546
FlowControlStatusUpdate@status                    cstackCOMRAM 000536
FlowcontrolFrameProcess@status                    cstackCOMRAM 00053E
GetRxFifoDepth@validChannel                       cstackCOMRAM 000537
GetRxFifoStatus@validChannel                      cstackCOMRAM 000536
GetTxFifoStatus@validChannel                      cstackCOMRAM 000536
INTERRUPT_Initialize@state                        cstackCOMRAM 000536
IVTBASEH                                          (abs)        00045E
IVTBASEL                                          (abs)        00045D
IVTBASEU                                          (abs)        00045F
IncomingMessageComplete@indicationData            cstackCOMRAM 00053B
IncomingMessageComplete@result                    cstackCOMRAM 00053A
IssueEvent@data                                   cstackCOMRAM 000538
IssueEvent@header                                 cstackCOMRAM 000536
OutgoingMessageComplete@confirmData               cstackCOMRAM 00053B
OutgoingMessageComplete@result                    cstackCOMRAM 00053A
ReadMessageFromFifo@msgId                         cstackCOMRAM 000547
ReadMessageFromFifo@rxCanMsg                      cstackCOMRAM 000543
ReadMessageFromFifo@rxFifoObj                     cstackCOMRAM 000541
ReadMessageFromFifo@status                        cstackCOMRAM 00054B
SeparationTimeToTicks@separationTime              cstackCOMRAM 00053A
SeparationTimeToTicks@ticks                       cstackCOMRAM 000538
TMR0_SetInterruptHandler@InterruptHandler         cstackCOMRAM 000536
TMR0_UserInterruptHandler@counter                 bssBANK5     000573
TMR1_WriteTimer@timerVal                          cstackCOMRAM 000532
UART1_SetErrorHandler@interruptHandler            cstackCOMRAM 000536
UART1_SetFramingErrorHandler@interruptHandler     cstackCOMRAM 000536
UART1_SetOverrunErrorHandler@interruptHandler     cstackCOMRAM 000536
UART1_Write@txData                                cstackCOMRAM 000532
ValidateTransmission@field                        cstackCOMRAM 000541
ValidateTransmission@plsize                       cstackCOMRAM 00053E
ValidateTransmission@txCanMsg                     cstackCOMRAM 000537
ValidateTransmission@txMsgStatus                  cstackCOMRAM 000540
ValidateTransmission@validChannel                 cstackCOMRAM 00053F
WriteMessageToFifo@msgId                          cstackCOMRAM 000548
WriteMessageToFifo@status                         cstackCOMRAM 000547
WriteMessageToFifo@txCanMsg                       cstackCOMRAM 000543
WriteMessageToFifo@txFifoObj                      cstackCOMRAM 000541
_ANSELA                                           (abs)        000400
_ANSELB                                           (abs)        000408
_ANSELC                                           (abs)        000410
_ANSELD                                           (abs)        000418
_ANSELE                                           (abs)        000420
_ANSELF                                           (abs)        000428
_AdjustFrameSize                                  text35       0049DE
_AppCommGui                                       text71       004326
_AppCommGuiInit                                   text70       005E84
_BOOT_COM_GetBytesReady                           text80       005456
_BOOT_COM_Initialize                              text85       005CD0
_BOOT_COM_Read                                    text79       00593E
_BOOT_COM_Write                                   text77       0053EE
_BytesToDLCGet                                    text34       004B34
_C1CONH                                           (abs)        000101
_C1CONHbits                                       (abs)        000101
_C1CONL                                           (abs)        000100
_C1CONTbits                                       (abs)        000103
_C1CONU                                           (abs)        000102
_C1CONUbits                                       (abs)        000102
_C1DBTCFGH                                        (abs)        000109
_C1DBTCFGL                                        (abs)        000108
_C1DBTCFGT                                        (abs)        00010B
_C1DBTCFGU                                        (abs)        00010A
_C1FIFOBA                                         (abs)        00014C
_C1FIFOCON1H                                      (abs)        00015D
_C1FIFOCON1L                                      (abs)        00015C
_C1FIFOCON1T                                      (abs)        00015F
_C1FIFOCON1U                                      (abs)        00015E
_C1FIFOCON2H                                      (abs)        000169
_C1FIFOCON2L                                      (abs)        000168
_C1FIFOCON2T                                      (abs)        00016B
_C1FIFOCON2U                                      (abs)        00016A
_C1FLTCON0L                                       (abs)        000180
_C1FLTOBJ0H                                       (abs)        00018D
_C1FLTOBJ0L                                       (abs)        00018C
_C1FLTOBJ0T                                       (abs)        00018F
_C1FLTOBJ0U                                       (abs)        00018E
_C1INTHbits                                       (abs)        00011D
_C1INTTbits                                       (abs)        00011F
_C1MASK0H                                         (abs)        000191
_C1MASK0L                                         (abs)        000190
_C1MASK0T                                         (abs)        000193
_C1MASK0U                                         (abs)        000192
_C1NBTCFGH                                        (abs)        000105
_C1NBTCFGL                                        (abs)        000104
_C1NBTCFGT                                        (abs)        000107
_C1NBTCFGU                                        (abs)        000106
_C1TDCH                                           (abs)        00010D
_C1TDCU                                           (abs)        00010E
_C1TRECUbits                                      (abs)        000136
_C1TXQCONL                                        (abs)        000150
_CAN1_BitRateConfiguration                        text20       005B1A
_CAN1_Initialize                                  text14       005686
_CAN1_OperationModeGet                            text33       005E9C
_CAN1_OperationModeSet                            text19       005126
_CAN1_RX_FIFO_Configuration                       text18       005DD0
_CAN1_RX_FIFO_FilterMaskConfiguration             text17       005C64
_CAN1_RX_FIFO_ResetInfo                           text16       005AEE
_CAN1_Receive                                     text64       004218
_CAN1_ReceivedMessageCountGet                     text63       00479C
_CAN1_TX_FIFO_Configuration                       text15       005DBC
_CAN1_Transmit                                    text30       004E50
_CAN1_TransmitFIFOStatusGet                       text40       005BEE
_CANRXPPS                                         (abs)        00023D
_CAN_PHY_Receive                                  text61       005380
_CAN_PHY_Transmit                                 text29       00529C
_CAN_PHY_TransmitStatusGet                        text39       005728
_CAN_TP_Initialize                                text69       0054BE
_CAN_TP_IsMessageReady                            text84       005D8C
_CAN_TP_MessageGet                                text82       005772
_CAN_TP_MessageLengthGet                          text81       005842
_CAN_TP_MessageLengthGet$1482                     cstackCOMRAM 000538
_CAN_TP_MessageSend                               text78       0059B6
_CAN_TP_RxMessageBufferSet                        text68       005E20
_CAN_TP_Tasks                                     text22       005E6A
_CAN_TP_Tick                                      text103      0051AE
_CanDataFitInOneFrame                             text43       00562E
_CanDataFitInOneFrame$1548                        cstackCOMRAM 000536
_ConsecutiveFrameParse                            text60       004BD4
_ConsecutiveFrameProcess                          text55       004DB2
_CopyRxFrameDataIntoMessageBuffer                 text59       005C16
_DLC_BYTES                                        smallconst   003811
_Default_ISR                                      text87       005ED4
_DlcToDataBytesGet                                text62       005D10
_DrvRs485Init                                     text21       00551E
_DrvRs485RxTx                                     text91       003826
_FirstFrameDataLengthMinGet                       text54       005ECA
_FirstFrameParse                                  text53       004866
_FirstFrameProcess                                text51       00442C
_FlowControlStatusUpdate                          text58       005E78
_FlowcontrolFrameProcess                          text49       00557A
_GIE                                              (abs)        0026B7
_GetFrameType                                     text48       005EB0
_GetRxFifoDepth                                   text67       005CF2
_GetRxFifoStatus                                  text66       005D74
_GetTxFifoStatus                                  text42       005D44
_INLVLA                                           (abs)        000404
_INLVLB                                           (abs)        00040C
_INLVLC                                           (abs)        000414
_INLVLD                                           (abs)        00041C
_INLVLE                                           (abs)        000424
_INLVLF                                           (abs)        00042C
_INTCON0bits                                      (abs)        0004D6
_INTERRUPT_Initialize                             text13       005884
_IPR3bits                                         (abs)        000365
_IVTBASEH                                         (abs)        00045E
_IVTBASEL                                         (abs)        00045D
_IVTBASEU                                         (abs)        00045F
_IVTLOCK                                          (abs)        000459
_IVTLOCKbits                                      (abs)        000459
_IncomingMessageComplete                          text56       005800
_IssueEvent                                       text57       005ED0
_LATA                                             (abs)        0004BE
_LATB                                             (abs)        0004BF
_LATC                                             (abs)        0004C0
_LATD                                             (abs)        0004C1
_LATE                                             (abs)        0004C2
_LATF                                             (abs)        0004C3
_LATFbits                                         (abs)        0004C3
_ODCONA                                           (abs)        000402
_ODCONB                                           (abs)        00040A
_ODCONC                                           (abs)        000412
_ODCOND                                           (abs)        00041A
_ODCONE                                           (abs)        000422
_ODCONF                                           (abs)        00042A
_OSCCON1                                          (abs)        0000AD
_OSCCON3                                          (abs)        0000AF
_OSCEN                                            (abs)        0000B3
_OSCFRQ                                           (abs)        0000B1
_OSCILLATOR_Initialize                            text12       005C3E
_OSCTUNE                                          (abs)        0000B0
_OutgoingMessageComplete                          text50       005C8A
_OutputMessageLastFrameStatusCheck                text37       00451A
_PIE3bits                                         (abs)        0004A1
_PIN_MANAGER_Initialize                           text11       004D14
_PIR3bits                                         (abs)        0004B1
_PIR4bits                                         (abs)        0004B2
_PLLR                                             (abs)        000590
_PMD0                                             (abs)        000060
_PMD1                                             (abs)        000061
_PMD2                                             (abs)        000062
_PMD3                                             (abs)        000063
_PMD4                                             (abs)        000064
_PMD5                                             (abs)        000065
_PMD6                                             (abs)        000066
_PMD7                                             (abs)        000067
_PMD8                                             (abs)        000068
_PMD_Initialize                                   text10       005BC6
_ProcessIncomingFrame                             text44       0046D0
_ProcessOutgoingFlowControlChangeRequest          text36       005DE4
_ProcessOutgoingMessage                           text24       0045FE
_RD0PPS                                           (abs)        000219
_RF0PPS                                           (abs)        000229
_ReadMessageFromFifo                              text65       003D22
_ReceptionTimedOut                                text47       005900
_ReceptionTimedOut$1527                           cstackCOMRAM 000536
_RxSegmentedMessageTerminate                      text52       005D5C
_SLRCONA                                          (abs)        000403
_SLRCONB                                          (abs)        00040B
_SLRCONC                                          (abs)        000413
_SLRCOND                                          (abs)        00041B
_SLRCONE                                          (abs)        000423
_SLRCONF                                          (abs)        00042B
_SYSTEM_Initialize                                text2        005CAE
_SendConsecutiveFrame                             text27       00509C
_SendFirstFrame                                   text26       004F7A
_SendSingleFrame                                  text25       004A90
_SeparationTimeToTicks                            text38       005310
_SingleFrameParse                                 text46       004EE6
_SingleFrameProcess                               text45       00597C
_T0CON0                                           (abs)        00031A
_T0CON0bits                                       (abs)        00031A
_T0CON1                                           (abs)        00031B
_T1CLK                                            (abs)        000321
_T1CON                                            (abs)        00031E
_T1CONbits                                        (abs)        00031E
_T1GATE                                           (abs)        000320
_T1GCON                                           (abs)        00031F
_T1GCONbits                                       (abs)        00031F
_TMR0H                                            (abs)        000319
_TMR0L                                            (abs)        000318
_TMR0_DefaultInterruptHandler                     text89       005ED6
_TMR0_ISR                                         text88       005A28
_TMR0_Initialize                                  text8        005B72
_TMR0_InterruptHandler                            bssBANK5     000567
_TMR0_SetInterruptHandler                         text9        005E5C
_TMR0_StartTimer                                  text1        005EB8
_TMR0_UserInterruptHandler                        text90       005B46
_TMR1H                                            (abs)        00031D
_TMR1L                                            (abs)        00031C
_TMR1_Initialize                                  text7        0059F0
_TMR1_StartTimer                                  text102      005EC4
_TMR1_StopTimer                                   text101      005EBE
_TMR1_TMR_StatusGet                               text100      005D2A
_TMR1_WriteTimer                                  text99       005AC0
_TRISA                                            (abs)        0004C6
_TRISB                                            (abs)        0004C7
_TRISC                                            (abs)        0004C8
_TRISD                                            (abs)        0004C9
_TRISE                                            (abs)        0004CA
_TRISF                                            (abs)        0004CB
_TransmitPendingFlowControl                       text23       004926
_TransmitTxFrame                                  text28       0057BC
_U1BRGH                                           (abs)        0002AF
_U1BRGL                                           (abs)        0002AE
_U1CON0                                           (abs)        0002AB
_U1CON0bits                                       (abs)        0002AB
_U1CON1                                           (abs)        0002AC
_U1CON2                                           (abs)        0002AD
_U1ERRIE                                          (abs)        0002B3
_U1ERRIR                                          (abs)        0002B2
_U1ERRIRbits                                      (abs)        0002B2
_U1FIFO                                           (abs)        0002B0
_U1P1H                                            (abs)        0002A6
_U1P1L                                            (abs)        0002A5
_U1P2H                                            (abs)        0002A8
_U1P2L                                            (abs)        0002A7
_U1P3H                                            (abs)        0002AA
_U1P3L                                            (abs)        0002A9
_U1RXB                                            (abs)        0002A1
_U1RXPPS                                          (abs)        000272
_U1TXB                                            (abs)        0002A3
_U1UIR                                            (abs)        0002B1
_UART1_DefaultErrorHandler                        text98       005EDC
_UART1_DefaultFramingErrorHandler                 text97       005EDA
_UART1_DefaultOverrunErrorHandler                 text96       005ED8
_UART1_ErrorHandler                               bssBANK5     00056A
_UART1_FramingErrorHandler                        bssBANK5     000570
_UART1_Initialize                                 text3        005228
_UART1_OverrunErrorHandler                        bssBANK5     00056D
_UART1_Read                                       text95       004C74
_UART1_SetErrorHandler                            text6        005E4E
_UART1_SetFramingErrorHandler                     text5        005E40
_UART1_SetOverrunErrorHandler                     text4        005E32
_UART1_Write                                      text94       005DA4
_UART1_is_rx_ready                                text93       005E0C
_UART1_is_tx_ready                                text92       005B9C
_UART1_is_tx_ready$389                            cstackCOMRAM 000532
_ValidateTransmission                             text32       0040F2
_WPUA                                             (abs)        000401
_WPUB                                             (abs)        000409
_WPUC                                             (abs)        000411
_WPUD                                             (abs)        000419
_WPUE                                             (abs)        000421
_WPUF                                             (abs)        000429
_WriteMessageToFifo                               text31       003ADC
__HRAM                                            (abs)        000000
__Habs1                                           abs1         000000
__Hbank10                                         bank10       000000
__Hbank11                                         bank11       000000
__Hbank12                                         bank12       000000
__Hbank13                                         bank13       000000
__Hbank14                                         bank14       000000
__Hbank15                                         bank15       000000
__Hbank16                                         bank16       000000
__Hbank17                                         bank17       000000
__Hbank18                                         bank18       000000
__Hbank19                                         bank19       000000
__Hbank20                                         bank20       000000
__Hbank21                                         bank21       000000
__Hbank22                                         bank22       000000
__Hbank23                                         bank23       000000
__Hbank24                                         bank24       000000
__Hbank25                                         bank25       000000
__Hbank26                                         bank26       000000
__Hbank27                                         bank27       000000
__Hbank28                                         bank28       000000
__Hbank29                                         bank29       000000
__Hbank30                                         bank30       000000
__Hbank31                                         bank31       000000
__Hbank32                                         bank32       000000
__Hbank33                                         bank33       000000
__Hbank34                                         bank34       000000
__Hbank35                                         bank35       000000
__Hbank36                                         bank36       000000
__Hbank37                                         bank37       000000
__Hbank38                                         bank38       000000
__Hbank39                                         bank39       000000
__Hbank40                                         bank40       000000
__Hbank41                                         bank41       000000
__Hbank42                                         bank42       000000
__Hbank43                                         bank43       000000
__Hbank44                                         bank44       000000
__Hbank45                                         bank45       000000
__Hbank46                                         bank46       000000
__Hbank47                                         bank47       000000
__Hbank48                                         bank48       000000
__Hbank49                                         bank49       000000
__Hbank5                                          bank5        000000
__Hbank50                                         bank50       000000
__Hbank51                                         bank51       000000
__Hbank52                                         bank52       000000
__Hbank53                                         bank53       000000
__Hbank54                                         bank54       000000
__Hbank55                                         bank55       000000
__Hbank6                                          bank6        000000
__Hbank7                                          bank7        000000
__Hbank8                                          bank8        000000
__Hbank9                                          bank9        000000
__Hbigbss                                         bigbss       000000
__Hbigdata                                        bigdata      000000
__Hbigram                                         bigram       000000
__Hbss                                            bss          000000
__HbssBANK5                                       bssBANK5     000000
__HbssBANK6                                       bssBANK6     000000
__HbssBANK7                                       bssBANK7     000000
__HbssBANK8                                       bssBANK8     000000
__HbssBIGRAM                                      bssBIGRAM    000000
__HbssCOMRAM                                      bssCOMRAM    000000
__Hcinit                                          cinit        000000
__Hclrtext                                        clrtext      000000
__Hcomram                                         comram       000000
__Hconfig                                         config       300024
__Hconst                                          const        000000
__HcstackBANK5                                    cstackBANK5  000000
__HcstackCOMRAM                                   cstackCOMRAM 000000
__Hdata                                           data         000000
__HdataCOMRAM                                     dataCOMRAM   000000
__Heeprom_data                                    eeprom_data  000000
__Hfarbss                                         farbss       000000
__Hfardata                                        fardata      000000
__Hibigdata                                       ibigdata     000000
__Hidata                                          idata        000000
__HidataCOMRAM                                    idataCOMRAM  000000
__Hidloc                                          idloc        200020
__Hifardata                                       ifardata     000000
__Hinit                                           init         00010E
__Hintsave_regs                                   intsave_regs 000000
__Hirdata                                         irdata       000000
__Hivt0x8                                         ivt0x8       00010A
__Hmediumconst                                    mediumconst  000000
__HnvFARRAM                                       nvFARRAM     000000
__Hnvbit                                          nvbit        000000
__Hnvrram                                         nvrram       000000
__Hparam                                          rparam       000000
__Hpowerup                                        powerup      000000
__Hram                                            ram          000000
__Hramtop                                         ramtop       003800
__Hrbit                                           rbit         000000
__Hrbss                                           rbss         000000
__Hrdata                                          rdata        000000
__Hreset_vec                                      reset_vec    000004
__Hrparam                                         rparam       000000
__Hsfr                                            sfr          000000
__Hsmallconst                                     smallconst   003826
__Hspace_0                                        (abs)        005EDE
__Hspace_1                                        (abs)        000D04
__Hspace_2                                        (abs)        000000
__Hspace_4                                        (abs)        600024
__Hstack                                          stack        000000
__Hstruct                                         struct       000000
__Htemp                                           temp         000000
__Htext                                           text         000000
__Htext0                                          text0        000000
__Htext1                                          text1        000000
__Htext10                                         text10       000000
__Htext100                                        text100      000000
__Htext101                                        text101      000000
__Htext102                                        text102      000000
__Htext103                                        text103      000000
__Htext104                                        text104      000000
__Htext11                                         text11       000000
__Htext12                                         text12       000000
__Htext13                                         text13       000000
__Htext14                                         text14       000000
__Htext15                                         text15       000000
__Htext16                                         text16       000000
__Htext17                                         text17       000000
__Htext18                                         text18       000000
__Htext19                                         text19       000000
__Htext2                                          text2        000000
__Htext20                                         text20       000000
__Htext21                                         text21       000000
__Htext22                                         text22       000000
__Htext23                                         text23       000000
__Htext24                                         text24       000000
__Htext25                                         text25       000000
__Htext26                                         text26       000000
__Htext27                                         text27       000000
__Htext28                                         text28       000000
__Htext29                                         text29       000000
__Htext3                                          text3        000000
__Htext30                                         text30       000000
__Htext31                                         text31       000000
__Htext32                                         text32       000000
__Htext33                                         text33       000000
__Htext34                                         text34       000000
__Htext35                                         text35       000000
__Htext36                                         text36       000000
__Htext37                                         text37       000000
__Htext38                                         text38       000000
__Htext39                                         text39       000000
__Htext4                                          text4        000000
__Htext40                                         text40       000000
__Htext41                                         text41       000000
__Htext42                                         text42       000000
__Htext43                                         text43       000000
__Htext44                                         text44       000000
__Htext45                                         text45       000000
__Htext46                                         text46       000000
__Htext47                                         text47       000000
__Htext48                                         text48       000000
__Htext49                                         text49       000000
__Htext5                                          text5        000000
__Htext50                                         text50       000000
__Htext51                                         text51       000000
__Htext52                                         text52       000000
__Htext53                                         text53       000000
__Htext54                                         text54       000000
__Htext55                                         text55       000000
__Htext56                                         text56       000000
__Htext57                                         text57       000000
__Htext58                                         text58       000000
__Htext59                                         text59       000000
__Htext6                                          text6        000000
__Htext60                                         text60       000000
__Htext61                                         text61       000000
__Htext62                                         text62       000000
__Htext63                                         text63       000000
__Htext64                                         text64       000000
__Htext65                                         text65       000000
__Htext66                                         text66       000000
__Htext67                                         text67       000000
__Htext68                                         text68       000000
__Htext69                                         text69       000000
__Htext7                                          text7        000000
__Htext70                                         text70       000000
__Htext71                                         text71       000000
__Htext72                                         text72       000000
__Htext73                                         text73       000000
__Htext74                                         text74       000000
__Htext75                                         text75       000000
__Htext76                                         text76       000000
__Htext77                                         text77       000000
__Htext78                                         text78       000000
__Htext79                                         text79       000000
__Htext8                                          text8        000000
__Htext80                                         text80       000000
__Htext81                                         text81       000000
__Htext82                                         text82       000000
__Htext83                                         text83       000000
__Htext84                                         text84       000000
__Htext85                                         text85       000000
__Htext86                                         text86       000000
__Htext87                                         text87       000000
__Htext88                                         text88       000000
__Htext89                                         text89       000000
__Htext9                                          text9        000000
__Htext90                                         text90       000000
__Htext91                                         text91       000000
__Htext92                                         text92       000000
__Htext93                                         text93       000000
__Htext94                                         text94       000000
__Htext95                                         text95       000000
__Htext96                                         text96       000000
__Htext97                                         text97       000000
__Htext98                                         text98       000000
__Htext99                                         text99       000000
__LRAM                                            (abs)        000001
__Labs1                                           abs1         000000
__Lbank10                                         bank10       000000
__Lbank11                                         bank11       000000
__Lbank12                                         bank12       000000
__Lbank13                                         bank13       000000
__Lbank14                                         bank14       000000
__Lbank15                                         bank15       000000
__Lbank16                                         bank16       000000
__Lbank17                                         bank17       000000
__Lbank18                                         bank18       000000
__Lbank19                                         bank19       000000
__Lbank20                                         bank20       000000
__Lbank21                                         bank21       000000
__Lbank22                                         bank22       000000
__Lbank23                                         bank23       000000
__Lbank24                                         bank24       000000
__Lbank25                                         bank25       000000
__Lbank26                                         bank26       000000
__Lbank27                                         bank27       000000
__Lbank28                                         bank28       000000
__Lbank29                                         bank29       000000
__Lbank30                                         bank30       000000
__Lbank31                                         bank31       000000
__Lbank32                                         bank32       000000
__Lbank33                                         bank33       000000
__Lbank34                                         bank34       000000
__Lbank35                                         bank35       000000
__Lbank36                                         bank36       000000
__Lbank37                                         bank37       000000
__Lbank38                                         bank38       000000
__Lbank39                                         bank39       000000
__Lbank40                                         bank40       000000
__Lbank41                                         bank41       000000
__Lbank42                                         bank42       000000
__Lbank43                                         bank43       000000
__Lbank44                                         bank44       000000
__Lbank45                                         bank45       000000
__Lbank46                                         bank46       000000
__Lbank47                                         bank47       000000
__Lbank48                                         bank48       000000
__Lbank49                                         bank49       000000
__Lbank5                                          bank5        000000
__Lbank50                                         bank50       000000
__Lbank51                                         bank51       000000
__Lbank52                                         bank52       000000
__Lbank53                                         bank53       000000
__Lbank54                                         bank54       000000
__Lbank55                                         bank55       000000
__Lbank6                                          bank6        000000
__Lbank7                                          bank7        000000
__Lbank8                                          bank8        000000
__Lbank9                                          bank9        000000
__Lbigbss                                         bigbss       000000
__Lbigdata                                        bigdata      000000
__Lbigram                                         bigram       000000
__Lbss                                            bss          000000
__LbssBANK5                                       bssBANK5     000000
__LbssBANK6                                       bssBANK6     000000
__LbssBANK7                                       bssBANK7     000000
__LbssBANK8                                       bssBANK8     000000
__LbssBIGRAM                                      bssBIGRAM    000000
__LbssCOMRAM                                      bssCOMRAM    000000
__Lcinit                                          cinit        000000
__Lclrtext                                        clrtext      000000
__Lcomram                                         comram       000000
__Lconfig                                         config       000000
__Lconst                                          const        000000
__LcstackBANK5                                    cstackBANK5  000000
__LcstackCOMRAM                                   cstackCOMRAM 000000
__Ldata                                           data         000000
__LdataCOMRAM                                     dataCOMRAM   000000
__Leeprom_data                                    eeprom_data  000000
__Lfarbss                                         farbss       000000
__Lfardata                                        fardata      000000
__Libigdata                                       ibigdata     000000
__Lidata                                          idata        000000
__LidataCOMRAM                                    idataCOMRAM  000000
__Lidloc                                          idloc        000000
__Lifardata                                       ifardata     000000
__Linit                                           init         00010A
__Lintsave_regs                                   intsave_regs 000000
__Lirdata                                         irdata       000000
__Livt0x8                                         ivt0x8       000008
__Lmediumconst                                    mediumconst  000000
__LnvFARRAM                                       nvFARRAM     000000
__Lnvbit                                          nvbit        000000
__Lnvrram                                         nvrram       000000
__Lparam                                          rparam       000000
__Lpowerup                                        powerup      000000
__Lram                                            ram          000000
__Lramtop                                         ramtop       003800
__Lrbit                                           rbit         000000
__Lrbss                                           rbss         000000
__Lrdata                                          rdata        000000
__Lreset_vec                                      reset_vec    000000
__Lrparam                                         rparam       000000
__Lsfr                                            sfr          000000
__Lsmallconst                                     smallconst   003800
__Lspace_0                                        (abs)        000000
__Lspace_1                                        (abs)        000000
__Lspace_2                                        (abs)        000000
__Lspace_4                                        (abs)        000000
__Lstack                                          stack        000000
__Lstruct                                         struct       000000
__Ltemp                                           temp         000000
__Ltext                                           text         000000
__Ltext0                                          text0        000000
__Ltext1                                          text1        000000
__Ltext10                                         text10       000000
__Ltext100                                        text100      000000
__Ltext101                                        text101      000000
__Ltext102                                        text102      000000
__Ltext103                                        text103      000000
__Ltext104                                        text104      000000
__Ltext11                                         text11       000000
__Ltext12                                         text12       000000
__Ltext13                                         text13       000000
__Ltext14                                         text14       000000
__Ltext15                                         text15       000000
__Ltext16                                         text16       000000
__Ltext17                                         text17       000000
__Ltext18                                         text18       000000
__Ltext19                                         text19       000000
__Ltext2                                          text2        000000
__Ltext20                                         text20       000000
__Ltext21                                         text21       000000
__Ltext22                                         text22       000000
__Ltext23                                         text23       000000
__Ltext24                                         text24       000000
__Ltext25                                         text25       000000
__Ltext26                                         text26       000000
__Ltext27                                         text27       000000
__Ltext28                                         text28       000000
__Ltext29                                         text29       000000
__Ltext3                                          text3        000000
__Ltext30                                         text30       000000
__Ltext31                                         text31       000000
__Ltext32                                         text32       000000
__Ltext33                                         text33       000000
__Ltext34                                         text34       000000
__Ltext35                                         text35       000000
__Ltext36                                         text36       000000
__Ltext37                                         text37       000000
__Ltext38                                         text38       000000
__Ltext39                                         text39       000000
__Ltext4                                          text4        000000
__Ltext40                                         text40       000000
__Ltext41                                         text41       000000
__Ltext42                                         text42       000000
__Ltext43                                         text43       000000
__Ltext44                                         text44       000000
__Ltext45                                         text45       000000
__Ltext46                                         text46       000000
__Ltext47                                         text47       000000
__Ltext48                                         text48       000000
__Ltext49                                         text49       000000
__Ltext5                                          text5        000000
__Ltext50                                         text50       000000
__Ltext51                                         text51       000000
__Ltext52                                         text52       000000
__Ltext53                                         text53       000000
__Ltext54                                         text54       000000
__Ltext55                                         text55       000000
__Ltext56                                         text56       000000
__Ltext57                                         text57       000000
__Ltext58                                         text58       000000
__Ltext59                                         text59       000000
__Ltext6                                          text6        000000
__Ltext60                                         text60       000000
__Ltext61                                         text61       000000
__Ltext62                                         text62       000000
__Ltext63                                         text63       000000
__Ltext64                                         text64       000000
__Ltext65                                         text65       000000
__Ltext66                                         text66       000000
__Ltext67                                         text67       000000
__Ltext68                                         text68       000000
__Ltext69                                         text69       000000
__Ltext7                                          text7        000000
__Ltext70                                         text70       000000
__Ltext71                                         text71       000000
__Ltext72                                         text72       000000
__Ltext73                                         text73       000000
__Ltext74                                         text74       000000
__Ltext75                                         text75       000000
__Ltext76                                         text76       000000
__Ltext77                                         text77       000000
__Ltext78                                         text78       000000
__Ltext79                                         text79       000000
__Ltext8                                          text8        000000
__Ltext80                                         text80       000000
__Ltext81                                         text81       000000
__Ltext82                                         text82       000000
__Ltext83                                         text83       000000
__Ltext84                                         text84       000000
__Ltext85                                         text85       000000
__Ltext86                                         text86       000000
__Ltext87                                         text87       000000
__Ltext88                                         text88       000000
__Ltext89                                         text89       000000
__Ltext9                                          text9        000000
__Ltext90                                         text90       000000
__Ltext91                                         text91       000000
__Ltext92                                         text92       000000
__Ltext93                                         text93       000000
__Ltext94                                         text94       000000
__Ltext95                                         text95       000000
__Ltext96                                         text96       000000
__Ltext97                                         text97       000000
__Ltext98                                         text98       000000
__Ltext99                                         text99       000000
__S0                                              (abs)        005EDE
__S1                                              (abs)        000D04
__S2                                              (abs)        000000
__S4                                              (abs)        000000
__S5                                              (abs)        000000
___inthi_sp                                       stack        000000
___intlo_sp                                       stack        000000
___param_bank                                     (abs)        000000
___rparam_used                                    (abs)        000001
___sp                                             stack        000000
__accesstop                                       (abs)        000560
__activetblptr                                    (abs)        000003
__end_ofDlcToDataBytesGet@dlcByteSize             smallconst   003811
__end_of_AdjustFrameSize                          text35       004A90
__end_of_AppCommGui                               text71       00442C
__end_of_AppCommGuiInit                           text70       005E90
__end_of_BOOT_COM_GetBytesReady                   text80       0054BE
__end_of_BOOT_COM_Initialize                      text85       005CF2
__end_of_BOOT_COM_Read                            text79       00597C
__end_of_BOOT_COM_Write                           text77       005456
__end_of_BytesToDLCGet                            text34       004BD4
__end_of_CAN1_BitRateConfiguration                text20       005B46
__end_of_CAN1_Initialize                          text14       0056DA
__end_of_CAN1_OperationModeGet                    text33       005EA6
__end_of_CAN1_OperationModeSet                    text19       0051AE
__end_of_CAN1_RX_FIFO_Configuration               text18       005DE4
__end_of_CAN1_RX_FIFO_FilterMaskConfiguration     text17       005C8A
__end_of_CAN1_RX_FIFO_ResetInfo                   text16       005B1A
__end_of_CAN1_Receive                             text64       004326
__end_of_CAN1_ReceivedMessageCountGet             text63       004866
__end_of_CAN1_TX_FIFO_Configuration               text15       005DD0
__end_of_CAN1_Transmit                            text30       004EE6
__end_of_CAN1_TransmitFIFOStatusGet               text40       005C16
__end_of_CAN_PHY_Receive                          text61       0053EE
__end_of_CAN_PHY_Transmit                         text29       005310
__end_of_CAN_PHY_TransmitStatusGet                text39       005772
__end_of_CAN_TP_Initialize                        text69       00551E
__end_of_CAN_TP_IsMessageReady                    text84       005DA4
__end_of_CAN_TP_MessageGet                        text82       0057BC
__end_of_CAN_TP_MessageLengthGet                  text81       005884
__end_of_CAN_TP_MessageSend                       text78       0059F0
__end_of_CAN_TP_RxMessageBufferSet                text68       005E32
__end_of_CAN_TP_Tasks                             text22       005E78
__end_of_CAN_TP_Tick                              text103      005228
__end_of_CanDataFitInOneFrame                     text43       005686
__end_of_ConsecutiveFrameParse                    text60       004C74
__end_of_ConsecutiveFrameProcess                  text55       004E50
__end_of_CopyRxFrameDataIntoMessageBuffer         text59       005C3E
__end_of_DLC_BYTES                                smallconst   003821
__end_of_Default_ISR                              text87       005ED6
__end_of_DlcToDataBytesGet                        text62       005D2A
__end_of_DrvRs485Init                             text21       00557A
__end_of_DrvRs485RxTx                             text91       003ADC
__end_of_FIFO                                     smallconst   003823
__end_of_FirstFrameDataLengthMinGet               text54       005ECE
__end_of_FirstFrameParse                          text53       004926
__end_of_FirstFrameProcess                        text51       00451A
__end_of_FlowControlStatusUpdate                  text58       005E84
__end_of_FlowcontrolFrameProcess                  text49       0055D4
__end_of_GetFrameType                             text48       005EB8
__end_of_GetRxFifoDepth                           text67       005D10
__end_of_GetRxFifoStatus                          text66       005D8C
__end_of_GetTxFifoStatus                          text42       005D5C
__end_of_INTERRUPT_Initialize                     text13       0058C2
__end_of_IncomingMessageComplete                  text56       005842
__end_of_IssueEvent                               text57       005ED2
__end_of_OSCILLATOR_Initialize                    text12       005C64
__end_of_OutgoingMessageComplete                  text50       005CAE
__end_of_OutputMessageLastFrameStatusCheck        text37       0045FE
__end_of_PIN_MANAGER_Initialize                   text11       004DB2
__end_of_PMD_Initialize                           text10       005BEE
__end_of_ProcessIncomingFrame                     text44       00479C
__end_of_ProcessOutgoingFlowControlChangeRequest  text36       005DF8
__end_of_ProcessOutgoingMessage                   text24       0046D0
__end_of_ReadMessageFromFifo                      text65       003F62
__end_of_ReceptionTimedOut                        text47       00593E
__end_of_RxSegmentedMessageTerminate              text52       005D74
__end_of_SYSTEM_Initialize                        text2        005CD0
__end_of_SendConsecutiveFrame                     text27       005126
__end_of_SendFirstFrame                           text26       00500C
__end_of_SendSingleFrame                          text25       004B34
__end_of_SeparationTimeToTicks                    text38       005380
__end_of_SingleFrameParse                         text46       004F7A
__end_of_SingleFrameProcess                       text45       0059B6
__end_of_TMR0_DefaultInterruptHandler             text89       005ED8
__end_of_TMR0_ISR                                 text88       005A5C
__end_of_TMR0_Initialize                          text8        005B9C
__end_of_TMR0_SetInterruptHandler                 text9        005E6A
__end_of_TMR0_StartTimer                          text1        005EBE
__end_of_TMR0_UserInterruptHandler                text90       005B72
__end_of_TMR1_Initialize                          text7        005A26
__end_of_TMR1_StartTimer                          text102      005ECA
__end_of_TMR1_StopTimer                           text101      005EC4
__end_of_TMR1_TMR_StatusGet                       text100      005D44
__end_of_TMR1_WriteTimer                          text99       005AEE
__end_of_TransmitPendingFlowControl               text23       0049DE
__end_of_TransmitTxFrame                          text28       005800
__end_of_UART1_DefaultErrorHandler                text98       005EDE
__end_of_UART1_DefaultFramingErrorHandler         text97       005EDC
__end_of_UART1_DefaultOverrunErrorHandler         text96       005EDA
__end_of_UART1_Initialize                         text3        00529C
__end_of_UART1_Read                               text95       004D14
__end_of_UART1_SetErrorHandler                    text6        005E5C
__end_of_UART1_SetFramingErrorHandler             text5        005E4E
__end_of_UART1_SetOverrunErrorHandler             text4        005E40
__end_of_UART1_Write                              text94       005DBC
__end_of_UART1_is_rx_ready                        text93       005E20
__end_of_UART1_is_tx_ready                        text92       005BC6
__end_of_ValidateTransmission                     text32       004218
__end_of_WriteMessageToFifo                       text31       003D22
__end_of__initialization                          cinit        005096
__end_of_canMaximumFrameLength                    smallconst   003824
__end_of_isTxChannel                              text41       005900
__end_of_main                                     text0        005728
__end_of_memcpy                                   text83       00562E
__end_of_memset                                   text86       0040F2
__end_of_u16DrvRs485IsRxFinished                  text76       005AC0
__end_of_u16DrvRs485IsTxFinished                  text75       005A8E
__end_of_u16DrvRs485StateGet                      text74       005EB0
__end_of_vDrvRs485RxCmdSet                        text73       005E9C
__end_of_vDrvRs485TxCmdSet                        text72       005E0C
__initialization                                  cinit        00500C
__mediumconst                                     mediumconst  000000
__pbssBANK5                                       bssBANK5     000560
__pbssBANK6                                       bssBANK6     000600
__pbssBANK7                                       bssBANK7     000700
__pbssBANK8                                       bssBANK8     000800
__pbssBIGRAM                                      bssBIGRAM    000900
__pbssCOMRAM                                      bssCOMRAM    000501
__pcinit                                          cinit        00500C
__pcstackBANK5                                    cstackBANK5  0005EC
__pcstackCOMRAM                                   cstackCOMRAM 000532
__pdataCOMRAM                                     dataCOMRAM   00055A
__pidataCOMRAM                                    idataCOMRAM  005ECE
__pivt0x8                                         ivt0x8       000008
__psmallconst                                     smallconst   003800
__ptext0                                          text0        0056DA
__ptext1                                          text1        005EB8
__ptext10                                         text10       005BC6
__ptext100                                        text100      005D2A
__ptext101                                        text101      005EBE
__ptext102                                        text102      005EC4
__ptext103                                        text103      0051AE
__ptext104                                        text104      000000
__ptext11                                         text11       004D14
__ptext12                                         text12       005C3E
__ptext13                                         text13       005884
__ptext14                                         text14       005686
__ptext15                                         text15       005DBC
__ptext16                                         text16       005AEE
__ptext17                                         text17       005C64
__ptext18                                         text18       005DD0
__ptext19                                         text19       005126
__ptext2                                          text2        005CAE
__ptext20                                         text20       005B1A
__ptext21                                         text21       00551E
__ptext22                                         text22       005E6A
__ptext23                                         text23       004926
__ptext24                                         text24       0045FE
__ptext25                                         text25       004A90
__ptext26                                         text26       004F7A
__ptext27                                         text27       00509C
__ptext28                                         text28       0057BC
__ptext29                                         text29       00529C
__ptext3                                          text3        005228
__ptext30                                         text30       004E50
__ptext31                                         text31       003ADC
__ptext32                                         text32       0040F2
__ptext33                                         text33       005E9C
__ptext34                                         text34       004B34
__ptext35                                         text35       0049DE
__ptext36                                         text36       005DE4
__ptext37                                         text37       00451A
__ptext38                                         text38       005310
__ptext39                                         text39       005728
__ptext4                                          text4        005E32
__ptext40                                         text40       005BEE
__ptext41                                         text41       0058C2
__ptext42                                         text42       005D44
__ptext43                                         text43       00562E
__ptext44                                         text44       0046D0
__ptext45                                         text45       00597C
__ptext46                                         text46       004EE6
__ptext47                                         text47       005900
__ptext48                                         text48       005EB0
__ptext49                                         text49       00557A
__ptext5                                          text5        005E40
__ptext50                                         text50       005C8A
__ptext51                                         text51       00442C
__ptext52                                         text52       005D5C
__ptext53                                         text53       004866
__ptext54                                         text54       005ECA
__ptext55                                         text55       004DB2
__ptext56                                         text56       005800
__ptext57                                         text57       005ED0
__ptext58                                         text58       005E78
__ptext59                                         text59       005C16
__ptext6                                          text6        005E4E
__ptext60                                         text60       004BD4
__ptext61                                         text61       005380
__ptext62                                         text62       005D10
__ptext63                                         text63       00479C
__ptext64                                         text64       004218
__ptext65                                         text65       003D22
__ptext66                                         text66       005D74
__ptext67                                         text67       005CF2
__ptext68                                         text68       005E20
__ptext69                                         text69       0054BE
__ptext7                                          text7        0059F0
__ptext70                                         text70       005E84
__ptext71                                         text71       004326
__ptext72                                         text72       005DF8
__ptext73                                         text73       005E90
__ptext74                                         text74       005EA6
__ptext75                                         text75       005A5C
__ptext76                                         text76       005A8E
__ptext77                                         text77       0053EE
__ptext78                                         text78       0059B6
__ptext79                                         text79       00593E
__ptext8                                          text8        005B72
__ptext80                                         text80       005456
__ptext81                                         text81       005842
__ptext82                                         text82       005772
__ptext83                                         text83       0055D4
__ptext84                                         text84       005D8C
__ptext85                                         text85       005CD0
__ptext86                                         text86       003F62
__ptext87                                         text87       005ED4
__ptext88                                         text88       005A28
__ptext89                                         text89       005ED6
__ptext9                                          text9        005E5C
__ptext90                                         text90       005B46
__ptext91                                         text91       003826
__ptext92                                         text92       005B9C
__ptext93                                         text93       005E0C
__ptext94                                         text94       005DA4
__ptext95                                         text95       004C74
__ptext96                                         text96       005ED8
__ptext97                                         text97       005EDA
__ptext98                                         text98       005EDC
__ptext99                                         text99       005AC0
__ramtop                                          ramtop       003800
__size_of_AdjustFrameSize                         (abs)        000000
__size_of_AppCommGui                              (abs)        000000
__size_of_AppCommGuiInit                          (abs)        000000
__size_of_BOOT_COM_GetBytesReady                  (abs)        000000
__size_of_BOOT_COM_Initialize                     (abs)        000000
__size_of_BOOT_COM_Read                           (abs)        000000
__size_of_BOOT_COM_Write                          (abs)        000000
__size_of_BytesToDLCGet                           (abs)        000000
__size_of_CAN1_BitRateConfiguration               (abs)        000000
__size_of_CAN1_Initialize                         (abs)        000000
__size_of_CAN1_OperationModeGet                   (abs)        000000
__size_of_CAN1_OperationModeSet                   (abs)        000000
__size_of_CAN1_RX_FIFO_Configuration              (abs)        000000
__size_of_CAN1_RX_FIFO_FilterMaskConfiguration    (abs)        000000
__size_of_CAN1_RX_FIFO_ResetInfo                  (abs)        000000
__size_of_CAN1_Receive                            (abs)        000000
__size_of_CAN1_ReceivedMessageCountGet            (abs)        000000
__size_of_CAN1_TX_FIFO_Configuration              (abs)        000000
__size_of_CAN1_Transmit                           (abs)        000000
__size_of_CAN1_TransmitFIFOStatusGet              (abs)        000000
__size_of_CAN_PHY_Receive                         (abs)        000000
__size_of_CAN_PHY_Transmit                        (abs)        000000
__size_of_CAN_PHY_TransmitStatusGet               (abs)        000000
__size_of_CAN_TP_Initialize                       (abs)        000000
__size_of_CAN_TP_IsMessageReady                   (abs)        000000
__size_of_CAN_TP_MessageGet                       (abs)        000000
__size_of_CAN_TP_MessageLengthGet                 (abs)        000000
__size_of_CAN_TP_MessageSend                      (abs)        000000
__size_of_CAN_TP_RxMessageBufferSet               (abs)        000000
__size_of_CAN_TP_Tasks                            (abs)        000000
__size_of_CAN_TP_Tick                             (abs)        000000
__size_of_CanDataFitInOneFrame                    (abs)        000000
__size_of_ConsecutiveFrameParse                   (abs)        000000
__size_of_ConsecutiveFrameProcess                 (abs)        000000
__size_of_CopyRxFrameDataIntoMessageBuffer        (abs)        000000
__size_of_Default_ISR                             (abs)        000000
__size_of_DlcToDataBytesGet                       (abs)        000000
__size_of_DrvRs485Init                            (abs)        000000
__size_of_DrvRs485RxTx                            (abs)        000000
__size_of_FirstFrameDataLengthMinGet              (abs)        000000
__size_of_FirstFrameParse                         (abs)        000000
__size_of_FirstFrameProcess                       (abs)        000000
__size_of_FlowControlStatusUpdate                 (abs)        000000
__size_of_FlowcontrolFrameProcess                 (abs)        000000
__size_of_GetFrameType                            (abs)        000000
__size_of_GetRxFifoDepth                          (abs)        000000
__size_of_GetRxFifoStatus                         (abs)        000000
__size_of_GetTxFifoStatus                         (abs)        000000
__size_of_INTERRUPT_Initialize                    (abs)        000000
__size_of_IncomingMessageComplete                 (abs)        000000
__size_of_IssueEvent                              (abs)        000000
__size_of_OSCILLATOR_Initialize                   (abs)        000000
__size_of_OutgoingMessageComplete                 (abs)        000000
__size_of_OutputMessageLastFrameStatusCheck       (abs)        000000
__size_of_PIN_MANAGER_Initialize                  (abs)        000000
__size_of_PMD_Initialize                          (abs)        000000
__size_of_ProcessIncomingFrame                    (abs)        000000
__size_of_ProcessOutgoingFlowControlChangeRequest (abs)        000000
__size_of_ProcessOutgoingMessage                  (abs)        000000
__size_of_ReadMessageFromFifo                     (abs)        000000
__size_of_ReceptionTimedOut                       (abs)        000000
__size_of_RxSegmentedMessageTerminate             (abs)        000000
__size_of_SYSTEM_Initialize                       (abs)        000000
__size_of_SendConsecutiveFrame                    (abs)        000000
__size_of_SendFirstFrame                          (abs)        000000
__size_of_SendSingleFrame                         (abs)        000000
__size_of_SeparationTimeToTicks                   (abs)        000000
__size_of_SingleFrameParse                        (abs)        000000
__size_of_SingleFrameProcess                      (abs)        000000
__size_of_TMR0_DefaultInterruptHandler            (abs)        000000
__size_of_TMR0_ISR                                (abs)        000000
__size_of_TMR0_Initialize                         (abs)        000000
__size_of_TMR0_SetInterruptHandler                (abs)        000000
__size_of_TMR0_StartTimer                         (abs)        000000
__size_of_TMR0_UserInterruptHandler               (abs)        000000
__size_of_TMR1_Initialize                         (abs)        000000
__size_of_TMR1_StartTimer                         (abs)        000000
__size_of_TMR1_StopTimer                          (abs)        000000
__size_of_TMR1_TMR_StatusGet                      (abs)        000000
__size_of_TMR1_WriteTimer                         (abs)        000000
__size_of_TransmitPendingFlowControl              (abs)        000000
__size_of_TransmitTxFrame                         (abs)        000000
__size_of_UART1_DefaultErrorHandler               (abs)        000000
__size_of_UART1_DefaultFramingErrorHandler        (abs)        000000
__size_of_UART1_DefaultOverrunErrorHandler        (abs)        000000
__size_of_UART1_Initialize                        (abs)        000000
__size_of_UART1_Read                              (abs)        000000
__size_of_UART1_SetErrorHandler                   (abs)        000000
__size_of_UART1_SetFramingErrorHandler            (abs)        000000
__size_of_UART1_SetOverrunErrorHandler            (abs)        000000
__size_of_UART1_Write                             (abs)        000000
__size_of_UART1_is_rx_ready                       (abs)        000000
__size_of_UART1_is_tx_ready                       (abs)        000000
__size_of_ValidateTransmission                    (abs)        000000
__size_of_WriteMessageToFifo                      (abs)        000000
__size_of_isTxChannel                             (abs)        000000
__size_of_main                                    (abs)        000000
__size_of_memcpy                                  (abs)        000000
__size_of_memset                                  (abs)        000000
__size_of_u16DrvRs485IsRxFinished                 (abs)        000000
__size_of_u16DrvRs485IsTxFinished                 (abs)        000000
__size_of_u16DrvRs485StateGet                     (abs)        000000
__size_of_vDrvRs485RxCmdSet                       (abs)        000000
__size_of_vDrvRs485TxCmdSet                       (abs)        000000
__smallconst                                      smallconst   003800
_callback                                         bssBANK5     000564
_canComData                                       bssBIGRAM    000900
_flowcontrolReceiveTimeoutCounter                 bssCOMRAM    000524
_flowcontrolTransmitTimeoutCounter                bssCOMRAM    000526
_frame                                            bssCOMRAM    000518
_incomingMessage                                  bssCOMRAM    000501
_initialized                                      bssCOMRAM    00052E
_isTxChannel                                      text41       0058C2
_isTxChannel$796                                  cstackCOMRAM 000536
_main                                             text0        0056DA
_memcpy                                           text83       0055D4
_memset                                           text86       003F62
_outgoingMessage                                  bssBANK5     0005CB
_rxBuffer                                         bssBIGRAM    000B04
_rxCanMsg                                         bssBANK5     0005E5
_rxFifos                                          dataCOMRAM   00055A
_rxFrameData                                      bssBANK5     00058B
_rxFrameLength                                    bssCOMRAM    000531
_rxMsgData                                        bssBANK6     000640
_rxTimeoutCounter                                 bssCOMRAM    000522
_timer1ReloadVal                                  bssCOMRAM    00052C
_txCanMsg                                         bssBANK5     0005DE
_txFrameData                                      bssBANK6     000600
_txFrameLength                                    bssCOMRAM    00052F
_txSeparationTimeRemaining                        bssCOMRAM    00052A
_txTransmitTimeoutCounter                         bssCOMRAM    000528
_u16CommGuiState                                  bssBANK5     000589
_u16DrvRs485IsRxFinished                          text76       005A8E
_u16DrvRs485IsTxFinished                          text75       005A5C
_u16DrvRs485RxCmd                                 bssBANK5     000585
_u16DrvRs485RxDataCnt                             bssBANK5     000583
_u16DrvRs485RxDataNum                             bssBANK5     00057D
_u16DrvRs485RxEndCnt                              bssBANK5     000581
_u16DrvRs485RxFinished                            bssBANK5     00057F
_u16DrvRs485State                                 bssBANK5     000587
_u16DrvRs485StateGet                              text74       005EA6
_u16DrvRs485TxCmd                                 bssBANK5     00057B
_u16DrvRs485TxDataCnt                             bssCOMRAM    000520
_u16DrvRs485TxDataNum                             bssBANK5     000575
_u16DrvRs485TxEndCnt                              bssBANK5     000579
_u16DrvRs485TxFinished                            bssBANK5     000577
_u8DrvRs485Received                               bssBANK7     000700
_u8DrvRs485Responsed                              bssBANK8     000800
_uart1RxLastError                                 bssCOMRAM    000530
_vDrvRs485RxCmdSet                                text73       005E90
_vDrvRs485TxCmdSet                                text72       005DF8
end_of_initialization                             cinit        005096
intlevel0                                         text         000000
intlevel1                                         text         000000
intlevel2                                         text         000000
intlevel3                                         text         000000
isTxChannel@channel                               cstackCOMRAM 000537
isa$std                                           (abs)        000001
isa$xinst                                         (abs)        000000
ivt0x8_base                                       ivt0x8       000008
ivt0x8_undefint                                   ivt0x8       000108
memcpy@d                                          cstackCOMRAM 00053C
memcpy@d1                                         cstackCOMRAM 000536
memcpy@n                                          cstackCOMRAM 00053A
memcpy@s                                          cstackCOMRAM 00053E
memcpy@s1                                         cstackCOMRAM 000538
memcpy@tmp                                        cstackCOMRAM 000540
memset@c                                          cstackCOMRAM 000538
memset@dest                                       cstackCOMRAM 000536
memset@k                                          cstackCOMRAM 00053E
memset@n                                          cstackCOMRAM 00053A
memset@s                                          cstackCOMRAM 000540
stackhi                                           (abs)        0037FF
stacklo                                           (abs)        000D04
start                                             init         00010A
start_initialization                              cinit        00500C
vDrvRs485TxCmdSet@u16TxNum                        cstackCOMRAM 000536


MODULE INFORMATION

Module		Function		Class		Link	Load	Size
mcc_generated_files/com_adaptor_can.c
		_BOOT_COM_Initialize		CODE           	5CD0	0000	34
		_BOOT_COM_Write		CODE           	53EE	0000	104
		_BOOT_COM_GetBytesReady		CODE           	5456	0000	104
		_BOOT_COM_Read 		CODE           	593E	0000	62

mcc_generated_files/com_adaptor_can.c estimated size: 304

C:\Program Files\Microchip\xc8\v2.32\pic\sources\c99\common\memset.c
		_memset        		CODE           	3F62	0000	400

C:\Program Files\Microchip\xc8\v2.32\pic\sources\c99\common\memset.c estimated size: 400

source/app/app_comm_gui.c
		_AppCommGui    		CODE           	4326	0000	262
		_AppCommGuiInit		CODE           	5E84	0000	12

source/app/app_comm_gui.c estimated size: 274

mcc_generated_files/can1.c
		_ReadMessageFromFifo		CODE           	3D22	0000	576
		_ValidateTransmission		CODE           	40F2	0000	294
		_CAN1_BitRateConfiguration		CODE           	5B1A	0000	44
		_CAN1_TX_FIFO_Configuration		CODE           	5DBC	0000	20
		_GetRxFifoDepth		CODE           	5CF2	0000	30
		_CAN1_OperationModeGet		CODE           	5E9C	0000	10
		_CAN1_Initialize		CODE           	5686	0000	84
		_CAN1_TransmitFIFOStatusGet		CODE           	5BEE	0000	40
		_CAN1_Transmit 		CODE           	4E50	0000	150
		_CAN1_RX_FIFO_FilterMaskConfiguration		CODE           	5C64	0000	38
		_CAN1_RX_FIFO_Configuration		CODE           	5DD0	0000	20
		_GetRxFifoStatus		CODE           	5D74	0000	24
		_CAN1_ReceivedMessageCountGet		CODE           	479C	0000	202
		_isTxChannel   		CODE           	58C2	0000	62
		_GetTxFifoStatus		CODE           	5D44	0000	24
		_WriteMessageToFifo		CODE           	3ADC	0000	582
		_CAN1_Receive  		CODE           	4218	0000	270
		_CAN1_RX_FIFO_ResetInfo		CODE           	5AEE	0000	44
		_CAN1_OperationModeSet		CODE           	5126	0000	136

mcc_generated_files/can1.c estimated size: 2650

mcc_generated_files/can_tp_phy_adaptor.c
		_CAN_PHY_Receive		CODE           	5380	0000	110
		_DlcToDataBytesGet		CODE           	5D10	0000	26
		_BytesToDLCGet 		CODE           	4B34	0000	160
		_CAN_PHY_Transmit		CODE           	529C	0000	116
		_CAN_PHY_TransmitStatusGet		CODE           	5728	0000	74

mcc_generated_files/can_tp_phy_adaptor.c estimated size: 486

mcc_generated_files/can_tp.c
		_GetFrameType  		CODE           	5EB0	0000	8
		_CAN_TP_Tick   		CODE           	51AE	0000	122
		_SendSingleFrame		CODE           	4A90	0000	164
		_SingleFrameProcess		CODE           	597C	0000	58
		_CAN_TP_Tasks  		CODE           	5E6A	0000	14
		_TransmitTxFrame		CODE           	57BC	0000	68
		_CopyRxFrameDataIntoMessageBuffer		CODE           	5C16	0000	40
		_CAN_TP_MessageLengthGet		CODE           	5842	0000	66
		_CAN_TP_RxMessageBufferSet		CODE           	5E20	0000	18
		_CAN_TP_MessageGet		CODE           	5772	0000	74
		_FlowControlStatusUpdate		CODE           	5E78	0000	12
		_SendFirstFrame		CODE           	4F7A	0000	146
		_CAN_TP_Initialize		CODE           	54BE	0000	96
		_ProcessIncomingFrame		CODE           	46D0	0000	204
		_CanDataFitInOneFrame		CODE           	562E	0000	88
		_CAN_TP_MessageSend		CODE           	59B6	0000	58
		_SingleFrameParse		CODE           	4EE6	0000	148
		_ConsecutiveFrameProcess		CODE           	4DB2	0000	158
		_OutgoingMessageComplete		CODE           	5C8A	0000	36
		_SendConsecutiveFrame		CODE           	509C	0000	138
		_RxSegmentedMessageTerminate		CODE           	5D5C	0000	24
		_SeparationTimeToTicks		CODE           	5310	0000	112
		_ProcessOutgoingFlowControlChangeRequest		CODE           	5DE4	0000	20
		_IssueEvent    		CODE           	5ED0	0000	2
		_TransmitPendingFlowControl		CODE           	4926	0000	184
		_FirstFrameDataLengthMinGet		CODE           	5ECA	0000	4
		_FirstFrameProcess		CODE           	442C	0000	238
		_CAN_TP_IsMessageReady		CODE           	5D8C	0000	24
		_FlowcontrolFrameProcess		CODE           	557A	0000	90
		_ReceptionTimedOut		CODE           	5900	0000	62
		_IncomingMessageComplete		CODE           	5800	0000	66
		_FirstFrameParse		CODE           	4866	0000	192
		_ConsecutiveFrameParse		CODE           	4BD4	0000	160
		_AdjustFrameSize		CODE           	49DE	0000	178
		_OutputMessageLastFrameStatusCheck		CODE           	451A	0000	228
		_ProcessOutgoingMessage		CODE           	45FE	0000	210

mcc_generated_files/can_tp.c estimated size: 3510

mcc_generated_files/interrupt_manager.c
		_INTERRUPT_Initialize		CODE           	5884	0000	62
		_Default_ISR   		CODE           	5ED4	0000	2

mcc_generated_files/interrupt_manager.c estimated size: 64

mcc_generated_files/tmr0.c
		_TMR0_SetInterruptHandler		CODE           	5E5C	0000	14
		_TMR0_DefaultInterruptHandler		CODE           	5ED6	0000	2
		_TMR0_StartTimer		CODE           	5EB8	0000	6
		_TMR0_ISR      		CODE           	5A28	0000	52
		_TMR0_Initialize		CODE           	5B72	0000	42

mcc_generated_files/tmr0.c estimated size: 116

source/driver/drv_extend_mcc.c
		_TMR1_TMR_StatusGet		CODE           	5D2A	0000	26

source/driver/drv_extend_mcc.c estimated size: 26

mcc_generated_files/pin_manager.c
		_PIN_MANAGER_Initialize		CODE           	4D14	0000	158

mcc_generated_files/pin_manager.c estimated size: 158

C:\Program Files\Microchip\xc8\v2.32\pic\sources\c99\common\memcpy.c
		_memcpy        		CODE           	55D4	0000	90

C:\Program Files\Microchip\xc8\v2.32\pic\sources\c99\common\memcpy.c estimated size: 90

mcc_generated_files/uart1.c
		_UART1_Write   		CODE           	5DA4	0000	24
		_UART1_SetFramingErrorHandler		CODE           	5E40	0000	14
		_UART1_SetOverrunErrorHandler		CODE           	5E32	0000	14
		_UART1_Initialize		CODE           	5228	0000	116
		_UART1_SetErrorHandler		CODE           	5E4E	0000	14
		_UART1_Read    		CODE           	4C74	0000	160
		_UART1_DefaultFramingErrorHandler		CODE           	5EDA	0000	2
		_UART1_is_rx_ready		CODE           	5E0C	0000	20
		_UART1_is_tx_ready		CODE           	5B9C	0000	42
		_UART1_DefaultErrorHandler		CODE           	5EDC	0000	2
		_UART1_DefaultOverrunErrorHandler		CODE           	5ED8	0000	2

mcc_generated_files/uart1.c estimated size: 410

shared
		_FIFO          		SMALLCONST     	0000	0000	0
		DlcToDataBytesGet@dlcByteSize		SMALLCONST     	3801	0000	16
		_DLC_BYTES     		SMALLCONST     	3811	0000	16
		_canMaximumFrameLength		SMALLCONST     	0000	0000	0
		__initialization		CODE           	500C	0000	138

shared estimated size: 170

mcc_generated_files/mcc.c
		_PMD_Initialize		CODE           	5BC6	0000	40
		_OSCILLATOR_Initialize		CODE           	5C3E	0000	38
		_SYSTEM_Initialize		CODE           	5CAE	0000	34

mcc_generated_files/mcc.c estimated size: 112

mcc_generated_files/tmr1.c
		_TMR1_Initialize		CODE           	59F0	0000	54
		_TMR1_StopTimer		CODE           	5EBE	0000	6
		_TMR1_WriteTimer		CODE           	5AC0	0000	46
		_TMR1_StartTimer		CODE           	5EC4	0000	6

mcc_generated_files/tmr1.c estimated size: 112

source/driver/drv_rs485.c
		_u16DrvRs485StateGet		CODE           	5EA6	0000	10
		_u16DrvRs485IsRxFinished		CODE           	5A8E	0000	50
		_u16DrvRs485IsTxFinished		CODE           	5A5C	0000	50
		_vDrvRs485RxCmdSet		CODE           	5E90	0000	12
		_vDrvRs485TxCmdSet		CODE           	5DF8	0000	20
		_DrvRs485RxTx  		CODE           	3826	0000	694
		_DrvRs485Init  		CODE           	551E	0000	92

source/driver/drv_rs485.c estimated size: 928

main.c
		_main          		CODE           	56DA	0000	78
		_TMR0_UserInterruptHandler		CODE           	5B46	0000	44

main.c estimated size: 122

