:020000040000fa
:080000002e21040000000000a5
:020000040000fa
:0400080028130000b9
:020000040000fa
:04000c006a13000073
:020000040000fa
:04001000aa1300002f
:020000040000fa
:04001400481300008d
:020000040000fa
:040018008a13000047
:020000040000fa
:04001c00862a000030
:020000040000fa
:04002000ca130000ff
:020000040000fa
:04002400862a000028
:020000040000fa
:04002800862a000024
:020000040000fa
:04002c002a23000083
:020000040000fa
:04003000862a00001c
:020000040000fa
:04003400862a000018
:020000040000fa
:04003800862a000014
:020000040000fa
:04003c00862a000010
:020000040000fa
:04004000862a00000c
:020000040000fa
:04004400862a000008
:020000040000fa
:04004800862a000004
:020000040000fa
:04004c00862a000000
:020000040000fa
:04005000862a0000fc
:020000040000fa
:04005400862a0000f8
:020000040000fa
:04005800862a0000f4
:020000040000fa
:04005c00862a0000f0
:020000040000fa
:04006000862a0000ec
:020000040000fa
:04006400862a0000e8
:020000040000fa
:04006800862a0000e4
:020000040000fa
:04006c00862a0000e0
:020000040000fa
:04007000862a0000dc
:020000040000fa
:04007400862a0000d8
:020000040000fa
:04007800862a0000d4
:020000040000fa
:04007c00862a0000d0
:020000040000fa
:04008000862a0000cc
:020000040000fa
:04008400862a0000c8
:020000040000fa
:04008800862a0000c4
:020000040000fa
:04008c00d424000078
:020000040000fa
:04009000862a0000bc
:020000040000fa
:04009400862a0000b8
:020000040000fa
:04009800862a0000b4
:020000040000fa
:04009c00862a0000b0
:020000040000fa
:0400a000862a0000ac
:020000040000fa
:0400a400862a0000a8
:020000040000fa
:0400a800862a0000a4
:020000040000fa
:0400ac00862a0000a0
:020000040000fa
:0400b000862a00009c
:020000040000fa
:0400b400862a000098
:020000040000fa
:0400b800862a000094
:020000040000fa
:0400bc00862a000090
:020000040000fa
:0400c000862a00008c
:020000040000fa
:0400c400862a000088
:020000040000fa
:0400c800862a000084
:020000040000fa
:0400cc00862a000080
:020000040000fa
:0400d000862a00007c
:020000040000fa
:0400d400862a000078
:020000040000fa
:0400d800862a000074
:020000040000fa
:0400dc00862a000070
:020000040000fa
:0400e000862a00006c
:020000040000fa
:0400e400862a000068
:020000040000fa
:0400e800862a000064
:020000040000fa
:0400ec00862a000060
:020000040000fa
:0400f000862a00005c
:020000040000fa
:0400f400862a000058
:020000040000fa
:0400f800862a000054
:020000040000fa
:0400fc00862a000050
:020000040000fa
:04010000862a00004b
:020000040000fa
:04010400862a000047
:020000040000fa
:04010800862a000043
:020000040000fa
:04010c00862a00003f
:020000040000fa
:04011000862a00003b
:020000040000fa
:04011400862a000037
:020000040000fa
:04011800862a000033
:020000040000fa
:04011c00862a00002f
:020000040000fa
:04012000862a00002b
:020000040000fa
:04012400862a000027
:020000040000fa
:04012800862a000023
:020000040000fa
:04012c00862a00001f
:020000040000fa
:04013000862a00001b
:020000040000fa
:04013400862a000017
:020000040000fa
:04013800862a000013
:020000040000fa
:04013c00862a00000f
:020000040000fa
:04014000862a00000b
:020000040000fa
:04014400862a000007
:020000040000fa
:04014800862a000003
:020000040000fa
:04014c00862a0000ff
:020000040000fa
:04015000862a0000fb
:020000040000fa
:04015400862a0000f7
:020000040000fa
:04015800862a0000f3
:020000040000fa
:04015c00862a0000ef
:020000040000fa
:04016000862a0000eb
:020000040000fa
:04016400862a0000e7
:020000040000fa
:04016800862a0000e3
:020000040000fa
:04016c00862a0000df
:020000040000fa
:04017000862a0000db
:020000040000fa
:04017400862a0000d7
:020000040000fa
:04017800862a0000d3
:020000040000fa
:04017c00862a0000cf
:020000040000fa
:04018000862a0000cb
:020000040000fa
:04018400862a0000c7
:020000040000fa
:04018800862a0000c3
:020000040000fa
:04018c00862a0000bf
:020000040000fa
:04019000862a0000bb
:020000040000fa
:04019400862a0000b7
:020000040000fa
:04019800862a0000b3
:020000040000fa
:04019c00862a0000af
:020000040000fa
:0401a000862a0000ab
:020000040000fa
:0401a400862a0000a7
:020000040000fa
:0401a800862a0000a3
:020000040000fa
:0401ac00862a00009f
:020000040000fa
:0401b000862a00009b
:020000040000fa
:0401b400862a000097
:020000040000fa
:0401b800862a000093
:020000040000fa
:0401bc00862a00008f
:020000040000fa
:0401c000862a00008b
:020000040000fa
:0401c400862a000087
:020000040000fa
:0401c800862a000083
:020000040000fa
:0401cc00862a00007f
:020000040000fa
:0401d000862a00007b
:020000040000fa
:0401d400862a000077
:020000040000fa
:0401d800862a000073
:020000040000fa
:0401dc00862a00006f
:020000040000fa
:0401e000862a00006b
:020000040000fa
:0401e400862a000067
:020000040000fa
:0401e800862a000063
:020000040000fa
:0401ec00862a00005f
:020000040000fa
:0401f000862a00005b
:020000040000fa
:0401f400862a000057
:020000040000fa
:0401f800862a000053
:020000040000fa
:0401fc00862a00004f
:020000040000fa
:04020000862a00004a
:020000040000fa
:04020400862a000046
:020000040000fa
:04020800862a000042
:020000040000fa
:04020c00862a00003e
:020000040000fa
:04021000862a00003a
:020000040000fa
:04021400862a000036
:020000040000fa
:04021800862a000032
:020000040000fa
:04021c00862a00002e
:020000040000fa
:04022000862a00002a
:020000040000fa
:04022400862a000026
:020000040000fa
:04022800862a000022
:020000040000fa
:04022c00862a00001e
:020000040000fa
:04023000862a00001a
:020000040000fa
:04023400862a000016
:020000040000fa
:04023800862a000012
:020000040000fa
:04023c00862a00000e
:020000040000fa
:04024000862a00000a
:020000040000fa
:04024400862a000006
:020000040000fa
:04024800862a000002
:020000040000fa
:04024c00862a0000fe
:020000040000fa
:04025000862a0000fa
:020000040000fa
:04025400862a0000f6
:020000040000fa
:04025800862a0000f2
:020000040000fa
:04025c00862a0000ee
:020000040000fa
:04026000862a0000ea
:020000040000fa
:04026400862a0000e6
:020000040000fa
:04026800862a0000e2
:020000040000fa
:04026c00862a0000de
:020000040000fa
:04027000862a0000da
:020000040000fa
:04027400862a0000d6
:020000040000fa
:04027800862a0000d2
:020000040000fa
:04027c00862a0000ce
:020000040000fa
:04028000862a0000ca
:020000040000fa
:04028400862a0000c6
:020000040000fa
:04028800862a0000c2
:020000040000fa
:04028c00862a0000be
:020000040000fa
:04029000862a0000ba
:020000040000fa
:04029400862a0000b6
:020000040000fa
:04029800862a0000b2
:020000040000fa
:04029c00862a0000ae
:020000040000fa
:0402a000862a0000aa
:020000040000fa
:0402a400862a0000a6
:020000040000fa
:0402a800862a0000a2
:020000040000fa
:0402ac00862a00009e
:020000040000fa
:0402b000862a00009a
:020000040000fa
:0402b400862a000096
:020000040000fa
:0402b800862a000092
:020000040000fa
:0402bc00862a00008e
:020000040000fa
:0402c000862a00008a
:020000040000fa
:0402c400862a000086
:020000040000fa
:0402c800862a000082
:020000040000fa
:0402cc00862a00007e
:020000040000fa
:0402d000862a00007a
:020000040000fa
:0402d400862a000076
:020000040000fa
:0402d800862a000072
:020000040000fa
:0402dc00862a00006e
:020000040000fa
:0402e000862a00006a
:020000040000fa
:0402e400862a000066
:020000040000fa
:0402e800862a000062
:020000040000fa
:0402ec00862a00005e
:020000040000fa
:0402f000862a00005a
:020000040000fa
:0402f400862a000056
:020000040000fa
:0402f800862a000052
:020000040000fa
:0402fc00862a00004e
:020000040000fa
:04030000862a000049
:020000040000fa
:04030400862a000045
:020000040000fa
:04030800862a000041
:020000040000fa
:04030c00862a00003d
:020000040000fa
:04031000862a000039
:020000040000fa
:04031400862a000035
:020000040000fa
:04031800862a000031
:020000040000fa
:04031c00862a00002d
:020000040000fa
:04032000862a000029
:020000040000fa
:1004000000500000000000000b0800000000000089
:1004100000000000000000000000000000010000db
:100420000050000000000000fe7700000500000002
:1004300009000000000000000000000000000000b3
:1004400000000000000100000000000000000000ab
:10045000000000000000000000000000000200009a
:100460000100000001000000005600003400000000
:10047000000000000808000000000000000000006c
:10048000000000000000000000000000000000006c
:10049000000000000001000002030000040500004d
:1004a00006070000080c00001014000018200000cf
:1004b00030400000000100000203000004050000bd
:1004c00006070000080c00001014000018200000af
:1004d0003040000000580000000000004000000014
:020000040000fa
:1004e0000000000000000000ab410000418100005e
:1004f000fdc20000c383000056830000820200009a
:1005000051c40000c6860000fa850000870700007d
:10051000ac06000005050000074700004484000009
:1005200009c90000cc8c0000a28800008d0d0000dd
:10053000f40b00000f0f00005f4a00004e8e000019
:10054000580d00000a0a0000f34c00004b8b00001d
:10055000a5cf0000c98900000e8e000088080000a9
:10056000b9d30000d8980000129200009919000039
:10057000441100001b1b0000ef5000005a9a0000bd
:10058000e81700001e1e0000435600005f9f000099
:1005900015d50000dd9d0000be9400009c1c0000ed
:1005a000b01a0000141400001b5b000055950000f9
:1005b0004dd80000d7970000e6990000961600007d
:1005c000e1de0000d29200004a9f00009313000079
:1005d0001c1c000011110000b75d000050900000cd
:1005e000d9e60000f0b0000072a70000b1310000b1
:1005f00024240000333300008f65000072b2000035
:1006000088220000363600002363000077b7000020
:1006100075e00000f5b50000dea10000b434000074
:10062000d02f00003c3c00007b6e00007dbd000030
:100630002ded0000ffbf000086ac0000be3e0000b4
:1006400081eb0000faba00002aaa0000bb3b0000c0
:100650007c29000039390000d768000078b8000014
:100660006035000028280000cb74000069a9000054
:100670009df70000ebab000036b60000aa2a000090
:1006800031f10000eeae00009ab00000af2f000084
:10069000cc3300002d2d0000677200006cac000010
:1006a00069fc0000e4a40000c2bd0000a525000014
:1006b000943e0000272700003f7f000066a6000050
:1006c00038380000222200009379000063a3000064
:1006d000c5fa0000e1a100006ebb0000a0200000f0
:1006e000198c0000a0e00000b2cd0000e161000024
:1006f000e44e0000636300004f0f000022e20000a0
:100700004848000066660000e309000027e7000093
:10071000b58a0000a5e500001ecb0000e4640000df
:10072000104500006c6c0000bb0400002ded0000c3
:10073000ed870000afef000046c60000ee6e00003f
:1007400041810000aaea0000eac00000eb6b000053
:10075000bc430000696900001702000028e800009f
:10076000a05f0000787800000b1e000039f900003f
:100770005d9d0000bbfb0000f6dc0000fa7a000083
:10078000f19b0000befe00005ada0000ff7f00006f
:100790000c5900007d7d0000a71800003cfc000003
:1007a000a9960000b4f4000002d70000f57500001f
:1007b0005454000077770000ff15000036f6000063
:1007c000f8520000727200005313000033f300006f
:1007d00005900000b1f10000aed10000f070000003
:1007e000c06a0000505000006b2b000011d10000c7
:1007f0003da8000093d3000096e90000d25200000b
:1008000091ae000096d600003aef0000d7570000e6
:100810006c6c000055550000c72d000014d400007a
:10082000c9a300009cdc000062e20000dd5d000066
:10083000346100005f5f00009f2000001ede0000aa
:10084000986700005a5a0000332600001bdb0000a6
:1008500065a5000099d90000cee40000d85800003a
:1008600079b9000088c80000d2f80000c94900002a
:10087000847b00004b4b00002f3a00000aca0000a6
:10088000287d00004e4e0000833c00000fcf00008a
:10089000d5bf00008dcd00007efe0000cc4c0000d6
:1008a0007070000044440000db31000005c500000a
:1008b0008db2000087c7000026f30000c646000086
:1008c00021b4000082c200008af50000c34300008a
:1008d000dc760000414100007737000000c00000d6
:1008e00099590000004000003218000041c100008a
:1008f000649b0000c3c30000cfda00008242000006
:10090000c89d0000c6c6000063dc000087470000e9
:10091000355f0000054500009e1e000044c4000035
:1009200090900000cccc00003bd100008d4d000029
:100930006d5200000f4f0000c61300004ece0000a5
:10094000c15400000a4a00006a1500004bcb0000a9
:100950003c960000c9c9000097d7000088480000f5
:10096000208a0000d8d800008bcb000099590000e5
:10097000dd4800001b5b0000760900005ada000029
:10098000714e00001e5e0000da0f00005fdf000005
:100990008c8c0000dddd000027cd00009c5c000099
:1009a00029430000145400008202000055d50000c5
:1009b000d4810000d7d700007fc000009656000009
:1009c00078870000d2d20000d3c600009353000005
:1009d00085450000115100002e04000050d0000099
:1009e00040bf0000f0f00000ebfe0000b17100001d
:1009f000bd7d000033730000163c000072f2000061
:100a0000117b000036760000ba3a000077f700004c
:100a1000ecb90000f5f5000047f80000b4740000e0
:100a2000497600003c7c0000e23700007dfd0000bc
:100a3000b4b40000ffff00001ff50000be7e000000
:100a400018b20000fafa0000b3f30000bb7b00000c
:100a5000e5700000397900004e31000078f80000a0
:100a6000f96c000028680000522d000069e90000c0
:100a700004ae0000ebeb0000afef0000aa6a00003c
:100a8000a8a80000eeee000003e90000af6f000030
:100a9000556a00002d6d0000fe2b00006cec00007c
:100aa000f0a50000e4e400005be40000a5650000a0
:100ab0000d67000027670000a626000066e600001c
:100ac000a1610000226200000a20000063e3000030
:100ad0005ca30000e1e10000f7e20000a06000007c
:100ae00080d50000a0a000002b940000e1210000b0
:100af0007d17000063230000d656000022a20000ec
:100b0000d1110000662600007a50000027a70000df
:100b10002cd30000a5a5000087920000e42400006b
:100b2000891c00006c2c0000225d00002dad00002f
:100b300074de0000afaf0000df9f0000ee2e00006b
:100b4000d8d80000aaaa000073990000eb2b00007f
:100b5000251a0000692900008e5b000028a800000b
:100b600039060000783800009247000039b90000cb
:100b7000c4c40000bbbb00006f850000fa3a00004f
:100b800068c20000bebe0000c3830000ff3f00003b
:100b9000950000007d3d00003e4100003cbc00008f
:100ba00030cf0000b4b400009b8e0000f53500008b
:100bb000cd0d000077370000664c000036b600000f
:100bc000610b000072320000ca4a000033b300001b
:100bd0009cc90000b1b1000037880000f03000006f
:100be0005933000050100000f27200001191000013
:100bf000a4f10000939300000fb00000d212000097
:100c000008f7000096960000a3b60000d717000072
:100c1000f5350000551500005e74000014940000c6
:100c200050fa00009c9c0000fbbb0000dd1d000092
:100c3000ad3800005f1f0000067900001e9e000016
:100c4000013e00005a1a0000aa7f00001b9b000012
:100c5000fcfc00009999000057bd0000d818000066
:100c6000e0e00000888800004ba10000c9090000f6
:100c70001d2200004b0b0000b66300000a8a000032
:100c8000b12400004e0e00001a6500000f8f000016
:100c90004ce600008d8d0000e7a70000cc0c0000a2
:100ca000e9290000440400004268000005850000b6
:100cb00014eb000087870000bfaa0000c6060000f2
:100cc000b8ed00008282000013ac0000c3030000f6
:100cd000452f000041010000ee6e00000080000082
:100ce000809fbe00821f7800600321000110200059
:100cf000a102880001272000022020003118ba003c
:100d00000201e900fdff3a004f0178004f00be00ec
:100d1000000006005400f800889fbe007006020024
:100d2000000000000404be002800b0000980b000ec
:100d30000203be00640321000600b00005003a0073
:100d40000700b00003003a000001eb008001eb0057
:100d5000070037000830e10002003a000938e100de
:100d600031003200a70288001601ba009681ba004d
:100d7000c80ade0082c26a00c22add008502420083
:100d8000c808dd000080fd00814068000040eb00e5
:100d9000350068009580680081026900c82ade007d
:100da000c22add0085024200c808dd000080fd0087
:100db000814068000040eb003500680095806800c5
:100dc000c80ade0083c26a00c22add008502420032
:100dd000c808dd000080fd00814068000040eb0095
:100de000350068009580680081826900c82ade00ad
:100df000c22add0085024200c808dd000080fd0037
:100e0000814068000040eb00350068009580680074
:100e10002600b0000780b0000830e100d1ff3a00a2
:100e20000938e100cfff3a004f04be005400f9003a
:040e300000000600b8
:020000040000fa
:100e34001800fa0010c0b30040479800a0832100b6
:100e440030079800b1002000a0832100c60d0700e0
:100e54006c004700b2002000a18321006711070045
:100e64003e019000f24190008381fb00024a900011
:100e74000482fb004822dd008481710003007800b5
:100e8400924990008381fb00224990000281fb007b
:100e94004811dd000281710082007800008fbe00dd
:100ea40000802f00010020001e01be000202780015
:100eb40003017800800178000100780003026200d9
:100ec400000061008000eb00c000dd000000200095
:100ed4000001be006120b800000171008181710031
:100ee400be0f5100ae8f5900020032000040eb00eb
:100ef400404798003e019000b24190008381fb007e
:100f0400424290000482fb004822dd00848171008b
:100f140003007800d24190008381fb00624190007d
:100f24000281fb004811dd0002817100820078001b
:100f3400610307001f00370000802000010020002b
:100f44003e014000ae8148000200be000001be0028
:100f54001e00be007e0e07000004e00013003200f5
:100f64001e01be000000eb00cc0e070040079800f5
:100f7400510798004e009000de0090007d030700aa
:100f84000080fb0000f0a7000000ea000000ea0077
:100f94004f00de0040479800008020000100200040
:100fa4001e0f40005e974800020037000040eb002f
:100fb400404798004e4090000004e00020003200ba
:100fc4003e019000f24190008381fb00024a9000b0
:100fd4000482fb004822dd00848171000300780054
:100fe400924990008381fb00224990000281fb001a
:100ff4004811dd0002817100820078003e019000fa
:10100400924190008381fb00224190000281fb0009
:101014004811dd00028171006112b8004b29dd0026
:10102400c521de00830171004b21dd000000410079
:1010340081804900be0f5000ae8f5800beff3e00b5
:10104400220307004e4090000004e0002300320019
:101054003e019000f24190008381fb00024a90001f
:101064000482fb004822dd008481710003007800c3
:10107400924990008381fb00224990000281fb0089
:101084004811dd0002817100820078003e01900069
:10109400924190008381fb00224190000281fb0079
:1010a4004811dd00028171006112b8004b29dd0096
:1010b400c521de00830171004b21dd0000004100e9
:1010c40081804900be0f5000ae8f580003003a00e3
:1010d40010c0b3007057980002003700e0cfb3008f
:1010e400705798006c004700c1002000bd0d070038
:1010f4003e009000b040900060c16000a1cab300ff
:1011040081407100314098004041900080c0eb0064
:101114008140710041409800d040900060c160005f
:1011240051c5b30081407100514098006041900066
:1011340080c0eb0081407100614098007e509000b7
:10114400e14f500002003a000000eb0001003700bc
:0c115400300020000080fa0000000600bf
:020000040000fa
:101160000a00fa0030079800410798000040eb00a1
:10117000004f78003e009000900078001107980022
:101180003e0090000080e800300798003e0090008c
:1011900090007800210798003e0090000080e80051
:1011a000300798003e009000100078000040780062
:1011b0006f4060006f4060006f406000ce009000a4
:1011c0000080fb006f0060004200dd00a101900084
:1011d00032fc2f000281610002007000a000980024
:1011e0003e00900010007800700060004400de00b7
:1011f00000407800e14060004e0090008180fb00dc
:10120000e1806000200190000200a1008280700057
:10121000210098003e00900090007800000220001d
:10122000008060004500de0000407800e140600082
:101230004e0090008180fb00e180600081804000d2
:10124000200190000210a10082807000210098000f
:101250003e009000900078000004200000806000b4
:101260004600de0000407800e14060004e00900043
:101270008180fb00e1806000c708dd002001900054
:101280000270a10082807000210098003e00900052
:101290009000780000082000008060004700de0019
:1012a00000407800e14060004e0090008180fb002b
:1012b000e1806000c608dd00200190000260a1000e
:1012c00082807000210098004e0090002000900065
:1012d000610060000000e00014003a001e00900071
:1012e0006101b800f07f20000100200002027800b8
:1012f0000301780080017800010078000302620099
:10130000000061008000eb00c000dd000000200054
:101310000001be006120b8000001710081817100f0
:101320004e0090000288be00400037001e00900072
:101330006101b800f07f2000010020000202780067
:101340000301780080017800010078000302620048
:10135000000061008000eb00c000dd000000200004
:101360000001be006120b8000001710081817100a0
:10137000c212dd00040020002e0090006101b800c0
:10138000f0ff210001002000020378000301780033
:101390008001780001007800030363000000610011
:1013a0008000eb00c000dd00000020000001be0056
:1013b0006130b80000017100818171004518dd00c5
:1013c000cb10de00810070004510dd0000027200cd
:1013d000818272001e0090004b00de006101b800a7
:1013e000f0012000010020000203780003017800d2
:1013f00080017800010078000303630000006100b1
:101400008000eb00c000dd00000020000001be00f5
:101410006130b8000001710081817100020072002a
:10142000838072004e0190000089be003e00900053
:1014300064004000300798004e00900020009000ab
:1014400052800a00000000000080fb00c90f070066
:10145000004f7800020420008000eb0020ac210047
:10146000ee0f07001e80fb0000017800be00900018
:1014700020ac2100e20f07004e00900021ac2100bb
:0c148000310098000080fa000000060017
:020000040000fa
:10148c002200fa00a0832100100798002000200001
:10149c00480e07000080fb004800dd002007980084
:1014ac0010002000430e07000080fb00ae009000ef
:1014bc0001007000200798008a0d0700ae00900014
:1014cc00eb804000810f5000020031002000200012
:1014dc00980037002e0090006b00400080007800d0
:1014ec00a08321001e0c07006e004700b2002000f4
:1014fc00a1832100bf0f070010c0b300105f98003c
:10150c001e019000f24190008381fb00024a900082
:10151c000482fb004822dd00848171000300780006
:10152c00924990008381fb00224990000281fb00cc
:10153c004811dd00028171008200780030079800ac
:10154c00410798002e0090000000d1006101b80006
:10155c003e009000ce0090000200400083804800c6
:10156c000001be003e009000ce009000f60c07007b
:10157c000004e000510032002e0090006700600073
:10158c000000e0004d003a00ae009000500f20002b
:10159c00808f500049003e001e019000b241900027
:1015ac008381fb00424290000482fb004822dd0054
:1015bc008481710003007800d24190008381fb008c
:1015cc00624190000281fb004811dd000281710034
:1015dc0082007800b60107000000eb00000f7800d5
:1015ec00300037001e019000f24190008381fb0017
:1015fc00024a90000482fb004822dd0084817100c5
:10160c0003007800924990008381fb0022499000ee
:10161c000281fb004811dd0002817100820078001c
:10162c001e0178000201d1008001eb000000410096
:10163c00818049000001be000000eb00150d070081
:10164c0050079800610798001e0090006b00400046
:10165c009e0040007a00470082002000650f0700c2
:10166c007e0990008e1190005e089000ee089000ac
:10167c000202be000001be005e009000ee00900071
:10168c00c80107000004a2000004e00003003200bf
:10169c00e0cfb300105f9800060037009e00780082
:1016ac00688f40002e0090009e007800808f5000c4
:1016bc00ccff39008301070002003700e0cfb300f4
:1016cc00105f98006e004700c1002000430c07001b
:1016dc001e009000b040900060c16000a1cab30031
:1016ec0081407100314098004041900080c0eb0077
:1016fc008140710041409800d040900060c1600072
:10170c0051c5b30081407100514098006041900078
:10171c0080c0eb0081407100614098001e58900021
:10172c00e14f500002003a000000eb0001003700ce
:0c173c00300020000080fa0000000600d1
:020000040000fa
:101748001200fa00889fbe00000f98000e08900053
:101758000000e000020032000040eb00a300370068
:1017680050138400611384000001be000e0890002d
:10177800c90c070064014700970607004e00900057
:10178800de009000580e07000004e000020032005e
:101798000040eb00950037006e009000fe009000be
:1017a800510e07000004e000020032000040eb0088
:1017b8008e0037004e019000de019000f0ff2400fb
:1017c80001002000800f5100818f590002003e0067
:1017d8000040eb00850037006e019000fe0190008c
:1017e800f0ff240001002000800f5100818f590074
:1017f80002003e000040eb007c0037004e019000e4
:10180800de019000e07f270051002000800f51008a
:10181800818f5900020036000040eb00730037004a
:101828006e019000fe019000e07f2700510020002b
:10183800800f5100818f5900020036000040eb00f4
:101848006a0037004e019000de0190006e009000a3
:10185800fe009000800f5100818f59000200360071
:101868000040eb00610037004e019000de0190005f
:101878005013840061138400800f5100818f590038
:1018880007003e006e019000fe0190005013840096
:1018980061138400800f5100818f590011003100bd
:1018a8006e009000fe0090000001be000e0890003f
:1018b800790c07000004be004e009000de00900086
:1018c8000001be000e089000730c07000802be005d
:1018d8000001be006000b8000cfd0700008fbe00cc
:1018e800370037006000b800008fbe004e0190003e
:1018f800de0190005013840061138400800f5100b2
:10190800818f590012003200501384006113840043
:1019180062005000e08058000001be000e089000f0
:101928005d0c07000004be004e009000de00900031
:101938000001be000e089000570c07000802be0008
:101948000001be001e00be00f0fc0700008fbe00b4
:101958006022b8006011b8001e00be00ebfc070052
:10196800008fbe006022b8006011b8001e00be00e3
:10197800e6fc0700008fbe006e009000fe0090009d
:101988000001be000e089000430c07000004be00d2
:10199800501384006113840064004000e080480014
:1019a8000001be000e0890003b0c07000802be00b4
:1019b8000001be001e00be00d4fc0700008fbe0060
:1019c8002e009000be0090003e016800ae816800c5
:1019d8000200be000080700000f0a7000000ea00ce
:1019e8000000e9004f00de00004078004f04be0010
:0819f8000080fa000000060067
:020000040000fa
:101a00001e00fa00a0832100300798006000b80093
:101a1000008fbe00b1002000a0832100d30a070080
:101a200070004700b2002000a1832100740e07005f
:101a30003e019000f24190008381fb00024a900039
:101a40000482fb004822dd008481710003007800dd
:101a5000924990008381fb00224990000281fb00a3
:101a60004811dd0002817100820078003e01900083
:101a7000924190008381fb00224190000281fb0093
:101a80004811dd00028171008001eb00000041007f
:101a90008180490061025000e08258003e019000c0
:101aa000f24190008381fb00024b90000683fb0013
:101ab0004833dd0086817100030078009249900070
:101ac0008381fb00224990000281fb004811dd0068
:101ad00002817100820078000401be009d0b0700a6
:101ae0000004e0005f0032000000eb0020079800d7
:101af000490037003e019000f24190008381fb00d5
:101b0000024a90000482fb004822dd0084817100bb
:101b100003007800924990008381fb0022499000e5
:101b20000281fb004811dd00028171008200780013
:101b30002e0190000201d1008001eb000000410065
:101b4000818049000001be000000eb00d40b0700bb
:101b500040079800510798004e009000de0090006a
:101b60007800070060079800710798006e019000e8
:101b7000fe019000f0ff2f0001002000020278001b
:101b80008301780000017800010078000201620002
:101b9000008061008000eb00c000dd00000020003c
:101ba0000002be006110b800000272008182720063
:101bb0006e009000fe0090004009de00030020004f
:101bc000f00f2000010020000203780003017800dc
:101bd00080017800010078000303630000006100c9
:101be0008000eb00c000dd00000020000001be000e
:101bf0006130b80000017100818171000400410072
:101c0000858049001e0f40005e9748002e0090001e
:101c100064004000200798003e0090009040900033
:101c20008180fb00204090000080fb004800dd0028
:101c300000807000800078002e009000808f50009f
:101c4000acff3e001e007800600f980010c0b3008b
:101c5000305f980070004700e1002000e20a0700b2
:101c60000d003700e0cfb300305f98008e08900081
:101c7000f00f200000806000000f98009e08900088
:101c800000f02f0000806000100f980070004700e7
:101c9000c1002000d40a07003e589000e14f5000d8
:101ca00002003a000000eb00010037003000200085
:081cb0000080fa0000000600ac
:020000040000fa
:101cb8000000fe0022b22100001978000109780016
:101cc800000006000000fe000000eb008000eb00b2
:101cd800f8ff0700d628ef00000006000000fe000d
:101ce8000000fe00801f7800811f7800821f7800a6
:101cf80021b2210012468000c3e8a9003100780013
:101d0800b046880011007800b0468800d1e8a800e5
:101d18000000000000000000d1e8af00feff37001f
:101d280002f0a700c3e8a8004f017800cf007800b0
:101d38004f007800000006000000fe00a2028000ac
:101d4800a10288009080ba001000ba00a2028800a0
:101d5800000006000000fe00a2028000a102880028
:101d68001000ba00a2028800000006000000fe0071
:101d7800f27f20000001610008003a0032002400d0
:101d88008246880090468800a1468800760e0200a8
:101d98000000000010002000d1a8af0000002000c3
:101da800000006000000fe00d1e8af00feff37008b
:101db8000000a700130037000010a700110037002b
:101dc800a1468800904688001000240080468800bc
:101dd800a0028000a10f2000a102880001002000bd
:101de8008208bb008398bb008408bb008598bb00b1
:101df800760e020000000000a002880010002000fb
:101e0800d1a8af0000002000000006000000fe007e
:101e1800d1e8af00feff37000000a700140037002c
:101e28000010a70012003700a146880090468800dd
:101e3800a10280001000240080468800a00f200026
:101e4800a0028800000020000208bb00f20f20005a
:101e58000298bb000308bb000298bb00760e020084
:101e680000000000a102880010002000d1a8af00e7
:101e780000002000000006000000fe00d1e8af00ce
:101e8800feff3700f30f20008081610009003a004f
:101e980090468800a14688002000240080468800db
:101ea800c2468800760e02000000000010002000e4
:101eb800d1a8af0000002000000006000000fe00ce
:101ec800d1e8af00feff3700f30f200080816100ea
:101ed80015003a0090468800a146880010002400aa
:101ee80080468800a00f2000a00288000000200083
:101ef80001082000f40f20003208bb000498bb0042
:101f08003208bb000490bb00760e020000000000ff
:101f1800d2a8ec00d2a8ec002100b100f6ff3a00ec
:101f280010002000d1a8af0000002000000006002b
:101f3800f27f2000000061000000060002802f00f0
:101f480000006100f2ff2f00810061000000060020
:020000040000fa
:101f5800a1028800800478000000eb001f00370011
:101f6800e284440054a0b4009905ba00e284440015
:101f780054a0b4009906ba00e284440054a0b40006
:101f88000006eb00476fde00fd07b200ae018800d7
:101f9800636ce10003003a000ad801000000eb007e
:101fa8000e003700606ce10008003a00004deb00bd
:101fb8000a05e800020039003420ec000af0a0000d
:101fc8008b05e900f9ff3e00040037006168e10075
:101fd800010032000086eb000b00070019c7ba00a9
:101fe8001905ba000e04e00003003a000a00e000f8
:101ff800dbff3a0000000600fe07b200ae028800d0
:102008008a047800f5ff37000cd0a300e20f4d00da
:102018001c00390089027800354dba000a05e8002d
:10202800020039003420ec000af0a0008b05e9001a
:102038000f003200254dba000a05e80002003900f9
:102048003420ec000af0a0008b05e90008003200fb
:102058000c00e0000600320015cdba000a05e800c1
:10206800020039003420ec000af0a0008b05e900da
:102078008984e80054a0b4000b00e000e2ff3a00b5
:10208800000006009902ba00055d78008b05e9009a
:10209800f7ff3200c82ade00055d78008b05e900ed
:1020a800f3ff32000c00e000f1ff320019ddba0046
:1020b800eeff37006100e10001003200100005006a
:1020c8005400f80050102000a002880000f92700f2
:1020d8001000ba005400f90007e02b0007f0a70031
:1020e8008703d1000703780001c4fe000003eb005a
:1020f8000120200090018800a1a82a0011130300e4
:102108008703e900fdff3a0000f0a6000000050083
:1021180000f0a00080c4fe0086037800f3ff3700bb
:1021280004082000010037000002eb006100e10014
:1021380001003200100005003200f8003400f800f9
:1021480081027800930188003200be000100e0009f
:102158000c0032000470a70000f0a00032037800e1
:10216800c733de00848343004220af008703e800c2
:10217800a7018800f607b2007f30e10004003200b2
:10218800200020003400f9003200f90000000600a9
:102198008100e9000500e00003003a000180090021
:1021a80032100300e8ff3700018009003290030075
:1021b800d561ae00e4ff370030002000f1ff3700a2
:1021c80050052000b00e8800a00a2000b00e88003c
:1021d800d3e1a8000000060050052000b00e8800da
:1021e800a00a2000b00e8800d3e1a9000000060074
:020000040000fa
:1021f8000c01fa00a083210010079800b10020000c
:10220800a0832100d708070068004700b20020001b
:10221800a1832100780c07001e019000f241900074
:102228008381fb00024a90000482fb004822dd0003
:102238008481710003007800924990008381fb003b
:10224800224990000281fb004811dd0002817100e3
:10225800820078001e019000924190008381fb006b
:10226800224190000281fb004811dd0002817100cb
:102278000201d1008001eb00000241008182490087
:102288001e019000f24190008381fb00024b9000f8
:102298000683fb004833dd00868171000300780067
:1022a800924990008381fb00224990000281fb0043
:1022b8004811dd0002817100820078000401be002f
:1022c800a20907000004e0004b0032001e00900045
:1022d800904090008180fb00204090000080fb002f
:1022e8004800dd000080700080007800400f20006a
:1022f800808f500040003e001e00900090409000eb
:102308008180fb00204090000080fb004800dd0039
:1023180000807000630060000000e00036003a00b2
:102328000000eb00000f7800270037001e01900026
:10233800f24190008381fb00024a90000482fb0076
:102348004822dd00848171000300780092499000e2
:102358008381fb00224990000281fb004811dd00c7
:1023680002817100820078001e0178000201d1000c
:102378008001eb0000004100818049000001be009f
:102388000000eb00c40907002007980031079800f7
:102398002e009000be00900068fe070040079900dc
:1023a80051079900680047006c0040001e0040007b
:1023b800811020008e804000420020000e0c070093
:1023c8009e007800648f40001e00900090409000ae
:1023d8008180fb00204090000080fb004800dd0069
:1023e800008070009e0f5000d0ff3e0010c0b30068
:1023f800305798000a003700e0cfb30030579800f4
:10240800ce009000f00f2000008060004007980088
:10241800de00900000f02f00008060005007980058
:102428004e0090004800de005e019000f10f200091
:1024380081006100c808dd0001007000ec00400068
:1024480068004700e60807003e509000e14f500042
:1024580002003a000000eb000100370030002000c5
:082468000080fa0000000600ec
:020000040000fa
:102470000600fa0010079800210798000040eb00c2
:10248000004f78002e009000200090006100600056
:102490000000e0000b003a002e0090001000be008b
:1024a00080007800f07f2000808060001e00900097
:1024b000010878001e00900064004000100798009a
:1024c0001e0037002e0090001000be004208de0003
:1024d00080007800f07f2000008160002e009000d6
:1024e0001000be00000078004b00dd00820070008c
:1024f0001e009000010878001e0090000080e80097
:10250000100798002e0090001000be004b09dd005f
:102510004500de0000007100c508de008000780084
:10252000f0ff2100808060001e009000010878000c
:102530001e0090000080e800100798002e00900018
:102540002000900052800a00000000008080fb0004
:102550002e0090002000900000800a000000000083
:102560000080fb004400dd0070006000810070000e
:102570002e0090002000900011800a000000000052
:102580000080fb004500dd00000178000002200013
:1025900000006100810070002e009000200090007b
:1025a00077800a00000000000080fb004600dd008c
:1025b000000178000004200000006100810070002c
:1025c0002e0090002000900066800a0000000000ad
:1025d0000080fb004700dd0000017800f00f2000c4
:1025e00000006100810070001e009000010878006a
:1025f0002e00900020009000620060000000e000cb
:1026000011003a001e00900064004000100798007e
:102610002e0090002000900052800a000000000070
:102620000080fb00530b0700004f78009e80fb00ea
:102630002e009000300090000101780080007800aa
:102640001e0090006e0b07000080fa0000000600dc
:020000040000fa
:102650003600f800809fbe00829fbe00849fbe00af
:10266000869fbe000000fa00c028a9000000eb0011
:102670008e0b07000080fa004f03be004f02be0021
:102680004f01be004f00be003600f90000400600ba
:102690003600f800809fbe00829fbe00849fbe006f
:1026a000869fbe000000fa002b0b0700c048a9005f
:1026b000100020007d0b07000080fa004f03be00d1
:1026c0004f02be004f01be004f00be003600f900b1
:1026d000004006003600f800809fbe00829fbe00ca
:1026e000849fbe00869fbe000000fa00c068a9005b
:1026f000200020006d0b07000080fa004f03be0091
:102700004f02be004f01be004f00be003600f90070
:10271000004006003600f800809fbe00829fbe0089
:10272000849fbe00869fbe000000fa00c088a900fa
:10273000300020005d0b07000080fa004f03be0050
:102740004f02be004f01be004f00be003600f90030
:10275000004006003600f800809fbe00829fbe0049
:10276000849fbe00869fbe000000fa00c608a90034
:10277000700020004d0b07000080fa004f03be00e0
:102780004f02be004f01be004f00be003600f900f0
:10279000004006003600f800809fbe00829fbe0009
:1027a000849fbe00869fbe000000fa002146800084
:1027b00000102000008060000000e00003003200f4
:1027c000c508a900c0002000380b07002146800082
:1027d00000022000008060000000e00003003200e2
:1027e000c4a8a90090002000300b070020468000fc
:1027f000700060000000e00003003200c488a900ff
:10280000a0002000290b0700204680006100600026
:102810000000e00003003200c408a900b00020005e
:08282000220b0700ffff370047
:020000040000fa
:102828000000fa00881f78002000210011c0b300c2
:102838000148780020a42100104078000080fb00a7
:10284800ef006000200021003100980020002100e6
:1028580030009000c800dd00200021003100980001
:1028680020002100b000900030a421001040780022
:102878000080fb00810070002000210031009800da
:1028880020002100300090000000e0003c003a00e9
:1028980040a42100104078008080fb002000210027
:1028a800310098002000210030009000c800dd00b1
:1028b800200021003100980020002100b000900085
:1028c80050a42100104078000080fb0081007000b7
:1028d80020002100310098002000210030009000e5
:1028e800c800dd00200021003100980020002100f0
:1028f800b000900060a42100104078000080fb0028
:102908008100700020002100310098002000210083
:1029180030009000c800dd00200021003100980040
:1029280020002100b000900070a421001040780021
:102938000080fb0081007000200021003100980019
:1029480020002100b0009000f0ff2000808f500090
:1029580003003e00200021008040eb000148780081
:1029680000d0bf00e6405000200021001140980030
:102978002000210081a421001100980007003700e1
:1029880000d0bf0080c0e90020002100114098005d
:102998002000210041a421001100980000d0bf00b0
:1029a800e74f500003003e00200021008040eb006c
:1029b800014878002000210030049000c70a070071
:1029c8000080fb00800f540003003100200021002c
:1029d8008040eb00014878004f0478000080fa003e
:0429e80000000600e5
:020000040000fa
:1029ec000c00fa000040eb00304798000040eb0070
:1029fc00004f78000040eb00104798000040eb00bf
:102a0c00204798000040eb00004f78005100370041
:102a1c001e80fb00c200dd0060022100008040002f
:102a2c00100078003047980068004700800078005c
:102a3c003e409000dd0507003e4090000080fb000a
:102a4c0065090700200798002e00900061006000c7
:102a5c00004078000004e0003d0032002e009000a1
:102a6c00680060000000e000030032009e48900007
:102a7c0011479800320037003e4090000080fb0068
:102a8c0099080700300798001e80fb004200dd000b
:102a9c008080e80060022100008040001040780037
:102aac008080fb003e009000808f50000d003600af
:102abc009e4890003e0090000040780080c040008e
:102acc001e80fb004200dd000081e8006002210056
:102adc00000041001040780000c0500010479800e2
:102aec00170037001e80fb004200dd008080e800ec
:102afc006002210000804000104078008080fb00c4
:102b0c003e009000808f50000b0031003e00900082
:102b1c00804078001e80fb004200dd000081e80050
:102b2c0060022100000041001040780000c05000fd
:102b3c0010479800020037009e48900011479800fb
:102b4c00ae4090001e40900000c04000204798000e
:102b5c001e4fe8001e4078000004e000acff32007d
:0c2b6c002e4090000080fa0000000600df
:020000040000fa
:102b78000400fa006000b800008fbe0028ff0700bc
:102b880020002100104078000004e0004f003200cf
:102b9800e7090700a0a22100104078000004e00027
:102ba8000b003200a0a221008040eb000148780011
:102bb800b0a221009040780050a22100014878007e
:102bc800c0a221009040780040a22100014878006e
:102bd800010021009140780020a2210001487800de
:102be80020002100300090008000eb00f0d0880029
:102bf80001d1880020002100300090008000eb0007
:102c0800008fbe0010002000a0d088000e017800c0
:102c18008000eb000000eb000c090700f2d08000f8
:102c280003d18000d0d080008000eb00800f5100dd
:102c3800818f59000900360020c0b30091090700b0
:102c48000e0178008000eb0010002000ff0807004c
:102c58000000eb00a0d088001c00370060a1210014
:102c6800104078000080fb0000f0a7000000ea0098
:102c78000000ea004f00de008040780060a12100db
:102c88000148780030a2210011c0b3000148780043
:102c980090a221008040eb00014878000000eb0082
:102ca800e0d08800ed07070060a1210010407800ff
:102cb8000004e0000300320010c0b30071090700ef
:102cc800020037000040eb006e0907000080fa00a0
:042cd80000000600f2
:020000040000fa
:102cdc000600fa00881f780082070700000f7800b2
:102cec001e0078000000e00002003a0010002000f6
:102cfc00480037001e007800ea0f500002003e002a
:102d0c0020002000430037000000eb0029080700da
:102d1c002047980010002000260807000084fb00c4
:102d2c0020002000230807000080fb004800dd0085
:102d3c00000044006b00400020079800ae0090009b
:102d4c0000102000808f5000060036002e409000ae
:102d5c00e34f500003003200d00f20009a07070009
:102d6c002c0037002e4090000080fb00e30f500039
:102d7c001b003200e30f500007003c00e10f500035
:102d8c0013003200e10f50000f003c000000e00087
:102d9c00110032001d003700e90f50001200320004
:102dac00e90f500003003c00e80f50001100320006
:102dbc0016003700ea0f500010003200eb0f5000e5
:102dcc001000320011003700adf907001100370078
:102ddc0006fd07000f003700360807000d0037000e
:102dec0011f807000b0037004c0607000000eb0041
:102dfc0008003700fffa0700060037003705070008
:102e0c00040037005808070002003700f00f2000bc
:102e1c006d0707004f0478000080fa0000000600e0
:020000040000fa
:102e2c000c00fa00500798000040eb001047980087
:102e3c000040eb00004f7800430037001e80fb0081
:102e4c00c200dd006002210000804000100078000c
:102e5c002047980066004700800078002e409000c4
:102e6c00d20407002e4090000080fb005a08070097
:102e7c00200798002e009000610060000040780050
:102e8c000004e0002f0032004e009000100078008b
:102e9c000000e000300032004e009000100078007e
:102eac00de009000abf807002e409000b908070038
:102ebc001e80fb009e80fb00c208dd000181e80043
:102ecc006102210081004100914078008140e800be
:102edc004201dd0080022100000041000148780021
:102eec001e80fb004200dd008080e80060022100b3
:102efc0000804000904078007e40900080cf5000d1
:102f0c00060039001e80fb00c200dd00800221009b
:102f1c00008040008040eb00014878002e009000bb
:102f2c00680060000000e000030032002e409000ba
:102f3c000080fb008c08070010c0b30010479800fd
:102f4c00060037001e4fe8001e4078000004e00029
:102f5c00baff320001003700000000001e40900054
:082f6c000080fa0000000600dd
:020000040000fa
:102f74000000fa00a1d18000f0ff2000808f5000f3
:102f840017003e00e02628001040780080c0e900c9
:102f940060a3210001487800a0d180004800de0031
:102fa40000407800804078000144a00020a821005f
:102fb40001487800a0d180008040780030a821002a
:102fc4000148780060a32100104078000081fb00d4
:102fd40081d1800040a8210008090700260037009d
:102fe400e026280010407800e640500060a321004d
:102ff4000148780020a8210001c1b30001487800ed
:1030040030a821008040eb0001487800a0d1800066
:103014008000eb004808de008040780040a82100d2
:1030240001487800a0d180008000eb004008de0059
:103034008040780050a8210001487800a0d1800089
:103044004800de008040780060a821000148780034
:10305400a0d180008040780070a821000148780049
:1030640060a32100104078000081fb0081d1800022
:1030740080a82100e1080700e0262800104078001d
:1030840001f0b700a0a3210011c0b30001487800eb
:1030940080a321008040eb000148780077070700f7
:0830a4000080fa0000000600a4
:020000040000fa
:1030ac000000fa00b50607000000e000080032003e
:1030bc00e20f50003e003a00608080000000e0000b
:1030cc003d003a0010002000fa0707003f003700cf
:1030dc00a1d1800060a32100104078000080fb008b
:1030ec0000805000a0d1880091d1800060a3210005
:1030fc00104078000080fb000080400090d18800d8
:10310c00a0d180000000e00003003a000000eb00ba
:10311c00e80707002d0037001000200070d1880050
:10312c0090a32100104078002a05070050808800e9
:10313c0080a32100104078008040e80080a321008b
:10314c000148780080a3210010407800f04f500017
:10315c0003003a0080a321008040eb000148780076
:10316c00a0a32100104078000004e00014003200fd
:10317c00e0a32100104078008040e800e0a321008b
:10318c0001487800e0a3210090407800a0a3210022
:10319c001040780080cf50000b003900903e20008a
:1031ac00808088003000200070d188000700370034
:1031bc00000000000500370000000000030037008d
:1031cc000000000001003700000000000080fa0041
:0431dc0000000600e9
:020000040000fa
:1031e0000600fa00889fbe00008fbe0022079800ec
:1031f0001e00be00dafa07008000eb002e019000ee
:103200000089be002e0090001004be0022002000a5
:10321000030020003e004100ae804900d0fa0700c4
:103220008000eb00c000dd0000002000080040002e
:10323000898048002e0190000089be0042002000d5
:10324000030020003e004100ae804900c4fa0700a0
:103250008000eb002e0190002001980031019800c1
:103260002e00900020049000b00490006200200026
:10327000030020003e004100ae804900b8fa07007c
:103280008000eb00c000dd000000200008004000ce
:10329000898048002e01900020019800310198009b
:1032a00082002000030020003e004100ae80490063
:1032b000abfa07008000eb002e019000400198005f
:1032c000510198002e00900040049000d00490001e
:1032d000a2002000030020003e004100ae80490013
:1032e0009ffa07008000eb00c000dd000000200016
:1032f00008004000898048002e019000400198009d
:10330000510198004f04be000080fa000000060042
:020000040000fa
:103310000c00fa0040079800510798004e009000fa
:1033200000407800e4004700a30307000000eb0022
:10333000000f780024080700100798005e00900036
:10334000a000900000082000008060000000e00065
:1033500009003200012e8000000021000080600082
:103360000000e00003003a001e009000e60f50004d
:1033700001003a001e10a0001e009000e60f500051
:10338000060032005e009000a000900000042000c3
:10339000008060000000e00008003a005e0090003d
:1033a0002000900052800a00000000000080fb0016
:1033b000e80f5000010034001e00a0005e009000e5
:1033c0002000900052800a00000000000080fb00f6
:1033d000e8070700ce409000814f50000100360002
:1033e0001e00a0001e0078000000e00011003a005e
:1033f0004e009000d0060700e10f50000b003a008d
:103400003e009000100078000000e000090032004b
:103410003e00900010007800de00900014fc0700d1
:103420004e009000fd060700020037009e00780065
:10343000638f70001e0078000080fa000000060014
:020000040000fa
:103440000000fa00062eef00222eef000080200080
:10345000f07188005a2eef00762eef00f001200068
:1034600010708800d0ff2b00f0708800f07f2f00d4
:10347000d0718800d0f52f00b0728800c0ff2f00f7
:10348000907388000c2eef00282eef00442eef00e2
:10349000602eef007c2eef000a2eef00262eef00ac
:1034a000422eef005e2eef007a2eef00082eef0086
:1034b000242eef00402eef005c2eef00782eef0060
:1034c000f00120000070880070382000e070880053
:1034d000f00c2000c071880000c02700a072880096
:1034e00000042000807388000000eb0051052000dc
:1034f000b1468800a10a2000b14688000068880013
:10350000d16c8000f00f2c00008060000080a000d3
:10351000d06c880000c4b30038edb700a0c3b3007e
:1035200028edb700016d8000f00f2c008080600056
:103530000050210001007000006d88000080200014
:1035400051052000b1468800a10a2000b14688003c
:0c355000006888000080fa0000000600ff
:020000040000fa
:10355c000000fa0020a4210010407800ef40600029
:10356c0020002100414098002000210011c0b30030
:10357c00014878002000210031a42100110098009e
:10358c0020002100c040900030a2210010407800a3
:10359c0080cf500003003200200021008040eb005f
:1035ac000148780000d0bf008040e90020002100d5
:1035bc0011409800e1d080002000210010409000c4
:1035cc000080fb00008040006101b800f0d080005a
:1035dc0001d18000800f5100818f590015003900f6
:1035ec0020a221009040780000d0bf0080cf500076
:1035fc0004003100200021008040eb0001487800dd
:10360c00180037002000210011c0b3005140980071
:10361c00f0d0800001d1800080407800e0d08000a4
:10362c000040780080c0500020002100114098001c
:10363c000c00370020a221009040780000d0bf0081
:10364c0080cf500004003200200021008040eb00ad
:10365c000148780003003700200021008040eb0077
:0c366c00514098000080fa0000000600a9
:020000040000fa
:103678003a18000000010000800000003610000029
:1036880000040000800000002a1000000200000072
:10369800800000002c1000000200000082000000e2
:1036a8000100000036140000040200008000000041
:1036b8002e1000000200000080000000221b000005
:1036c8000400000082000000ffffff00ff00000070
:1036d800021b0000200000008000000030100000e5
:1036e8000200000082000000ffff00003a190000fd
:1036f80002000000800000003210000002000000fc
:1037080080000000c21a0000400000008000000095
:103718003c190000d80000008000000026100000be
:103728000400000082000000020000000000000009
:10373800141a0000ae000000800000000010000015
:1037480016000000800000001610000010000000a5
:10375800800000003a16000000020000800000000f
:10376800341000000200000080000000000000008b
:020000040000fa
:103778000000fa0077ff07002000210010407800c1
:103788000004e0002b00320050a221001040780015
:103798000004e0001000320090a2210010407800e0
:1037a8008040e80090a221000148780090a2210002
:1037b8009040780050a221001040780080cf50003f
:1037c80005003a0060a1210011c0b300014878004b
:1037d80010c0b300ab060700200507002000210039
:1037e800504090000004e000050032000000eb00ab
:1037f800d004070020002000a0d088001700370060
:1038080030a22100104078008040e80030a221005a
:103818000148780030a2210010407800ef4f500096
:103828000e00360030a221008040eb0001487800ed
:103838000a00370020002100c040900030a221007b
:103848001040780080cf50000400320020c0b30040
:103858008c06070040002000b60407000080fa002c
:043868000000060056
:020000040000fa
:10386c000000fa0070a22100104078000004e00073
:10387c001f00320060a2210010407800ef40600071
:10388c0000c3b30080c0700020a82100014878005c
:10389c0050a221009040780030a821000148780007
:1038ac0040a221009040780040a8210001487800f7
:1038bc0034c0b30023a821000041eb00200a2000f3
:1038cc0001002000210007000004e0000800320085
:1038dc0070a221008040eb000148780080a22100fa
:1038ec0011c0b30001487800903e20007080880021
:1038fc0080a22100104078000004e000110032008a
:10390c009e0407000000e00006003a0080a221009f
:10391c008040eb0001487800903e200090808800a9
:10392c0008003700708080000000e00005003a00bd
:10393c0080a221008040eb0001487800100020009c
:0c394c007b0407000080fa000000060069
:020000040000fa
:103958000a00fa00008fbe0042479800330798001b
:10396800044f9800e00121003e1878002e107800de
:10397800e0012100be00900031009800e001210024
:10398800a00090000170a000210098000e4890004f
:10399800dd01070000407800ef406000e0012100f1
:1039a8008180fb00ef806000c208dd00a00190006c
:1039b80032fc2f0002816100828070002100980093
:1039c800e0012100a00090000160a0002100980003
:1039d800e0012100a00090000110a1002100980042
:1039e8004e4090000004e00005003200e001210094
:1039f800a00090000100a0002100980004003700fa
:103a0800e0012100a00090000100a1002100980021
:103a1800e1012100100020003bfe070000f0a70094
:103a28000000ea000000e9004f00de0000407800d6
:083a38000080fa000000060006
:020000040000fa
:103a40000000fa0010002300307c8800400b2000aa
:103a5000407c88008c2fef0010042000507c8800f0
:103a600010102800707c8800d0072000807c88001f
:103a700010022000907c880080202800d07c8800e4
:103a8000b82fef00ba2fef00be2fef00002def0090
:103a9000a42fef00a62fef00a82fef00aa2fef0012
:103aa000ae2fef00b02fef00b22fef00120020007a
:103ab00080072000a109200053f8200080497800e9
:103ac00081497800824978001200200060042000bb
:103ad0007105200043f82000804978008149780072
:103ae0008249780000000000207c800061006000b6
:103af0000000e000fcff3a0000000000217c800094
:103b000000022000008060000000e000fbff3200a7
:083b10000080fa00000006002d
:020000040000fa
:103b18000000fa002000210011c0b300014878001d
:103b280000d0bf00e84f50001b003e0020a4210039
:103b380010407800ef4060002000210011409800fc
:103b48002000210031a4210011009800200021004c
:103b5800104090000004e00003003a00200021001b
:103b68008040eb00014878002000210010409000c0
:103b78008080fb0000d0bf000080fb000000e9004f
:103b8800808f500014003600200021008040eb0098
:103b980001487800100037002000210041a42100ce
:103ba8001100980030a421009040780020002100e6
:103bb8001140980020a42100104078000080fb00ec
:103bc8006f0060000000e0000300320020002100c8
:103bd8008040eb00014878000080fa0000000600f1
:020000040000fa
:103be8000400fa0020479800ae40900000c3b300dc
:103bf80080cf50000300360000c4b300004f7800a7
:103c080027003700ae40900000c2b30080cf5000bc
:103c18000300360000c3b300004f780020003700cf
:103c28002e409000f84f50000300360000c2b30049
:103c3800004f78001a0037002e409000f44f5000d3
:103c48000300360080c1b300004f7800140037002d
:103c58002e409000f04f50000300360040c1b300e2
:103c6800004f78000e0037002e409000ec4f5000b7
:103c78000300360000c1b300004f78000800370089
:103c88002e409000e84f500003003600c0c0b3003b
:103c9800004f780002003700ae409000014f7800d6
:0c3ca8001e4078000080fa0000000600ba
:020000040000fa
:103cb4000000fa00a0a321008040eb000148780036
:103cc40090a321008040eb0001487800020420000a
:103cd400c10c200020a82100cf050700a0d180003e
:103ce400e70f50000d003e00a2d1800081d180007a
:103cf40030a82100c1050700a0d1800080407800d1
:103d040020a8210001487800a0d18000004078005c
:103d14000040e80001f0b70010003700a2d1800095
:103d240081d1800040a82100b405070020a821000b
:103d34008040eb0001487800a0d1800080407800ea
:103d440030a8210001487800a0d18000004078000c
:103d540000c0e800a3ff070001f0b700a0d1800075
:103d64008040780060a321000148780043040700e4
:083d74000080fa0000000600c7
:020000040000fa
:103d7c000000fa0070d18000e10f50001b003200ef
:103d8c00e10f500025003900e20f50000300320013
:103d9c00e30f50000300320023003700c0fc070083
:103dac0021003700f0a32100104078000004e0004f
:103dbc0008003200ee03070090a3210010407800a9
:103dcc0004020700508088001000200070d1880089
:103ddc0015003700808080000000e00011003a00e0
:103dec0020002000b30407000f00370090d18000a2
:103dfc000000e00007003a00cc0307000004e000dc
:103e0c0002003200a8ff07000700370056fc07002d
:103e1c0005003700350007000300370000000000e4
:103e2c0001003700000000000080fa0000000600ce
:020000040000fa
:103e3c000400fa00100798000000eb00000f780057
:103e4c005e050700e40f5000060032001e009000d3
:103e5c00e10f5000030032001e009000e40f5000f0
:103e6c001d003a001e009000004078006740600082
:103e7c000080fb00670060004800dd00122e80000f
:103e8c00f18f2f008100610001007000102e88005e
:103e9c0009003700e12e8000000021000080600046
:103eac000000e0000400320020002000000f780029
:103ebc00000000000a003700102e800075800a00f8
:103ecc00000000008080fb001e009000808f5000de
:103edc00f0ff3a000200370010002000000f7800bd
:0c3eec001e0078000080fa0000000600b4
:020000040000fa
:103ef8000000fa00508080000000e00029003a002d
:103f080002042000c10c200020a821004105070060
:103f1800a1d18000e0262800104078000080fb0036
:103f28000000e900808f500005003e00a0d180000d
:103f38008040780060a32100014878000500370020
:103f4800e0262800104078008040e90060a32100a6
:103f58000148780060a32100104078000040e80084
:103f68001fff070001f0b70080a321001040780070
:103f7800804078000154a00020a821000148780062
:103f880060a32100104078000081fb0081d18000ef
:103f980090d180008080400030a8210016050700dd
:0c3fa800b50307000080fa0000000600ce
:020000040000fa
:103fb4000000fa000000eb00e0d088006000b800c8
:103fc400f0d0880001d188000070ef0070a22100b9
:103fd4008040eb000148780090a221008040eb0073
:103fe4000148780050a221008040eb00014878008d
:103ff40040a2210011c0b3000148780060a2210052
:1040040011c0b30001487800a0a221008040eb0059
:104014000148780050a2210090407800b0a221000d
:104024000148780040a2210090407800c0a22100fd
:10403400014878000000eb00a0d0880060a12100b6
:104044008040eb00014878000000eb00c0d08800fd
:104054001430ef000000eb0070d188000080fa00fb
:044064000000060052
:020000040000fa
:104068000000fa00620407000004a2000004e00057
:1040780023003200c0d080000000e00020003200a1
:104088000100210020a42100180107000004a2005b
:104098000004e00008003200020307000004e0000a
:1040a800170032000000eb00a0d08800300020008c
:1040b800a00207001200370084040700e10f500037
:1040c80009003200e10f500005003900e20f5000ee
:1040d80007003200e30f50000700320008003700e5
:1040e8000402070006003700a1fa070004003700a1
:1040f8009ffd070002003700dc00070000000000f9
:084108000080fa00000006002f
:020000040000fa
:104110000200fa00004f78001e407800e84f50007f
:1041200002003e001e80fb00210037001e40780088
:10413000ec4f500002003e00900020001c003700b1
:104140001e407800f04f500002003e00a00020000a
:10415000170037001e407800f44f500002003e0068
:10416000b0002000120037001e407800f84f5000c9
:1041700002003e00c00020000d00370000c2b30066
:104180009e40780080cf500002003e00d00020000a
:104190000700370000c3b3009e40780080cf500076
:1041a00002003e00e000200001003700f000200087
:0841b0000080fa000000060087
:020000040000fa
:1041b8000400fa00004f7800110798001e80fb00e9
:1041c800e10f500003003200e20f50000b003200f4
:1041d800140037001e009000416220001100980072
:1041e8001e00900001c4b300014878001e00900032
:1041f80011c0b30011409800140037001e00900051
:1042080001632000110098001e00900001c4b30053
:10421800014878001e00900021c0b30011409800aa
:104228000a0037001e0090008000eb001100980083
:104238001e0090008040eb00014878001e009000ae
:104248008040eb0011409800000000000080fa0058
:04425800000006005c
:020000040000fa
:10425c006fb221000eff27000e0188000000200025
:10426c000000e00002003200000120002002880063
:10427c0014000700a50407000000e00003003a004a
:10428c00c0b3210001002000020037000000200014
:10429c0001002000810f70004220ae002bf70700b8
:1042ac00000020000000e0004220ae0000000200f0
:1042bc000000000046280200000000000040da0068
:1042cc000000fe00000720000000e00002003200a9
:0c42dc0000202000900188000000060077
:020000040000fa
:1042e8000e00fa00b10020000e0078009d000700c3
:1042f8000000eb0012f507000004a2000004e00033
:1043080003003200c0cfb300304f980002003700de
:1043180010c0b300304f98009e007800f00f2000c6
:1043280000806000000f78009e00900000f02f00d1
:104338000080600010079800c10020000e0078007f
:10434800270107003e489000e14f500002003a0064
:104358000000eb0001003700300020000080fa0068
:04436800000006004b
:020000040000fa
:10436c000000fa002ad0bf000004a2000004e00004
:10437c0019003200710307000004e0000300320052
:10438c0010c0b3002af0b700130037002cd0bf00c8
:10439c000004e000030032000000eb00e7f407002b
:1043ac002bf0b7002bd0bf000004a2000004e000eb
:1043bc000200320010c0b3002af0b7002ad0bf00b0
:1043cc000004a2000004e0000300320039040700de
:1043dc00160407008f0307003dfa07000080fa005f
:0443ec0000000600c7
:020000040000fa
:1043f0000000fa00508080000000e000030032005e
:10440000508080000000e9005080880060808000bb
:104410000000e00003003200608080000000e9003e
:1044200060808800708080000000e000030032009f
:10443000708080000000e90070808800808080002b
:104440000000e00003003200808080000000e900ee
:1044500080808800908080000000e000030032002f
:10446000908080000000e900908088000080fa00c1
:044470000000060042
:020000040000fa
:104474000200fa0020a42100104078006f4f600071
:104484001e80fb00e10f500014003200e20f5000c8
:104494000e0032000000e00012003a0030a42100b7
:1044a4009040780000a421000148780040a4210035
:1044b4009040780010a4210001487800f0a3210066
:1044c40011c0b300014878000700370080002000c5
:1044d400fa0207000000000003003700000000009b
:1044e40001003700000000000080fa000000060010
:020000040000fa
:1044f4000400fa00000f7800110798003af9070049
:104504000004e00002003a000040eb001400370011
:104514006001210044fa070060012100200090009e
:1045240052800a00000000000080fb00ac0307007a
:104534009e009000804878001e0090001040780093
:104544008080fb00600121003000900001017800b0
:10455400800078001e007800a803070010c0b30094
:084564000080fa0000000600cf
:020000040000fa
:10456c000600fa0010079800210798005d0107006b
:10457c00000f78002e0090009e007800808f500075
:10458c0002003600ae009000010f78001e0178008a
:10459c00614321001e00900096030700b0a9800023
:1045ac009e005000604321001e0040000101780075
:1045bc0080007800604321008e030700b0a98000c2
:1045cc001e005000b0a988001e0078000080fa0080
:0445dc0000000600d5
:020000040000fa
:1045e0000400fa00204798000000eb00000f78005c
:1045f0002e4090000004e000040035002e409000a2
:104600000080fb00000f78000b0037002e40900068
:10461000f04f4000060036002e409000e74f40006b
:1046200003003e0010002000000f78000200370059
:10463000f0072000000f78001e0078000000e00066
:10464000010032001e0fe8001e0078000080fa0012
:044650000000060060
:020000040000fa
:104654003600f800809fbe00829fbe00849fbe008b
:10466400869fbe000000fa00908180000000e000f8
:10467400020032009081800000000100b09321000c
:10468400104078008040e800b09321000148780091
:10469400a093210011c0b300014878000028a900ac
:1046a4000080fa004f03be004f02be004f01be005f
:0c46b4004f00be003600f9000040060078
:020000040000fa
:1046c0000000fa004aff0700a181800010c0b3007b
:1046d000321f2000828f500001003e000040eb009e
:1046e0008100e800a18188000004e0000c00320095
:1046f0003430ef00b073800000800a00000000003a
:104700000004a200614060000080fb0061006000c6
:10471000b17380000100a10001007000b073880037
:084720000080fa000000060011
:020000040000fa
:104728000c00fa00802128008e007800b01878006c
:10473800a0107800e480400064004000b0187800c1
:10474800a0107800e480400064004000b0187800b1
:10475800a0107800e480400064004000b100200010
:10476800a08321007fff0700c10020000e00780011
:104778001b000700550307000080fa000000060030
:020000040000fa
:104788000000fa0000082000c01188003a22ef005b
:104798003c22ef0020022000f011880070922000d7
:1047a800001288004222ef004c22ef004e22ef0058
:1047b8005022ef005222ef005422ef005622ef0061
:1047c8005822ef005a22ef005c22ef0039e2a800dd
:1047d80038a2a8003882a8000080fa00000006006d
:020000040000fa
:1047e8000600fa0010079800210798001e009000a4
:1047f8000000e0000f003200ae0090000010200022
:10480800808f50000b003e002e0190009e0090000b
:1048180080532100f8020700ae009000c1b1880063
:10482800c0b180008000780080532100710007002b
:0c483800004f78000080fa00000006002d
:020000040000fa
:104844000000fa00c1e5a80000402000102e8800f6
:104854004000200078fd07000000e0000d003a0051
:10486400c09321006030880000762800002e880064
:10487400c265a900c285a9009f010700c302070001
:10488400c90207006d0107005c0107000000eb008e
:0c48940069fd07000080fa00000006002b
:020000040000fa
:1048a0000400fa001007980053020700004f780038
:1048b0001e4078000004e0000d0032001e00900051
:1048c0000000e00008003200f0d0800001d180003c
:1048d00080007800c0d0800001017800800078005e
:1048e0001e009000c60207000000eb00a0d0880068
:0c48f0001e4078000080fa000000060066
:020000040000fa
:1048fc000000fa0085fc0700200021001040780021
:10490c000004e0000e003200880207000000eb00fb
:10491c00e0d08800d000070020002100104090005b
:10492c000080fb008000eb00f0d0880001d18800f3
:10493c000000eb007e00070020002000a0d08800c3
:08494c000080fa0000000600e3
:020000040000fa
:104954000800fa00008fbe00220798003307980071
:104964001e00be00390007000004e0000900320008
:104974002e009000be00900062005000e0805800bd
:10498400320007000004e0000200320010002000a2
:10499400010037000000eb00004078000080fa00be
:0449a4000000060009
:020000040000fa
:1049a8003600f800809fbe00829fbe00849fbe0034
:1049b800869fbe000000fa00e12e8000000024005f
:1049c800008060000000e00002003200ca02070018
:1049d800ddc5a9000328a9000080fa004f03be0026
:1049e8004f02be004f01be004f00be003600f90066
:0449f8000040060075
:020000040000fa
:1049fc000600fa0010079800210798000040eb0011
:104a0c00004f780070d180000000e0000a003a00ee
:104a1c000000eb0090d188009e00900081d18800ae
:104a2c00ae009000a1d188001000200070d1880049
:104a3c0010c0b300004f78001e4078000080fa00d0
:044a4c000000060060
:020000040000fa
:104a50000400fa00008fbe00f0ff240001002000d7
:104a60001e01be00800f5100818f590008003600e2
:104a7000e07f2700510020001e01be00800f510082
:104a8000818f590002003e00100020000100370015
:104a90000000eb00004078000080fa0000000600f3
:020000040000fa
:104aa0000a00fa0020079800320798004307980090
:104ab00000108400111084003e019000ce0190008f
:104ac000001f5100019759002e009000c200dd0028
:104ad00000202800008040001000be003e01400081
:104ae000ae8148000200be000080fa00000006000f
:020000040000fa
:104af0000000fa002ed0bf000004a2000004e00075
:104b000001003200cf010700bb0107000004e000f4
:104b100007003200b0a980000000e00004003a0065
:104b2000aa010700b0a98800604321005cff0700cc
:0c4b3000b0a980000080fa000000060020
:020000040000fa
:104b3c000a00fa00400798004e0090000000e000c8
:104b4c0006003a00c0d08000000f7800e0d0800052
:104b5c008000eb001007980021079800ce00900011
:104b6c00310798000e0178008000eb002000200037
:0c4b7c00350107000080fa000000060070
:020000040000fa
:104b88000200fa0010002000000f7800100020003a
:104b9800e70007000000e00005003200e10f5000c8
:104ba80006003a000000eb00000f78000400370010
:104bb80020002000000f78000100370000000000ee
:0c4bc8001e0078000080fa0000000600cb
:020000040000fa
:104bd4000e00fa0060079800b1002000a0832100b5
:104be40061fe0700b2002000a18321000e007800be
:104bf400020207006e00900000407800304f9800d9
:104c0400c10020000e007800f6fe070030002000ee
:084c14000080fa000000060018
:020000040000fa
:104c1c000000fa000421ef00f01520004008880085
:104c2c000003280000088800908180000000e0004c
:104c3c0002003a0000362200b40107000028a90047
:104c4c002028a800a09321008040eb0001487800a8
:084c5c000080fa0000000600d0
:020000040000fa
:104c64000000fa0020002100104090000081fb00a9
:104c74002000210090009000c3d08000e0d080008c
:104c840000804100dd010700e1d080002000210008
:104c9400104090000080fb0000804000e0d08800bd
:084ca4000080fa000000060088
:020000040000fa
:104cac000000fa00908080000000e0000a003a004a
:104cbc00a0d080000000e0000700320080a221009c
:104ccc00104078000004a2000004e0000200320052
:104cdc0010002000010037000000eb0000407800bd
:084cec000080fa000000060040
:020000040000fa
:104cf4000400fa00100798001e009000e20f500014
:104d040006003a0060318000c8800a0000000000fc
:104d14000080fb00000f7800030037000000eb0068
:104d2400000f7800000000001e0078000080fa00e8
:044d34000000060075
:020000040000fa
:104d38000000fa00a1d18000e02628001040780089
:104d48000080fb000080e900808f500003003600df
:104d5800a0d18000e70f500002003a0010002000a8
:104d6800010037000000eb00004078000080fa00e6
:044d78000000060031
:020000040000fa
:104d7c000000fa00e0a321008040eb00014878001d
:104d8c0000a4210090407800a0a3210001487800e5
:104d9c0010a421009040780090a3210001487800d5
:104dac00f0a321008040eb00014878000080fa005d
:044dbc0000000600ed
:020000040000fa
:104dc0000400fa0010079800b1a980001e009000ae
:104dd000808f500003003e000040eb00004f780041
:104de000040037009e0090006043210000804000d6
:104df000104f78001e4078000080fa000000060086
:020000040000fa
:104e00000200fa000040eb00004f78000700370076
:104e10001e80fb00c200dd008002210000804000f7
:104e20008040eb00014878001e4fe8001e407800eb
:104e30000004e000f6ff32000080fa0000000600e7
:020000040000fa
:104e40000000fa008133800000fe2f000080600027
:104e50000010a00080338800100a20000034880071
:104e60008226ef00f07f200020348800000024001c
:104e70003034880070e6a8000080fa0000000600c8
:020000040000fa
:104e80000000fa0001d0bf000042780023a82100f2
:104e90000041eb00200a200001002000aefa0700cc
:104ea0000004e00004003200903e20006080880092
:104eb0002000200070d188000080fa000000060069
:020000040000fa
:104ec0002600fa004122280011000900311f780055
:104ed000315f78005e02b100b1002000a0832100a4
:104ee000a2fd0700510220000e0078003efe0700e0
:0c4ef0000000eb000080fa00000006004b
:020000040000fa
:104efc000000fa00f0f02000202e8800e0032000d3
:104f0c00302e880030302000402e8800e000200039
:104f1c00502e880000f02000602e88002000200019
:0c4f2c00702e88000080fa0000000600d3
:020000040000fa
:104f38000400fa00100798001e009000e10f5000ce
:104f480004003a000031800061006000000f780022
:104f5800030037000000eb00000f7800000000009d
:0c4f68001e0078000080fa000000060027
:020000040000fa
:104f74001400fa004120280009000900311f7800bc
:104f84004e01b100b1002000a083210076fd07008e
:104f9400410120000e00780012fe07000000eb0023
:084fa4000080fa000000060085
:020000040000fa
:104fac000000fa003901070022f90700cf000700c2
:104fbc00a0fa070020fe070028010700effd0700fc
:104fcc0013ff07001f01070000022000a3000700c9
:084fdc000080fa00000006004d
:020000040000fa
:104fe4000400fa00100798001e009000e20f500021
:104ff40003003a0060318000690f6000030037004d
:105004000000eb00000f7800000000001e00780094
:085014000080fa000000060014
:020000040000fa
:10501c000200fa00000f78001e007800e10f50002b
:10502c0006003a00e13080000030200001007000e2
:10503c00e030880000000000010037000000000094
:08504c000080fa0000000600dc
:020000040000fa
:105054000600fa00000f7800110798002207980054
:10506400a08080000000e00005003200a3808000e2
:105074002e0190009e0090001e00780003000100a5
:085084000080fa0000000600a4
:020000040000fa
:10508c000000fa00c6ff0700170107005aaea8007f
:10509c005aeea90023cea900c3fb07000120200073
:1050ac00a06321007f000700f2000700acfc0700a2
:0450bc00fdff3700bd
:020000040000fa
:1050c0000400fa00100798009e009000010f78007d
:1050d0000e0178008000eb0030002000ddff0700ab
:1050e0000000eb0070d188000080fa00000006008c
:020000040000fa
:1050f0000400fa00008fbe001e007800610060000e
:1051000000f0a7000000ea000000ea004f00de0007
:0c511000004078000080fa00000006005b
:020000040000fa
:10511c000200fa00004f78001e80fb006100600066
:10512c004800dd00114680000180a10001007000e4
:0c513c00104688000080fa000000060009
:020000040000fa
:105148000000fa00a17380000008200000806000c1
:1051580000f0a7000000ea000000e9004f00de00b0
:0c516800004078000080fa000000060003
:020000040000fa
:105174000200fa00000f78001e007800e20f5000d1
:1051840003003a002c66a90000000000010037006b
:0c519400000000000080fa00000006008f
:020000040000fa
:1051a0000200fa00004f78001e80fb00e20f500062
:1051b00003003a002906a8000000000001003700a3
:0c51c000000000000080fa000000060063
:020000040000fa
:1051cc000000fa00090007000004e00004003200af
:1051dc00f0d0800001d18000000078000100370081
:0c51ec000000eb000080fa00000006004c
:020000040000fa
:1051f8000000fa00a0d080000010a20000f0a70074
:105208000000ea000000e9004f00de0000407800de
:085218000080fa00000006000e
:020000040000fa
:105220000200fa0010c0b300bcff0700c0802500d8
:10523000000f78001e007800000001000080fa00d6
:045240000000060064
:020000040000fa
:105244000000fa00422020008000eb0060432100af
:105254007100070010c0b3002ef0b7000080fa0000
:045264000000060040
:020000040000fa
:105268000200fa00000f780021028000200f2000c1
:10527800008060001e007000200288000080fa0094
:04528800000006001c
:020000040000fa
:10528c000200fa00004f780060a221001e4878004e
:10529c0070a2210011c0b300014878000080fa0010
:0452ac0000000600f8
:020000040000fa
:1052b0000400fa00000f7800110798009e007800a3
:1052c000c1d088009e009000d1d088000080fa00f4
:0452d00000000600d4
:020000040000fa
:1052d4000000fa0020a42100104078000080fb00a8
:1052e4004400de00004078000080fb000080fa00eb
:0452f40000000600b0
:020000040000fa
:1052f8000000fa0001428000f0f82f0000806000f2
:105308000040a000004288000080fa00000006006b
:020000040000fa
:105318000200fa00000f78002028a9009e007800fb
:10532800918188002028a8000080fa00000006006b
:020000040000fa
:105338000000fa00a0d080000000e0000200320067
:1053480060002000fbfd07000080fa000000060056
:020000040000fa
:105358000000fa0020b0210080077800a0b12100e9
:0c536800000188000080fa000000060030
:020000040000fa
:105374000200fa00000f7800a02428001e0040005c
:0c538400104078000080fa0000000600d5
:020000040000fa
:105390000000fa0000482000e030880000042e00e1
:0c53a000f03088000080fa0000000600d9
:020000040000fa
:1053ac000000fa00004020004031880000102e0060
:0c53bc00503188000080fa00000006005c
:020000040000fa
:1053c8000000fa00102e800075800a00000000001e
:0c53d8000080fb000080fa0000000600ce
:020000040000fa
:1053e4000200fa00000f7800a02528001e004000eb
:0c53f400104078000080fa000000060065
:020000040000fa
:105400008001780002003700b15978000201e900fc
:0c5410000200e000fcff3a000000060073
:020000040000fa
:10541c008001780002003700815978000201e90010
:0c542c000200e000fcff3a000000060057
:020000040000fa
:105438000000fa00c3e8a900000000000000000016
:085448000080fa0000000600dc
:020000040000fa
:105450000000fa00c3e8a8000000000000000000ff
:085460000080fa0000000600c4
:020000040000fa
:105468000000fa00d221ef0000082800d00f8800c1
:085478000080fa0000000600ac
:020000040000fa
:105480000000fa00f8fa0700f8f807003bfa0700f6
:085490000080fa000000060094
:020000040000fa
:105498000000fa000040eb001eff07000080fa0041
:0454a80000000600fa
:020000040000fa
:1054ac000200fa00000f78009e00780081818800cd
:0454bc00ffff3700b7
:020000040000fa
:1054c0000000fa0001e1a9002028a9000080fa00ec
:0454d00000000600d2
:020000040000fa
:1054d4000000fa000000fe000080fa000000060050
:020000040000fa
:1054e4000000fa0080c0b3000080fa00000006004b
:020000040000fa
:0c54f4000000fa000080fa000000060032
:020000040000fa
:0c5500000000fa000080fa000000060025
:020000040000fa
:08550c000040da000000fe007f
:020000040000fa
:04551400ffffff0096
:020000040000fa
:04551800000005008a
:020000040000fa
:04a008002813000019
:020000040000fa
:04a00c006a130000d3
:020000040000fa
:04a01000aa1300008f
:020000040000fa
:04a0140048130000ed
:020000040000fa
:04a018008a130000a7
:020000040000fa
:04a01c00862a000090
:020000040000fa
:04a02000ca1300005f
:020000040000fa
:04a02400862a000088
:020000040000fa
:04a02800862a000084
:020000040000fa
:04a02c002a230000e3
:020000040000fa
:04a03000862a00007c
:020000040000fa
:04a03400862a000078
:020000040000fa
:04a03800862a000074
:020000040000fa
:04a03c00862a000070
:020000040000fa
:04a04000862a00006c
:020000040000fa
:04a04400862a000068
:020000040000fa
:04a04800862a000064
:020000040000fa
:04a04c00862a000060
:020000040000fa
:04a05000862a00005c
:020000040000fa
:04a05400862a000058
:020000040000fa
:04a05800862a000054
:020000040000fa
:04a05c00862a000050
:020000040000fa
:04a06000862a00004c
:020000040000fa
:04a06400862a000048
:020000040000fa
:04a06800862a000044
:020000040000fa
:04a06c00862a000040
:020000040000fa
:04a07000862a00003c
:020000040000fa
:04a07400862a000038
:020000040000fa
:04a07800862a000034
:020000040000fa
:04a07c00862a000030
:020000040000fa
:04a08000862a00002c
:020000040000fa
:04a08400862a000028
:020000040000fa
:04a08800862a000024
:020000040000fa
:04a08c00d4240000d8
:020000040000fa
:04a09000862a00001c
:020000040000fa
:04a09400862a000018
:020000040000fa
:04a09800862a000014
:020000040000fa
:04a09c00862a000010
:020000040000fa
:04a0a000862a00000c
:020000040000fa
:04a0a400862a000008
:020000040000fa
:04a0a800862a000004
:020000040000fa
:04a0ac00862a000000
:020000040000fa
:04a0b000862a0000fc
:020000040000fa
:04a0b400862a0000f8
:020000040000fa
:04a0b800862a0000f4
:020000040000fa
:04a0bc00862a0000f0
:020000040000fa
:04a0c000862a0000ec
:020000040000fa
:04a0c400862a0000e8
:020000040000fa
:04a0c800862a0000e4
:020000040000fa
:04a0cc00862a0000e0
:020000040000fa
:04a0d000862a0000dc
:020000040000fa
:04a0d400862a0000d8
:020000040000fa
:04a0d800862a0000d4
:020000040000fa
:04a0dc00862a0000d0
:020000040000fa
:04a0e000862a0000cc
:020000040000fa
:04a0e400862a0000c8
:020000040000fa
:04a0e800862a0000c4
:020000040000fa
:04a0ec00862a0000c0
:020000040000fa
:04a0f000862a0000bc
:020000040000fa
:04a0f400862a0000b8
:020000040000fa
:04a0f800862a0000b4
:020000040000fa
:04a0fc00862a0000b0
:020000040000fa
:04a10000862a0000ab
:020000040000fa
:04a10400862a0000a7
:020000040000fa
:04a10800862a0000a3
:020000040000fa
:04a10c00862a00009f
:020000040000fa
:04a11000862a00009b
:020000040000fa
:04a11400862a000097
:020000040000fa
:04a11800862a000093
:020000040000fa
:04a11c00862a00008f
:020000040000fa
:04a12000862a00008b
:020000040000fa
:04a12400862a000087
:020000040000fa
:04a12800862a000083
:020000040000fa
:04a12c00862a00007f
:020000040000fa
:04a13000862a00007b
:020000040000fa
:04a13400862a000077
:020000040000fa
:04a13800862a000073
:020000040000fa
:04a13c00862a00006f
:020000040000fa
:04a14000862a00006b
:020000040000fa
:04a14400862a000067
:020000040000fa
:04a14800862a000063
:020000040000fa
:04a14c00862a00005f
:020000040000fa
:04a15000862a00005b
:020000040000fa
:04a15400862a000057
:020000040000fa
:04a15800862a000053
:020000040000fa
:04a15c00862a00004f
:020000040000fa
:04a16000862a00004b
:020000040000fa
:04a16400862a000047
:020000040000fa
:04a16800862a000043
:020000040000fa
:04a16c00862a00003f
:020000040000fa
:04a17000862a00003b
:020000040000fa
:04a17400862a000037
:020000040000fa
:04a17800862a000033
:020000040000fa
:04a17c00862a00002f
:020000040000fa
:04a18000862a00002b
:020000040000fa
:04a18400862a000027
:020000040000fa
:04a18800862a000023
:020000040000fa
:04a18c00862a00001f
:020000040000fa
:04a19000862a00001b
:020000040000fa
:04a19400862a000017
:020000040000fa
:04a19800862a000013
:020000040000fa
:04a19c00862a00000f
:020000040000fa
:04a1a000862a00000b
:020000040000fa
:04a1a400862a000007
:020000040000fa
:04a1a800862a000003
:020000040000fa
:04a1ac00862a0000ff
:020000040000fa
:04a1b000862a0000fb
:020000040000fa
:04a1b400862a0000f7
:020000040000fa
:04a1b800862a0000f3
:020000040000fa
:04a1bc00862a0000ef
:020000040000fa
:04a1c000862a0000eb
:020000040000fa
:04a1c400862a0000e7
:020000040000fa
:04a1c800862a0000e3
:020000040000fa
:04a1cc00862a0000df
:020000040000fa
:04a1d000862a0000db
:020000040000fa
:04a1d400862a0000d7
:020000040000fa
:04a1d800862a0000d3
:020000040000fa
:04a1dc00862a0000cf
:020000040000fa
:04a1e000862a0000cb
:020000040000fa
:04a1e400862a0000c7
:020000040000fa
:04a1e800862a0000c3
:020000040000fa
:04a1ec00862a0000bf
:020000040000fa
:04a1f000862a0000bb
:020000040000fa
:04a1f400862a0000b7
:020000040000fa
:04a1f800862a0000b3
:020000040000fa
:04a1fc00862a0000af
:020000040000fa
:04a20000862a0000aa
:020000040000fa
:04a20400862a0000a6
:020000040000fa
:04a20800862a0000a2
:020000040000fa
:04a20c00862a00009e
:020000040000fa
:04a21000862a00009a
:020000040000fa
:04a21400862a000096
:020000040000fa
:04a21800862a000092
:020000040000fa
:04a21c00862a00008e
:020000040000fa
:04a22000862a00008a
:020000040000fa
:04a22400862a000086
:020000040000fa
:04a22800862a000082
:020000040000fa
:04a22c00862a00007e
:020000040000fa
:04a23000862a00007a
:020000040000fa
:04a23400862a000076
:020000040000fa
:04a23800862a000072
:020000040000fa
:04a23c00862a00006e
:020000040000fa
:04a24000862a00006a
:020000040000fa
:04a24400862a000066
:020000040000fa
:04a24800862a000062
:020000040000fa
:04a24c00862a00005e
:020000040000fa
:04a25000862a00005a
:020000040000fa
:04a25400862a000056
:020000040000fa
:04a25800862a000052
:020000040000fa
:04a25c00862a00004e
:020000040000fa
:04a26000862a00004a
:020000040000fa
:04a26400862a000046
:020000040000fa
:04a26800862a000042
:020000040000fa
:04a26c00862a00003e
:020000040000fa
:04a27000862a00003a
:020000040000fa
:04a27400862a000036
:020000040000fa
:04a27800862a000032
:020000040000fa
:04a27c00862a00002e
:020000040000fa
:04a28000862a00002a
:020000040000fa
:04a28400862a000026
:020000040000fa
:04a28800862a000022
:020000040000fa
:04a28c00862a00001e
:020000040000fa
:04a29000862a00001a
:020000040000fa
:04a29400862a000016
:020000040000fa
:04a29800862a000012
:020000040000fa
:04a29c00862a00000e
:020000040000fa
:04a2a000862a00000a
:020000040000fa
:04a2a400862a000006
:020000040000fa
:04a2a800862a000002
:020000040000fa
:04a2ac00862a0000fe
:020000040000fa
:04a2b000862a0000fa
:020000040000fa
:04a2b400862a0000f6
:020000040000fa
:04a2b800862a0000f2
:020000040000fa
:04a2bc00862a0000ee
:020000040000fa
:04a2c000862a0000ea
:020000040000fa
:04a2c400862a0000e6
:020000040000fa
:04a2c800862a0000e2
:020000040000fa
:04a2cc00862a0000de
:020000040000fa
:04a2d000862a0000da
:020000040000fa
:04a2d400862a0000d6
:020000040000fa
:04a2d800862a0000d2
:020000040000fa
:04a2dc00862a0000ce
:020000040000fa
:04a2e000862a0000ca
:020000040000fa
:04a2e400862a0000c6
:020000040000fa
:04a2e800862a0000c2
:020000040000fa
:04a2ec00862a0000be
:020000040000fa
:04a2f000862a0000ba
:020000040000fa
:04a2f400862a0000b6
:020000040000fa
:04a2f800862a0000b2
:020000040000fa
:04a2fc00862a0000ae
:020000040000fa
:04a30000862a0000a9
:020000040000fa
:04a30400862a0000a5
:020000040000fa
:04a30800862a0000a1
:020000040000fa
:04a30c00862a00009d
:020000040000fa
:04a31000862a000099
:020000040000fa
:04a31400862a000095
:020000040000fa
:04a31800862a000091
:020000040000fa
:04a31c00862a00008d
:020000040000fa
:04a32000862a000089
:020000040000fa
:02000004000af0
:04fe0000f67eff008b
:020000040000fa
:02000004000af0
:04fe2000f4ffff00ec
:020000040000fa
:02000004000af0
:04fe300078ffff0058
:020000040000fa
:02000004000af0
:04fe38007bffff004d
:020000040000fa
:02000004000af0
:04fe40006003ff005c
:020000040000fa
:02000004000af0
:04fe4800ffffff00b9
:020000040000fa
:02000004000af0
:04fe5000deffff00d2
:020000040000fa
:02000004000af0
:04fe58000000ff00a7
:020000040000fa
:02000004000af0
:04fe60000000ff009f
:020000040000fa
:02000004000af0
:04fe68000000ff0097
:020000040000fa
:02000004000af0
:04fe70000000ff008f
:020000040000fa
:02000004000af0
:04fe7800ffffff0089
:020000040000fa
:02000004000af0
:04fe8000fffcff0084
:020000040000fa
:02000004000af0
:04fe8800ffffff0079
:020000040000fa
:02000004000af0
:04fe9000ffffff0071
:020000040000fa
:02000004000af0
:04fe9800ffffff0069
:020000040000fa
:02000004000af0
:04fea000ffffff0061
:020000040000fa
:02000004000af0
:04fea800ffffff0059
:020000040000fa
:02000004000af0
:04feb000ffffff0051
:020000040000fa
:02000004000af0
:04fec000ffffff0041
:020000040000fa
:02000004000af0
:04fed000ffffff0031
:020000040000fa
:02000004000af0
:04fee000ffffff0021
:020000040000fa
:02000004000af0
:04fef000fdffff0013
:020000040000fa
:02000004000af0
:04ff0000ffffff0000
:020000040000fa
:02000004000af0
:04ff08007bffff007c
:020000040000fa
:02000004000af0
:04ff1000f453ff00a7
:020000040000fa
:02000004000af0
:04ff1800ffffff00e8
:020000040000fa
:02000004000af0
:04ff2000feffff00e1
:020000040000fa
:02000004000af0
:04ff2800ffffff00d8
:020000040000fa
:02000004000af0
:04ff3000ffffff00d0
:020000040000fa
:02000004000af0
:04ff38000000ff00c6
:020000040000fa
:02000004000af0
:04ff40000000ff00be
:020000040000fa
:02000004000af0
:04ff48000000ff00b6
:020000040000fa
:02000004000af0
:04ff50000000ff00ae
:020000040000fa
:02000004000af0
:04ff5800ffffff00a8
:020000040000fa
:02000004000af0
:04fff800ffffff0008
:020000040000fa
:020000040100f9
:04300000ffffff00cf
:00000001FF
